S00E0000706963616C632E73726563AA
S11300000C949D010C94C7010C94C7010C94C70176
S11300100C94C7010C94C7010C94C7010C94C7013C
S11300200C94C7010C94C7010C94C7010C94C7012C
S11300300C94C7010C94C7010C94280C0C94C701B0
S11300400C94C7010C94C7010C94C7010C94C7010C
S11300500C94C7010C94C7010C94C7010C94C701FC
S11300600C94C7010C94C7010C94C7010C94C701EC
S11300700C94C7010C94C7010C94C7010C94C701DC
S11300800C94C7010C94C7010C94C7010C94C701CC
S11300900C94C7010C94C7010C94C7010C94C701BC
S11300A00C94C7010C94C7010C94C7010C94C701AC
S11300B00C94C7010C94C7010C94C7010C94C7019C
S11300C00C94C7010C94C7010C94C7010C94C7018C
S11300D00C94C7010C94C7010C94C7010C94C7017C
S11300E00C94C7010C94C7010C94C7010C94C7016C
S11300F00C94C7010C94C7010C94C7010C94C7015C
S11301000C94C7010C94C7010C94C7010C94C7014B
S11301100C94C7010C94C7010C94C7010C94C7013B
S11301200C94C7010C94C7010C94C7010C94C7012B
S11301300C94C7010C94C7010C94C7010C94C7011B
S11301400C94C7010C94C7010C94C7010C94C7010B
S11301500C94C7010C94C7010C94C7010C94C701FB
S11301600C94C7010C94C7010C94C7010C94C701EB
S11301700C94C7010C94C7010C94C7010C94C701DB
S11301800C94C7010C94C7010C94C7010C94C701CB
S11301900C94C7010C94C7010C94C7010C94C701BB
S11301A00C94C7010C94C7010C94C7010C94C701AB
S11301B00C94FD200C94C7010C94C7010C94C70146
S11301C00C94C7010C94C7010C94C7010C94C7018B
S11301D00C94C7010C94C7010C94C7010C94C7017B
S11301E00C94C7010C94C7010C94C7010C94C7016B
S11301F00C94C7010C94C7010C94C701DE1DDE1DCD
S1130200DE1D651E311E5F1EDE1DDE1D651E311ED8
S11302100C9419190C94651E0C94311E0C94060749
S11302200C945F1E0C94C01B0C9490230C944D20D2
S11302300C94DE1D0C94C0206E616E00696E660025
S113024000407A10F35A00A0724E18090010A5D489
S1130250E80000E87648170000E40B54020000CAE6
S11302609A3B000000E1F50500008096980000002C
S113027040420F000000A08601000000102700008B
S11302800000E803000000006400000000000A0011
S1130290000000000100000000002C76D888DC6714
S11302A04F0823DFC1DFAE59E1B1B796E5E3E4536C
S11302B0C63AE651997696E8E6C28426EB898C9B89
S11302C062ED407C6FFCEFBC9C9F40F2BAA56FA529
S11302D0F490055A2AF75C936B6CF9676DC11BFCAB
S11302E0E0E40D47FEF520E6B500D0ED902E0300C6
S11302F0943577050080841E080000204E0A000013
S113030000C80C333333330F986E12831141EF8DD1
S11303102114893BE65516CFFEE6DB18D1844B3811
S11303201BF77C1D901DA4BBE424203284725E2242
S11303308100C9F124ECA1E53D2711241FBECFEFB4
S1130340CDBFDFE3DEBF00E00CBFE1EDFCE28AEAF3
S113035090E48193E030F907E0F3000010E2A0E0BC
S1130360B0E2E2E2F4E600E00BBF02C007900D92B7
S1130370AA34B107D9F72CE2AAE4B0E201C01D9275
S1130380A13DB207E1F70E9410200C940F320C94A7
S11303900000CF93DF93CDB7DEB780EA96E020E18B
S11303A0FC01228380EA96E020E2FC01228380EAB9
S11303B096E020E4FC01228380EA96E020E8FC0138
S11303C022830000DF91CF910895CF93DF93CDB7BF
S11303D0DEB780EA96E0FC018085882F90E080718A
S11303E0992795958795959587959595879595954D
S11303F08795892B89F480914A2090914B208036EF
S11304009A4E20F580914A2090914B20019680933A
S11304104A2090934B201AC080914A2090914B20FF
S11304200B9768F080914A2090914B20C39718F065
S11304301092C62C07C081E08093C62C03C082E0D2
S11304408093C62C10924A2010924B2080EA96E0AA
S1130450FC018085882F90E0807299279595879577
S11304609595879595958795959587959595879570
S1130470892B89F480914C2090914D2080369A4E9E
S113048020F580914C2090914D20019680934C2032
S113049090934D201AC080914C2090914D200B9741
S11304A068F080914C2090914D20C39718F01092E1
S11304B0C72C07C081E08093C72C03C082E08093DF
S11304C0C72C10924C2010924D2080EA96E0FC013B
S11304D08085882F90E080749927082E892F000C3E
S11304E0881F990B000C881F991F892B89F4809110
S11304F04E2090914F2080369A4E20F580914E20C8
S113050090914F20019680934E2090934F201AC0D3
S113051080914E2090914F200B9768F080914E204F
S113052090914F20C39718F01092C82C07C081E017
S11305308093C82C03C082E08093C82C10924E2074
S113054010924F2080EA96E0FC01808588238CF08D
S1130550809150209091512080369A4E20F58091C0
S113056050209091512001968093502090935120D7
S11305701AC080915020909151200B9768F080917F
S1130580502090915120C39718F01092C92C07C0A5
S113059081E08093C92C03C082E08093C92C10921F
S11305A05020109251200000DF91CF910895CF93F5
S11305B0DF931F92CDB7DEB789838981882F90E0BE
S11305C08130910579F0823091051CF4892B39F042
S11305D012C08230910549F0039751F00CC080910C
S11305E0C62C0AC08091C72C07C08091C82C04C0B7
S11305F08091C92C01C082E00F90DF91CF910895C2
S11306000F93CF93DF9300D000D0CDB7DEB78C83A8
S11306109D836E838FE390E0FC0180818B83F8944B
S11306208C819D8189839A838BE390E0FC01108205
S113063089819A812E81FC0108ED04BF20838FE318
S113064090E02B81FC01208300002696CDBFDEBF05
S1130650DF91CF910F910895CF93DF9300D0CDB761
S1130660DEB789836A834B8380E590E02A81222365
S113067011F020E201C020E03981322B2B81232BA1
S1130680FC01228300002396CDBFDEBFDF91CF9112
S11306900895CF93DF931F921F92CDB7DEB789835E
S11306A06A838A818F718A8380E590E039812A8107
S11306B0232BFC01258300000F900F90DF91CF9135
S11306C00895CF93DF931F921F92CDB7DEB78A832D
S11306D080E590E020E530E0F9012081322F2A8185
S11306E020952323FC01208380E590E0FC01908188
S11306F08A818923898389810F900F90DF91CF911B
S11307000895CF93DF9300D0CDB7DEB78A836B8390
S11307109A818B81892B8983698181E490E00E948D
S1130720000300002396CDBFDEBFDF91CF91089573
S1130730CF93DF931F921F92CDB7DEB78A8380E4F5
S113074090E0FC018081982F987F8A81892B89838E
S1130750698180E490E00E94000380E490E0FC0161
S113076090818A818923898389810F900F90DF91F9
S1130770CF910895CF93DF9300D0CDB7DEB78983AF
S11307809A836B8389819A81FC018081982F907F61
S11307908B81892B282F89819A81FC012083000079
S11307A02396CDBFDEBFDF91CF910895CF93DF9322
S11307B000D0CDB7DEB789839A836B8389819A8110
S11307C0FC018181982F987F8B81892B282F898127
S11307D09A81FC01218300002396CDBFDEBFDF9107
S11307E0CF910895CF93DF9300D0CDB7DEB789833F
S11307F09A836B8389819A81FC018681982F9C7FDF
S11308008B81892B282F89819A81FC012683000002
S11308102396CDBFDEBFDF91CF910895CF93DF93B1
S113082000D01F92CDB7DEB789839A836B837C8314
S11308308BE20E94220400002496CDBFDEBFDF912C
S1130840CF910895CF93DF931F921F92CDB7DEB758
S11308508A838A818B3219F481E089830EC08A816C
S11308608C3219F482E0898308C08A818F3219F4AA
S113087083E0898302C084E089830E9445040000E8
S11308800F900F90DF91CF910895CF93DF93CDB761
S1130890DEB7000084E390E028EDFC01208388E7C4
S11308A090E021E0FC0121830000DF91CF910895C5
S11308B0CF93DF931F921F92CDB7DEB780E190E014
S11308C00E94950789839A8389819A81892B61F093
S11308D089819A81FC01108211821282138289819A
S11308E09A8104960E94E70789819A810F900F905C
S11308F0DF91CF910895CF92DF92EF92FF920F9301
S11309001F93CF93DF93CDB7DEB76D97CDBFDEBF17
S11309108A8B9B8B4C8B5D8B6E8B7F8B288F098F87
S1130920CA8EDB8EEC8EFD8E8A899B8989879A8795
S11309301D821E821F8218861B860E94321489859E
S11309409A85FC0180819181A281B3818C879D87E6
S1130950AE87BF872C893D894E895F898C859D85AB
S1130960AE85BF85098DBC01CD010E942407888B0B
S11309708889882359F18C859D85AE85BF858983B7
S11309809A83AB83BC831A8E1B8E1C8E1D8E888D1E
S1130990882309F465C089859A85FC012081318109
S11309A0428153818C899D89AE89BF8980959095B8
S11309B0A095B09582239323A423B52329853A8552
S11309C0F90180839183A283B3834AC08A8D9B8D6E
S11309D0AC8DBD8D892B8A2B8B2B59F48C859D85F1
S11309E0AE85BF8589839A83AB83BC8381E08B8783
S11309F037C0888D882349F08D819E81AF81B88569
S1130A00B1608D839E83AF83B887898D882349F035
S1130A108D819E81AF81B885B4608D839E83AF83C1
S1130A20B8872C893D894E895F898D819E81AF81EC
S1130A30B885822B932BA42BB52B29853A85F901F4
S1130A4034962A8D3B8D4C8D5D8D89019A01AC01C4
S1130A50BD01CF010E94051719821A821B821C82D4
S1130A600E943F14898B8A8D9B8DAC8DBD8D892B03
S1130A708A2B8B2B09F465C08989882311F40E9481
S1130A807E0B0E94C319DC01CB0189839A83AB835B
S1130A90BC8389819A81AB81BC8188279927AA2745
S1130AA0B270892B8A2B8B2B09F042C0F091A200E3
S1130AB0FF93F87FF093A20089859A85FC018081D9
S1130AC09181A281B38189839A83AB83BC832C896E
S1130AD03D894E895F8989819A81AB81BC81098D69
S1130AE0BC01CD010E9424078823E9F0888D882366
S1130AF0D1F089859A85FC0120813181428153811D
S1130B008C899D89AE89BF8980959095A095B09573
S1130B1082239323A423B52329853A85F90180836D
S1130B209183A283B38381E08B87FF91F093A2002A
S1130B3089819A81AB81BC81BB2789839A83AB83EA
S1130B40BC8389819A81AB81BC81BC01CD016D9646
S1130B50CDBFDEBFDF91CF911F910F91FF90EF903A
S1130B60DF90CF900895CF93DF93CDB7DEB72C9766
S1130B70CDBFDEBF8F83988749875A876B877C8771
S1130B808F81988589839A83F091A200FF93F87FDF
S1130B90F093A20089819A81FC0180819181A281D4
S1130BA0B3818B839C83AD83BE8389819A81FC014D
S1130BB0208131814281538189859A85AB85BC85A9
S1130BC080959095A095B09582239323A423B52373
S1130BD029813A81F90180839183A283B383FF91B0
S1130BE0F093A2008B819C81AD81BE81BC01CD01BB
S1130BF02C96CDBFDEBFDF91CF910895CF93DF93C5
S1130C00CDB7DEB76D97CDBFDEBF888F998F4A8F82
S1130C105B8F6C8F7D8F1B821C821D821E82888D50
S1130C20998D888799871F828885998504968A87F4
S1130C309B878A859B8503968C879D870E943214A7
S1130C408A859B85FC018781908589839A83888521
S1130C509985FC0120813181428153818A8D9B8D4C
S1130C60AC8DBD8D822B932BA42BB52B2885398578
S1130C70F90180839183A283B38395C089819A818A
S1130C80FC01848195818E879F8789819A81FC01EB
S1130C9080819181A281B381888B998BAA8BBB8B34
S1130CA01F8288899989AA89BB8988279927AA27B5
S1130CB08C8B9D8BAE8BBF8B88899989AA89BB89C4
S1130CC0BB27888B998BAA8BBB8B8C899D89AE891A
S1130CD0BF8988279927AA27B470892B8A2B8B2B45
S1130CE0B1F488859985FC01208131814281538149
S1130CF088899989AA89BB8982239323A423B5234C
S1130D00892B8A2B8B2BE9F081E08F831AC088858D
S1130D109985FC0120813181428153818889998997
S1130D20AA89BB89282339234A235B238889998983
S1130D30AA89BB89281739074A075B0711F481E0A0
S1130D408F838F81882359F18C899D89AE89BF89CE
S1130D5088279927AA27B170892B8A2B8B2B81F09E
S1130D602B813C814D815E8188899989AA89BB89BF
S1130D70822B932BA42BB52B8B839C83AD83BE83B7
S1130D8088859985FC0180819181A281B381B260BB
S1130D9029813A81AC01BD01C9010E94E0178E8509
S1130DA09F8589839A8329813A818C859D8528171B
S1130DB0390709F063CF88859985FC012081318149
S1130DC0428153818B819C81AD81BE8180959095B8
S1130DD0A095B09582239323A423B5232885398530
S1130DE0F90180839183A283B3830E943F14888591
S1130DF09985FC0180819181A281B381BC01CD01DF
S1130E006D96CDBFDEBFDF91CF910895CF93DF9371
S1130E1000D000D0CDB7DEB789839A834B835C833F
S1130E206D837E838B819C81AD81BE8129813A81D2
S1130E30AC01BD01C9010E94FE0500002696CDBF8C
S1130E40DEBFDF91CF9108950F93CF93DF93CDB79A
S1130E50DEB72A97CDBFDEBF6A837B838C839D83F5
S1130E602E833F83488759870A8719828A85882376
S1130E7099F42A813B814C815D818E819F81A88573
S1130E80B98582239323A423B523892B8A2B8B2B07
S1130E90D1F081E0898317C02A813B814C815D8137
S1130EA08E819F81A885B985282339234A235B2312
S1130EB08E819F81A885B985281739074A075B0762
S1130EC011F481E0898389812A96CDBFDEBFDF9149
S1130ED0CF910F9108950F931F93CF93DF93CDB7C5
S1130EE0DEB72997CDBFDEBF8A839B834C835D83A6
S1130EF06E837F8328873987288539858C819D81F6
S1130F00AE81BF816A817B8189019C01AD0186E04C
S1130F1097E00E946F1F898389812996CDBFDEBF28
S1130F20DF91CF911F910F910895CF93DF9300D05C
S1130F301F92CDB7DEB78B839C8319821A820E94DD
S1130F40321420910A2C30910B2C8B819C81820FBE
S1130F50931F883B9B4018F520910A2C30910B2C51
S1130F608B819C81280F391F80910A2C90910B2C26
S1130F7082179307A0F480910A2C90910B2C8E5A1F
S1130F809F4D89839A8320910A2C30910B2C8B815D
S1130F909C81820F931F80930A2C90930B2C0E94A8
S1130FA03F1489819A812496CDBFDEBFDF91CF9112
S1130FB00895CF93DF931F921F92CDB7DEB7898335
S1130FC09A8300000F900F90DF91CF910895CF93F3
S1130FD0DF931F921F92CDB7DEB789839A838981ED
S1130FE09A819C012D5F3F4F89819A81FC01218365
S1130FF0328329813A818FEF9FEFDC01F9018383EA
S11310009483A583B68389819A819C012D5F3F4F88
S113101089819A81FC012783308789819A819C0187
S11310202D5F3F4F89819A81FC0121873287898115
S11310309A81FC01108200000F900F90DF91CF91F4
S11310400895CF93DF931F921F92CDB7DEB78983A4
S11310509A8389819A81FC011286138600000F907D
S11310600F90DF91CF910895CF93DF9300D000D0FC
S1131070CDB7DEB78B839C836D837E838B819C810C
S1131080FC018181928189839A838D819E8129814A
S11310903A81FC012483358389819A81FC0126816C
S11310A037818D819E81FC012683378389819A81D2
S11310B0FC01868197812D813E81FC012483358347
S11310C089819A812D813E81FC01268337838D811C
S11310D09E812B813C81FC01228733878B819C81FB
S11310E0FC01808121E0280F8B819C81FC012083FD
S11310F000002696CDBFDEBFDF91CF910895CF9338
S1131100DF93CDB7DEB72A97CDBFDEBF8F83988735
S113111069877A8789859A85FC0180819181A2817A
S1131120B3818B839C83AD83BE838B819C81AD8192
S1131130BE818F3F9F4FAF4FBF4F41F48F81988542
S1131140FC018185928589839A8320C08F8198854B
S1131150039689839A8307C089819A81FC018481DB
S1131160958189839A8389819A81FC0184819581FF
S1131170FC0120813181428153818B819C81AD812D
S1131180BE8182179307A407B50730F789819A8136
S1131190FC012481358189859A85FC01248335836A
S11311A089859A85FC018481958129853A85FC018C
S11311B02683378389859A8529813A81FC01268390
S11311C0378389819A8129853A85FC012483358373
S11311D089859A852F813885FC01228733878F8101
S11311E09885FC01808121E0280F8F819885FC017E
S11311F0208300002A96CDBFDEBFDF91CF910895F2
S1131200CF93DF9300D01F92CDB7DEB78B839C833F
S11312108B819C81FC018285938589839A838B8150
S11312209C81FC01848195812B813C81F90126817B
S11312303781FC01268337838B819C81FC01868165
S113124097812B813C81F90124813581FC01248320
S1131250358389819A81FC01218132818B819C8132
S11312602817390751F48B819C81FC012681378131
S113127089819A81FC01218332838B819C81FC01C9
S11312801286138689819A81FC0180812FEF280FB1
S113129089819A81FC01208389819A81FC01808162
S11312A02496CDBFDEBFDF91CF9108951F93CF93D6
S11312B0DF93CDB7DEB780EA90E0FC01128180EACB
S11312C090E020EA30E0F9012281287FFC012283AA
S11312D0812FDF91CF911F910895CF93DF93CDB7E5
S11312E0DEB72A97CDBFDEBF8D839E836F83788759
S11312F049875A878D819E8121E1FC0120838D815C
S11313009E8101978D839E838D819E8122E2FC01C3
S113131020838D819E8101978D839E838D819E8103
S113132023E3FC0120838D819E8101978D839E831D
S11313308F819885CC01A0E0B0E089839A83AB8348
S1131340BC8329818D819E81FC0120838D819E81B6
S113135001978D839E8389819A81AB81BC81892F7A
S11313609A2FAB2FBB2789839A83AB83BC832981B4
S11313708D819E81FC0120838D819E8101978D83C7
S11313809E8389819A81AB81BC81892F9A2FAB2F4F
S1131390BB2789839A83AB83BC8329818D819E81FA
S11313A0FC0120838D819E8101978D839E838D8195
S11313B09E8121E3FC0120838D819E8101978D8391
S11313C09E838D819E8120E8FC0120838D819E81F6
S11313D001978D839E838D819E8127E8FC01208364
S11313E08D819E8101978D839E838D819E81FC01D9
S11313F010828D819E8101978D839E838D819E8134
S1131400FC0110828D819E8101978D839E838D8145
S11314109E8122E0FC0120838D819E8101978D8332
S11314209E838D819E8123E0FC0120838D819E819A
S113143001978D839E838D819E8124E0FC0120830E
S11314408D819E8101978D839E838D819E8125E070
S1131450FC0120838D819E8101978D839E838D81E4
S11314609E8126E0FC0120838D819E8101978D83DE
S11314709E838D819E8127E0FC0120838D819E8146
S113148001978D839E838D819E8128E0FC012083BA
S11314908D819E8101978D839E838D819E8129E01C
S11314A0FC0120838D819E8101978D839E838D8194
S11314B09E8120E1FC0120838D819E8101978D8393
S11314C09E838D819E8121E1FC0120838D819E81FB
S11314D001978D839E838D819E8122E1FC0120836F
S11314E08D819E8101978D839E838D819E8123E1D1
S11314F0FC0120838D819E8101978D839E838D8144
S11315009E8124E1FC0120838D819E8101978D833E
S11315109E838D819E8125E1FC0120838D819E81A6
S113152001978D839E838D819E8126E1FC0120831A
S11315308D819E8101978D839E838D819E8127E17C
S1131540FC0120838D819E8101978D839E838D81F3
S11315509E8128E1FC0120838D819E8101978D83EA
S11315609E838D819E8129E1FC0120838D819E8152
S113157001978D839E838D819E8120E2FC012083CF
S11315808D819E8101978D839E838D819E8121E231
S1131590FC0120838D819E8101978D839E838D81A3
S11315A09E8122E2FC0120838D819E8101978D839F
S11315B09E838D819E8123E2FC0120838D819E8107
S11315C001978D839E8389859A85CC01A0E0B0E044
S11315D089839A83AB83BC8329818D819E81FC019D
S11315E020838D819E8101978D839E8389819A8139
S11315F0AB81BC81892F9A2FAB2FBB2789839A8318
S1131600AB83BC8329818D819E81FC0120838D81E4
S11316109E8101978D839E838D819E8126E2FC01AC
S113162020838D819E8101978D839E838D819E81F0
S113163027E2FC0120838D819E8101978D839E8307
S11316408D819E8128E2FC0120838D819E810197FA
S11316508D839E838D819E8129E2FC0120838D816F
S11316609E8101978D839E838D819E8120E3FC0161
S113167020838D819E8101978D839E838D819E81A0
S11316802A96CDBFDEBFDF91CF910895CF93DF932C
S1131690CDB7DEB70E948D0CA0910C2CB0910D2C0F
S11316A00D900DBE0D900EBEEF91DF91CF91BF91C5
S11316B0AF919F918F917F916F915F914F913F91E6
S11316C02F911F910F91FF90EF90DF90CF90BF90DB
S11316D0AF909F908F907F906F905F904F903F90CE
S11316E02F901F900F90FF91F093A200FF91FFBFE6
S11316F0FF91089581E0DF91CF910895FF93FFB7A3
S1131700FF93F091A200FF93F87FF093A2000F9251
S11317101F9211242F923F924F925F926F927F9269
S11317208F929F92AF92BF92CF92DF92EF92FF92ED
S11317300F931F932F933F934F935F936F937F93D5
S11317408F939F93AF93BF93CF93DF93EF93A09126
S11317500C2CB0910D2C0DB60D920EB60D920E946C
S11317600D16A0910C2CB0910D2C0D900DBE0D906A
S11317700EBEEF91DF91CF91BF91AF919F918F9169
S11317807F916F915F914F913F912F911F910F9195
S1131790FF90EF90DF90CF90BF90AF909F908F908D
S11317A07F906F905F904F903F902F901F900F907D
S11317B0FF91F093A200FF91FFBFFF9108950000F5
S11317C01F93CF93DF931F92CDB7DEB789838091A8
S11317D0CA2C982F8981892B8093CA2C80EA90E0A7
S11317E0FC018081813061F080EA90E0FC0180811D
S11317F0823031F080EA90E0FC018081843079F419
S11318008091CA2C882359F00E945609182F1092EF
S1131810CA2C0E940D1680EA90E0FC01128300009D
S11318200F90DF91CF911F9108951F93CF93DF9372
S1131830CDB7DEB70E945609182F0E94FD1480EA26
S113184090E0FC0112830000DF91CF911F91089575
S1131850FF93FFB7FF93F091A200FF93F87FF093FB
S1131860A2000F921F9211242F923F924F925F92E7
S11318706F927F928F929F92AF92BF92CF92DF929C
S1131880EF92FF920F931F932F933F934F935F9386
S11318906F937F938F939F93AF93BF93CF93DF9374
S11318A0EF93A0910C2CB0910D2C0DB60D920EB6A9
S11318B00D920E94150C81E00E94E00BA0910C2C6B
S11318C0B0910D2C0D900DBE0D900EBEEF91DF91D9
S11318D0CF91BF91AF919F918F917F916F915F91C4
S11318E04F913F912F911F910F91FF90EF90DF90B7
S11318F0CF90BF90AF909F908F907F906F905F90AC
S11319004F903F902F901F900F90FF91F093A20063
S1131910FF91FFBFFF9118950000CF93DF9300D094
S11319201F92CDB7DEB780E09DE7A0E0B0E08983E9
S11319309A83AB83BC8389819A81AB81BC8168948F
S113194015F8B695A795979587951694D1F7898339
S11319509A83AB83BC8389819A81AB81BC810197D3
S1131960A109B10989839A83AB83BC8380E098E0A1
S113197029813A81FC0126A337A365E080E098E041
S11319800E94BA0361E080E098E00E94F203000044
S11319902496CDBFDEBFDF91CF910895CF93DF931F
S11319A0CDB7DEB72597CDBFDEBF8B839C836D8318
S11319B08B819C8189839A83F091A200FF93F87FA5
S11319C0F093A20089819A81FC018081918129810F
S11319D03A81F901278D422F50E029813A81F9019A
S11319E020A1222F30E0429FB001439F700D529FEF
S11319F0700D11249B01280F391F89819A81FC01E4
S1131A002283338389819A81FC01168E89819A818C
S1131A10FC012081318189819A81FC0124833583F1
S1131A2089819A81FC018081918129813A81F9011E
S1131A30278D222F30E0A9014150510929813A8193
S1131A40F90120A1222F30E0429FB001439F700D85
S1131A50529F700D11249B01280F391F89819A818F
S1131A60FC012683378389819A812FEFFC0121A30E
S1131A7089819A812FEFFC0122A38D81882381F42F
S1131A8089819A81FC0180858823A1F089819A81CA
S1131A9008960E947817882369F00E947E0B0AC07A
S1131AA089819A8108960E94E70789819A814396E1
S1131AB00E94E707FF91F093A20081E02596CDBF35
S1131AC0DEBFDF91CF9108950F931F93CF93DF93E0
S1131AD0CDB7DEB72997CDBFDEBF8F83688749872F
S1131AE08885882319F419821A820FC08F81482FA0
S1131AF050E08885282F30E0429FC001439F900D1D
S1131B00529F900D112489839A8389819A818596A5
S1131B100E9495078B839C838B819C81892B81F008
S1131B208B819C8185968D839E832B813C818D81C5
S1131B309E8189012985AC0168858F810E94AA0D47
S1131B408B819C812996CDBFDEBFDF91CF911F9100
S1131B500F9108950F931F93CF93DF93CDB7DEB703
S1131B602797CDBFDEBF89836A834B835C832D8334
S1131B700E831F838A81882341F48E819F812E8165
S1131B803F81FC012083318307C08E819F812B819B
S1131B903C81FC01208331838E819F812981FC015A
S1131BA0278F8E819F812A81FC0120A38E819F81B2
S1131BB061E00E94CE0C8E819F812D81FC0124A3C3
S1131BC000002796CDBFDEBFDF91CF911F910F910B
S1131BD008950F93CF93DF93CDB7DEB76297CDBF50
S1131BE0DEBF8A879B876C877D872E873F87488BDC
S1131BF0598B0A8B19828A859B858A839B83F091F2
S1131C00A200FF93F87FF093A2008A819B81FC01DC
S1131C10268D8A819B81FC01878D281718F08A897B
S1131C20823019F52C853D858A819B814A89B901C9
S1131C300E94E70F8C838A819B81FC01838988231E
S1131C4051F08A819B8143960E947817882341F042
S1131C500E947E0B05C08C81882311F00E947E0BAC
S1131C60FF91F093A20081E06FC08E859F85A889C3
S1131C70B989892B8A2B8B2B29F4FF91F093A2002D
S1131C8080E062C08981882331F4CE0105960E94E8
S1131C90431881E08983FF91F093A2000E943214DB
S1131CA0F091A200FF93F87FF093A2008A819B81B8
S1131CB0FC0181A18F3F21F48A819B81FC0111A247
S1131CC08A819B81FC0182A18F3F21F48A819B81BF
S1131CD0FC0112A2FF91F093A2009E01225F3F4FEC
S1131CE0CE010596B9010E946618882331F58A81D0
S1131CF09B810E9472118823C9F08E859F85A889D3
S1131D00B9892A813B81285F3F4FAC01BD01C901DC
S1131D100E94DD168A819B810E94EC100E943F1470
S1131D20882309F06CCF0E947E0B69CF8A819B8146
S1131D300E94EC100E943F1462CF8A819B810E9412
S1131D40EC100E943F1480E06296CDBFDEBFDF91AD
S1131D50CF910F910895CF93DF93CDB7DEB72C9732
S1131D60CDBFDEBF8E839F83688779874A875B8771
S1131D702C878E819F818A839B830E9456098C8342
S1131D808A819B81FC01268D8A819B81FC01878D40
S1131D90281718F08C85823089F58A819B81FC0193
S1131DA082A18D83288539858A819B814C85B901DF
S1131DB00E94E70F8D818F3FB9F48A819B81FC01DA
S1131DC083898823C1F08A819B8143960E94781776
S1131DD0882389F08A859B85892B69F08A859B8570
S1131DE021E0FC01208307C08D818F5F282F8A8129
S1131DF09B81FC0122A381E0898301C0198280EACE
S1131E0090E02C81FC01228389812C96CDBFDEBF1A
S1131E10DF91CF910895CF93DF93CDB7DEB761976C
S1131E20CDBFDEBF8A879B876C877D872E873F87E0
S1131E30488B598B19828A859B858A839B83F09171
S1131E40A200FF93F87FF093A2008A819B81FC019A
S1131E50868D8C838C81882311F12C853D858A8124
S1131E609B81B9010E949C108C812FEF280F8A81DD
S1131E709B81FC01268F8A819B81FC0180858823BC
S1131E8049F08A819B8108960E947817882311F073
S1131E900E947E0BFF91F093A20081E076C08E85B4
S1131EA09F85A889B989892B8A2B8B2B29F4FF91CB
S1131EB0F093A20080E069C08981882331F4CE01C7
S1131EC005960E94431881E08983FF91F093A20054
S1131ED00E943214F091A200FF93F87FF093A200C5
S1131EE08A819B81FC0181A18F3F21F48A819B819E
S1131EF0FC0111A28A819B81FC0182A18F3F21F404
S1131F008A819B81FC0112A2FF91F093A2009E01A1
S1131F10225F3F4FCE010596B9010E9466188823BF
S1131F2031F58A819B810E9451118823C9F08E85E5
S1131F309F85A889B9892A813B812D5E3F4FAC01D9
S1131F40BD01C9010E94DD168A819B810E94EC10AB
S1131F500E943F14882309F072CF0E947E0B6FCF3A
S1131F608A819B810E94EC100E943F1468CF8A8171
S1131F709B810E94EC100E943F148A819B810E94E5
S1131F805111882309F45BCF80E06196CDBFDEBF99
S1131F90DF91CF910895CF93DF9300D0CDB7DEB713
S1131FA08A839B83F091A200FF93F87FF093A200B1
S1131FB08A819B81FC01868D8983FF91F093A20025
S1131FC089812396CDBFDEBFDF91CF910895CF9352
S1131FD0DF93CDB7DEB72797CDBFDEBF8B839C835E
S1131FE06D837E834F831A828B819C81FC01868D55
S1131FF089838B819C81FC0180A1882309F48EC094
S11320008F818823D9F58B819C81FC0180A1482F85
S113201050E08B819C81FC01848195812D813E81DE
S1132020B9010E9411318B819C81FC01248135818D
S11320308B819C81FC0180A1882F90E0280F391F9F
S11320408B819C81FC01248335838B819C81FC01E1
S1132050248135818B819C81FC01828193812817A5
S1132060390708F45BC08B819C81FC01208131819C
S11320708B819C81FC012483358350C08B819C819E
S1132080FC0180A1482F50E08B819C81FC0186815A
S113209097812D813E81B9010E9411318B819C81F0
S11320A0FC01268137818B819C81FC0180A1882FD2
S11320B090E0919581959109280F391F8B819C811E
S11320C0FC01268337838B819C81FC012681378127
S11320D08B819C81FC018081918128173907A8F4A8
S11320E08B819C81FC01228133818B819C81FC0149
S11320F080A1882F90E0919581959109280F391F2F
S11321008B819C81FC01268337838F81823031F45B
S11321108981882319F0898181508983898121E00B
S1132120280F8B819C81FC01268F8A812796CDBF45
S1132130DEBFDF91CF910895CF93DF9300D01F923C
S1132140CDB7DEB789839A836B837C8389819A8137
S1132150FC0180A18823C9F189819A81FC0126812F
S1132160378189819A81FC0180A1882F90E0280F12
S1132170391F89819A81FC012683378389819A8159
S1132180FC012681378189819A81FC0182819381B6
S11321902817390750F089819A81FC012081318107
S11321A089819A81FC012683378389819A81FC0184
S11321B080A1482F50E089819A81FC0126813781D2
S11321C08B819C81B9010E94113100002496CDBFFE
S11321D0DEBFDF91CF910895CF93DF9300D01F929C
S11321E0CDB7DEB78B839C83F091A200FF93F87F79
S11321F0F093A2008B819C81FC0182A1898312C08F
S11322008B819C81FC018389882381F08B819C8153
S113221043960E947817882311F00E940E19898131
S113222081508983898118165CF301C000008B8179
S11322309C812FEFFC0122A3FF91F093A200F09167
S1132240A200FF93F87FF093A2008B819C81FC0194
S113225081A18A8312C08B819C81FC0180858823A3
S113226081F08B819C8108960E947817882311F055
S11322700E940E198A8181508A838A8118165CF320
S113228001C000008B819C812FEFFC0121A3FF91F1
S1132290F093A20000002496CDBFDEBFDF91CF9162
S11322A00895CF93DF9300D0CDB7DEB78A839B83A5
S11322B0F091A200FF93F87FF093A2008A819B81A2
S11322C0FC01868D882319F481E0898301C0198279
S11322D0FF91F093A20089812396CDBFDEBFDF91E9
S11322E0CF910895CF93DF9300D0CDB7DEB78A8323
S11322F09B83F091A200FF93F87FF093A2008A8160
S11323009B81FC01268D8A819B81FC01878D281786
S113231019F481E0898301C01982FF91F093A2002E
S113232089812396CDBFDEBFDF91CF910895CF93EE
S1132330DF93CDB7DEB72997CDBFDEBF8B839C83F8
S11323404D835E836F83788729878B819C81898302
S11323509A83F091A200FF93F87FF093A200898101
S11323609A81FC0181A18F3F21F489819A81FC012A
S113237011A289819A81FC0182A18F3F21F4898174
S11323809A81FC0112A2FF91F093A20089819A81A3
S1132390FC01868D882371F489819A81FC017396EE
S11323A08D819E81AF81B8852985AC01BD01CF01A6
S11323B00E94441789819A810E94EC10000029969A
S11323C0CDBFDEBFDF91CF9108958F929F92AF92E0
S11323D0BF92CF92DF92EF92FF920F931F93CF930E
S11323E0DF93CDB7DEB76097CDBFDEBF8E839F830B
S11323F0688779874A875B872C873D870E87EF86B6
S1132400F88A8A859B850E9495078C839D838C819D
S11324109D81892BB9F08CE290E00E949507898315
S11324209A8389819A81892B41F089819A812C81AF
S11324303D81FC01238F348F07C08C819D810E94D4
S1132440D90702C019821A8289819A81892B09F1DC
S11324508A859B85CC01A0E0B0E009811A814F8573
S113246058892C853D8568857985EE81FF81812C8D
S1132470912C58016A01EE8489019C01AD01CF01C0
S11324800E945C1289819A810E94321381E08B83BD
S113249002C08FEF8B838B816096CDBFDEBFDF914F
S11324A0CF911F910F91FF90EF90DF90CF90BF904D
S11324B0AF909F908F9008958F929F92AF92BF920A
S11324C0CF92DF92EF92FF920F931F93CF93DF93FC
S11324D0CDB7DEB76497CDBFDEBF8C839D836E839B
S11324E07F83288739874A875B870C871D87EE8619
S11324F0CF86D88AA98ABA8A8B8A9C8A2885398504
S113250089899A89FC01838D948DA90165EA70E01B
S11325100E941A3189899A89FC01238D348D88851A
S113252099850197820F931F8A839B83198221C007
S11325308981882F90E02981222F30E04E815F81AC
S1132540240F351FF901408129893A89820F931F8D
S11325504D96FC0140838981882F90E02E813F8134
S1132560820F931FFC018081882339F089818F5F5A
S1132570898389818830E0F201C0000089899A89C1
S1132580FC0114A28E85843010F083E08E87898943
S11325909A892E85FC01228F89899A8902960E9444
S11325A0210889899A890E960E94210889899A8925
S11325B029893A89FC01228733878E85882F90E008
S11325C0A0E0B0E024E030E040E050E079018A018E
S11325D0E81AF90A0A0B1B0BD801C70129893A89A1
S11325E0F90186879787A08BB18B89899A89298974
S11325F03A89FC01268B378B89899A89FC0117A2B9
S113260010A611A612A689899A89FC0113A64C85E5
S11326105D852C813D818A819B81B9010E946D0970
S11326209C0189899A89FC01208331838F8598894B
S1132630892B39F08F85988929893A89FC0120836F
S1132640318300006496CDBFDEBFDF91CF911F912F
S11326500F91FF90EF90DF90CF90BF90AF909F903D
S11326608F900895CF93DF931F921F92CDB7DEB75B
S113267089839A83F091A200FF93F87FF093A200DC
S113268080916A2C8F5F80936A2C80910C2C90919E
S11326900D2C892B69F489819A8180930C2C909359
S11326A00D2C80916A2C8130C9F40E942C1916C01B
S11326B08091702C882391F480910C2C90910D2C96
S11326C0FC01228D89819A81FC01828D821730F070
S11326D089819A8180930C2C90930D2C8091742C79
S11326E08F5F8093742C2091742C89819A81FC01D2
S11326F025A389819A81FC01928D80916F2C891781
S113270030F489819A81FC01828D80936F2C8981B8
S11327109A81AC014E5F5F4F89819A81FC01828D61
S1132720282F30E06BE0629FC001639F900D11245D
S1132730825F934DBA010E943408FF91F093A20086
S11327408091702C882371F080910C2C90910D2C29
S1132750FC01228D89819A81FC01828D281710F455
S11327600E947E0B00000F900F90DF91CF9108958F
S1132770CF93DF93CDB7DEB72597CDBFDEBF6A8396
S11327807B838C839D8319828A819B81AC81BD81EB
S1132790892B8A2B8B2B71F00E9432148A819B81A6
S11327A0AC81BD8140E0BC01CD010E94091A0E94A8
S11327B03F1489838981882311F40E947E0B0000D1
S11327C02596CDBFDEBFDF91CF910895EF92FF92A2
S11327D00F93CF93DF931F92CDB7DEB70F2EF9E798
S11327E0EF2EFCE2FF2EF02D00E020E030E048EC7C
S11327F050E060E070E289E199E10E94E51189838B
S11328008981813019F40E94AA1A898389818130CF
S113281009F580EA90E020EA30E0F9012281287F7E
S1132820FC0122838FEF9FEFDC018093752C909342
S1132830762CA093772CB093782C81E08093702C25
S113284010926B2C10926C2C10926D2C10926E2C9A
S11328500E94460B00000F90DF91CF910F91FF90E3
S1132860EF900895CF93DF93CDB7DEB780917B2CA3
S11328708F5F80937B2C0000DF91CF910895CF93DD
S1132880DF9300D01F92CDB7DEB719821A821B8264
S1132890F091A200FF93F87FF093A20080917B2C2B
S11328A0815080937B2C80917B2C882309F074C009
S11328B080916A2C882309F46FC046C080915B2CF8
S11328C090915C2CFC018085918589839A83898110
S11328D09A810E960E94000989819A8102960E942B
S11328E0000989819A81FC01928D80916F2C89174E
S11328F030F489819A81FC01828D80936F2C8981C7
S11329009A81AC014E5F5F4F89819A81FC01828D6F
S1132910282F30E06BE0629FC001639F900D11246B
S1132920825F934DBA010E94340889819A81FC0127
S1132930228D80910C2C90910D2CFC01828D2817F6
S113294018F081E08093722C8091542C882309F034
S1132950B5CF89819A81892B11F00E946F198091DA
S1132960712C8C838C81882379F00E94FD14882338
S113297019F081E08093722C8C8181508C838C813E
S1132980882399F71092712C8091722C882321F05E
S113299081E08B830E947E0BFF91F093A2008B81D8
S11329A02496CDBFDEBFDF91CF910895CF93DF93FF
S11329B000D01F92CDB7DEB7F091A200FF93F87F4D
S11329C0F093A20080916B2C90916C2CA0916D2CB3
S11329D0B0916E2C89839A83AB83BC83FF91F0936F
S11329E0A20089819A81AB81BC81BC01CD0124966E
S11329F0CDBFDEBFDF91CF910895CF93DF93CDB7E5
S1132A00DEB72D97CDBFDEBF198280917B2C882342
S1132A1009F0F1C080916B2C90916C2CA0916D2CDD
S1132A20B0916E2C0196A11DB11D8A839B83AC834A
S1132A30BD838A819B81AC81BD8180936B2C9093F3
S1132A406C2CA0936D2CB0936E2C8A819B81AC81ED
S1132A50BD81892B8A2B8B2BD9F48091502C90919A
S1132A60512C8E839F838091522C9091532C809370
S1132A70502C9093512C8E819F818093522C909353
S1132A80532C8091732C8F5F8093732C0E946F1949
S1132A908091752C9091762CA091772CB091782C04
S1132AA02A813B814C815D81281739074A075B07DE
S1132AB008F48AC08091502C9091512CFC018081A3
S1132AC0882361F48FEF9FEFDC018093752C909342
S1132AD0762CA093772CB093782C76C08091502CD0
S1132AE09091512CFC0187819085FC018085918512
S1132AF08887998788859985FC0182819381A4813F
S1132B00B5818A879B87AC87BD872A813B814C81AD
S1132B105D818A859B85AC85BD85281739074A0761
S1132B205B0768F48A859B85AC85BD858093752C8D
S1132B309093762CA093772CB093782C45C08885FD
S1132B40998502960E94000988859985FC01808DEB
S1132B50918D892B29F0888599850E960E9400090C
S1132B6088859985FC01928D80916F2C891730F4AA
S1132B7088859985FC01828D80936F2C8885998541
S1132B80AC014E5F5F4F88859985FC01828D282FAB
S1132B9030E06BE0629FC001639F900D1124825F5F
S1132BA0934DBA010E94340888859985FC01228DD1
S1132BB080910C2C90910D2CFC01828D281708F427
S1132BC079CF81E0898376CF80910C2C90910D2C64
S1132BD0FC01828D282F30E04BE0429FC001439FCF
S1132BE0900D1124825F934DFC018081823040F06E
S1132BF081E0898305C08091712C8F5F8093712C53
S1132C008091722C882311F081E0898389812D962B
S1132C10CDBFDEBFDF91CF910895CF93DF93CDB7C2
S1132C20DEB72997CDBFDEBF80917B2C882321F0AE
S1132C3081E08093722CBAC01092722C80910C2C7B
S1132C4090910D2CFC01838D948D8A839B8385EA5E
S1132C5095EADC018C839D83AE83BF838A819B814B
S1132C60FC0120813181428153818C819D81AE811F
S1132C70BF81281739074A075B0799F58A819B8129
S1132C800496FC0120813181428153818C819D8194
S1132C90AE81BF81281739074A075B0711F58A817E
S1132CA09B810896FC0120813181428153818C8172
S1132CB09D81AE81BF81281739074A075B0789F4D4
S1132CC08A819B810C96FC01208131814281538150
S1132CD08C819D81AE81BF81281739074A075B0724
S1132CE071F080910C2C90910D2C9C01235E3F4F30
S1132CF080910C2C90910D2CB9010E940E048091AE
S1132D006F2C898303C08981815089838981282F0D
S1132D1030E04BE0429FC001439F900D1124825F3D
S1132D20934DFC018081882371F38981282F30E041
S1132D304BE0429FC001439F900D1124825F934D4D
S1132D408887998788859985FC0181819281FC0116
S1132D502481358188859985FC0121833283888586
S1132D609985FC01218132818885998503962817EC
S1132D70390769F488859985FC0181819281FC0178
S1132D802481358188859985FC0121833283888556
S1132D909985FC0181819281FC01808591858093D4
S1132DA00C2C90930D2C898180936F2C0000299614
S1132DB0CDBFDEBFDF91CF910895CF93DF9300D0D5
S1132DC000D0CDB7DEB789839A834B835C836D8350
S1132DD07E8380910C2C90910D2C9C01225F3F4F9F
S1132DE089819A81B9010E947F088B819C81AD8180
S1132DF0BE8141E0BC01CD010E94091A0000269663
S1132E00CDBFDEBFDF91CF9108950F931F93CF9372
S1132E10DF93CDB7DEB72A97CDBFDEBF89839A8310
S1132E204B835C836D837E830F83188729873A875E
S1132E3020910C2C30910D2C8B819C81AD81BE8115
S1132E40B068F90186879787A08BB18B80910C2C91
S1132E5090910D2C9C01225F3F4F89819A81B90189
S1132E600E9434088F819885A985BA8541E0BC0108
S1132E70CD010E94091A00002A96CDBFDEBFDF9162
S1132E80CF911F910F910895CF93DF93CDB7DEB704
S1132E902797CDBFDEBF89839A834B835C836D8381
S1132EA07E832F8380910C2C90910D2C9C01225FAA
S1132EB03F4F89819A81B9010E9434088F81882308
S1132EC039F08FEF9FEFDC018B839C83AD83BE834E
S1132ED08B819C81AD81BE814F81BC01CD010E945B
S1132EE0091A00002796CDBFDEBFDF91CF91089568
S1132EF0CF93DF93CDB7DEB72597CDBFDEBF8C83ED
S1132F009D838C819D81FC0187819085FC01808556
S1132F1091858A839B838A819B810E960E940009F6
S1132F2080917B2C882351F58A819B8102960E9493
S1132F3000098A819B81FC01928D80916F2C8917F5
S1132F4030F48A819B81FC01828D80936F2C8A816D
S1132F509B81AC014E5F5F4F8A819B81FC01828D16
S1132F60282F30E06BE0629FC001639F900D112415
S1132F70825F934DBA010E94340808C08A819B8104
S1132F800E96BC0184E59CE20E9434088A819B81F0
S1132F90FC01228D80910C2C90910D2CFC01828DD2
S1132FA0821730F481E0898381E08093722C01C020
S1132FB0198289812596CDBFDEBFDF91CF91089517
S1132FC0CF93DF93CDB7DEB72897CDBFDEBF8B831A
S1132FD09C834D835E836F8378878D819E81AF81CF
S1132FE0B885B0682B813C81F90180839183A283E9
S1132FF0B3838B819C81FC018085918589839A832D
S11330008B819C810E94000989819A8102960E9489
S1133010000989819A81FC01928D80916F2C891716
S113302030F489819A81FC01828D80936F2C89818F
S11330309A81AC014E5F5F4F89819A81FC01828D38
S1133040282F30E06BE0629FC001639F900D112434
S1133050825F934DBA010E94340889819A81FC01F0
S1133060228D80910C2C90910D2CFC01828D821765
S113307018F481E08093722C00002896CDBFDEBF47
S1133080DF91CF910895CF93DF931F921F92CDB715
S1133090DEB789839A832091732C89819A81FC01FC
S11330A0208380916B2C90916C2CA0916D2CB0910D
S11330B06E2C29813A81F90181839283A383B4839D
S11330C000000F900F90DF91CF910895EF92FF923F
S11330D00F931F93CF93DF93CDB7DEB72D97CDBF5B
S11330E0DEBF8A879B876C877D87F091A200FF9360
S11330F0F87FF093A20080916B2C90916C2CA0919E
S11331006D2CB0916E2C8A839B83AC83BD838A859E
S11331109B85FC0181819281A381B4812A813B81B9
S11331204C815D8179018A01E81AF90A0A0B1B0BAB
S1133130D801C7018E839F83A887B9878C859D8515
S1133140FC0180819181A281B3818F3F9F4FAF4F5A
S1133150BF4F11F4198254C08A859B85FC0190816C
S11331608091732C981799F08A859B85FC012181A5
S11331703281438154818A819B81AC81BD818217D4
S11331809307A407B50718F081E0898339C08C85BB
S11331909D85FC0120813181428153818E819F81F3
S11331A0A885B98582179307A407B50700F58C8510
S11331B09D85FC0120813181428153818E819F81D3
S11331C0A885B98579018A01E81AF90A0A0B1B0B4B
S11331D0D801C7012C853D85F90180839183A283A1
S11331E0B3838A859B850E944318198209C08C8504
S11331F09D85FC01108211821282138281E08983F1
S1133200FF91F093A20089812D96CDBFDEBFDF919F
S1133210CF911F910F91FF90EF900895CF93DF937B
S1133220CDB7DEB781E08093722C0000DF91CF919F
S11332300895CF93DF931F921F92CDB7DEB7898392
S11332409A830E94671980910E2C823010F00E949C
S11332507E0B0E940820F5CFCF93DF931F92CDB74A
S1133260DEB7198210C08981282F30E04BE0429FDD
S1133270C001439F900D1124825F934D0E94E70784
S113328089818F5F89838981843068F38AE39CE232
S11332900E94E70785E49CE20E94E70784E59CE23C
S11332A00E94E7078FE59CE20E94E7078AE39CE21D
S11332B08093502C9093512C85E49CE28093522C63
S11332C09093532C00000F90DF91CF910895CF93EA
S11332D0DF93CDB7DEB70000DF91CF910895CF9390
S11332E0DF931F921F92CDB7DEB78091502C90913F
S11332F0512CFC018081882361F48FEF9FEFDC0166
S11333008093752C9093762CA093772CB093782C83
S11333101BC08091502C9091512CFC018781908589
S1133320FC018085918589839A8389819A81FC0136
S113333082819381A481B5818093752C9093762C9E
S1133340A093772CB093782C00000F900F90DF910E
S1133350CF910895CF93DF931F92CDB7DEB78091BD
S1133360702C882319F481E0898308C080917B2C18
S1133370882319F482E0898301C0198289810F901E
S1133380DF91CF910895EF92FF920F931F93CF9304
S1133390DF9300D01F92CDB7DEB780910C2C9091B3
S11333A00D2CFC0186859785A089B18989839A8330
S11333B0AB83BC8360910C2C70910D2C80910C2CF0
S11333C090910D2CFC01828D882F90E0A0E0B0E05C
S11333D024E030E040E050E079018A01E81AF90A7B
S11333E00A0B1B0BD801C701FB0186879787A08BAB
S11333F0B18B89819A81AB81BC81BC01CD012496BA
S1133400CDBFDEBFDF91CF911F910F91FF90EF9061
S11334100895CF93DF93CDB7DEB72D97CDBFDEBF31
S113342069877A878B879C874D8780916B2C9091D5
S11334306C2CA0916D2CB0916E2C89839A83AB83F4
S1133440BC8380910C2C90910D2C02960E94000953
S113345089859A85AB85BC858F3F9F4FAF4FBF4F02
S113346071F48D85882359F080910C2C90910D2C4A
S11334700296BC018FE59CE20E94340864C0298155
S11334803A814B815C8189859A85AB85BC85820FA5
S1133490931FA41FB51F8D839E83AF83B88720918C
S11334A00C2C30910D2C8D819E81AF81B885F90152
S11334B082839383A483B5832D813E814F81588574
S11334C089819A81AB81BC81281739074A075B0738
S11334D078F480910C2C90910D2C9C012E5F3F4F21
S11334E08091522C9091532CB9010E947F082BC0DB
S11334F080910C2C90910D2C9C012E5F3F4F80915C
S1133500502C9091512CB9010E947F088091752C08
S11335109091762CA091772CB091782C2D813E81BE
S11335204F815885281739074A075B0760F48D8156
S11335309E81AF81B8858093752C9093762CA0934F
S1133540772CB093782C00002D96CDBFDEBFDF9191
S1133550CF910895EF92FF920F93CF93DF931F9231
S1133560CDB7DEB719820E943B1F8091962C9091B3
S1133570972C892B91F00F2EF8E9EF2EFCE2FF2E09
S1133580F02D03E020E030E048EC50E065E070E22C
S113359080EC9BE10E94E511898389810F90DF9182
S11335A0CF910F91FF90EF900895CF92DF92EF9219
S11335B0FF920F931F93CF93DF93CDB7DEB7679737
S11335C0CDBFDEBF8B879C876D872E873F87488B57
S11335D0598B0A8B1B8BCC8ADD8AEE8AFF8A19826F
S11335E08091962C9091972C892B09F444C08D8559
S11335F08A838E859F85A889B9898B839C83AD83B3
S1133600BE838B859C858F8398878D85863034F522
S11336100E94AA19823099F4E091962CF091972C8B
S11336208C899D89AE89BF89BE016E5F7F4F00E0A2
S11336309C01AD01CF010E94E90D89831CC08091DA
S1133640962C9091972CBE016E5F7F4F00E020E096
S113365030E0A9010E94E90D89830DC08091962C68
S11336609091972C4A895B89BE016E5F7F4F20E061
S11336700E94AB0E898389816796CDBFDEBFDF913F
S1133680CF911F910F91FF90EF90DF90CF9008950D
S1133690CF92DF92EF92FF920F931F93CF93DF931A
S11336A0CDB7DEB72B97CDBFDEBF6C837D838E8312
S11336B09F83288739874A875B878091922C9091D2
S11336C0932CFC0187819085FC01808591858983F9
S11336D09A8389819A8102960E94000989819A813C
S11336E0FC0182898130B1F589819A81FC012685AA
S11336F03785408951898C819D81AE81BF81820F3C
S1133700931FA41FB51FEC80FD800E811F812885A7
S113371039854A855B85E981FA81670178018901E8
S11337209A01AC01BD01CF010E94DE1C882391F0F7
S11337308C819D81AE81BF81E981FA81C12CD12C1C
S1133740760100E010E09C01AD0160E0CF010E9431
S1133750D51A8B8389819A81FC01258936898981CF
S11337609A81F901199500002B96CDBFDEBFDF9138
S1133770CF911F910F91FF90EF90DF90CF9008951C
S1133780CF93DF93CDB7DEB72797CDBFDEBF8E8350
S11337909F83CE0105960E945B1CDC01CB018983CB
S11337A09A83AB83BC832D8189819A81AB81BC814F
S11337B0422FBC01CD010E94E01B0E94771DE9CF7E
S11337C0EF92FF920F931F93CF93DF93CDB7DEB7A2
S11337D02A97CDBFDEBF6E837F83888799874A8708
S11337E00E943214CE0105960E94991CDC01CB0183
S11337F089839A83AB83BC838D81882309F04EC06F
S11338008A858823E1F42E813F8148855985898101
S11338109A81AB81BC8182179307A407B50778F01E
S11338200E943F1429813A814B815C818E819F8162
S1133830A885B985BC01CD010E94481B31C08A8589
S1133840882359F08091942C9091952CFC019081BF
S113385081E0992309F080E08A872E813F814885A1
S1133860598589819A81AB81BC8179018A01E81AE1
S1133870F90A0A0B1B0BD801C701E091962CF091B1
S1133880972C2A85AC01BD01CF010E9497110E949B
S11338903F14882329F40E947E0B02C00E943F1427
S11338A000002A96CDBFDEBFDF91CF911F910F910B
S11338B0FF90EF900895CF93DF9300D000D0CDB761
S11338C0DEB78D839E838091922C9091932CFC0182
S11338D0908181E0992309F080E0282F8D819E81D9
S11338E0FC0120838D819E81FC018081882389F4E1
S11338F08091922C9091932CFC0187819085FC01FE
S113390080819181A281B38189839A83AB83BC83B3
S113391004C019821A821B821C8289819A81AB811C
S1133920BC81BC01CD012696CDBFDEBFDF91CF9116
S11339300895CF93DF9300D000D0CDB7DEB78D8349
S11339409E830E94D614DC01CB0189839A83AB83C6
S1133950BC8380919A2C90919B2CA0919C2CB0912B
S11339609D2C29813A814B815C81281739074A07AC
S11339705B0740F40E94811E8D819E8121E0FC0141
S1133980208304C08D819E81FC01108289819A81EB
S1133990AB81BC8180939A2C90939B2CA0939C2CFC
S11339A0B0939D2C89819A81AB81BC81BC01CD01EE
S11339B02696CDBFDEBFDF91CF910895CF92DF92DF
S11339C0EF92FF920F931F93CF93DF93CDB7DEB7A0
S11339D02F97CDBFDEBF8A839B834C835D836E8329
S11339E07F83088719872A873B87CC86DD86EE8606
S11339F0FF8619822A813B818C819D81AE81BF81A2
S1133A00F90182839383A483B5838A819B812A816C
S1133A103B81FC01228733872C813D814E815F816C
S1133A2088859985AA85BB8582179307A407B5075E
S1133A3040F1288539854A855B858C859D85AE85D1
S1133A40BF85281B390B4A0B5B0B8A819B81FC01C8
S1133A5086859785A089B189281739074A075B07A6
S1133A6018F081E0898336C08A819B819C012E5F96
S1133A703F4F8091942C9091952CB9010E947F081E
S1133A8029C0288539854A855B858C859D85AE85C9
S1133A90BF85281739074A075B0780F42C813D81CD
S1133AA04E815F818C859D85AE85BF85281739073A
S1133AB04A075B0718F081E089830CC08A819B81E7
S1133AC09C012E5F3F4F8091922C9091932CB901D1
S1133AD00E947F0889812F96CDBFDEBFDF91CF91F1
S1133AE01F910F91FF90EF90DF90CF900895CF92A8
S1133AF0DF92EF92FF920F931F93CF93DF93CDB793
S1133B00DEB76597CDBFDEBFE0C08A858823FCF4AD
S1133B10CE010A96019689839A8389819A81FC0150
S1133B202081318189819A81FC0184819581A681DA
S1133B30B78149815A81FA010280F381E02DEC8B2F
S1133B40FD8BAC01BD018C899D89F90119958A858C
S1133B5088230CF4BAC08F8598898B839C838B81CE
S1133B609C81FC0184859585892B29F08B819C811E
S1133B7002960E940009CE0143960E94991CDC0122
S1133B80CB018D839E83AF83B8878A85082E000C72
S1133B90990B092E000CAA0BBB0B40E050E029E066
S1133BA030E0841B950B2817390708F48DC0FC01FD
S1133BB08827E250FF4F8F4F0C942630EB84FC840F
S1133BC00D851E852B853C854D855E858B819C816D
S1133BD0FC0186859785A089B189820F931FA41F54
S1133BE0B51F2D813E814F815885EB81FC81670192
S1133BF0780189019A01AC01BD01CF010E94DE1C4C
S1133C00882309F462C08B819C81FC012589368953
S1133C108B819C81F90119958B819C81FC0182899E
S1133C20813009F052C02B853C854D855E858B81A2
S1133C309C81FC0186859785A089B189820F931F99
S1133C40A41FB51FEB81FC81C12CD12C760100E0AF
S1133C5010E09C01AD0160E0CF010E94D51A898774
S1133C6034C08B859C85AD85BE852B813C81F90153
S1133C7086879787A08BB18B8B819C81FC012685DD
S1133C803785408951898D819E81AF81B885820FA6
S1133C90931FA41FB51FED80FE800F8118852D8111
S1133CA03E814F815885EB81FC8167017801890150
S1133CB09A01AC01BD01CF010E94DE1C06C08B81BC
S1133CC09C810E94D90701C000008091962C90919C
S1133CD0972CBE01665F7F4F20E030E0A9010E946F
S1133CE00B0F882309F011CF00006596CDBFDEBF0E
S1133CF0DF91CF911F910F91FF90EF90DF90CF90C4
S1133D000895CF92DF92EF92FF920F931F93CF9378
S1133D10DF93CDB7DEB72D97CDBFDEBF82C08091D4
S1133D20922C9091932CFC0187819085FC018081D9
S1133D309181A281B38189839A83AB83BC8380916F
S1133D40922C9091932CFC0187819085FC018085B5
S1133D5091858D839E838D819E8102960E940009A8
S1133D608D819E81FC01258936898D819E81F90191
S1133D7019958D819E81FC018289813009F051C0A1
S1133D808D819E81FC0126853785408951898981F1
S1133D909A81AB81BC81820F931FA41FB51F8F83AF
S1133DA09887A987BA872F81388549855A8589815B
S1133DB09A81AB81BC8182179307A407B507F8F4F5
S1133DC02D813E818F819885A985BA85F9018283E9
S1133DD09383A483B5838D819E812D813E81FC01D3
S1133DE0228733878D819E819C012E5F3F4F809176
S1133DF0922C9091932CB9010E947F0812C0898162
S1133E009A81AB81BC81ED81FE81C12CD12C7601DC
S1133E1000E010E09C01AD0160E0CF010E94D51AE2
S1133E208B878091922C9091932CFC018081882324
S1133E3009F075CF8091922C9091932C8C879D875B
S1133E408091942C9091952C8093922C9093932C08
S1133E508C859D858093942C9093952C00002D96B1
S1133E60CDBFDEBFDF91CF911F910F91FF90EF90F7
S1133E70DF90CF900895CF93DF93CDB7DEB7F09165
S1133E80A200FF93F87FF093A2008091962C90916A
S1133E90972C892BE9F48CE79CE20E94E70787E8DA
S1133EA09CE20E94E7078CE79CE28093922C90931B
S1133EB0932C87E89CE28093942C9093952C40E07B
S1133EC069E085E00E94640D8093962C9093972C72
S1133ED0FF91F093A2000000DF91CF9108950F931A
S1133EE01F93CF93DF93CDB7DEB76497CDBFDEBF0B
S1133EF08B879C876D877E872F87388B498B5A8B5E
S1133F000B8B1C8B8EEF8A838B859C858B839C8388
S1133F108D859E858D839E838F859889A989BA898D
S1133F208F839887A987BA878091962C9091972C34
S1133F304B895C89BE016E5F7F4F20E00E94AB0E0F
S1133F40898389816496CDBFDEBFDF91CF911F91B4
S1133F500F910895CF93DF93CDB7DEB780E590E05E
S1133F6020E530E0F90120812160FC01208380E517
S1133F7090E0FC018181882F90E081709927892B42
S1133F80B1F380E00E9498038EE10E94610360E037
S1133F9080E00E94810343E060E080E40E942C03FF
S1133FA080E590E020E530E0F90120812860FC0103
S1133FB0208380E590E0FC018181882F90E0887067
S1133FC09927892BB1F364E080EC0E94490380E5D2
S1133FD090E020E530E0F90120812061FC0120839C
S1133FE060E080E00E94810380E590E0FC01818133
S1133FF0882F90E080719927892BB1F384E00E9487
S1134000980387E00E9461030000DF91CF91089537
S1134010CF93DF93CDB7DEB70000DF91CF91089542
S1134020EF92FF920F93CF93DF93CDB7DEB70E9449
S1134030AA1F0E949222E12CF12C02E020E030E041
S113404048EC50E06DE070E280EC90E20E94E511F3
S1134050E12CF12C01E020E030E04CE251E064E19D
S113406070E28DE490E20E94E51140E061E084E1B9
S11340700E94640D8093CB2C9093CC2C80EA96E024
S113408021E0FC0121830E94E61380E090E0DF91AF
S1134090CF910F91FF90EF900895CF93DF9300D0CD
S11340A0CDB7DEB78A839B8380E389838091CB2C51
S11340B09091CC2C0E94CB0F882369F08091CB2C5B
S11340C09091CC2C2FEF3FEFA901BE016F5F7F4F82
S11340D00E940B0F02C080E389830E94DD248CE1DF
S11340E090E2892F8F938CE190E28F931F921F921D
S11340F01F921F920E94EF240F900F900F900F9029
S11341000F900F908091CB2C9091CC2C0E94CB0FD0
S1134110882F90E0292F2F938F9383E290E2892FA9
S11341208F9383E290E28F931F921F921F9281E0FC
S11341308F930E94EF248DB79EB70896CDBFDEBF44
S11341408981882F90E0292F2F938F938EE290E21C
S1134150892F8F938EE290E28F931F921F921F926A
S113416082E08F930E94EF248DB79EB70896CDBF4F
S1134170DEBF68EB7BE080E090E00E94B81396CF4E
S11341800F93CF93DF9300D0CDB7DEB78A839B83A1
S11341900E94C9010E94E50180E00E94D70281309B
S11341A019F481E3898312C081E00E94D70281302F
S11341B019F482E389830AC082E00E94D702813025
S11341C019F483E3898302C080E38983898180337E
S11341D069F08091CB2C9091CC2C00E02FEF3FEF35
S11341E0A901BE016F5F7F4F0E94E90D6AE070E094
S11341F080E090E00E94B813CDCF1F920F92009000
S11342003F000F92112400903B000F922F933F9395
S11342104F935F936F937F938F939F93AF93BF93CA
S1134220EF93FF93CF93DF931F92CDB7DEB719823D
S11342308091CF2C9091D02C9E012F5F3F4F41E075
S113424050E060E070E00E946B0760E080E09BE07B
S11342500E94BA0380E09BE0FC01168200000F90EC
S1134260DF91CF91FF91EF91BF91AF919F918F918A
S11342707F916F915F914F913F912F910F90009299
S11342803B000F9000923F000F901F901895CF9223
S1134290DF92EF92FF920F93CF93DF9300D01F92A0
S11342A0CDB7DEB769837A838B839C8389819A81B6
S11342B0AB81BC810297A105B10540F482E090E096
S11342C0A0E0B0E089839A83AB83BC8380E09BE069
S11342D021E0FC01268380E09BE0FC0110A211A2F6
S11342E060E080E09BE00E94D60389819A81AB81E3
S11342F0BC818E3F9F4FA105B10598F420E03BE0BF
S113430089819A81AB81BC81B695A795979587954C
S1134310F90186A397A365E080E09BE00E94BA03BD
S11343201FC089819A81AB81BC8180349244AF40A3
S1134330B105B0F420E03BE089819A81AB81BC8176
S1134340689414F8B695A795979587951694D1F720
S1134350F90186A397A367E080E09BE00E94BA037B
S11343608091CF2C9091D02C0F2EF4EFCF2EDD2402
S1134370D394E12CF12CF02D00E021E041E050E059
S113438060E070E00E947B0400002496CDBFDEBF95
S1134390DF91CF910F91FF90EF90DF90CF90089530
S11343A0CF93DF931F92CDB7DEB7898389818F7056
S11343B0898389818295807F898380E096E020E0EB
S11343C036E0F901348129812F602323FC01248301
S11343D080E096E020E036E0F90134812981232B46
S11343E0FC01248300000F90DF91CF910895CF93B7
S11343F0DF931F92CDB7DEB789838981882331F09B
S113440080E696E021E0FC01258305C080E696E085
S113441021E0FC01268300000F90DF91CF910895E5
S1134420CF93DF931F92CDB7DEB789838981882329
S113443031F080E696E022E0FC01258305C080E6A9
S113444096E022E0FC01268300000F90DF91CF91DB
S11344500895CF93DF931F92CDB7DEB78983898107
S1134460882331F080E696E024E0FC01258305C032
S113447080E696E024E0FC01268300000F90DF91A3
S1134480CF910895CF93DF93CDB7DEB781E00E943B
S1134490292261E070E080E090E00E94472180E002
S11344A00E9429220000DF91CF910895CF93DF93DA
S11344B01F92CDB7DEB78983898182958F700E9460
S11344C0D02180E00E94F72180E00E9410220E9407
S11344D0422289818F700E94D0210E9442220000D2
S11344E00F90DF91CF910895CF93DF931F92CDB7B3
S11344F0DEB78983898182958F700E94D02181E003
S11345000E94F72180E00E9410220E9442228981A9
S11345108F700E94D0210E94422200000F90DF91F0
S1134520CF910895EF92FF920F93CF93DF93CDB77E
S1134530DEB780E096E020E1FC01218380E096E094
S113454020E2FC01218380E096E020E4FC01218349
S113455080E096E020E8FC01218380E696E021E0FB
S1134560FC01218380E696E022E0FC01218380E6C1
S113457096E024E0FC01218380E096E020E036E030
S1134580F90124812F70FC01248380E696E020E663
S113459036E0F9012481287FFC01248340E066E1B0
S11345A088E00E94640D8093CD2C9093CE2C0E94C1
S11345B058048093CF2C9093D02CE12CF12C02E062
S11345C020E030E04EE551E06AE370E280E993E2F6
S11345D00E94E5110000DF91CF910F91FF90EF90C1
S11345E00895CF93DF9300D01F92CDB7DEB78983B0
S11345F09A836B837C8389819A818130910589F0C8
S1134600823091051CF4892B39F01AC0823091054F
S113461069F0039781F014C08B8180580E94562260
S11346200FC08B8180540E9456220AC08B818C5605
S11346300E94562205C08B818C520E945622000093
S113464067E270E080E090E00E9447210000249639
S1134650CDBFDEBFDF91CF910895CF93DF931F923B
S1134660CDB7DEB7898389810E9474226BE270E042
S113467080E090E00E94472100000F90DF91CF91ED
S11346800895CF93DF9300D01F92CDB7DEB78B830D
S11346909C8319821A8219C089819A812B813C8159
S11346A0820F931FFC0180818823A1F089819A8164
S11346B02B813C81820F931FFC0180810E942D235A
S11346C089819A81019689839A8389819A81449701
S11346D01CF301C0000000002496CDBFDEBFDF91B3
S11346E0CF910895CF93DF9300D000D0CDB7DEB73C
S11346F089839A836B837C834D835E832B813C8186
S113470089819A81B9010E94F1228D819E810E9442
S1134710412300002696CDBFDEBFDF91CF910895DF
S1134720CF93DF93CDB7DEB7C057D109CDBFDEBF7E
S11347309E0121593F4FF9018083918319821A8286
S11347401B821C821D821E8226C01F8218861AC0EC
S11347502D813E8144E1429FC001439F900D11246D
S11347609E012F5F3F4F280F391F8F819885820F3D
S1134770931F089620E2FC0120838F81988501967F
S11347808F8398878F819885449714F38D819E81B8
S113479001968D839E838D819E810497B4F260E49B
S11347A07CE980E090E00E94472183E00E94D021D0
S11347B068E873E180E090E00E9447210E94422271
S11347C060EA70E080E090E00E9447210E9442226B
S11347D060EA70E080E090E00E9447210E9442225B
S11347E060EA70E080E090E00E94472182E00E944D
S11347F0D0210E94422288E20E94562280E10E9437
S113480056228CE00E94562286E00E94562268ECD2
S113481070E080E090E00E94B8138091CF2C9091DA
S1134820D02C40E050E0BA010E94B305DC01CB017A
S1134830892B8A2B8B2B09F496C08091CF2C9091D5
S1134840D02C42E050E060E070E00E94B305198291
S11348501A8226C01B821C821AC029813A8144E133
S1134860429FC001439F900D11249E012F5F3F4F33
S1134870280F391F8B819C81820F931F089620E299
S1134880FC0120838B819C8101968B839C838B818B
S11348909C81449714F389819A81019689839A8330
S11348A089819A810497B4F25EC08091CD2C909155
S11348B0CE2CBE01675A7F4F2FEF3FEFA9010E9414
S11348C00B0F882309F44FC019821A8232C0CE011B
S11348D0875A9F4FFC018081482F50E0CE01875AB0
S11348E09F4FFC018181282F30E089819A81820FBA
S11348F0931FBE01675A7F4F29813A81260F371FC4
S11349002E5F3F4FF901608174E1749F9001759FA0
S1134910300D1124AE014F5F5F4F240F351F820FFE
S1134920931F0896FC01608389819A81019689838B
S11349309A83CE01875A9F4FFC018181282F30E052
S113494089819A81820F931F44976CF49E01275AA0
S11349503F4F89819A81820F931F0296FC018081C7
S1134960882309F0B4CF8091CD2C9091CE2C0E9455
S1134970CB0F882309F099CF19821A8219C09E019E
S1134980275F3F4F49815A8164E1649FC001659F5D
S1134990900D1124280F391F89819A81A90160E0A3
S11349A070E00E94722389819A81019689839A8397
S11349B089819A8104971CF32ACFCF93DF93CDB7D3
S11349C0DEB78091CF2C9091D02C42E050E060E093
S11349D070E00E94FE050000DF91CF910895CF930F
S11349E0DF931F921F92CDB7DEB7CE010E96898357
S11349F09A8329813A814C855D856A857B85888582
S1134A0099850E94092500000F900F90DF91CF91A6
S1134A1008950F93CF93DF93CDB7DEB7EC97CDBF57
S1134A20DEBF8DAB9EAB6FAB78AF49AF5AAF2BAF48
S1134A303CAF19821A821B821C820BC08B819C8121
S1134A408256934DFC0110828B819C8101968B834D
S1134A509C838B819C8144978CF31D821E820BC0A6
S1134A608D819E818E54934DFC0110828D819E8197
S1134A7001968D839E838D819E8144978CF3BEC164
S1134A808D89853209F0A0C189AD9AAD9C012F5F53
S1134A903F4F29AF3AAFFC0180818D8B8D89882FE0
S1134AA090E08536910509F446C18636910554F4A3
S1134AB08336910501F1843691050CF070C0859719
S1134AC069F09CC18337910571F18837910509F428
S1134AD0A8C08636910509F4E6C090C189819A81FF
S1134AE08E54934D25E2FC01208389819A8101969D
S1134AF089839A8383C18BAD9CAD9C012E5F3F4F0C
S1134B002BAF3CAFFC01808191818E8B89819A818E
S1134B108E54934D2E89FC01208389819A810196BC
S1134B2089839A836BC18BAD9CAD9C012E5F3F4FF3
S1134B302BAF3CAFFC01808191818F8B988F1F82BA
S1134B40188617C029813A818F819885820F931F17
S1134B502F8138854F89588D240F351FF901208105
S1134B608E54934DFC0120838F81988501968F8309
S1134B7098878F89988D0E9421319C018F81988517
S1134B8082179307F8F28F89988D0E9421319C0136
S1134B9089819A81820F931F89839A832FC18BAD58
S1134BA09CAD9C012E5F3F4F2BAF3CAFFC0180813D
S1134BB09181898F9A8F898D9A8D4AE050E06EE9B0
S1134BC07CE20E94353119861A8615C029813A8102
S1134BD089859A85820F931F29853A852256334DFC
S1134BE0F90120818E54934DFC01208389859A8597
S1134BF0019689879A878EE99CE20E9421319C0163
S1134C0089859A858217930708F38EE99CE20E94AE
S1134C1021319C0189819A81820F931F89839A8310
S1134C20EDC08BAD9CAD9C012E5F3F4F2BAF3CAFD5
S1134C30FC0180819181898F9A8F898D9A8D40E1C1
S1134C4050E06EE97CE20E9435311B861C8615C05B
S1134C5029813A818B859C85820F931F2B853C8506
S1134C602256334DF90120818E54934DFC0120834B
S1134C708B859C8501968B879C878EE99CE20E949C
S1134C8021319C018B859C858217930708F38EE95B
S1134C909CE20E9421319C0189819A81820F931F99
S1134CA089839A83ABC08BAD9CAD9C012C5F3F4F35
S1134CB02BAF3CAFFC0180819181A281B3818B8FAA
S1134CC09C8FAD8FBE8F8B8D9C8DAD8DBE8DAC01B9
S1134CD0BD018EE99CE20E94D8271D861E8615C060
S1134CE029813A818D859E85820F931F2D853E856E
S1134CF02256334DF90120818E54934DFC012083BB
S1134D008D859E8501968D879E878EE99CE20E9403
S1134D1021319C018D859E858217930708F38EE9C6
S1134D209CE20E9421319C0189819A81820F931F08
S1134D3089839A8363C08BAD9CAD9C012C5F3F4FEC
S1134D402BAF3CAFFC0180819181A281B3818B8F19
S1134D509C8FAD8FBE8F8B8D9C8DAD8DBE8DAC0128
S1134D60BD018EE99CE20E9427291F86188A15C07E
S1134D7029813A818F859889820F931F2F853889DD
S1134D802256334DF90120818E54934DFC0120832A
S1134D908F85988901968F87988B8EE99CE20E9473
S1134DA021319C018F8598898217930708F38EE936
S1134DB09CE20E9421319C0189819A81820F931F78
S1134DC089839A8300001AC089819A818E54934DF5
S1134DD02D89FC01208389819A818E54934DFC0195
S1134DE080818A3031F489819A818E54934DFC01FB
S1134DF0108289819A81019689839A8389AD9AADBB
S1134E009C012F5F3F4F29AF3AAFFC0180818D8B0E
S1134E108D89882309F034CE29813A818FA998ADF0
S1134E20820F931F449754F024E130E08FA998AD8A
S1134E30A901481B590BCA0189839A83198A1A8AC2
S1134E400EC09E012F5D3F4F89899A89820F931F5F
S1134E50FC01108289899A890196898B9A8B8989A8
S1134E609A89449774F38DA98F8F8FA988A31B8A7D
S1134E701C8A14C08B899C898E54934DFC014081FB
S1134E809E012F5D3F4F8B899C89820F931FFC01EC
S1134E9040838B899C8901968B8B9C8B2B893C89C5
S1134EA089819A81281739072CF38091CD2C909110
S1134EB0CE2CBE01615E7F4F00E02FEF3FEFA901D2
S1134EC00E94E90D89819A81EC96CDBFDEBFDF9106
S1134ED0CF910F910895CF93DF93CDB7DEB7289785
S1134EE0CDBFDEBF8F83988719821A828F81988500
S1134EF0FC0180819181A281B3818B839C83AD83EA
S1134F00BE8315C020E030E040E251E46B817C8137
S1134F108D819E810E94BA2ADC01CB018B839C8304
S1134F20AD83BE8389819A81019689839A8320E027
S1134F3030E040E85FE36B817C818D819E810E943B
S1134F40142C8823FCF615C020E030E040E251E444
S1134F506B817C818D819E810E94192CDC01CB01A7
S1134F608B839C83AD83BE8389819A8101978983D6
S1134F709A832DEC3CEC4CEC5DE36B817C818D8160
S1134F809E810E94B52A8823FCF22F8138858B816B
S1134F909C81AD81BE81F90180839183A283B38317
S1134FA089819A812896CDBFDEBFDF91CF91089584
S1134FB0CF92DF92EF92FF92CF93DF93CDB7DEB71C
S1134FC02E97CDBFDEBF89879A874B875C876D8715
S1134FD07E8719821A821B821C828B859C85AD85F3
S1134FE0BE8520E030E0A901BC01CD010E94B52AB4
S1134FF0882359F489859A8520E3FC0120838985D7
S11350009A850196FC01108218C18B859C85AD851B
S1135010BE8520E030E0A901BC01CD010E94B52A83
S113502088239CF489859A859C012F5F3F4F2987AB
S11350303A872DE2FC0120838B859C85AD85BE8556
S1135040B0588B879C87AD87BE87CE010B960E9494
S11350506B2789839A8353C08B859C85AD85BE85D8
S113506020E030E040E251E4BC01CD010E94192C63
S1135070DC01CB01BC01CD010E942C2BDC01CB0156
S11350808D839E8389859A859C012F5F3F4F298755
S11350903A872D81205DFC0120838B859C85AD851D
S11350A0BE8520E030E040E251E4BC01CD010E9425
S11350B0192CDC01CB016C017D018D819E81092EAF
S11350C0000CAA0BBB0BBC01CD010E94642BDC01BC
S11350D0CB019C01AD01C701B6010E94482ADC0145
S11350E0CB018B879C87AD87BE878B819C81019682
S11350F08B839C8389819A81019789839A8389818F
S11351009A81181619060CF4A7CF8B819C81892BE0
S113511051F489859A859C012F5F3F4F29873A87EF
S113512020E3FC01208389859A859C012F5F3F4FF2
S113513029873A872EE2FC01208314C089859A8549
S11351409C012F5F3F4F29873A8720E3FC0120838E
S113515089819A81019789839A838B819C810196A5
S11351608B839C8389819A8199230CF058C0809108
S11351704520909146202B813C8128173907F4F271
S11351804EC08B859C85AD85BE8520E030E040E235
S113519051E4BC01CD010E94192CDC01CB01BC01FE
S11351A0CD010E942C2BDC01CB018F83988789854C
S11351B09A859C012F5F3F4F29873A872F81205D75
S11351C0FC0120838B859C85AD85BE8520E030E085
S11351D040E251E4BC01CD010E94192CDC01CB0159
S11351E06C017D018F819885092E000CAA0BBB0BE5
S11351F0BC01CD010E94642BDC01CB019C01AD01FB
S1135200C701B6010E94482ADC01CB018B879C8729
S1135210AD87BE878B819C8101968B839C83809113
S11352204520909146202B813C81281739070CF4A6
S1135230A8CF89859A85FC0110822E96CDBFDEBF4A
S1135240DF91CF91FF90EF90DF90CF900895CF92B0
S1135250DF92EF92FF92CF93DF93CDB7DEB72E9715
S1135260CDBFDEBF89879A874B875C876D877E8732
S11352701B821C828B859C85AD85BE8520E030E039
S1135280A901BC01CD010E94B52A882359F489855E
S11352909A8520E3FC01208389859A850196FC0187
S11352A01082ECC08B859C85AD85BE8520E030E006
S11352B0A901BC01CD010E94B52A88239CF48985EB
S11352C09A859C012F5F3F4F29873A872DE2FC0185
S11352D020838B859C85AD85BE85B0588B879C8744
S11352E0AD87BE87CE010B960E946B278B839C8370
S11352F08B859C85AD85BE8520E030E040E251E49D
S1135300BC01CD010E94192CDC01CB01BC01CD01F3
S11353100E942C2BDC01CB018D839E8389859A8589
S11353209C012F5F3F4F29873A872D81205DFC0127
S113533020838B859C85AD85BE8520E030E040E2EE
S113534051E4BC01CD010E94192CDC01CB016C019C
S11353507D018D819E81092E000CAA0BBB0BBC0123
S1135360CD010E94642BDC01CB019C01AD01C7017E
S1135370B6010E94482ADC01CB018B879C87AD874C
S1135380BE878B819C8101978B839C8389859A85B9
S11353909C012F5F3F4F29873A872EE2FC0120832F
S11353A019821A824EC08B859C85AD85BE8520E00E
S11353B030E040E251E4BC01CD010E94192CDC0133
S11353C0CB01BC01CD010E942C2BDC01CB018F83CE
S11353D0988789859A859C012F5F3F4F29873A8753
S11353E02F81205DFC0120838B859C85AD85BE8546
S11353F020E030E040E251E4BC01CD010E94192CD0
S1135400DC01CB016C017D018F819885092E000C94
S1135410AA0BBB0BBC01CD010E94642BDC01CB01A8
S11354209C01AD01C701B6010E94482ADC01CB01F1
S11354308B879C87AD87BE8789819A8101968983F2
S11354409A83809147209091482029813A81281796
S113545039070CF4A8CF89859A859C012F5F3F4FAB
S113546029873A8725E6FC01208329853A858B81A3
S11354709C814AE050E0B9010E9435312E96CDBF9F
S1135480DEBFDF91CF91FF90EF90DF90CF90089532
S11354905058BB27AA270E94602A0C94DA2B0E943A
S11354A0CC2B38F00E94D32B20F039F49F3F19F411
S11354B026F40C94C92B0EF4E095E7FB0C94C32B53
S11354C0E92F0E94EB2B58F3BA176207730784077E
S11354D0950720F079F4A6F50C940D2C0EF4E095C4
S11354E00B2EBA2FA02D0B01B90190010C01CA019A
S11354F0A0011124FF27591B99F0593F50F4503E45
S113550068F11A16F040A22F232F342F4427585F36
S1135510F3CF469537952795A795F0405395C9F74E
S11355207EF41F16BA0B620B730B840BBAF0915006
S1135530A1F0FF0FBB1F661F771F881FC2F70EC0A5
S1135540BA0F621F731F841F48F487957795679578
S1135550B795F7959E3F08F0B0CF9395880F08F064
S11355609927EE0F9795879508950E949F2B08F42D
S113557081E008950E94CE2A0C94DA2B0E94D32B4A
S113558058F00E94CC2B40F029F45F3F29F00C9492
S1135590C32B51110C940E2C0C94C92B0E94EB2B91
S11355A068F39923B1F3552391F3951B550BBB274E
S11355B0AA2762177307840738F09F5F5F4F220F93
S11355C0331F441FAA1FA9F335D00E2E3AF0E0E88A
S11355D032D091505040E695001CCAF72BD0FE2FD4
S11355E029D0660F771F881FBB1F26173707480768
S11355F0AB07B0E809F0BB0B802DBF01FF27935820
S11356005F4F3AF09E3F510578F00C94C32B0C94F5
S11356100E2C5F3FE4F3983ED4F386957795679517
S1135620B795F7959F5FC9F7880F911D9695879554
S113563097F90895E1E0660F771F881FBB1F621773
S113564073078407BA0720F0621B730B840BBA0B31
S1135650EE1F88F7E09508950E94332B6894B111EA
S11356600C940E2C08950E94F32B88F09F5798F009
S1135670B92F9927B751B0F0E1F0660F771F881F53
S1135680991F1AF0BA95C9F714C0B13091F00E946D
S11356900D2CB1E008950C940D2C672F782F8827DA
S11356A0B85F39F0B93FCCF3869577956795B39594
S11356B0D9F73EF490958095709561957F4F8F4F03
S11356C09F4F0895E89409C097FB3EF49095809508
S11356D0709561957F4F8F4F9F4F9923A9F0F92FB4
S11356E096E9BB279395F695879577956795B79532
S11356F0F111F8CFFAF4BB0F11F460FF1BC06F5F18
S11357007F4F8F4F9F4F16C0882311F096E911C029
S1135710772321F09EE8872F762F05C0662371F04A
S113572096E8862F70E060E02AF09A95660F771F5E
S1135730881FDAF7880F9695879597F90895990F3A
S11357400008550FAA0BE0E8FEEF16161706E80747
S1135750F907C0F012161306E407F50798F0621B68
S1135760730B840B950B39F40A2661F0232B242B3D
S1135770252B21F408950A2609F4A140A6958FEF5C
S1135780811D811D089597F99F6780E870E060E0AE
S113579008959FEF80EC089500240A9416161706C6
S11357A018060906089500240A941216130614060E
S11357B005060895092E0394000C11F4882352F071
S11357C0BB0F40F4BF2B11F460FF04C06F5F7F4F29
S11357D08F4F9F4F089557FD9058440F551F59F010
S11357E05F3F71F04795880F97FB991F61F09F3FCA
S11357F079F087950895121613061406551FF2CFF3
S11358004695F1DF08C0161617061806991FF1CF42
S113581086957105610508940895E894BB27662769
S11358207727CB0197F908950E949F2B08F48FEFF7
S113583008950E942C2C0C94DA2B0E94CC2B38F067
S11358400E94D32B20F0952311F00C94C32B0C94BD
S1135850C92B11240C940E2C0E94EB2B70F3959FF2
S1135860C1F3950F50E0551F629FF001729FBB2753
S1135870F00DB11D639FAA27F00DB11DAA1F649FEF
S11358806627B00DA11D661F829F2227B00DA11DA2
S1135890621F739FB00DA11D621F839FA00D611D28
S11358A0221F749F3327A00D611D231F849F600D49
S11358B0211D822F762F6A2F11249F5750409AF072
S11358C0F1F088234AF0EE0FFF1FBB1F661F771FFE
S11358D0881F91505040A9F79E3F510580F00C94C9
S11358E0C32B0C940E2C5F3FE4F3983ED4F38695BF
S11358F077956795B795F795E7959F5FC1F7FE2B69
S1135900880F911D9695879597F908952F923F9248
S11359104F925F926F927F928F929F92AF92BF92BB
S1135920CF92DF92EF92FF920F931F93CF93DF9367
S1135930CDB7DEB76097CDBFDEBF7C011B016A0126
S1135940FC0116821782838181FF44C39E012F5F6D
S11359503F4F3901F7019381F10193FD859193FF45
S113596081911F01882309F431C3853239F493FDF1
S1135970859193FF81911F01853239F4B70190E03D
S11359800E94653156016501E5CF10E0512C912C40
S1135990FFE1F915D8F08B3279F038F4803279F0E0
S11359A08332A1F4F92DF0612EC08D3261F0803381
S11359B069F4292D21602DC0392D3260932E892D53
S11359C08460982E2AC0E92DE86015C097FC2DC08C
S11359D020ED280F2A3088F496FE06C03AE0139F83
S11359E0200D1124122F19C08AE0589E200D112475
S11359F0522EE92DE0629E2E10C08E3231F496FCB8
S1135A00E5C2F92DF0649F2E08C08C3621F4292DAF
S1135A102068922E02C0883641F4F10193FD8591ED
S1135A2093FF81911F018111B3CF9BEB980F9330AA
S1135A3020F4992D9061805E07C09BE9980F933004
S1135A4008F066C1992D9F7E96FF16E09F73992EEC
S1135A50853619F49064992E08C0863621F4392FBE
S1135A603068932E02C01111115097FE07C01C33E9
S1135A7050F444244394410E27E00BC0183038F00E
S1135A8027E017E005C027E09CE3492E02C0212F40
S1135A90412C560184E0A80EB11CF601608171818D
S1135AA082819381042DA3010E942E306C01F9811F
S1135AB0FC87F0FF02C0F3FF06C091FC06C092FE13
S1135AC006C000E205C00DE203C00BE201C000E025
S1135AD08C858C7019F001115AC29BC297FE10C0BC
S1135AE04C0CFC85F4FF04C08A81813309F44A9488
S1135AF0141474F528E0241578F588E0482E2CC099
S1135B0096FC2AC0812F90E08C159D059CF03CEFFB
S1135B10C3163FEFD30674F0892D8068982E0AC00F
S1135B20E2E0F0E0EC0FFD1FE10FF11D8081803316
S1135B3019F411501111F4CF97FE0EC0442443946C
S1135B40410E812F90E0C816D9062CF41C1904C00C
S1135B504424439401C010E097FE06C01C141D04A5
S1135B6034F4C601019605C085E090E002C081E0EE
S1135B7090E001110196112331F0212F30E02F5FC5
S1135B803F4F820F931F252D30E08217930714F4A3
S1135B90581A01C0512C892D897049F4552039F0C7
S1135BA0B70180E290E00E9465315A94F7CF002358
S1135BB029F0B701802F90E00E94653193FC09C061
S1135BC0552039F0B70180E390E00E9465315A9482
S1135BD0F7CF97FE4CC04601D7FE02C0812C912C12
S1135BE0C60188199909F301E80FF91FED87FE87AB
S1135BF09601241931092F87388B012F10E0119554
S1135C00019511093FEF8316930629F4B7018EE23B
S1135C1090E00E946531C814D9044CF08F859889AE
S1135C208815990524F4ED85FE85818101C080E302
S1135C30F1E08F1A91082D853E852F5F3F4F2D8708
S1135C403E87801691062CF0B70190E00E946531E2
S1135C50D9CFC814D90441F49A81963320F49533EA
S1135C6019F43C8534FF81E3B70190E04EC08A818A
S1135C70813319F09C859F7E9C87B70190E00E9438
S1135C806531111105C094FC18C085E690E017C079
S1135C90B7018EE290E00E9465311E5F82E001E070
S1135CA0080FF301E80FF11D8081B70190E00E9415
S1135CB06531802F0113F3CFE6CF85E490E0B7017F
S1135CC00E946531D7FC06C0C114D10441F4EC85AF
S1135CD0E4FF05C0D194C194D1088DE201C08BE2E8
S1135CE0B70190E00E94653180E32AE0C216D10436
