S00E0000706963616C632E73726563AA
S11300000C949F010C94C8010C94C8010C94C80171
S11300100C94C8010C94C8010C94C8010C94C80138
S11300200C94C8010C94C8010C94C8010C94C80128
S11300300C94C8010C94C8010C9408070C94C801D2
S11300400C94C8010C94C8010C94C8010C94C80108
S11300500C94C8010C94C8010C94C8010C94C801F8
S11300600C94C8010C94C8010C94C8010C94C801E8
S11300700C94C8010C94C8010C94C8010C94C801D8
S11300800C94C8010C94C8010C94C8010C94C801C8
S11300900C94C8010C94C8010C94C8010C94C801B8
S11300A00C94C8010C94C8010C94C8010C94C801A8
S11300B00C94C8010C94C8010C94C8010C94C80198
S11300C00C94C8010C94C8010C94C8010C94C80188
S11300D00C94C8010C94C8010C94C8010C94C80178
S11300E00C94C8010C94C8010C94C8010C94C80168
S11300F00C94C8010C94C8010C94C8010C94C80158
S11301000C94C8010C94C8010C94C8010C94C80147
S11301100C94C8010C94C8010C94C8010C94C80137
S11301200C94C8010C94C8010C94C8010C94C80127
S11301300C94C8010C94F5150C94C8010C94C801D6
S11301400C94C8010C94C8010C94C8010C94C80107
S11301500C94C8010C94C8010C94C8010C94C801F7
S11301600C94C8010C94C8010C94C8010C94C801E7
S11301700C94C8010C94C8010C94C8010C94C801D7
S11301800C94C8010C94C8010C94C8010C94C801C7
S11301900C94C8010C94C8010C94C8010C94C801B7
S11301A00C94C8010C94C8010C94C8010C94C801A7
S11301B00C9426160C94C8010C94C8010C94C80124
S11301C00C94C8010C94C8010C94C8010C94C80187
S11301D00C94C8010C94C8010C94C8010C94C80177
S11301E00C94C8010C94C8010C94C8010C94C80167
S11301F00C94C8010C94C8010C94C80150125012FC
S113020050129D1285129A12501250129D1285128C
S11302100C949D120C94F3040C94B9180C9494113E
S11302200C946F130C9485120C9499140C949A12D8
S11302300C94E5140C9450120C941D0B6E616E001A
S1130240696E660000407A10F35A00A0724E1809D5
S11302500010A5D4E80000E87648170000E40B5429
S1130260020000CA9A3B000000E1F50500008096F8
S11302709800000040420F000000A086010000002A
S1130280102700000000E8030000000064000000E4
S113029000000A00000000000100000000002C76AD
S11302A0D888DC674F0823DFC1DFAE59E1B1B796C8
S11302B0E5E3E453C63AE651997696E8E6C2842625
S11302C0EB898C9B62ED407C6FFCEFBC9C9F40F201
S11302D0BAA56FA5F490055A2AF75C936B6CF9677D
S11302E06DC11BFCE0E40D47FEF520E6B500D0ED42
S11302F0902E0300943577050080841E08000020AA
S11303004E0A000000C80C333333330F986E128347
S11303101141EF8D2114893BE65516CFFEE6DB181B
S1130320D1844B381BF77C1D901DA4BBE4242032E0
S113033084725E228100C9F124ECA1E53D271124D9
S11303401FBECFEFCDBFDFE3DEBF00E00CBFEDEF9C
S1130350FCE28AEA90E48193E030F907E0F310E2EA
S1130360A0E0B0E2E6ECFEE400E00BBF02C00790C0
S11303700D92A836B107D9F72CE2A8E6B0E201C085
S11303801D92AD3FB207E1F70E9429130C94612737
S11303900C940000CF93DF93CDB7DEB780EA96E0EC
S11303A020E1FC01228380EA96E020E2FC01228322
S11303B080EA96E020E4FC01228380EA96E020E8CB
S11303C0FC0122830000DF91CF910895CF93DF9346
S11303D0CDB7DEB780EA96E0FC018085882F90E0F7
S11303E08071992795958795959587959595879586
S11303F095958795892B89F480916820909169203F
S113040080369A4E20F5809168209091692001965B
S113041080936820909369201AC0809168209091FD
S113042069200B9768F08091682090916920C397A8
S113043018F01092E42C07C081E08093E42C03C0F0
S113044082E08093E42C109268201092692080EA64
S113045096E0FC018085882F90E08072992795951D
S11304608795959587959595879595958795959570
S11304708795892B89F480916A2090916B2080362E
S11304809A4E20F580916A2090916B20019680937A
S11304906A2090936B201AC080916A2090916B20FF
S11304A00B9768F080916A2090916B20C39718F0A5
S11304B01092E52C07C081E08093E52C03C082E014
S11304C08093E52C10926A2010926B2080EA96E0CB
S11304D0FC018085882F90E080749927082E892F4D
S11304E0000C881F990B000C881F991F892B89F415
S11304F080916C2090916D2080369A4E20F58091E9
S11305006C2090916D20019680936C2090936D20C7
S11305101AC080916C2090916D200B9768F08091A7
S11305206C2090916D20C39718F01092E62C07C0B0
S113053081E08093E62C03C082E08093E62C109245
S11305406C2010926D2080EA96E0FC01808588235F
S11305508CF080916E2090916F2080369A4E20F519
S113056080916E2090916F20019680936E209093DD
S11305706F201AC080916E2090916F200B9768F0C5
S113058080916E2090916F20C39718F01092E72C01
S113059007C081E08093E72C03C082E08093E72CBE
S11305A010926E2010926F200000DF91CF91089579
S11305B0CF93DF931F92CDB7DEB789838981882FCC
S11305C090E08130910579F0823091051CF4892BFB
S11305D039F012C08230910549F0039751F00CC0F4
S11305E08091E42C0AC08091E52C07C08091E62C10
S11305F004C08091E72C01C082E00F90DF91CF917D
S113060008950F93CF93DF931F92CDB7DEB72FB723
S11306102983F8941BBEFC0108ED04BF6083898123
S11306208FBF0F90DF91CF910F910895611102C098
S113063090E001C090E2842B892B809352000895AE
S11306406F71862B809355000895E0E5F0E090816A
S1130650282F209592239083908189230895682BD5
S113066081E490E00E94010308950F931F93CF93B8
S1130670C82F00E410E0F8016081687F682B80E4F3
S113068090E00E940103F80180818C23CF911F9197
S11306900F910895FC019081907F692B60830895E8
S11306A0FC019181987F692B61830895FC019681F7
S11306B09C7F692B66830895000088ED84BF81E0E8
S11306C08093790008950E945C030895CF93DF938B
S11306D080E190E00E940305EC01009741F0FC01E9
S11306E01192119211921192CF010E942A05CE010A
S11306F0DF91CF9108952F923F924F925F926F9224
S11307007F928F929F92AF92BF92CF92DF92EF929D
S1130710FF920F931F93CF93DF93EC014A015B0188
S1130720622E702E0E94770C288039804A805B806C
S113073001110DC081E0B201A101482159216A21B2
S11307407B21452B462B472B79F480E00DC081E0BB
S1130750B201A101482159216A217B21481559057B
S11307606A057B0509F080E0882381F0662009F49E
S113077070C080949094A094B09482209320A4207C
S1130780B52088829982AA82BB8263C0C114D10435
S1130790E104F10409F45DC0662029F040E050E072
S11307A060E071E003C040E050E0BA017110746091
S11307B0482959296A297B2997018601CE01049683
S11307C00E94A60E0E94620D811102C00E9488063A
S11307D00E94E30F91FD39C0F091A200FF93F87FCE
S11307E0F093A200688179818A819B8171100DC088
S11307F021E075016401C622D722E822F922CD281E
S1130800CE28CF2879F420E00DC021E075016401E1
S1130810C622D722E822F922C814D904EA04FB0428
S113082009F020E0222371F0662061F08094909416
S1130830A094B09486229722A822B9228882998211
S1130840AA82BB82FF91F093A2001B012C015524C4
S113085002C00E94620DC201B101DF91CF911F91CC
S11308600F91FF90EF90DF90CF90BF90AF909F904B
S11308708F907F906F905F904F903F902F9008954E
S11308800F931F93F091A200FF93F87FF093A200BF
S1130890FC0100811181228133814095509560953E
S11308A070954023512362237323408351836283D1
S11308B07383FF91F093A200C901B8011F910F91B6
S11308C008954F925F926F927F92AF92BF92CF92B0
S11308D0DF92EF92FF920F931F93CF93DF93EC017C
S11308E06A017B018C01095F1F4F0E94770CEB8525
S11308F0FC8588819981AA81BB81C82AD92AEA2AE0
S1130900FB2AC882D982EA82FB820E171F0709F4E8
S113091042C0C12CD12C7601A480B5808081918104
S1130920A281B381AC01BD017727B2FD0FC048801D
S113093059806A807B80442255226622772221E0F6
S113094045284628472889F420E00FC0488059806C
S11309506A807B80442255226622772221E0441655
S113096055066606770609F020E0222371F0B0FFF1
S113097004C0C42AD52AE62AF72A488159816A8103
S11309807B817260CF010E942E0FEA2DFB2D0E1782
S11309901F0711F603C0C12CD12C7601C094D0944A
S11309A0E094F09488819981AA81BB81C822D922DC
S11309B0EA22FB22C882D982EA82FB820E94620D6B
S11309C0688179818A819B81DF91CF911F910F91F9
S11309D0FF90EF90DF90CF90BF90AF907F906F909B
S11309E05F904F9008950E94610408950F931F93A0
S11309F089019A01AB01BC0183EF94E00E94C31208
S1130A001F910F910895CF93DF93EC010E94770C0F
S1130A102091702030917120C9018C0F9D1F883B5B
S1130A204BE0940758F42817390758F4E901CE58D5
S1130A30DF4D809370209093712005C0C0E0D0E01A
S1130A4002C0C0E0D0E00E94620DCE01DF91CF91E0
S1130A5008950895FC010396818392834FEF5FEF1D
S1130A60BA01438354836583768387839087818720
S1130A70928710820895FC01128613860895CF93FD
S1130A80DF939C01FB01DC011196CD91DC9112975F
S1130A90C483D5838E819F81868397838E819F8132
S1130AA0DC0114966D937C9315976E837F83228764
S1130AB03387F90180818F5F8083DF91CF9108951F
S1130AC00F931F93CF93DF93EB01088119812A8140
S1130AD03B810F3F4FEF14072407340721F4FC0137
S1130AE0A185B28511C0DC01139601C0DF01149603
S1130AF0ED91FC91159740815181628173810417B6
S1130B0015072607370790F71496ED91FC91159772
S1130B10EC83FD83C683D783AE83BF831496CD93C2
S1130B20DC9315978A879B87FC0120812F5F2083A4
S1130B30DF91CF911F910F910895CF93DF93FC0123
S1130B40A285B385C481D581868197818E839F8355
S1130B50C681D781848195818C839D8311968D91E3
S1130B609C911297E817F90731F4868197811196C1
S1130B708D939C931297128613868C9181508C933B
S1130B808C91DF91CF910895E0EAF0E08281928127
S1130B90987F92830895CF92DF92EF92FF9231E192
S1130BA0FC013083319722E220833197A3E3A083B1
S1130BB06B01E12CF12C319760833197D08231970E
S1130BC0E082319761E36083319760E86083319715
S1130BD067E860833197108231971082319762E021
S1130BE06083319763E06083319764E06083319779
S1130BF065E06083319766E06083319767E06083E6
S1130C00319768E06083319769E06083319760E1F0
S1130C10608331973083319732E13083319733E108
S1130C203083319734E13083319735E13083319724
S1130C3036E13083319737E13083319738E13083BF
S1130C40319739E13083319730E23083319731E2A3
S1130C50308331972083319723E220836A013197CF
S1130C6040833197D082319726E22083319727E25F
S1130C702083319728E22083319729E2208331971A
S1130C8020E320838897FF90EF90DF90CF90089522
S1130C9083EF91E0809326089093270865E080E035
S1130CA098E00E944A0361E080E098E00E945603C5
S1130CB0A091982CB091992C0D900DBE0D900EBE64
S1130CC0EF91DF91CF91BF91AF919F918F917F91E0
S1130CD06F915F914F913F912F911F910F91FF90D1
S1130CE0EF90DF90CF90BF90AF909F908F907F90C8
S1130CF06F905F904F903F902F901F900F90FF91B7
S1130D00F093A200FF91FFBFFF91089581E0089541
S1130D10FF93FFB7FF93F091A200FF93F87FF09346
S1130D20A2000F921F9211242F923F924F925F9232
S1130D306F927F928F929F92AF92BF92CF92DF92E7
S1130D40EF92FF920F931F932F933F934F935F93D1
S1130D506F937F938F939F93AF93BF93CF93DF93BF
S1130D60EF93A091982CB091992C0DB60D920EB6DC
S1130D700D920E94000EA091982CB091992C0D9088
S1130D800DBE0D900EBEEF91DF91CF91BF91AF914B
S1130D909F918F917F916F915F914F913F912F918F
S1130DA01F910F91FF90EF90DF90CF90BF90AF9085
S1130DB09F908F907F906F905F904F903F902F9077
S1130DC01F900F90FF91F093A200FF91FFBFFF913E
S1130DD00895CF939091E82C892B8093E82C9091DF
S1130DE0A000913041F09091A000923021F09091B8
S1130DF0A000943059F4882349F00E94C405C82FF8
S1130E001092E82C0E94000EC093A200CF91089586
S1130E10FF93FFB7FF93F091A200FF93F87FF09345
S1130E20A2000F921F9211242F923F924F925F9231
S1130E306F927F928F929F92AF92BF92CF92DF92E6
S1130E40EF92FF920F931F932F933F934F935F93D0
S1130E506F937F938F939F93AF93BF93CF93DF93BE
S1130E60EF93A091982CB091992C0DB60D920EB6DB
S1130E700D920E94C405C82F0E948F0CC093A2003B
S1130E8081E00E94E906A091982CB091992C0D90D4
S1130E900DBE0D900EBEEF91DF91CF91BF91AF913A
S1130EA09F918F917F916F915F914F913F912F917E
S1130EB01F910F91FF90EF90DF90CF90BF90AF9074
S1130EC09F908F907F906F905F904F903F902F9066
S1130ED01F900F90FF91F093A200FF91FFBFFF912D
S1130EE01895F091A200FF93F87FF093A200FC0103
S1130EF0968DFF91F093A20081E0911180E0089516
S1130F00DC01F091A200FF93F87FF093A2005E96BB
S1130F109C915E97FF91F093A20081E05F962C91E3
S1130F20291380E008950F931F93CF93DF93EC016F
S1130F30042F1E8D48A14423B9F1011116C050E0BD
S1130F408C819D810E943A2628A18C819D81820FEB
S1130F50911D8C839D832A813B818217930720F105
S1130F60888199818C839D831FC050E08E819F81ED
S1130F700E943A2688A190E09195819591092E814D
S1130F803F81280F391F2E833F83488159812417BD
S1130F90350730F42A813B81820F931F8E839F8310
S1130FA0023011F4111111501F5F1E8F80E0DF9188
S1130FB0CF911F910F910895FC0140A14423A9F002
S1130FC050E026813781240F351F268337838281A1
S1130FD093812817390720F0808191818683978334
S1130FE0CB01668177810E943A260895EF92FF92A1
S1130FF00F931F93CF938C01F091A200FF93F87F7E
S1131000F093A200FC01C2A11C16ACF483898111E7
S113101006C011C0F8018389811105C00CC0780194
S1131020F3E1EF0EF11CC7010E94EC0E81110E9446
S1131030D10FC15079F78FEFF80182A3FF91F0939C
S1131040A200F091A200FF93F87FF093A200F801B0
S1131050C1A11C16ACF48085811106C011C0F80131
S11310608085811105C00CC07801F8E0EF0EF11CF9
S1131070C7010E94EC0E81110E94D10FC15079F773
S11310808FEFF80181A3FF91F093A200CF911F91FC
S11310900F91FF90EF900895CF93DF93EC01F091BF
S11310A0A200FF93F87FF093A2004881598128A100
S11310B030E07F8D729FC001739F900D1124FA015F
S11310C0E80FF91FEA83FB831E8E4C835D83821B2A
S11310D0930B840F951F8E839F838FEF89A38AA31D
S11310E061110CC08885882389F0CE0108960E947E
S11310F0EC0E882359F00E94880608C0CE01089699
S11311000E942A05CE0143960E942A05FF91F0937E
S1131110A20081E0DF91CF910895FF920F931F9376
S1131120CF93DF93082F162FF42E6623C9F0869FE2
S1131130C001112485960E940305EC01009749F42F
S113114016C00F8F18A361E0CE010E944C08FCA2C8
S11311500EC0859688839983F4CFC883D983F1CF51
S113116085E290E00E940305EC01892BB1F7CE01E2
S1131170DF91CF911F910F91FF900895AF92BF928D
S1131180CF92DF92EF92FF920F931F93CF93DF934F
S1131190CDB7DEB72997CDBFDEBF7C015B012E83BF
S11311A03F834887598710E06C0188E0C80ED11C42
S11311B0F091A200FF93F87FF093A200F701968DBF
S11311C0878D981710F00230D1F4402FB501C70174
S11311D00E949307F7019389992349F0C701439625
S11311E00E94EC0E882331F00E94880603C081110E
S11311F00E948806FF91F093A20081E057C08E817F
S11312009F81A885B985892B8A2B8B2B29F4FF9183
S1131210F093A20080E04AC0111105C0CE010196EE
S11312200E94620F11E0FF91F093A2000E94770CDC
S1131230F091A200FF93F87FF093A200F70181A13F
S11312408F3F09F411A2F70182A18F3F09F412A282
S1131250FF91F093A200BE016A5F7F4FCE01019619
S11312600E94730F81111CC0C7010E94800788234C
S113127089F04E815F8168857985C6010E948E0E52
S1131280C7010E94F6070E94620D811191CF0E944E
S113129088068ECFC7010E94F6070E94620D88CF90
S11312A0C7010E94F6070E94620D80E02996CDBF17
S11312B0DEBFDF91CF911F910F91FF90EF90DF90F0
S11312C0CF90BF90AF900895AF92BF92CF92DF922C
S11312D0FF920F931F93CF93DF93EC016B015A019D
S11312E0022F0E94C405F82E9E8D8F8D981710F042
S11312F00230E1F41AA1402FB601CE010E949307F7
S11313001F3F81F48B89882399F0CE0143960E9474
S1131310EC0E882379F0A114B10471F081E0F50199
S113132080830BC01F5F1AA381E007C080E005C063
S113133081E003C081E001C081E0F092A200DF916E
S1131340CF911F910F91FF90DF90CF90BF90AF90FE
S11313500895AF92BF92CF92DF92EF92FF920F93D4
S11313601F93CF93DF93CDB7DEB72997CDBFDEBFF1
S11313708C015B012E833F8348875987E12C6C01E4
S113138083E1C80ED11CF091A200FF93F87FF09383
S1131390A200F801F68CFF20B1F0B501C8010E944B
S11313A0DC07FA94F801F68E8085882339F0C801A9
S11313B008960E94EC0E81110E948806FF91F0931A
S11313C0A20081E05EC08E819F81A885B985892BAA
S11313D08A2B8B2B29F4FF91F093A20080E051C05B
S11313E0E11006C0CE0101960E94620FEE24E39440
S11313F0FF91F093A2000E94770CF091A200FF935A
S1131400F87FF093A200F80181A18F3F09F411A2A3
S1131410F80182A18F3F09F412A2FF91F093A20078
S1131420BE016A5F7F4FCE0101960E94730F811146
S11314301CC0C8010E947107882389F04E815F8116
S113144068857985C6010E948E0EC8010E94F60740
S11314500E94620D811197CF0E94880694CFC80123
S11314600E94F6070E94620D8ECFC8010E94F60703
S11314700E94620DC8010E947107882309F483CF7A
S113148080E02996CDBFDEBFDF91CF911F910F91F0
S1131490FF90EF90DF90CF90BF90AF900895F091C0
S11314A0A200FF93F87FF093A200FC01868DFF91C8
S11314B0F093A2000895CF93DF93EC01F091A20082
S11314C0FF93F87FF093A20089A18F3F09F419A23A
S11314D08AA18F3F09F41AA2FF91F093A2008E8D86
S11314E0811104C0CE0143960E94CB0ECE010E940E
S11314F0F607DF91CF910895E091542CF091552C8B
S1131500808181110CC08FEF9FEFDC0180932D2C23
S113151090932E2CA0932F2CB093302C0895E0910F
S1131520542CF091552C0780F085E02D0084F18532
S1131530E02D82819381A481B58180932D2C909399
S11315402E2CA0932F2CB093302C08958F929F9221
S1131550AF92BF92CF92DF92EF92FF92CF936B0143
S11315607C01C42F8090372C9090382CA090392C7B
S1131570B0903A2C8091982C9091992C02960E94CC
S11315809D058FEFC816D806E806F80669F4CC2343
S113159059F06091982C7091992C6E5F7F4F8CE379
S11315A09CE20E943F053FC0C80CD91CEA1CFB1CEE
S11315B0E091982CF091992CC282D382E482F58236
S11315C0C814D904EA04FB0468F46091982C70915F
S11315D0992C8091522C9091532C6E5F7F4F0E94D6
S11315E0600521C06091982C7091992C8091542CA5
S11315F09091552C6E5F7F4F0E94600580912D2C39
S113160090912E2CA0912F2CB091302CC816D90675
S1131610EA06FB0640F4C0922D2CD0922E2CE092C8
S11316202F2CF092302CCF91FF90EF90DF90CF9041
S1131630BF90AF909F908F900895CCE6DCE28881B4
S1131640823010F00E9488060E942113F8CF4F9236
S11316505F926F927F928F929F92AF92BF92CF923E
S1131660DF92EF92FF920F93CF93DF934C016B01C4
S11316705A012901CA010E9403053C01892B09F47E
S1131680EAC08CE290E00E940305EC01892BB1F0E2
S11316906B8E7C8EA50165EA70E0C3010E9443262F
S11316A021E0A21AB1088B8D9C8DA80EB91ED6011B
S11316B08C918D8F8C91811105C018C0C3010E943B
S11316C02905C9C0AE01425E5F4FF6013196B8E00C
S11316D0CB0ED11CCF012191DA012D93AD01DC0198
S11316E08C91882319F0EC15FD05A1F71CA2043098
S11316F008F003E00A8F6E01B2E0CB0ED11CC601E4
S11317000E943B05CE010E960E943B05CA87DB87EB
S113171084E090E0A0E0B0E0801B9109A109B10948
S11317208E879F87A88BB98BCE8BDF8B1FA218A6C1
S113173019A61AA61BA6A201B401C5010E94CB05D5
S113174088839983E114F10419F0F701C083D183EC
S1131750F091A200FF93F87FF093A20080913B2CBC
S11317608F5F80933B2C8091982C9091992C892B9E
S1131770A9F5C093982CD093992C80913B2C81305F
S1131780E9F58CE69CE20E942A0587E79CE20E9428
S11317902A0582E89CE20E942A058DE89CE20E94C8
S11317A02A0581E69CE20E942A0586E59CE20E94C5
S11317B02A0587E49CE20E942A058CE39CE20E94AD
S11317C02A0581E69CE28093542C9093552C86E55F
S11317D09CE28093522C9093532C10C08091352C12
S11317E081110CC0E091982CF091992C928D8A8DE6
S11317F0891720F0C093982CD093992C8091312C88
S11318008F5F8093312C8DA38A8D9091362C9817FD
S113181010F48093362CFBE08F9FC0011124B60195
S11318208459934D0E943F05FF91F093A20080914B
S1131830352C882361F0E091982CF091992C928DAD
S11318408A8D981730F40E94880681E005C081E0F3
S113185003C081E001C08FEFDF91CF910F91FF9022
S1131860EF90DF90CF90BF90AF909F908F907F903C
S11318706F905F904F900895EF92FF920F930F2E09
S1131880FBE2EF2EFCE2FF2EF02D00E020E030E042
S113189048EC50E066E570E28DE19BE00E94270B86
S11318A0813009F50E9481108130E9F4E0EAF0E02A
S11318B08281887F82838FEF9FEFDC0180932D2CC0
S11318C090932E2CA0932F2CB093302C81E08093F6
S11318D0352C1092372C1092382C1092392C1092EF
S11318E03A2C0E9448060F91FF90EF900895809142
S11318F02A2C8F5F80932A2C0895F091A200FF93E5
S1131900F87FF093A2006091372C7091382C80916D
S1131910392C90913A2CFF91F093A2000895AF9244
S1131920BF92CF92DF92EF92FF920F931F93CF93C8
S1131930DF9380912A2C8111ADC0C090372CD090B8
S1131940382CE090392CF0903A2C8FEFC81AD80A32
S1131950E80AF80AC092372CD092382CE092392C3D
S1131960F0923A2CC114D104E104F104B9F4809149
S1131970542C9091552C2091522C3091532C20931F
S1131980542C3093552C8093522C9093532C80914B
S1131990322C8F5F8093322C0E947C0A80912D2CF4
S11319A090912E2CA0912F2CB091302CC816D906D2
S11319B0EA06FB0610F4B12C5CC0B12C0F2EFBE040
S11319C0AF2EF02DE091542CF091552C8081811193
S11319D00CC08FEF9FEFDC0180932D2C90932E2C65
S11319E0A0932F2CB093302C44C0E091542CF09150
S11319F0552C0780F085E02DC085D1858A819B8197
S1131A00AC81BD81C816D906EA06FB0648F480936A
S1131A102D2C90932E2CA0932F2CB093302C29C0D6
S1131A208E010E5F1F4FC8010E949D05888D998D00
S1131A30892B21F0CE010E960E949D058A8D9091EE
S1131A40362C981710F48093362CA89EC0011124CC
S1131A50B8018459934D0E943F05E091982CF09170
S1131A60992C9A8D828D981708F4ACCFBB24B3942B
S1131A70A9CFE091982CF091992CE28D8BE0E89F0E
S1131A80F0011124E459F34D8081823048F0BB24E5
S1131A90B39406C08091342C8F5F8093342CB12C86
S1131AA08091332C882311F0BB24B3948B2DDF91C8
S1131AB0CF911F910F91FF90EF90DF90CF90BF9047
S1131AC0AF900895CF92DF92EF92FF920F931F93FE
S1131AD0CF93DF93F091A200FF93F87FF093A200DD
S1131AE080912A2C815080932A2C80912A2C811158
S1131AF05CC080913B2C81112CC05AC0D701179631
S1131B00ED91FC911897C085D185CE010E960E9467
S1131B109D058E010E5F1F4FC8010E949D058A8D91
S1131B209091362C981710F48093362CD89EC001CF
S1131B301124B8018459934D0E943F05E091982CDB
S1131B40F091992C9A8D828D981788F0C092332C3D
S1131B500EC0C0E0D0E00F2EF7E4EF2EFCE2FF2E23
S1131B60F02D0F2EFBE0DF2EF02DCC24C394F701D3
S1131B7080818111C3CFCD2B11F00E947C0AC091CA
S1131B80342CCC2351F0D1E00E948F0C8111D093DE
S1131B90332CC150C9F71092342C8091332C8823F4
S1131BA031F00E94880681E003C080E001C080E03B
S1131BB0FF91F093A200DF91CF911F910F91FF90BD
S1131BC0EF90DF90CF900895CF92DF92EF92FF9243
S1131BD06B017C01672B682B692B59F00E94770CF1
S1131BE040E0C701B6010E94A60A0E94620D81115D
S1131BF002C00E948806FF90EF90DF90CF90089576
S1131C0080912A2C882321F081E08093332C08953D
S1131C101092332CE091982CF091992C038CF48D34
S1131C20E02D80819181A281B381853A954AA54AAC
S1131C30B54AD9F484819581A681B781853A954ABC
S1131C40A54AB54A91F480859185A285B385853AE4
S1131C50954AA54AB54A49F484859585A685B785EC
S1131C60853A954AA54AB54A61F06091982C7091DD
S1131C70992C8091982C9091992C635E7F4F0E94AF
S1131C8063038091362C282F30E09BE0899FF0017C
S1131C901124E459F34D908191110EC04BE0815011
S1131CA0282F30E0429FF001439FF00D1124E459A6
S1131CB0F34D9081992399F39BE0929FA001939F08
S1131CC0500D1124DA01A459B34D1196ED91FC91F4
S1131CD012970480F581E02D1196ED93FC931297F1
S1131CE04159534DE417F50729F444815581FD0109
S1131CF0418352839BE0929FF001939FF00D112446
S1131D00E459F34D0180F281E02D20853185209343
S1131D10982C3093992C8093362C0895CF92DF928F
S1131D20EF92FF926A017B016091982C7091992C3B
S1131D30625F7F4F0E94600541E0C701B6010E94C7
S1131D40A60AFF90EF90DF90CF900895CF92DF9294
S1131D50EF92FF920F931F9368017901E091982C01
S1131D60F091992C706846875787608B718B6091CE
S1131D70982C7091992C625F7F4F0E943F0541E03F
S1131D80C701B6010E94A60A1F910F91FF90EF9020
S1131D90DF90CF900895CF92DF92EF92FF92CF938E
S1131DA06A017B01C22F6091982C7091992C625F1B
S1131DB07F4F0E943F05CC2321F0CC24CA94DC2C15
S1131DC076014C2FC701B6010E94A60ACF91FF905D
S1131DD0EF90DF90CF9008950F931F93CF93DF93ED
S1131DE0DC011796ED91FC911897C085D1858E0181
S1131DF0025F1F4FC8010E949D0580912A2C81110A
S1131E0016C00C501109C8010E949D058A8D90913D
S1131E10362C981710F48093362CBBE08B9FC001AE
S1131E201124B8018459934D0E943F0505C0B8019F
S1131E3087E49CE20E943F05E091982CF091992C54
S1131E409A8D828D891720F481E08093332C01C010
S1131E5080E0DF91CF911F910F9108950F931F930D
S1131E60CF93DF937068FC01408351836283738353
S1131E70C085D1850E949D058E010E5F1F4FC8014C
S1131E800E949D058A8D9091362C981710F48093AA
S1131E90362CFBE08F9FC0011124B8018459934D67
S1131EA00E943F05E091982CF091992C9A8D828D97
S1131EB0891718F481E08093332CDF91CF911F911F
S1131EC00F9108952091322CFC0120834091372CEE
S1131ED05091382C6091392C70913A2C4183528363
S1131EE0638374830895CF92DF92EF92FF920F93EE
S1131EF01F93CF93DF93DB01F091A200FF93F87F50
S1131F00F093A2004091372C5091382C6091392CD9
S1131F1070913A2C0D911D912D913C9113970F3F87
S1131F20CFEF1C072C073C0769F1FC01C180D2806C
S1131F30E380F480E091322CEC01F881FE1729F063
S1131F404C155D056E057F05F8F44C195D096E09A5
S1131F507F09401751076207730768F4FD01041BEA
S1131F60150B260B370B00831183228333830E94C6
S1131F70620F80E00AC01D921D921D921C9213975D
S1131F8081E003C080E001C081E0FF91F093A200F2
S1131F90DF91CF911F910F91FF90EF90DF90CF9041
S1131FA0089581E08093332C08958091352C882303
S1131FB031F080912A2C882321F080E0089581E07B
S1131FC0089582E00895CF92DF92EF92FF92E0911C
S1131FD0982CF091992C6685778580899189E09178
S1131FE0982CF091992CA091982CB091992C5A96F8
S1131FF02C91C12CD12C76016894C2F8C21AD10854
S1132000E108F108C686D786E08AF18AFF90EF904E
S1132010DF90CF900895CF92DF92EF92FF920F93CB
S11320201F93FC0142835383648375838287938760
S11320300417150726073707C0F00C191D092E09C8
S11320403F0986859785A089B189081719072A074A
S11320503B0700F5BF016E5F7F4F8091A22C9091EA
S1132060A32C0E94600580E018C00C151D052E05E8
S11320703F0528F44C155D056E057F0568F4BF0126
S11320806E5F7F4F8091A42C9091A52C0E946005D7
S113209080E003C081E001C081E01F910F91FF90B7
S11320A0EF90DF90CF900895F091A200FF93F87F16
S11320B0F093A2008091A02C9091A12C892BE9F49B
S11320C081EB9CE20E942A0586EA9CE20E942A0592
S11320D081EB9CE28093A42C9093A52C86EA9CE24D
S11320E08093A22C9093A32C40E069E085E00E94A9
S11320F08D088093A02C9093A12CFF91F093A200C3
S11321000895EF92FF920F930E9454108091A02C97
S11321109091A12C892B91F00F2EFEE9EF2EFCE279
S1132120FF2EF02D03E020E030E048EC50E06BE5BA
S113213070E284E991E10E94270B01C080E00F91D5
S1132140FF90EF9008958F929F92AF92BF92CF929B
S1132150DF92EF92FF920F931F93CF93DF93CDB74C
S1132160DEB72997CDBFDEBFE091A02CF091A12C62
S1132170309789F169832A833B834C835D838E8303
S11321809F836630FCF40E94D50F823069F400E02E
S1132190A7019601BE016F5F7F4F8091A02C9091A3
S11321A0A12C0E94BE0818C000E020E030E0A90184
S11321B0BE016F5F7F4F8091A02C9091A12C0E9453
S11321C0BE080AC020E0A801BE016F5F7F4FCF01A7
S11321D00E94640901C080E02996CDBFDEBFDF9173
S11321E0CF911F910F91FF90EF90DF90CF90BF9010
S11321F0AF909F908F9008952F923F924F925F924D
S11322006F927F928F929F92AF92BF92CF92DF9202
S1132210EF92FF920F931F93CF93DF931C010E94C1
S11322207D0C2B013C0180919A2C90919B2CA091C8
S11322309C2CB0919D2C481659066A067B0608F022
S113224054C03CC00780F085E02D80809180A2803E
S1132250B380C085D1858E010E5F1F4FC8010E94D7
S11322609D05ED89FE89CE0119958A89813031F564
S11322708E859F85A889B989880D991DAA1DBB1DC6
S113228088169906AA06BB0670F48A839B83AC83DE
S1132290BD83CA87DB87B8018091A42C9091A52CBB
S11322A00E9460050BC0C12CD12C760100E010E027
S11322B0A501940160E0CE010E94A310E091A42C3A
S11322C0F091A52C80818111BDCF8091A22C909199
S11322D0A32C8093A42C9093A52CE093A22CF09390
S11322E0A32C81E0F101808302C0F10110824092AD
S11322F09A2C50929B2C60929C2C70929D2CC30122
S1132300B201DF91CF911F910F91FF90EF90DF9079
S1132310CF90BF90AF909F908F907F906F905F9081
S11323204F903F902F900895CF93DF93CDB7DEB7B2
S11323302E97CDBFDEBFCE0101961C01A82EB32C73
S1132340E091A42CF091A52C8081882309F403C189
S11323500780F085E02D40805180628073800E9468
S1132360770CC1010E94FC106B877C878D879E8748
S1132370898181115EC08B859C85AD85BE85841560
S11323809505A605B705E8F10E94620DE091A42C1D
S1132390F091A52C0780F085E02D80849184C40100
S11323A002960E949D05D40152968C9152978130D9
S11323B001F51E964D915D916D917C915197440D5F
S11323C0551D661D771D730162010B851C852D85C6
S11323D03E85C4010E940B10882359F0C12CD12CD6
S11323E0760100E010E0A301920160E0C4010E94C4
S11323F0A310D4015596ED91FC915697C4011995FB
S11324009CC020E0B301A2018B859C85AD85BE856F
S1132410481B590B6A0B7B0B8091A02C9091A12C2B
S11324200E945B0A0E94620D811187C00E94880687
S113243084C00E94620D81C0898188236CF44E811E
S11324405F8168857985EA81FB818C819D811995FD
S1132450898188230CF471C08E809F80D4011C96DE
S11324608D919C911D97892B21F0C40102960E94A5
S11324709D05CE010A960E94FC108B019C01898166
S1132480082E000C990BAA0BBB0B8A30910508F09F
S113249054C0FC018827E250FF4F8F4F0C944F2506
S11324A0CA80DB80EC80FD80F40146855785608915
S11324B071894C0D5D1D6E1D7F1DC4010E940B10A2
S11324C08823D9F1D4015596ED91FC915697C40116
S11324D01995F4018289813081F54A815B816C818F
S11324E07D8186859785A089B1899A01AB01280FE2
S11324F0391F4A1F5B1FC12CD12C760100E010E06C
S113250060E0C4010E94A31018C04A815B816C8101
S11325107D81D4011E964D935D936D937C93519769
S1132520400F511F621F731F68017901C4010E948B
S11325300B1003C0C4010E94290520E030E0A9016A
S11325406A2D7B2D8091A02C9091A12C0E94A90929
S1132550811172CFF5CE0E94770CC1010E94FC104C
S11325606B877C878D879E878981811162CFE091FB
S1132570A22CF091A32C808121E0811120E0412C38
S1132580512C32013FCF0F931F93CF93DF93CDB7DD
S1132590DEB72997CDBFDEBFEEEFE9838A839B8345
S11325A06C837D832E833F834887598720E0A8016D
S11325B0BE016F5F7F4F8091A02C9091A12C0E944F
S11325C064092996CDBFDEBFDF91CF911F910F9192
S11325D00895E0E5F0E0808181608083818180FF5F
S11325E0FDCF80E00E9435038EE10E94250360E068
S11325F080E00E942F0343E060E080E40E94160321
S1132600E0E5F0E0808188608083818183FFFDCFF5
S113261064E080EC0E942003E0E5F0E080818061CA
S1132620808360E080E00E942F03E0E5F0E0818198
S113263084FFFDCF84E00E94350387E00E942503D8
S11326400895CF93DF93CDB7DEB70000DF91CF912C
S11326500895EF92FF920F93CF93DF93CDB7DEB738
S11326600E94E9120E94BB170E9466038093ED2C1E
S11326709093EE2CE12CF12C03E020E030E048ECC8
S113268050E060E070E289E994E10E94270B0F2E8C
S1132690F7EFEF2EFCE2FF2EF02D02E020E030E019
S11326A048EC50E067E070E28FE693E10E94270B6C
S11326B0E12CF12C01E020E030E048EC50E06FE048
S11326C070E285EE94E10E94270B0E943C0C80E0AE
S11326D090E0DF91CF910F91FF90EF900895CF9309
S11326E0DF93CDB7DEB7A597CDBFDEBF8CA39DA387
S11326F019821A822DE0CE010396FC01322F119229
S11327003A95E9F7188A198A2DE0CE014296FC0120
S1132710322F11923A95E9F71F8E18A223E0CE01C9
S11327208196FC01322F11923A95E9F78091ED2CB4
S11327309091EE2C48E050E060E070E00E9440048C
S11327408091E92C9091EA2CA091EB2CB091EC2C87
S113275020E030E040E85FE3BC01CD010E94DE1FD1
S1132760882361F18091E92C9091EA2CA091EB2CC3
S1132770B091EC2C20E030E040E850E4BC01CD0105
S11327800E944221DC01CB012B2F2F932A2F2F9360
S1132790292F2F938F9384E190E2892F8F9384E1E3
S11327A090E28F93CE0101969F938F930E94CA2645
S11327B08DB79EB70896CDBFDEBF0AC02CE0E7E117
S11327C0F0E2CE010196DC0101900D922A95E1F729
S11327D08091EF2C9091F02CA091F12CB091F22CDF
S11327E02B2F2F932A2F2F93292F2F938F9383E20D
S11327F090E2892F8F9383E290E28F93CE014096EB
S1132800292F2F938F930E94CA26EDB7FEB73896CF
S1132810CDBFDEBF8091F32C9091F42CA091F52CC8
S1132820B091F62C2B2F2F932A2F2F93292F2F93F0
S11328308F9383E290E2892F8F9383E290E28F93C8
S1132840CE014F96292F2F938F930E94CA268DB7BE
S11328509EB70896CDBFDEBF0E94061A87E290E2BB
S1132860892F8F9387E290E28F931F921F921F927A
S11328701F920E94181A0F900F900F900F900F90B4
S11328800F90CE014096292F2F938F9385E390E2EA
S1132890892F8F9385E390E28F931F921F921F924B
S11328A081E08F930E94181AEDB7FEB73896CDBF1A
S11328B0DEBFCE0101969F938F9388E390E2892F28
S11328C08F9388E390E28F931F921F921F9282E06E
S11328D08F930E94181A8DB79EB70896CDBFDEBF9E
S11328E0CE014F96292F2F938F938FE390E2892F58
S11328F08F938FE390E28F931F921F921F9283E036
S11329008F930E94181AEDB7FEB73896CDBFDEBF7D
S11329108091ED2C9091EE2C48E050E060E070E066
S11329200E94610464EF71E080E090E00E94E40D95
S1132930FDCECF93DF931F921F92CDB7DEB789836D
S11329409A830E94CA010E94E60180E00E94D80294
S1132950813079F48091ED2C9091EE2C41E050E09F
S113296060E070E00E94610480E099E021E0FC01F5
S1132970208381E00E94D802813071F48091ED2C93
S11329809091EE2C41E050E060E070E00E94400441
S113299080E099E0FC01108282E00E94D80281303C
S11329A051F48091ED2C9091EE2C44E050E060E0E5
S11329B070E00E94610483E00E94D8026AE070E043
S11329C080E090E00E94E40DBECFCF92DF92EF92C0
S11329D0FF92CF93DF9300D01F92CDB7DEB78B83E6
S11329E09C8380E090E0A0E8BFE38093E92C90937F
S11329F0EA2CA093EB2CB093EC2C19821A8210923F
S1132A00EF2C1092F02C1092F12C1092F22C80E00A
S1132A1099E0FC01108280E099E0FC01118280E0E1
S1132A2099E023E0FC01268380E099E02FEF3CE766
S1132A30FC0126A337A38091ED2C9091EE2C40E06D
S1132A4050E0BA010E944004DC01CB0189839A83DF
S1132A5089819A8188709927892B09F498C0898182
S1132A609A8181709927892B09F491C0C090E92C2F
S1132A70D090EA2CE090EB2CF090EC2C8091EF2C91
S1132A809091F02CA091F12CB091F22C880F991F09
S1132A90AA1FBB1F880F991FAA1FBB1F0396A11D46
S1132AA0B11DBC01CD010E948D20DC01CB019C0134
S1132AB0AD0160E070E080E89FE30E94E31FDC0169
S1132AC0CB019C01AD01C701B6010E94711FDC015D
S1132AD0CB016C017D018091EF2C9091F02CA091A1
S1132AE0F12CB091F22C880F991FAA1FBB1F880FDD
S1132AF0991FAA1FBB1F0596A11DB11DBC01CD01C5
S1132B000E948D20DC01CB019C01AD0160E070E0EE
S1132B1080E89FE30E94E31FDC01CB019C01AD012F
S1132B20C701B6010E94721FDC01CB018093E92C1E
S1132B309093EA2CA093EB2CB093EC2C8091EF2C87
S1132B409091F02CA091F12CB091F22C0196A11D42
S1132B50B11D8093EF2C9093F02CA093F12CB093A3
S1132B60F22C8091E92C9091EA2CA091EB2CB0915D
S1132B70EC2C25EF3FE049E45FE3BC01CD010E946A
S1132B80DE1F882324F480E099E0FC01108289810F
S1132B909A8184709927892B09F44DCF80E090E0C5
S1132BA0A0E8BFE38093E92C9093EA2CA093EB2C4C
S1132BB0B093EC2C1092EF2C1092F02C1092F12C7C
S1132BC01092F22C1092F32C1092F42C1092F52CFB
S1132BD01092F62C8091ED2C9091EE2C44E050E074
S1132BE060E070E00E94400426CF1F920F92009094
S1132BF03F000F9211248F939F93AF93BF93CF9372
S1132C00DF931F92CDB7DEB719828091F32C909198
S1132C10F42CA091F52CB091F62C0196A11DB11DB8
S1132C208093F32C9093F42CA093F52CB093F62C72
S1132C3000000F90DF91CF91BF91AF919F918F9141
S1132C400F9000923F000F901F9018951F920F92C3
S1132C5000903F000F92112400903B000F922F939D
S1132C603F934F935F936F937F938F939F93AF9310
S1132C70BF93EF93FF93CF93DF931F92CDB7DEB74C
S1132C8019828091FB2C9091FC2C9E012F5F3F4F69
S1132C9041E050E060E070E00E94F60460E080E013
S1132CA09BE00E944A0380E09BE0FC011682000046
S1132CB00F90DF91CF91FF91EF91BF91AF919F91D1
S1132CC08F917F916F915F914F913F912F910F90D1
S1132CD000923B000F9000923F000F901F901895B8
S1132CE0CF92DF92EF92FF920F93CF93DF9300D0B6
S1132CF01F92CDB7DEB769837A838B839C838981E6
S1132D009A81AB81BC810297A105B10540F482E0B0
S1132D1090E0A0E0B0E089839A83AB83BC8380E039
S1132D209BE021E0FC01268380E09BE0FC0110A2F3
S1132D3011A260E080E09BE00E94500389819A81A7
S1132D40AB81BC818E3F9F4FA105B10598F420E073
S1132D503BE089819A81AB81BC81B695A795979513
S1132D608795F90186A397A365E080E09BE00E9424
S1132D704A031FC089819A81AB81BC81803492440B
S1132D80AF40B105B0F420E03BE089819A81AB818A
S1132D90BC81689414F8B695A79597958795169471
S1132DA0D1F7F90186A397A367E080E09BE00E9436
S1132DB04A038091FB2C9091FC2C0F2EF4EFCF2E24
S1132DC0DD24D394E12CF12CF02D00E021E041E04E
S1132DD050E060E070E00E947B0300002496CDBFC9
S1132DE0DEBFDF91CF910F91FF90EF90DF90CF90F6
S1132DF00895CF93DF931F92CDB7DEB7898389817E
S1132E008F70898389818295807F898380E096E0B1
S1132E1020E036E0F901348129812F602323FC016D
S1132E20248380E096E020E036E0F90134812981B2
S1132E30232BFC01248300000F90DF91CF91089590
S1132E40CF93DF931F92CDB7DEB78983898188231F
S1132E5031F080E696E021E0FC01258305C080E6A0
S1132E6096E021E0FC01268300000F90DF91CF91D2
S1132E700895CF93DF931F92CDB7DEB789838981FD
S1132E80882331F080E696E022E0FC01258305C02A
S1132E9080E696E022E0FC01268300000F90DF919B
S1132EA0CF910895CF93DF931F92CDB7DEB7898377
S1132EB08981882331F080E696E024E0FC012583B3
S1132EC005C080E696E024E0FC01268300000F9014
S1132ED0DF91CF910895CF93DF93CDB7DEB781E033
S1132EE00E94521761E070E080E090E00E9470164A
S1132EF080E00E9452170000DF91CF910895CF9394
S1132F00DF931F92CDB7DEB78983898182958F7055
S1132F100E94F91680E00E94201780E00E94391771
S1132F200E946B1789818F700E94F9160E946B179B
S1132F3000000F90DF91CF910895CF93DF931F92FC
S1132F40CDB7DEB78983898182958F700E94F91687
S1132F5081E00E94201780E00E9439170E946B17BD
S1132F6089818F700E94F9160E946B1700000F90E0
S1132F70DF91CF910895EF92FF920F93CF93DF9358
S1132F80CDB7DEB780E096E020E1FC01218380E04C
S1132F9096E020E2FC01218380E096E020E4FC013D
S1132FA0218380E096E020E8FC01218380E696E01E
S1132FB021E0FC01218380E696E022E0FC012183EC
S1132FC080E696E024E0FC01218380E096E020E0A6
S1132FD036E0F90124812F70FC01248380E696E019
S1132FE020E636E0F9012481287FFC01248340E0B7
S1132FF066E188E00E948D088093F92C9093FA2C66
S11330000E9466038093FB2C9093FC2CE12CF12C02
S113301002E020E030E04EE551E06BE470E289EB41
S113302098E10E94270B0000DF91CF910F91FF9050
S1133030EF900895CF93DF9300D01F92CDB7DEB702
S113304089839A836B837C8389819A8181309105FA
S113305089F0823091051CF4892B39F01AC0823032
S1133060910569F0039781F014C08B8180580E9408
S11330707F170FC08B8180540E947F170AC08B81F9
S11330808C560E947F1705C08B818C520E947F173B
S1133090000067E270E080E090E00E94701600009B
S11330A02496CDBFDEBFDF91CF910895CF93DF93F8
S11330B01F92CDB7DEB7898389810E949D176BE289
S11330C070E080E090E00E94701600000F90DF91A5
S11330D0CF910895CF93DF9300D01F92CDB7DEB781
S11330E08B839C8319821A8219C089819A812B81CE
S11330F03C81820F931FFC0180818823A1F0898188
S11331009A812B813C81820F931FFC0180810E9454
S1133110561889819A81019689839A8389819A8133
S113312044971CF301C0000000002496CDBFDEBF0D
S1133130DF91CF910895CF93DF9300D000D0CDB726
S1133140DEB789839A836B837C834D835E832B8173
S11331503C8189819A81B9010E941A188D819E81CE
S11331600E946A1800002696CDBFDEBFDF91CF9182
S11331700895CF93DF93CDB7DEB7C057D109CDBF44
S1133180DEBF9E0121593F4FF9018083918319824B
S11331901A821B821C821D821E8226C01F821886F0
S11331A01AC02D813E8144E1429FC001439F900D8E
S11331B011249E012F5F3F4F280F391F8F8198855F
S11331C0820F931F089620E2FC0120838F8198854B
S11331D001968F8398878F819885449714F38D8106
S11331E09E8101968D839E838D819E810497B4F286
S11331F060E47CE980E090E00E94701683E00E9425
S1133200F91668E873E180E090E00E9470160E946D
S11332106B1760EA70E080E090E00E9470160E94F4
S11332206B1760EA70E080E090E00E9470160E94E4
S11332306B1760EA70E080E090E00E94701682E014
S11332400E94F9160E946B1788E20E947F1780E1A2
S11332500E947F178CE00E947F1786E00E947F17F0
S113326068EC70E080E090E00E94E40D8091FB2C1B
S11332709091FC2C40E050E0BA010E944004DC0133
S1133280CB01892B8A2B8B2B09F496C08091FB2CC4
S11332909091FC2C42E050E060E070E00E94400419
S11332A019821A8226C01B821C821AC029813A8183
S11332B044E1429FC001439F900D11249E012F5F62
S11332C03F4F280F391F8B819C81820F931F0896D3
S11332D020E2FC0120838B819C8101968B839C835B
S11332E08B819C81449714F389819A810196898307
S11332F09A8389819A810497B4F25EC08091F92CF3
S11333009091FA2CBE01675A7F4F2FEF3FEFA9012E
S11333100E94A909882309F44FC019821A8232C075
S1133320CE01875A9F4FFC018081482F50E0CE0187
S1133330875A9F4FFC018181282F30E089819A812F
S1133340820F931FBE01675A7F4F29813A81260F4E
S1133350371F2E5F3F4FF901608174E1749F900124
S1133360759F300D1124AE014F5F5F4F240F351F41
S1133370820F931F0896FC01608389819A810196CC
S113338089839A83CE01875A9F4FFC018181282F1C
S113339030E089819A81820F931F44976CF49E01D7
S11333A0275A3F4F89819A81820F931F0296FC010D
S11333B08081882309F0B4CF8091F92C9091FA2C64
S11333C00E944F0A882309F099CF19821A8219C0E2
S11333D09E01275F3F4F49815A8164E1649FC00188
S11333E0659F900D1124280F391F89819A81A901A5
S11333F060E070E00E949B1889819A81019689831C
S11334009A8389819A8104971CF32ACFCF93DF93FF
S1133410CDB7DEB78091FB2C9091FC2C42E050E0BC
S113342060E070E00E9461040000DF91CF91089594
S1133430CF93DF931F921F92CDB7DEB7CE010E96C6
S113344089839A8329813A814C855D856A857B8548
S1133450888599850E94321A00000F900F90DF91A1
S1133460CF9108950F93CF93DF93CDB7DEB7EC9749
S1133470CDBFDEBF8DAB9EAB6FAB78AF49AF5AAF5C
S11334802BAF3CAF19821A821B821C820BC08B812A
S11334909C818454934DFC0110828B819C81019604
S11334A08B839C838B819C8144978CF31D821E8229
S11334B00BC08D819E818053934DFC0110828D81C0
S11334C09E8101968D839E838D819E8144978CF38A
S11334D0BEC18D89853209F0A0C189AD9AAD9C0128
S11334E02F5F3F4F29AF3AAFFC0180818D8B8D89CF
S11334F0882F90E08536910509F446C186369105FA
S113350054F48336910501F1843691050CF070C0B2
S1133510859769F09CC18337910571F188379105CE
S113352009F4A8C08636910509F4E6C090C18981E2
S11335309A818053934D25E2FC01208389819A81ED
S1133540019689839A8383C18BAD9CAD9C012E5FC8
S11335503F4F2BAF3CAFFC01808191818E8B8981E1
S11335609A818053934D2E89FC01208389819A810D
S1133570019689839A836BC18BAD9CAD9C012E5FB0
S11335803F4F2BAF3CAFFC01808191818F8B988F93
S11335901F82188617C029813A818F819885820FEE
S11335A0931F2F8138854F89588D240F351FF901BA
S11335B020818053934DFC0120838F81988501964F
S11335C08F8398878F89988D0E944A269C018F81CA
S11335D0988582179307F8F28F89988D0E944A265E
S11335E09C0189819A81820F931F89839A832FC1B9
S11335F08BAD9CAD9C012E5F3F4F2BAF3CAFFC01CC
S113360080819181898F9A8F898D9A8D4AE050E0CB
S11336106CEB7CE20E945E2619861A8615C029810D
S11336203A8189859A85820F931F29853A85245486
S1133630334DF90120818053934DFC01208389850A
S11336409A85019689879A878CEB9CE20E944A2688
S11336509C0189859A858217930708F38CEB9CE279
S11336600E944A269C0189819A81820F931F898333
S11336709A83EDC08BAD9CAD9C012E5F3F4F2BAF69
S11336803CAFFC0180819181898F9A8F898D9A8DBD
S113369040E150E06CEB7CE20E945E261B861C86B7
S11336A015C029813A818B859C85820F931F2B85B8
S11336B03C852454334DF90120818053934DFC0102
S11336C020838B859C8501968B879C878CEB9CE261
S11336D00E944A269C018B859C858217930708F3D8
S11336E08CEB9CE20E944A269C0189819A81820F7C
S11336F0931F89839A83ABC08BAD9CAD9C012C5FD7
S11337003F4F2BAF3CAFFC0180819181A281B381FB
S11337108B8F9C8FAD8FBE8F8B8D9C8DAD8DBE8D11
S1133720AC01BD018CEB9CE20E94011D1D861E862E
S113373015C029813A818D859E85820F931F2D8521
S11337403E852454334DF90120818053934DFC016F
S113375020838D859E8501968D879E878CEB9CE2C8
S11337600E944A269C018D859E858217930708F343
S11337708CEB9CE20E944A269C0189819A81820FEB
S1133780931F89839A8363C08BAD9CAD9C012C5F8E
S11337903F4F2BAF3CAFFC0180819181A281B3816B
S11337A08B8F9C8FAD8FBE8F8B8D9C8DAD8DBE8D81
S11337B0AC01BD018CEB9CE20E94501E1F86188A4E
S11337C015C029813A818F859889820F931F2F858F
S11337D038892454334DF90120818053934DFC01E1
S11337E020838F85988901968F87988B8CEB9CE238
S11337F00E944A269C018F8598898217930708F3B3
S11338008CEB9CE20E944A269C0189819A81820F5A
S1133810931F89839A8300001AC089819A818053F7
S1133820934D2D89FC01208389819A818053934D86
S1133830FC0180818A3031F489819A818053934DCF
S1133840FC01108289819A81019689839A8389ADCA
S11338509AAD9C012F5F3F4F29AF3AAFFC018081A5
S11338608D8B8D89882309F034CE29813A818FA9E3
S113387098AD820F931F449754F024E130E08FA950
S113388098ADA901481B590BCA0189839A83198AE7
S11338901A8A0EC09E012F5D3F4F89899A89820F33
S11338A0931FFC01108289899A890196898B9A8BCE
S11338B089899A89449774F38DA98F8F8FA988A3D6
S11338C01B8A1C8A14C08B899C898053934DFC01EC
S11338D040819E012F5D3F4F8B899C89820F931FEE
S11338E0FC0140838B899C8901968B8B9C8B2B8953
S11338F03C8989819A81281739072CF38091F92C06
S11339009091FA2CBE01615E7F4F00E02FEF3FEFF4
S1133910A9010E94BE0889819A81EC96CDBFDEBFC1
S1133920DF91CF910F910895CF93DF93CDB7DEB799
S11339302897CDBFDEBF8F83988719821A828F8123
S11339409885FC0180819181A281B3818B839C83C2
S1133950AD83BE8315C020E030E040E251E46B81CA
S11339607C818D819E810E94E31FDC01CB018B83CE
S11339709C83AD83BE8389819A81019689839A83CE
S113398020E030E040E85FE36B817C818D819E81A3
S11339900E943D218823FCF615C020E030E040E27F
S11339A051E46B817C818D819E810E944221DC01E6
S11339B0CB018B839C83AD83BE8389819A810197DC
S11339C089839A832DEC3CEC4CEC5DE36B817C8128
S11339D08D819E810E94DE1F8823FCF22F81388511
S11339E08B819C81AD81BE81F90180839183A28307
S11339F0B38389819A812896CDBFDEBFDF91CF91B1
S1133A000895CF92DF92EF92FF92CF93DF93CDB7D9
S1133A10DEB72E97CDBFDEBF89879A874B875C8739
S1133A206D877E8719821A821B821C828B859C85F6
S1133A30AD85BE8520E030E0A901BC01CD010E9426
S1133A40DE1F882359F489859A8520E3FC012083AD
S1133A5089859A850196FC01108218C18B859C8505
S1133A60AD85BE8520E030E0A901BC01CD010E94F6
S1133A70DE1F88239CF489859A859C012F5F3F4F24
S1133A8029873A872DE2FC0120838B859C85AD85AF
S1133A90BE85B0588B879C87AD87BE87CE010B96B9
S1133AA00E94941C89839A8353C08B859C85AD8521
S1133AB0BE8520E030E040E251E4BC01CD010E942B
S1133AC04221DC01CB01BC01CD010E945520DC0167
S1133AD0CB018D839E8389859A859C012F5F3F4FFF
S1133AE029873A872D81205DFC0120838B859C8565
S1133AF0AD85BE8520E030E040E251E4BC01CD015B
S1133B000E944221DC01CB016C017D018D819E81EB
S1133B10092E000CAA0BBB0BBC01CD010E948D2009
S1133B20DC01CB019C01AD01C701B6010E94711FEC
S1133B30DC01CB018B879C87AD87BE878B819C8101
S1133B4001968B839C8389819A81019789839A83C7
S1133B5089819A81181619060CF4A7CF8B819C8150
S1133B60892B51F489859A859C012F5F3F4F2987C2
S1133B703A8720E3FC01208389859A859C012F5F85
S1133B803F4F29873A872EE2FC01208314C08985A0
S1133B909A859C012F5F3F4F29873A8720E3FC01D8
S1133BA0208389819A81019789839A838B819C815F
S1133BB001968B839C8389819A8199230CF058C048
S1133BC080916320909164202B813C8128173907D0
S1133BD0F4F24EC08B859C85AD85BE8520E030E037
S1133BE040E251E4BC01CD010E944221DC01CB0141
S1133BF0BC01CD010E945520DC01CB018F83988745
S1133C0089859A859C012F5F3F4F29873A872F81A9
S1133C10205DFC0120838B859C85AD85BE8520E0DD
S1133C2030E040E251E4BC01CD010E944221DC01BC
S1133C30CB016C017D018F819885092E000CAA0BA4
S1133C40BB0BBC01CD010E948D20DC01CB019C018A
S1133C50AD01C701B6010E94711FDC01CB018B8746
S1133C609C87AD87BE878B819C8101968B839C83C7
S1133C7080916320909164202B813C81281739071F
S1133C800CF4A8CF89859A85FC0110822E96CDBFAD
S1133C90DEBFDF91CF91FF90EF90DF90CF9008953A
S1133CA0CF92DF92EF92FF92CF93DF93CDB7DEB73F
S1133CB02E97CDBFDEBF89879A874B875C876D8738
S1133CC07E871B821C828B859C85AD85BE8520E00A
S1133CD030E0A901BC01CD010E94DE1F882359F404
S1133CE089859A8520E3FC01208389859A8501963C
S1133CF0FC011082ECC08B859C85AD85BE8520E0DF
S1133D0030E0A901BC01CD010E94DE1F88239CF490
S1133D1089859A859C012F5F3F4F29873A872DE239
S1133D20FC0120838B859C85AD85BE85B0588B872F
S1133D309C87AD87BE87CE010B960E94941C8B8313
S1133D409C838B859C85AD85BE8520E030E040E278
S1133D5051E4BC01CD010E944221DC01CB01BC0134
S1133D60CD010E945520DC01CB018D839E83898582
S1133D709A859C012F5F3F4F29873A872D81205DCB
S1133D80FC0120838B859C85AD85BE8520E030E0D9
S1133D9040E251E4BC01CD010E944221DC01CB018F
S1133DA06C017D018D819E81092E000CAA0BBB0B39
S1133DB0BC01CD010E948D20DC01CB019C01AD0131
S1133DC0C701B6010E94711FDC01CB018B879C8760
S1133DD0AD87BE878B819C8101978B839C8389856A
S1133DE09A859C012F5F3F4F29873A872EE2FC0179
S1133DF0208319821A824EC08B859C85AD85BE8531
S1133E0020E030E040E251E4BC01CD010E944221B7
S1133E10DC01CB01BC01CD010E945520DC01CB01AA
S1133E208F83988789859A859C012F5F3F4F2987C7
S1133E303A872F81205DFC0120838B859C85AD858D
S1133E40BE8520E030E040E251E4BC01CD010E9497
S1133E504221DC01CB016C017D018F819885092E03
S1133E60000CAA0BBB0BBC01CD010E948D20DC0110
S1133E70CB019C01AD01C701B6010E94711FDC0199
S1133E80CB018B879C87AD87BE8789819A810196F8
S1133E9089839A83809165209091662029813A8153
S1133EA0281739070CF4A8CF89859A859C012F5FC0
S1133EB03F4F29873A8725E6FC01208329853A85E7
S1133EC08B819C814AE050E0B9010E945E262E96C7
S1133ED0CDBFDEBFDF91CF91FF90EF90DF90CF9009
S1133EE008955058BB27AA270E94891F0C940321C8
S1133EF00E94F52038F00E94FC2020F039F49F3F06
S1133F0019F426F40C94F2200EF4E095E7FB0C94DB
S1133F10EC20E92F0E94142158F3BA1762077307A3
S1133F208407950720F079F4A6F50C9436210EF455
S1133F30E0950B2EBA2FA02D0B01B90190010C01B5
S1133F40CA01A0011124FF27591B99F0593F50F4CD
S1133F50503E68F11A16F040A22F232F342F442725
S1133F60585FF3CF469537952795A795F04053951D
S1133F70C9F77EF41F16BA0B620B730B840BBAF0ED
S1133F809150A1F0FF0FBB1F661F771F881FC2F758
S1133F900EC0BA0F621F731F841F48F4879577956C
S1133FA06795B795F7959E3F08F0B0CF9395880F26
S1133FB008F09927EE0F9795879508950E94C820D9
S1133FC008F481E008950E94F71F0C9403210E94D5
S1133FD0FC2058F00E94F52040F029F45F3F29F0BE
S1133FE00C94EC2051110C9437210C94F2200E9473
S1133FF0142168F39923B1F3552391F3951B550BC1
S1134000BB27AA2762177307840738F09F5F5F4FA7
S1134010220F331F441FAA1FA9F335D00E2E3AF0E6
S1134020E0E832D091505040E695001CCAF72BD0FE
S1134030FE2F29D0660F771F881FBB1F261737074F
S11340404807AB07B0E809F0BB0B802DBF01FF2781
S113405093585F4F3AF09E3F510578F00C94EC2052
S11340600C9437215F3FE4F3983ED4F3869577951B
S11340706795B795F7959F5FC9F7880F911D96953A
S1134080879597F90895E1E0660F771F881FBB1F96
S1134090621773078407BA0720F0621B730B840B43
S11340A0BA0BEE1F88F7E09508950E945C2068948F
S11340B0B1110C94372108950E941C2188F09F5758
S11340C098F0B92F9927B751B0F0E1F0660F771F38
S11340D0881F991F1AF0BA95C9F714C0B13091F02E
S11340E00E943621B1E008950C943621672F782F71
S11340F08827B85F39F0B93FCCF3869577956795F3
S1134100B395D9F73EF490958095709561957F4F5E
S11341108F4F9F4F0895E89409C097FB3EF4909504
S11341208095709561957F4F8F4F9F4F9923A9F08C
S1134130F92F96E9BB279395F6958795779567951B
S1134140B795F111F8CFFAF4BB0F11F460FF1BC05F
S11341506F5F7F4F8F4F9F4F16C0882311F096E9F2
S113416011C0772321F09EE8872F762F05C06623A0
S113417071F096E8862F70E060E02AF09A95660F59
S1134180771F881FDAF7880F9695879597F9089512
S1134190990F0008550FAA0BE0E8FEEF1616170654
S11341A0E807F907C0F012161306E407F50798F0BC
S11341B0621B730B840B950B39F40A2661F0232BD5
S11341C0242B252B21F408950A2609F4A140A69551
S11341D08FEF811D811D089597F99F6780E870E036
S11341E060E008959FEF80EC089500240A94161669
S11341F0170618060906089500240A9412161306D1
S1134200140605060895092E0394000C11F488235E
S113421052F0BB0F40F4BF2B11F460FF04C06F5F7A
S11342207F4F8F4F9F4F089557FD9058440F551F50
S113423059F05F3F71F04795880F97FB991F61F024
S11342409F3F79F087950895121613061406551F9B
S1134250F2CF4695F1DF08C0161617061806991F07
S1134260F1CF86957105610508940895E894BB27FC
S113427066277727CB0197F908950E94C82008F490
S11342808FEF08950E9455210C9403210E94F5207C
S113429038F00E94FC2020F0952311F00C94EC20BF
S11342A00C94F22011240C9437210E94142170F3F1
S11342B0959FC1F3950F50E0551F629FF001729FC7
S11342C0BB27F00DB11D639FAA27F00DB11DAA1FD6
S11342D0649F6627B00DA11D661F829F2227B00D23
S11342E0A11D621F739FB00DA11D621F839FA00DAE
S11342F0611D221F749F3327A00D611D231F849FFE
S1134300600D211D822F762F6A2F11249F57504054
S11343109AF0F1F088234AF0EE0FFF1FBB1F661FCF
S1134320771F881F91505040A9F79E3F510580F098
S11343300C94EC200C9437215F3FE4F3983ED4F3C3
S1134340869577956795B795F795E7959F5FC1F73C
S1134350FE2B880F911D9695879597F908952F92B6
S11343603F924F925F926F927F928F929F92AF9201
S1134370BF92CF92DF92EF92FF920F931F93CF934E
S1134380DF93CDB7DEB76097CDBFDEBF7C011B01E5
S11343906A01FC0116821782838181FF44C39E0156
S11343A02F5F3F4F3901F7019381F10193FD85910F
S11343B093FF81911F01882309F431C3853239F4B5
S11343C093FD859193FF81911F01853239F4B701E3
S11343D090E00E948E2656016501E5CF10E0512C35
S11343E0912CFFE1F915D8F08B3279F038F4803252
S11343F079F08332A1F4F92DF0612EC08D3261F091
S1134400803369F4292D21602DC0392D3260932E1B
S1134410892D8460982E2AC0E92DE86015C097FC88
S11344202DC020ED280F2A3088F496FE06C03AE00D
S1134430139F200D1124122F19C08AE0589E200DBD
S11344401124522EE92DE0629E2E10C08E3231F4DA
S113445096FCE5C2F92DF0649F2E08C08C3621F439
S1134460292D2068922E02C0883641F4F10193FD73
S1134470859193FF81911F018111B3CF9BEB980F1D
S1134480933020F4992D9061805E07C09BE9980FCA
S1134490933008F066C1992D9F7E96FF16E09F73B6
S11344A0992E853619F49064992E08C0863621F425
S11344B0392F3068932E02C01111115097FE07C096
S11344C01C3350F444244394410E27E00BC01830AD
S11344D038F027E017E005C027E09CE3492E02C02E
S11344E0212F412C560184E0A80EB11CF6016081F5
S11344F0718182819381042DA3010E9457256C014F
S1134500F981FC87F0FF02C0F3FF06C091FC06C0EE
S113451092FE06C000E205C00DE203C00BE201C03A
S113452000E08C858C7019F001115AC29BC297FE71
S113453010C04C0CFC85F4FF04C08A81813309F45B
S11345404A94141474F528E0241578F588E0482E6C
S11345502CC096FC2AC0812F90E08C159D059CF000
S11345603CEFC3163FEFD30674F0892D8068982E74
S11345700AC0E2E0F0E0EC0FFD1FE10FF11D8081C5
S1134580803319F411501111F4CF97FE0EC0442456
S11345904394410E812F90E0C816D9062CF41C19BF
S11345A004C04424439401C010E097FE06C01C14C8
S11345B01D0434F4C601019605C085E090E002C0F4
S11345C081E090E001110196112331F0212F30E0B8
S11345D02F5F3F4F820F931F252D30E082179307E3
S11345E014F4581A01C0512C892D897049F45520AE
S11345F039F0B70180E290E00E948E265A94F7CFFA
S1134600002329F0B701802F90E00E948E2693FCAE
S113461009C0552039F0B70180E390E00E948E264E
S11346205A94F7CF97FE4CC04601D7FE02C0812CA6
S1134630912CC60188199909F301E80FF91FED8738
S1134640FE879601241931092F87388B012F10E03A
S11346501195019511093FEF8316930629F4B701CB
S11346608EE290E00E948E26C814D9044CF08F8507
S113467098898815990524F4ED85FE85818101C00A
S113468080E3F1E08F1A91082D853E852F5F3F4F1F
S11346902D873E87801691062CF0B70190E00E948A
S11346A08E26D9CFC814D90441F49A81963320F4C4
S11346B0953319F43C8534FF81E3B70190E04EC093
S11346C08A81813319F09C859F7E9C87B70190E095
S11346D00E948E26111105C094FC18C085E690E056
S11346E017C0B7018EE290E00E948E261E5F82E022
S11346F001E0080FF301E80FF11D8081B70190E09C
S11347000E948E26802F0113F3CFE6CF85E490E03C
S1134710B7010E948E26D7FC06C0C114D10441F40F
S1134720EC85E4FF05C0D194C194D1088DE201C0A9
S11347308BE2B70190E00E948E2680E32AE0C21645
S1134740D1042CF08F5FFAE0CF1AD108F7CFB7016C
S113475090E00E948E26B701C601C0960E948E2664
S113476054C1833631F0833779F0833509F056C06C
S113477020C0560132E0A30EB11CF601808189836A
S113478001E010E0630112C05601F2E0AF0EB11C6B
S1134790F601C080D18096FE03C0612F70E002C094
S11347A06FEF7FEFC6010E9453268C01F92DFF772E
S11347B014C0560122E0A20EB11CF601C080D180C3
S11347C096FE03C0612F70E002C06FEF7FEFC60159
S11347D00E942F268C01F92DF0689F2EF3FD1AC03C
S11347E0852D90E008171907A8F4B70180E290E03E
S11347F00E948E265A94F4CFF60197FC859197FE79
S113480081916F01B70190E00E948E2651105A9455
S1134810015011090115110579F7F7C0843611F01B
S1134820893661F5560197FE09C024E0A20EB11C39
S1134830F60160817181828193810AC0F2E0AF0E3A
S1134840B11CF60160817181072E000C880B990B55
S1134850F92DFF769F2E97FF09C09095809570954E
S113486061957F4F8F4F9F4FF0689F2E2AE030E075
S1134870A3010E94F326C82EC6183FC0092D853710
S113488021F40F7E2AE030E01DC0097F8F3691F0BD
S113489018F4883559F0C3C0803719F0883711F0FF
S11348A0BEC0006104FF09C0046007C094FE08C0D4
S11348B0066006C028E030E005C020E130E002C018
S11348C020E132E0560107FF09C084E0A80EB11CC4
S11348D0F601608171818281938108C0F2E0AF0E9C
S11348E0B11CF6016081718180E090E0A3010E9417
S11348F0F326C82EC6180F77902E96FE0BC0092DEE
S11349000E7FC11650F494FE0AC092FC08C0092D13
S11349100E7E05C0DC2C092D03C0DC2C01C0D12E79
S113492004FF0DC0FE01EC0DF11D8081803311F4F4
S1134930097E09C002FF06C0D394D39404C0802F1B
S1134940867809F0D39403FD11C000FF06C01C2D26
S1134950D51480F4150D1D190DC0D51458F4B701E4
S113496080E290E00E948E26D394F7CFD51410F401
S11349705D1801C0512C04FF10C0B70180E390E022
S11349800E948E2602FF17C001FD03C088E790E055
S113499002C088E590E0B7010CC0802F867859F0FA
S11349A001FF02C08BE201C080E207FD8DE2B70186
S11349B090E00E948E26C11638F4B70180E390E09F
S11349C00E948E261150F7CFCA94F301EC0DF11D0D
S11349D08081B70190E00E948E26C110F5CF15C0EA
S11349E0F4E0F51560F584E0581A93FE1FC0011138
S11349F027C02C8523FF2AC00CE312E0392D307127
S1134A00932EF8018491811124C0552009F4E4CC3B
S1134A10B70180E290E00E948E265A94F6CFF70107
S1134A208681978126C08FEF9FEF23C0B70180E274
S1134A3090E00E948E265A945110F8CFD8CF512C72
S1134A40B701802F90E00E948E26D3CF00E412E0BD
S1134A50D5CF91108052B70190E00E948E260F5F4F
S1134A601F4FCFCF23E0251510F483E0BDCF512C89
S1134A70C0CF6096CDBFDEBFDF91CF911F910F9164
S1134A80FF90EF90DF90CF90BF90AF909F908F906A
S1134A907F906F905F904F903F902F900895EE0F0E
S1134AA0FF1F881F8BBF0790F691E02D19942830C3
S1134AB008F027E03327DA01990F311D87FD916053
S1134AC000966105710539F432602E5F3D9330E341
S1134AD02A95E1F708959F3F30F08038710561050C
S1134AE009F03C5F3C5F3D93913008F08068911D74
S1134AF0DF93CF931F930F93FF92EF92192F987F19
S1134B009695E92F96959695E90FFF27E256FD4F66
S1134B1099273327EE24FF24A701E7010590089481
S1134B20079428F4360FE71EF81E491F511D660F1F
S1134B30771F881F991F0694A1F70590079428F4FE
S1134B40E70EF81E491F561FC11D770F881F991FB6
S1134B50661F0694A1F70590079428F4F80E491FE0
S1134B60561FC71FD11D880F991F661F771F0694F4
S1134B70A1F70590079420F4490F561FC71FD81FAB
S1134B80990F661F771F881F0694A9F784911095C3
S1134B90177041F0D695C79557954795F794E794C4
S1134BA01A95C1F7E4E4F2E06894159015913591F3
S1134BB06591959105907FE27395E118F10A430B95
S1134BC0560BC90BD009C0F7E10CF11E431F561F49
S1134BD0C91FD01D7EF4703311F48A95E6CFE89492
S1134BE0015030F0080F0AF40027021708F4202FB0
S1134BF02395022F7A3328F079E37D932A95E9F7F8
S1134C0010C07D932A9589F60694979567953795F4
S1134C1017951794E118F10A430B560BC90BD009E9
S1134C2098F023957E9173957A3308F070E37C9322
S1134C302013B8F77E9170617D9330F0839571E312
S1134C407D9370E32A95E1F71124EF90FF900F9183
S1134C501F91CF91DF91992787FD90950895FC01CD
S1134C600590615070400110D8F7809590958E0F93
S1134C709F1F0895FB01DC0102C001900D92415079
S1134C805040D8F70895DC0101C06D934150504065
S1134C90E0F70895FC0101900020E9F780959095D4
S1134CA08E0F9F1F0895FC01615070400190011008
S1134CB0D8F7809590958E0F9F1F08954532510522
S1134CC020F4423010F00C946926FB011082CB01D1
S1134CD00895BB274A3031F4992322F4BDE290951C
S1134CE081959F4F0C947526BB27FB015527AA2756
S1134CF0880F991FAA1FA41710F0A41B8395505165
S1134D00B9F7A05DAA3308F0A95DA193009779F7DC
S1134D10B111B1931192CB010C9451270F931F93AE
S1134D20CF93DF93FB01238121FD03C08FEF9FEF1E
S1134D302CC022FF16C04681578124813581421739
S1134D40530744F4A081B1819D012F5F3F4F20831D
S1134D5031838C93268137812F5F3F4F268337839E
S1134D6014C08B01EC01FB010084F185E02D199541
S1134D70892BE1F6D80116968D919C91179701968F
S1134D8016968D939C931797CE01DF91CF911F9127
S1134D900F9108950F931F93CF93DF93CDB7DEB791
S1134DA02E97CDBFDEBF0E891F8986E08C830983D1
S1134DB01A838FEF9FE78D839E83AE01465E5F4F1C
S1134DC0688D798DCE0101960E94AF21EF81F8851F
S1134DD0E00FF11F10822E96CDBFDEBFDF91CF9181
S1134DE01F910F910895FA01AA27283051F120311B
S1134DF081F1E8946F936E7F6E5F7F4F8F4F9F4F6B
S1134E00AF4FB1E03ED0B4E03CD0670F781F891FAC
S1134E109A1FA11D680F791F8A1F911DA11D6A0F7A
S1134E20711D811D911DA11D20D009F468943F912D
S1134E302AE0269F11243019305D3193DEF6CF012C
S1134E400895462F4770405D4193B3E00FD0C9F7F2
S1134E50F6CF462F4F70405D4A3318F0495D31FD5F
S1134E604052419302D0A9F7EACFB4E0A6959795B2
S1134E70879577956795BA95C9F700976105710588
S1134E8008959B01AC010A2E0694579547953795D2
S1134E902795BA95C9F7620F731F841F951FA01D2C
S1134EA00895DC01FC01672F71917723E1F73297B4
S1134EB004C07C916D9370836291AE17BF07C8F3F1
S1094EC00895F894FFCFF1
S1134EC6427574746F6E004755495461736B0043A1
S1134ED6616C630025660070726573732073746178
S1134EE6727400256C640050492043616C63756CD0
S1134EF661746F720025730050693A202573005A55
S1134F066569743A202573206D730064697370555E
S1134F1670646174650049444C4500546D722053B5
S10B4F2676630004000400009E
S9030000FC
