S00E0000706963616C632E73726563AA
S11300000C949F010C94C9010C94C9010C94C9016E
S11300100C94C9010C94C9010C94C9010C94C90134
S11300200C94C9010C94C9010C94C9010C94C90124
S11300300C94C9010C94C9010C942A0C0C94C901A8
S11300400C94C9010C94C9010C94C9010C94C90104
S11300500C94C9010C94C9010C94C9010C94C901F4
S11300600C94C9010C94C9010C94C9010C94C901E4
S11300700C94C9010C94C9010C94C9010C94C901D4
S11300800C94C9010C94C9010C94C9010C94C901C4
S11300900C94C9010C94C9010C94C9010C94C901B4
S11300A00C94C9010C94C9010C94C9010C94C901A4
S11300B00C94C9010C94C9010C94C9010C94C90194
S11300C00C94C9010C94C9010C94C9010C94C90184
S11300D00C94C9010C94C9010C94C9010C94C90174
S11300E00C94C9010C94C9010C94C9010C94C90164
S11300F00C94C9010C94C9010C94C9010C94C90154
S11301000C94C9010C94C9010C94C9010C94C90143
S11301100C94C9010C94C9010C94C9010C94C90133
S11301200C94C9010C94C9010C94C9010C94C90123
S11301300C94C9010C94DF220C94C9010C94C901DC
S11301400C94C9010C94C9010C94C9010C94C90103
S11301500C94C9010C94C9010C94C9010C94C901F3
S11301600C94C9010C94C9010C94C9010C94C901E3
S11301700C94C9010C94C9010C94C9010C94C901D3
S11301800C94C9010C94C9010C94C9010C94C901C3
S11301900C94C9010C94C9010C94C9010C94C901B3
S11301A00C94C9010C94C9010C94C9010C94C901A3
S11301B00C941E230C94C9010C94C9010C94C9011C
S11301C00C94C9010C94C9010C94C9010C94C90183
S11301D00C94C9010C94C9010C94C9010C94C90173
S11301E00C94C9010C94C9010C94C9010C94C90163
S11301F00C94C9010C94C9010C94C901E01DE01DC3
S1130200E01D671E331E611EE01DE01D671E331EC8
S11302100C9459200C94C21B0C9408070C94E01DF8
S11302200C94331E0C94CF210C9483210C94671EE0
S11302300C941B190C94B1250C94611E6E616E0014
S1130240696E660000407A10F35A00A0724E1809D5
S11302500010A5D4E80000E87648170000E40B5429
S1130260020000CA9A3B000000E1F50500008096F8
S11302709800000040420F000000A086010000002A
S1130280102700000000E8030000000064000000E4
S113029000000A00000000000100000000002C76AD
S11302A0D888DC674F0823DFC1DFAE59E1B1B796C8
S11302B0E5E3E453C63AE651997696E8E6C2842625
S11302C0EB898C9B62ED407C6FFCEFBC9C9F40F201
S11302D0BAA56FA5F490055A2AF75C936B6CF9677D
S11302E06DC11BFCE0E40D47FEF520E6B500D0ED42
S11302F0902E0300943577050080841E08000020AA
S11303004E0A000000C80C333333330F986E128347
S11303101141EF8D2114893BE65516CFFEE6DB181B
S1130320D1844B381BF77C1D901DA4BBE4242032E0
S113033084725E228100C9F124ECA1E53D271124D9
S11303401FBECFEFCDBFDFE3DEBF00E00CBFEDEF9C
S1130350FCE28AEA90E48193E030F907E0F30000DC
S113036010E2A0E0B0E2E6EBF8E600E00BBF02C06A
S113037007900D92A836B107D9F72CE2A8E6B0E2AF
S113038001C01D92AD3FB207E1F70E9412200C9408
S113039059340C940000CF93DF93CDB7DEB780EAD5
S11303A096E020E1FC01228380EA96E020E2FC0151
S11303B0228380EA96E020E4FC01228380EA96E02E
S11303C020E8FC0122830000DF91CF910895CF93B0
S11303D0DF93CDB7DEB780EA96E0FC018085882FF5
S11303E090E0807199279595879595958795959532
S11303F0879595958795892B89F4809168209091AC
S1130400692080369A4E20F5809168209091692069
S1130410019680936820909369201AC08091682087
S1130420909169200B9768F08091682090916920E1
S1130430C39718F01092E42C07C081E08093E42C59
S113044003C082E08093E42C10926820109269200B
S113045080EA96E0FC018085882F90E080729927DD
S11304609595879595958795959587959595879570
S113047095958795892B89F480916A2090916B20BA
S113048080369A4E20F580916A2090916B200196D7
S113049080936A2090936B201AC080916A20909177
S11304A06B200B9768F080916A2090916B20C39722
S11304B018F01092E52C07C081E08093E52C03C06E
S11304C082E08093E52C10926A2010926B2080EADF
S11304D096E0FC018085882F90E080749927082E8F
S11304E0892F000C881F990B000C881F991F892BDA
S11304F089F480916C2090916D2080369A4E20F57D
S113050080916C2090916D20019680936C20909343
S11305106D201AC080916C2090916D200B9768F02B
S113052080916C2090916D20C39718F01092E62C66
S113053007C081E08093E62C03C082E08093E62C20
S113054010926C2010926D2080EA96E0FC01808568
S113055088238CF080916E2090916F2080369A4E83
S113056020F580916E2090916F20019680936E20EB
S113057090936F201AC080916E2090916F200B97FA
S113058068F080916E2090916F20C39718F01092BC
S1130590E72C07C081E08093E72C03C082E08093BE
S11305A0E72C10926E2010926F200000DF91CF9103
S11305B00895CF93DF931F92CDB7DEB789838981E6
S11305C0882F90E08130910579F0823091051CF4F8
S11305D0892B39F012C08230910549F0039751F00C
S11305E00CC08091E42C0AC08091E52C07C0809156
S11305F0E62C04C08091E72C01C082E00F90DF91CB
S1130600CF9108950F93CF93DF9300D000D0CDB74F
S1130610DEB78C839D836E838FE390E0FC01808141
S11306208B83F8948C819D8189839A838BE390E0FA
S1130630FC01108289819A812E81FC0108ED04BF9E
S113064020838FE390E02B81FC0120830000269619
S1130650CDBFDEBFDF91CF910F910895CF93DF938C
S113066000D0CDB7DEB789836A834B8380E590E001
S11306702A81222311F020E201C020E03981322BAB
S11306802B81232BFC01228300002396CDBFDEBFE8
S1130690DF91CF910895CF93DF931F921F92CDB72F
S11306A0DEB789836A838A818F718A8380E590E0CB
S11306B039812A81232BFC01258300000F900F90A0
S11306C0DF91CF910895CF93DF931F921F92CDB7FF
S11306D0DEB78A8380E590E020E530E0F9012081EF
S11306E0322F2A8120952323FC01208380E590E08A
S11306F0FC0190818A818923898389810F900F90DD
S1130700DF91CF910895CF93DF9300D0CDB7DEB7BB
S11307108A836B839A818B81892B8983698181E4A4
S113072090E00E94020300002396CDBFDEBFDF915C
S1130730CF910895CF93DF931F921F92CDB7DEB769
S11307408A8380E490E0FC018081982F987F8A81DD
S1130750892B8983698180E490E00E94020380E40C
S113076090E0FC0190818A818923898389810F909B
S11307700F90DF91CF910895CF93DF9300D0CDB741
S1130780DEB789839A836B8389819A81FC01808196
S1130790982F907F8B81892B282F89819A81FC0146
S11307A0208300002396CDBFDEBFDF91CF91089553
S11307B0CF93DF9300D0CDB7DEB789839A836B8361
S11307C089819A81FC018181982F987F8B81892B63
S11307D0282F89819A81FC01218300002396CDBFB3
S11307E0DEBFDF91CF910895CF93DF9300D0CDB7D3
S11307F0DEB789839A836B8389819A81FC01868120
S1130800982F9C7F8B81892B282F89819A81FC01C9
S1130810268300002396CDBFDEBFDF91CF910895DC
S1130820CF93DF9300D01F92CDB7DEB789839A832D
S11308306B837C838BE20E94240400002496CDBF4A
S1130840DEBFDF91CF910895CF93DF931F921F9264
S1130850CDB7DEB78A838A818B3219F481E089832C
S11308600EC08A818C3219F482E0898308C08A819F
S11308708F3219F483E0898302C084E089830E9463
S1130880470400000F900F90DF91CF910895CF930C
S1130890DF93CDB7DEB7000084E390E028EDFC01E0
S11308A0208388E790E021E0FC0121830000DF91B0
S11308B0CF910895CF93DF931F921F92CDB7DEB7E8
S11308C080E190E00E94970789839A8389819A81C5
S11308D0892B61F089819A81FC0110821182128234
S11308E0138289819A8104960E94E90789819A81F9
S11308F00F900F90DF91CF910895CF92DF92EF92F6
S1130900FF920F931F93CF93DF93CDB7DEB76D970D
S1130910CDBFDEBF8A8B9B8B4C8B5D8B6E8B7F8BAD
S1130920288F098FCA8EDB8EEC8EFD8E8A899B8977
S113093089879A871D821E821F8218861B860E94C1
S1130940341489859A85FC0180819181A281B381C7
S11309508C879D87AE87BF872C893D894E895F89A7
S11309608C859D85AE85BF85098DBC01CD010E9416
S11309702607888B8889882359F18C859D85AE85C7
S1130980BF8589839A83AB83BC831A8E1B8E1C8E8E
S11309901D8E888D882309F465C089859A85FC019C
S11309A020813181428153818C899D89AE89BF899F
S11309B080959095A095B09582239323A423B52385
S11309C029853A85F90180839183A283B3834AC040
S11309D08A8D9B8DAC8DBD8D892B8A2B8B2B59F4E5
S11309E08C859D85AE85BF8589839A83AB83BC83C3
S11309F081E08B8737C0888D882349F08D819E8163
S1130A00AF81B885B1608D839E83AF83B887898DAC
S1130A10882349F08D819E81AF81B885B4608D8330
S1130A209E83AF83B8872C893D894E895F898D81E8
S1130A309E81AF81B885822B932BA42BB52B29855E
S1130A403A85F90134962A8D3B8D4C8D5D8D890153
S1130A509A01AC01BD01CF010E94071719821A82C5
S1130A601B821C820E944114898B8A8D9B8DAC8DC4
S1130A70BD8D892B8A2B8B2B09F465C0898988232A
S1130A8011F40E94800B0E94C519DC01CB018983FB
S1130A909A83AB83BC8389819A81AB81BC8188278B
S1130AA09927AA27B270892B8A2B8B2B09F042C075
S1130AB0F091A200FF93F87FF093A20089859A85B4
S1130AC0FC0180819181A281B38189839A83AB8364
S1130AD0BC832C893D894E895F8989819A81AB8148
S1130AE0BC81098DBC01CD010E9426078823E9F051
S1130AF0888D8823D1F089859A85FC0120813181F4
S1130B00428153818C899D89AE89BF898095909556
S1130B10A095B09582239323A423B52329853A85F0
S1130B20F90180839183A283B38381E08B87FF9152
S1130B30F093A20089819A81AB81BC81BB27898310
S1130B409A83AB83BC8389819A81AB81BC81BC01CC
S1130B50CD016D96CDBFDEBFDF91CF911F910F9177
S1130B60FF90EF90DF90CF900895CF93DF93CDB7B0
S1130B70DEB72C97CDBFDEBF8F83988749875A870E
S1130B806B877C878F81988589839A83F091A200F3
S1130B90FF93F87FF093A20089819A81FC01808100
S1130BA09181A281B3818B839C83AD83BE83898130
S1130BB09A81FC01208131814281538189859A8502
S1130BC0AB85BC8580959095A095B09582239323A1
S1130BD0A423B52329813A81F90180839183A283D7
S1130BE0B383FF91F093A2008B819C81AD81BE8180
S1130BF0BC01CD012C96CDBFDEBFDF91CF9108950E
S1130C00CF93DF93CDB7DEB76D97CDBFDEBF888FAF
S1130C10998F4A8F5B8F6C8F7D8F1B821C821D8204
S1130C201E82888D998D888799871F8288859985EA
S1130C3004968A879B878A859B8503968C879D87E4
S1130C400E9434148A859B85FC0187819085898361
S1130C509A8388859985FC01208131814281538161
S1130C608A8D9B8DAC8DBD8D822B932BA42BB52BA4
S1130C7028853985F90180839183A283B38395C044
S1130C8089819A81FC01848195818E879F878981DE
S1130C909A81FC0180819181A281B381888B998B97
S1130CA0AA8BBB8B1F8288899989AA89BB898827CB
S1130CB09927AA278C8B9D8BAE8BBF8B88899989AA
S1130CC0AA89BB89BB27888B998BAA8BBB8B8C8900
S1130CD09D89AE89BF8988279927AA27B470892B53
S1130CE08A2B8B2BB1F488859985FC012081318175
S1130CF04281538188899989AA89BB898223932354
S1130D00A423B523892B8A2B8B2BE9F081E08F83D5
S1130D101AC088859985FC012081318142815381E3
S1130D2088899989AA89BB89282339234A235B2383
S1130D3088899989AA89BB89281739074A075B07D3
S1130D4011F481E08F838F81882359F18C899D89E7
S1130D50AE89BF8988279927AA27B170892B8A2B46
S1130D608B2B81F02B813C814D815E81888999890F
S1130D70AA89BB89822B932BA42BB52B8B839C83B1
S1130D80AD83BE8388859985FC0180819181A28190
S1130D90B381B26029813A81AC01BD01C9010E94CD
S1130DA0E2178E859F8589839A8329813A818C8570
S1130DB09D852817390709F063CF88859985FC013B
S1130DC020813181428153818B819C81AD81BE819F
S1130DD080959095A095B09582239323A423B52361
S1130DE028853985F90180839183A283B3830E9486
S1130DF0411488859985FC0180819181A281B38108
S1130E00BC01CD016D96CDBFDEBFDF91CF910895BA
S1130E10CF93DF9300D000D0CDB7DEB789839A8318
S1130E204B835C836D837E838B819C81AD81BE818A
S1130E3029813A81AC01BD01C9010E94000600006C
S1130E402696CDBFDEBFDF91CF9108950F93CF9348
S1130E50DF93CDB7DEB72A97CDBFDEBF6A837B832E
S1130E608C839D832E833F83488759870A87198201
S1130E708A85882399F42A813B814C815D818E8106
S1130E809F81A885B98582239323A423B523892B25
S1130E908A2B8B2BD1F081E0898317C02A813B8177
S1130EA04C815D818E819F81A885B9852823392352
S1130EB04A235B238E819F81A885B985281739072A
S1130EC04A075B0711F481E0898389812A96CDBFA3
S1130ED0DEBFDF91CF910F9108950F931F93CF93AE
S1130EE0DF93CDB7DEB72997CDBFDEBF8A839B835F
S1130EF04C835D836E837F83288739872885398572
S1130F008C819D81AE81BF816A817B8189019C0135
S1130F10AD0188E097E00E94711F89838981299639
S1130F20CDBFDEBFDF91CF911F910F910895CF9375
S1130F30DF9300D01F92CDB7DEB78B839C831982D9
S1130F401A820E9434142091282C3091292C8B81F0
S1130F509C81820F931F883B9B4018F52091282C7D
S1130F603091292C8B819C81280F391F8091282C4A
S1130F709091292C82179307A0F48091282C9091AA
S1130F80292C80599F4D89839A832091282C309154
S1130F90292C8B819C81820F931F8093282C909302
S1130FA0292C0E94411489819A812496CDBFDEBFE9
S1130FB0DF91CF910895CF93DF931F921F92CDB706
S1130FC0DEB789839A8300000F900F90DF91CF9151
S1130FD00895CF93DF931F921F92CDB7DEB7898315
S1130FE09A8389819A819C012D5F3F4F89819A81DF
S1130FF0FC012183328329813A818FEF9FEFDC0149
S1131000F90183839483A583B68389819A819C01A2
S11310102D5F3F4F89819A81FC0127833087898125
S11310209A819C012D5F3F4F89819A81FC01218720
S1131030328789819A81FC01108200000F900F9001
S1131040DF91CF910895CF93DF931F921F92CDB775
S1131050DEB789839A8389819A81FC01128613867B
S113106000000F900F90DF91CF910895CF93DF93FD
S113107000D000D0CDB7DEB78B839C836D837E8395
S11310808B819C81FC018181928189839A838D81EA
S11310909E8129813A81FC012483358389819A8147
S11310A0FC01268137818D819E81FC012683378353
S11310B089819A81FC01868197812D813E81FC0181
S11310C02483358389819A812D813E81FC01268385
S11310D037838D819E812B813C81FC01228733875C
S11310E08B819C81FC01808121E0280F8B819C8174
S11310F0FC01208300002696CDBFDEBFDF91CF9197
S11311000895CF93DF93CDB7DEB72A97CDBFDEBF67
S11311108F83988769877A8789859A85FC0180817E
S11311209181A281B3818B839C83AD83BE838B81A8
S11311309C81AD81BE818F3F9F4FAF4FBF4F41F424
S11311408F819885FC018185928589839A8320C04B
S11311508F819885039689839A8307C089819A81B0
S1131160FC018481958189839A8389819A81FC0118
S113117084819581FC0120813181428153818B815D
S11311809C81AD81BE8182179307A407B50730F710
S113119089819A81FC012481358189859A85FC01A4
S11311A02483358389859A85FC01848195812985E9
S11311B03A85FC012683378389859A8529813A817A
S11311C0FC012683378389819A8129853A85FC012C
S11311D02483358389859A852F813885FC0122876C
S11311E033878F819885FC01808121E0280F8F81CE
S11311F09885FC01208300002A96CDBFDEBFDF91D5
S1131200CF910895CF93DF9300D01F92CDB7DEB76F
S11312108B839C838B819C81FC018285938589834C
S11312209A838B819C81FC01848195812B813C81F3
S1131230F90126813781FC01268337838B819C81C8
S1131240FC01868197812B813C81F90124813581C0
S1131250FC012483358389819A81FC0121813281B7
S11312608B819C812817390751F48B819C81FC0167
S11312702681378189819A81FC01218332838B8184
S11312809C81FC011286138689819A81FC018081EC
S11312902FEF280F89819A81FC01208389819A810B
S11312A0FC0180812496CDBFDEBFDF91CF910895EC
S11312B01F93CF93DF93CDB7DEB780EA90E0FC01B4
S11312C0128180EA90E020EA30E0F9012281287F4F
S11312D0FC012283812FDF91CF911F910895CF9339
S11312E0DF93CDB7DEB72A97CDBFDEBF8D839E8354
S11312F06F83788749875A878D819E8121E1FC011C
S113130020838D819E8101978D839E838D819E8113
S113131022E2FC0120838D819E8101978D839E832F
S11313208D819E8123E3FC0120838D819E81019721
S11313308D839E838F819885CC01A0E0B0E0898362
S11313409A83AB83BC8329818D819E81FC01208398
S11313508D819E8101978D839E8389819A81AB8142
S1131360BC81892F9A2FAB2FBB2789839A83AB83A8
S1131370BC8329818D819E81FC0120838D819E8186
S113138001978D839E8389819A81AB81BC81892F4A
S11313909A2FAB2FBB2789839A83AB83BC83298184
S11313A08D819E81FC0120838D819E8101978D8397
S11313B09E838D819E8121E3FC0120838D819E810A
S11313C001978D839E838D819E8120E8FC0120837B
S11313D08D819E8101978D839E838D819E8127E8D7
S11313E0FC0120838D819E8101978D839E838D8155
S11313F09E81FC0110828D819E8101978D839E8345
S11314008D819E81FC0110828D819E8101978D8347
S11314109E838D819E8122E0FC0120838D819E81AB
S113142001978D839E838D819E8123E0FC0120831F
S11314308D819E8101978D839E838D819E8124E081
S1131440FC0120838D819E8101978D839E838D81F4
S11314509E8125E0FC0120838D819E8101978D83EF
S11314609E838D819E8126E0FC0120838D819E8157
S113147001978D839E838D819E8127E0FC012083CB
S11314808D819E8101978D839E838D819E8128E02D
S1131490FC0120838D819E8101978D839E838D81A4
S11314A09E8129E0FC0120838D819E8101978D839B
S11314B09E838D819E8120E1FC0120838D819E810C
S11314C001978D839E838D819E8121E1FC01208380
S11314D08D819E8101978D839E838D819E8122E1E2
S11314E0FC0120838D819E8101978D839E838D8154
S11314F09E8123E1FC0120838D819E8101978D8350
S11315009E838D819E8124E1FC0120838D819E81B7
S113151001978D839E838D819E8125E1FC0120832B
S11315208D819E8101978D839E838D819E8126E18D
S1131530FC0120838D819E8101978D839E838D8103
S11315409E8127E1FC0120838D819E8101978D83FB
S11315509E838D819E8128E1FC0120838D819E8163
S113156001978D839E838D819E8129E1FC012083D7
S11315708D819E8101978D839E838D819E8120E242
S1131580FC0120838D819E8101978D839E838D81B3
S11315909E8121E2FC0120838D819E8101978D83B0
S11315A09E838D819E8122E2FC0120838D819E8118
S11315B001978D839E838D819E8123E2FC0120838C
S11315C08D819E8101978D839E8389859A85CC0127
S11315D0A0E0B0E089839A83AB83BC8329818D81A9
S11315E09E81FC0120838D819E8101978D839E8342
S11315F089819A81AB81BC81892F9A2FAB2FBB271C
S113160089839A83AB83BC8329818D819E81FC016C
S113161020838D819E8101978D839E838D819E8100
S113162026E2FC0120838D819E8101978D839E8318
S11316308D819E8127E2FC0120838D819E8101970B
S11316408D839E838D819E8128E2FC0120838D8180
S11316509E8101978D839E838D819E8129E2FC0169
S113166020838D819E8101978D839E838D819E81B0
S113167020E3FC0120838D819E8101978D839E83CD
S11316808D819E812A96CDBFDEBFDF91CF910895D3
S1131690CF93DF93CDB7DEB70E948F0CA0912A2C95
S11316A0B0912B2C0D900DBE0D900EBEEF91DF91DD
S11316B0CF91BF91AF919F918F917F916F915F91E6
S11316C04F913F912F911F910F91FF90EF90DF90D9
S11316D0CF90BF90AF909F908F907F906F905F90CE
S11316E04F903F902F901F900F90FF91F093A20086
S11316F0FF91FFBFFF91089581E0DF91CF9108959D
S1131700FF93FFB7FF93F091A200FF93F87FF0934C
S1131710A2000F921F9211242F923F924F925F9238
S11317206F927F928F929F92AF92BF92CF92DF92ED
S1131730EF92FF920F931F932F933F934F935F93D7
S11317406F937F938F939F93AF93BF93CF93DF93C5
S1131750EF93A0912A2CB0912B2C0DB60D920EB6BE
S11317600D920E940F16A0912A2CB0912B2C0D9053
S11317700DBE0D900EBEEF91DF91CF91BF91AF9151
S11317809F918F917F916F915F914F913F912F9195
S11317901F910F91FF90EF90DF90CF90BF90AF908B
S11317A09F908F907F906F905F904F903F902F907D
S11317B01F900F90FF91F093A200FF91FFBFFF9144
S11317C0089500001F93CF93DF931F92CDB7DEB728
S11317D089838091E82C982F8981892B8093E82C28
S11317E080EA90E0FC018081813061F080EA90E041
S11317F0FC018081823031F080EA90E0FC0180813C
S1131800843079F48091E82C882359F00E94580997
S1131810182F1092E82C0E940F1680EA90E0FC0129
S1131820128300000F90DF91CF911F9108951F93B1
S1131830CF93DF93CDB7DEB70E945809182F0E94CB
S1131840FF1480EA90E0FC0112830000DF91CF9145
S11318501F910895FF93FFB7FF93F091A200FF93A8
S1131860F87FF093A2000F921F9211242F923F92BF
S11318704F925F926F927F928F929F92AF92BF929C
S1131880CF92DF92EF92FF920F931F932F933F9388
S11318904F935F936F937F938F939F93AF93BF9374
S11318A0CF93DF93EF93A0912A2CB0912B2C0DB6FC
S11318B00D920EB60D920E94170C81E00E94E20B6D
S11318C0A0912A2CB0912B2C0D900DBE0D900EBE24
S11318D0EF91DF91CF91BF91AF919F918F917F91C4
S11318E06F915F914F913F912F911F910F91FF90B5
S11318F0EF90DF90CF90BF90AF909F908F907F90AC
S11319006F905F904F903F902F901F900F90FF919A
S1131910F093A200FF91FFBFFF9118950000CF93B1
S1131920DF9300D01F92CDB7DEB780E09DE7A0E043
S1131930B0E089839A83AB83BC8389819A81AB812C
S1131940BC81689415F8B695A795979587951694D4
S1131950D1F789839A83AB83BC8389819A81AB81D4
S1131960BC810197A109B10989839A83AB83BC83A4
S113197080E098E029813A81FC0126A337A365E041
S113198080E098E00E94BC0361E080E098E00E945F
S1131990F40300002496CDBFDEBFDF91CF910895FC
S11319A0CF93DF93CDB7DEB72597CDBFDEBF8B8353
S11319B09C836D838B819C8189839A83F091A2009F
S11319C0FF93F87FF093A20089819A81FC018081C2
S11319D0918129813A81F901278D422F50E0298193
S11319E03A81F90120A1222F30E0429FB001439FA8
S11319F0700D529F700D11249B01280F391F89818E
S1131A009A81FC012283338389819A81FC01168E99
S1131A1089819A81FC012081318189819A81FC012B
S1131A202483358389819A81FC0180819181298174
S1131A303A81F901278D222F30E0A9014150510943
S1131A4029813A81F90120A1222F30E0429FB0017F
S1131A50439F700D529F700D11249B01280F391F55
S1131A6089819A81FC012683378389819A812FEFAA
S1131A70FC0121A389819A812FEFFC0122A38D818E
S1131A80882381F489819A81FC0180858823A1F0CF
S1131A9089819A8108960E947A17882369F00E94A6
S1131AA0800B0AC089819A8108960E94E90789817E
S1131AB09A8143960E94E907FF91F093A20081E086
S1131AC02596CDBFDEBFDF91CF9108950F931F936D
S1131AD0CF93DF93CDB7DEB72997CDBFDEBF8F831A
S1131AE0688749878885882319F419821A820FC068
S1131AF08F81482F50E08885282F30E0429FC00115
S1131B00439F900D529F900D112489839A8389815C
S1131B109A8185960E9497078B839C838B819C81F5
S1131B20892B81F08B819C8185968D839E832B816B
S1131B303C818D819E8189012985AC0168858F81D5
S1131B400E94AC0D8B819C812996CDBFDEBFDF91B5
S1131B50CF911F910F9108950F931F93CF93DF930C
S1131B60CDB7DEB72797CDBFDEBF89836A834B83AA
S1131B705C832D830E831F838A81882341F48E81A5
S1131B809F812E813F81FC012083318307C08E8198
S1131B909F812B813C81FC01208331838E819F8135
S1131BA02981FC01278F8E819F812A81FC0120A33A
S1131BB08E819F8161E00E94D00C8E819F812D8156
S1131BC0FC0124A300002796CDBFDEBFDF91CF9197
S1131BD01F910F9108950F93CF93DF93CDB7DEB785
S1131BE06297CDBFDEBF8A879B876C877D872E87F0
S1131BF03F87488B598B0A8B19828A859B858A83F8
S1131C009B83F091A200FF93F87FF093A2008A8156
S1131C109B81FC01268D8A819B81FC01878D28177D
S1131C2018F08A89823019F52C853D858A819B813B
S1131C304A89B9010E94E90F8C838A819B81FC0146
S1131C408389882351F08A819B8143960E947A1765
S1131C50882341F00E94800B05C08C81882311F0F9
S1131C600E94800BFF91F093A20081E06FC08E85EB
S1131C709F85A889B989892B8A2B8B2B29F4FF91FD
S1131C80F093A20080E062C08981882331F4CE0100
S1131C9005960E94451881E08983FF91F093A20084
S1131CA00E943414F091A200FF93F87FF093A200F5
S1131CB08A819B81FC0181A18F3F21F48A819B81D0
S1131CC0FC0111A28A819B81FC0182A18F3F21F436
S1131CD08A819B81FC0112A2FF91F093A2009E01D4
S1131CE0225F3F4FCE010596B9010E9468188823F0
S1131CF031F58A819B810E9474118823C9F08E85F5
S1131D009F85A889B9892A813B81285F3F4FAC010F
S1131D10BD01C9010E94DF168A819B810E94EE10D9
S1131D200E944114882309F06CCF0E94800B69CF74
S1131D308A819B810E94EE100E94411462CF8A81A5
S1131D409B810E94EE100E94411480E06296CDBFF8
S1131D50DEBFDF91CF910F910895CF93DF93CDB77D
S1131D60DEB72C97CDBFDEBF8E839F8368877987CC
S1131D704A875B872C878E819F818A839B830E94FD
S1131D8058098C838A819B81FC01268D8A819B81E1
S1131D90FC01878D281718F08C85823089F58A819B
S1131DA09B81FC0182A18D83288539858A819B8151
S1131DB04C85B9010E94E90F8D818F3FB9F48A8166
S1131DC09B81FC0183898823C1F08A819B8143968E
S1131DD00E947A17882389F08A859B85892B69F06C
S1131DE08A859B8521E0FC01208307C08D818F5F5C
S1131DF0282F8A819B81FC0122A381E0898301C071
S1131E00198280EA90E02C81FC01228389812C963E
S1131E10CDBFDEBFDF91CF910895CF93DF93CDB7D0
S1131E20DEB76197CDBFDEBF8A879B876C877D87CE
S1131E302E873F87488B598B19828A859B858A8395
S1131E409B83F091A200FF93F87FF093A2008A8114
S1131E509B81FC01868D8C838C81882311F12C85D8
S1131E603D858A819B81B9010E949E108C812FEF50
S1131E70280F8A819B81FC01268F8A819B81FC012A
S1131E808085882349F08A819B8108960E947A176D
S1131E90882311F00E94800BFF91F093A20081E04F
S1131EA076C08E859F85A889B989892B8A2B8B2B2F
S1131EB029F4FF91F093A20080E069C0898188230E
S1131EC031F4CE0105960E94451881E08983FF9183
S1131ED0F093A2000E943414F091A200FF93F87FC3
S1131EE0F093A2008A819B81FC0181A18F3F21F4A0
S1131EF08A819B81FC0111A28A819B81FC0182A1C0
S1131F008F3F21F48A819B81FC0112A2FF91F093FF
S1131F10A2009E01225F3F4FCE010596B9010E94A7
S1131F206818882331F58A819B810E945311882384
S1131F30C9F08E859F85A889B9892A813B812D5E48
S1131F403F4FAC01BD01C9010E94DF168A819B810C
S1131F500E94EE100E944114882309F072CF0E945F
S1131F60800B6FCF8A819B810E94EE100E944114E6
S1131F7068CF8A819B810E94EE100E9441148A815D
S1131F809B810E945311882309F45BCF80E0619602
S1131F90CDBFDEBFDF91CF910895CF93DF9300D003
S1131FA0CDB7DEB78A839B83F091A200FF93F87FBD
S1131FB0F093A2008A819B81FC01868D8983FF9125
S1131FC0F093A20089812396CDBFDEBFDF91CF912C
S1131FD00895CF93DF93CDB7DEB72797CDBFDEBF8C
S1131FE08B839C836D837E834F831A828B819C8138
S1131FF0FC01868D89838B819C81FC0180A18823CF
S113200009F48EC08F818823D9F58B819C81FC01D2
S113201080A1482F50E08B819C81FC0184819581B3
S11320202D813E81B9010E9432338B819C81FC0158
S1132030248135818B819C81FC0180A1882F90E0D3
S1132040280F391F8B819C81FC01248335838B816C
S11320509C81FC01248135818B819C81FC018281DE
S113206093812817390708F45BC08B819C81FC019C
S1132070208131818B819C81FC012483358350C074
S11320808B819C81FC0180A1482F50E08B819C8135
S1132090FC01868197812D813E81B9010E943233F2
S11320A08B819C81FC01268137818B819C81FC0181
S11320B080A1882F90E0919581959109280F391F6F
S11320C08B819C81FC01268337838B819C81FC015D
S11320D0268137818B819C81FC0180819181281725
S11320E03907A8F48B819C81FC01228133818B8187
S11320F09C81FC0180A1882F90E0919581959109A4
S1132100280F391F8B819C81FC01268337838F81A3
S1132110823031F48981882319F08981815089833F
S1132120898121E0280F8B819C81FC01268F8A8183
S11321302796CDBFDEBFDF91CF910895CF93DF9374
S113214000D01F92CDB7DEB789839A836B837C83DB
S113215089819A81FC0180A18823C9F189819A81AE
S1132160FC012681378189819A81FC0180A1882F15
S113217090E0280F391F89819A81FC0126833783D7
S113218089819A81FC012681378189819A81FC01A8
S1132190828193812817390750F089819A81FC0143
S11321A02081318189819A81FC0126833783898149
S11321B09A81FC0180A1482F50E089819A81FC0119
S11321C0268137818B819C81B9010E9432330000C2
S11321D02496CDBFDEBFDF91CF910895CF93DF93D7
S11321E000D01F92CDB7DEB78B839C83F091A20001
S11321F0FF93F87FF093A2008B819C81FC0182A164
S1132200898312C08B819C81FC018389882381F09E
S11322108B819C8143960E947A17882311F00E9437
S11322201019898181508983898118165CF301C052
S113223000008B819C812FEFFC0122A3FF91F0937E
S1132240A200F091A200FF93F87FF093A2008B818B
S11322509C81FC0181A18A8312C08B819C81FC0139
S11322608085882381F08B819C8108960E947A174F
S1132270882311F00E9410198A8181508A838A81EF
S113228018165CF301C000008B819C812FEFFC01C8
S113229021A3FF91F093A20000002496CDBFDEBFDE
S11322A0DF91CF910895CF93DF9300D0CDB7DEB700
S11322B08A839B83F091A200FF93F87FF093A2009E
S11322C08A819B81FC01868D882319F481E08983AE
S11322D001C01982FF91F093A20089812396CDBF9A
S11322E0DEBFDF91CF910895CF93DF9300D0CDB7B8
S11322F0DEB78A839B83F091A200FF93F87FF0936B
S1132300A2008A819B81FC01268D8A819B81FC012C
S1132310878D281719F481E0898301C01982FF9100
S1132320F093A20089812396CDBFDEBFDF91CF91C8
S11323300895CF93DF93CDB7DEB72997CDBFDEBF26
S11323408B839C834D835E836F83788729878B81FE
S11323509C8189839A83F091A200FF93F87FF09384
S1132360A20089819A81FC0181A18F3F21F4898196
S11323709A81FC0111A289819A81FC0182A18F3F7B
S113238021F489819A81FC0112A2FF91F093A200A9
S113239089819A81FC01868D882371F489819A81CF
S11323A0FC0173968D819E81AF81B8852985AC012E
S11323B0BD01CF010E94461789819A810E94EE10C7
S11323C000002996CDBFDEBFDF91CF9108958F9293
S11323D09F92AF92BF92CF92DF92EF92FF920F93B0
S11323E01F93CF93DF93CDB7DEB76097CDBFDEBF2A
S11323F08E839F83688779874A875B872C873D878D
S11324000E87EF86F88A8A859B850E9497078C83BE
S11324109D838C819D81892BB9F08CE290E00E9490
S1132420970789839A8389819A81892B41F08981CD
S11324309A812C813D81FC01238F348F07C08C81CC
S11324409D810E94DB0702C019821A8289819A81C8
S1132450892B09F18A859B85CC01A0E0B0E0098134
S11324601A814F8558892C853D8568857985EE814B
S1132470FF81812C912C58016A01EE8489019C0111
S1132480AD01CF010E945E1289819A810E943413AA
S113249081E08B8302C08FEF8B838B816096CDBFED
S11324A0DEBFDF91CF911F910F91FF90EF90DF90EE
S11324B0CF90BF90AF909F908F9008958F929F92EE
S11324C0AF92BF92CF92DF92EF92FF920F931F933E
S11324D0CF93DF93CDB7DEB76497CDBFDEBF8C83D8
S11324E09D836E837F83288739874A875B870C8720
S11324F01D87EE86CF86D88AA98ABA8A8B8A9C8A57
S11325002885398589899A89FC01838D948DA9014F
S113251065EA70E00E943B3389899A89FC01238D26
S1132520348D888599850197820F931F8A839B83B5
S1132530198221C08981882F90E02981222F30E0DF
S11325404E815F81240F351FF901408129893A8921
S1132550820F931F4D96FC0140838981882F90E060
S11325602E813F81820F931FFC018081882339F0E3
S113257089818F5F898389818830E0F201C00000FE
S113258089899A89FC0114A28E85843010F083E035
S11325908E8789899A892E85FC01228F89899A8957
S11325A002960E94230889899A890E960E9423081C
S11325B089899A8929893A89FC01228733878E85FA
S11325C0882F90E0A0E0B0E024E030E040E050E06C
S11325D079018A01E81AF90A0A0B1B0BD801C70111
S11325E029893A89F90186879787A08BB18B8989D4
S11325F09A8929893A89FC01268B378B89899A899A
S1132600FC0117A210A611A612A689899A89FC01B9
S113261013A64C855D852C813D818A819B81B901FE
S11326200E946F099C0189899A89FC012083318366
S11326308F859889892B39F08F85988929893A89DA
S1132640FC012083318300006496CDBFDEBFDF919F
S1132650CF911F910F91FF90EF90DF90CF90BF909B
S1132660AF909F908F900895CF93DF931F921F9206
S1132670CDB7DEB789839A83F091A200FF93F87FE8
S1132680F093A2008091882C8F5F8093882C809196
S11326902A2C90912B2C892B69F489819A8180931F
S11326A02A2C90932B2C8091882C8130C9F40E9481
S11326B02E1916C080918E2C882391F480912A2C97
S11326C090912B2CFC01228D89819A81FC01828DB1
S11326D0821730F089819A8180932A2C90932B2C35
S11326E08091922C8F5F8093922C2091922C8981DF
S11326F09A81FC0125A389819A81FC01928D8091A4
S11327008D2C891730F489819A81FC01828D809304
S11327108D2C89819A81AC014E5F5F4F89819A81AA
S1132720FC01828D282F30E06BE0629FC001639F23
S1132730900D1124845D934DBA010E943608FF91D7
S1132740F093A20080918E2C882371F080912A2C22
S113275090912B2CFC01228D89819A81FC01828D20
S1132760281710F40E94800B00000F900F90DF9147
S1132770CF910895CF93DF93CDB7DEB72597CDBF23
S1132780DEBF6A837B838C839D8319828A819B81CC
S1132790AC81BD81892B8A2B8B2B71F00E94341460
S11327A08A819B81AC81BD8140E0BC01CD010E9446
S11327B00B1A0E94411489838981882311F40E9491
S11327C0800B00002596CDBFDEBFDF91CF91089529
S11327D0EF92FF920F93CF93DF931F92CDB7DEB7A3
S11327E00F2EF7E9EF2EFCE2FF2EF02D00E020E0A3
S11327F030E048EC50E060E070E28BE199E10E9447
S1132800E71189838981813019F40E94AC1A898384
S11328108981813009F580EA90E020EA30E0F9010D
S11328202281287FFC0122838FEF9FEFDC018093BC
S1132830932C9093942CA093952CB093962C81E098
S113284080938E2C1092892C10928A2C10928B2CAF
S113285010928C2C0E94480B00000F90DF91CF91B6
S11328600F91FF90EF900895CF93DF93CDB7DEB72C
S11328708091992C8F5F8093992C0000DF91CF91E8
S11328800895CF93DF9300D01F92CDB7DEB719829E
S11328901A821B82F091A200FF93F87FF093A200AA
S11328A08091992C81508093992C8091992C882324
S11328B009F074C08091882C882309F46FC046C045
S11328C08091792C90917A2CFC0180859185898363
S11328D09A8389819A810E960E94020989819A813C
S11328E002960E94020989819A81FC01928D80914D
S11328F08D2C891730F489819A81FC01828D809313
S11329008D2C89819A81AC014E5F5F4F89819A81B8
S1132910FC01828D282F30E06BE0629FC001639F31
S1132920900D1124845D934DBA010E94360889816B
S11329309A81FC01228D80912A2C90912B2CFC01F0
S1132940828D281718F081E08093902C8091722C4E
S1132950882309F0B5CF89819A81892B11F00E94CF
S1132960711980918F2C8C838C81882379F00E943B
S1132970FF14882319F081E08093902C8C8181507E
S11329808C838C81882399F710928F2C8091902CC2
S1132990882321F081E08B830E94800BFF91F093C8
S11329A0A2008B812496CDBFDEBFDF91CF91089525
S11329B0CF93DF9300D01F92CDB7DEB7F091A20082
S11329C0FF93F87FF093A2008091892C90918A2C38
S11329D0A0918B2CB0918C2C89839A83AB83BC837C
S11329E0FF91F093A20089819A81AB81BC81BC01E3
S11329F0CD012496CDBFDEBFDF91CF910895CF9353
S1132A00DF93CDB7DEB72D97CDBFDEBF198280919E
S1132A10992C882309F0F1C08091892C90918A2CFB
S1132A20A0918B2CB0918C2C0196A11DB11D8A8391
S1132A309B83AC83BD838A819B81AC81BD81809360
S1132A40892C90938A2CA0938B2CB0938C2C8A8104
S1132A509B81AC81BD81892B8A2B8B2BD9F48091EE
S1132A606E2C90916F2C8E839F838091702C90910B
S1132A70712C80936E2C90936F2C8E819F81809308
S1132A80702C9093712C8091912C8F5F8093912C5A
S1132A900E9471198091932C9091942CA091952C63
S1132AA0B091962C2A813B814C815D81281739078E
S1132AB04A075B0708F48AC080916E2C90916F2CB2
S1132AC0FC018081882361F48FEF9FEFDC01809308
S1132AD0932C9093942CA093952CB093962C76C021
S1132AE080916E2C90916F2CFC0187819085FC0164
S1132AF0808591858887998788859985FC0182815D
S1132B009381A481B5818A879B87AC87BD872A81FD
S1132B103B814C815D818A859B85AC85BD85281769
S1132B2039074A075B0768F48A859B85AC85BD85B0
S1132B308093932C9093942CA093952CB093962CE3
S1132B4045C08885998502960E94020988859985E1
S1132B50FC01808D918D892B29F0888599850E96AD
S1132B600E94020988859985FC01928D80918D2CA3
S1132B70891730F488859985FC01828D80938D2C8A
S1132B8088859985AC014E5F5F4F88859985FC01E6
S1132B90828D282F30E06BE0629FC001639F900D0F
S1132BA01124845D934DBA010E9436088885998565
S1132BB0FC01228D80912A2C90912B2CFC01828D7A
S1132BC0281708F479CF81E0898376CF80912A2C65
S1132BD090912B2CFC01828D282F30E04BE0429FFA
S1132BE0C001439F900D1124845D934DFC018081AD
S1132BF0823040F081E0898305C080918F2C8F5F03
S1132C0080938F2C8091902C882311F081E089830C
S1132C1089812D96CDBFDEBFDF91CF910895CF93EB
S1132C20DF93CDB7DEB72997CDBFDEBF8091992C56
S1132C30882321F081E08093902CBAC01092902CCC
S1132C4080912A2C90912B2CFC01838D948D8A8366
S1132C509B8385EA95EADC018C839D83AE83BF83E5
S1132C608A819B81FC0120813181428153818C8145
S1132C709D81AE81BF81281739074A075B0799F503
S1132C808A819B810496FC01208131814281538198
S1132C908C819D81AE81BF81281739074A075B0764
S1132CA011F58A819B810896FC0120813181428142
S1132CB053818C819D81AE81BF81281739074A07D2
S1132CC05B0789F48A819B810C96FC012081318108
S1132CD0428153818C819D81AE81BF812817390740
S1132CE04A075B0771F080912A2C90912B2C9C0150
S1132CF0235E3F4F80912A2C90912B2CB9010E9486
S1132D00100480918D2C898303C08981815089832B
S1132D108981282F30E04BE0429FC001439F900DF2
S1132D201124845D934DFC018081882371F3898192
S1132D30282F30E04BE0429FC001439F900D1124A7
S1132D40845D934D8887998788859985FC01818165
S1132D509281FC012481358188859985FC01218338
S1132D60328388859985FC01218132818885998502
S1132D7003962817390769F488859985FC018181B0
S1132D809281FC012481358188859985FC01218308
S1132D90328388859985FC0181819281FC0180853B
S1132DA0918580932A2C90932B2C898180938D2C50
S1132DB000002996CDBFDEBFDF91CF910895CF9358
S1132DC0DF9300D000D0CDB7DEB789839A834B83DD
S1132DD05C836D837E8380912A2C90912B2C9C01A3
S1132DE0225F3F4F89819A81B9010E9481088B81BA
S1132DF09C81AD81BE8141E0BC01CD010E940B1AD2
S1132E0000002696CDBFDEBFDF91CF9108950F93CA
S1132E101F93CF93DF93CDB7DEB72A97CDBFDEBF25
S1132E2089839A834B835C836D837E830F831887A6
S1132E3029873A8720912A2C30912B2C8B819C81D5
S1132E40AD81BE81B068F90186879787A08BB18B6D
S1132E5080912A2C90912B2C9C01225F3F4F8981D9
S1132E609A81B9010E9436088F819885A985BA850F
S1132E7041E0BC01CD010E940B1A00002A96CDBF8F
S1132E80DEBFDF91CF911F910F910895CF93DF9310
S1132E90CDB7DEB72797CDBFDEBF89839A834B8337
S1132EA05C836D837E832F8380912A2C90912B2CBD
S1132EB09C01225F3F4F89819A81B9010E943608A3
S1132EC08F81882339F08FEF9FEFDC018B839C8304
S1132ED0AD83BE838B819C81AD81BE814F81BC015A
S1132EE0CD010E940B1A00002796CDBFDEBFDF91F3
S1132EF0CF910895CF93DF93CDB7DEB72597CDBF9C
S1132F00DEBF8C839D838C819D81FC0187819085AC
S1132F10FC01808591858A839B838A819B810E969F
S1132F200E9402098091992C882351F58A819B8102
S1132F3002960E9402098A819B81FC01928D8091F4
S1132F408D2C891730F48A819B81FC01828D8093BA
S1132F508D2C8A819B81AC014E5F5F4F8A819B815E
S1132F60FC01828D282F30E06BE0629FC001639FDB
S1132F70900D1124845D934DBA010E94360808C057
S1132F808A819B810E96BC0182E79CE20E943608EE
S1132F908A819B81FC01228D80912A2C90912B2C7B
S1132FA0FC01828D821730F481E0898381E0809373
S1132FB0902C01C0198289812596CDBFDEBFDF9197
S1132FC0CF910895CF93DF93CDB7DEB72897CDBFC8
S1132FD0DEBF8B839C834D835E836F8378878D8173
S1132FE09E81AF81B885B0682B813C81F9018083D3
S1132FF09183A283B3838B819C81FC01808591851D
S113300089839A838B819C810E94020989819A8198
S113301002960E94020989819A81FC01928D809115
S11330208D2C891730F489819A81FC01828D8093DB
S11330308D2C89819A81AC014E5F5F4F89819A8181
S1133040FC01828D282F30E06BE0629FC001639FFA
S1133050900D1124845D934DBA010E943608898134
S11330609A81FC01228D80912A2C90912B2CFC01B9
S1133070828D821718F481E08093902C00002896AA
S1133080CDBFDEBFDF91CF910895CF93DF931F9221
S11330901F92CDB7DEB789839A832091912C8981C1
S11330A09A81FC0120838091892C90918A2CA09193
S11330B08B2CB0918C2C29813A81F90181839283E4
S11330C0A383B48300000F900F90DF91CF910895F4
S11330D0EF92FF920F931F93CF93DF93CDB7DEB799
S11330E02D97CDBFDEBF8A879B876C877D87F09144
S11330F0A200FF93F87FF093A2008091892C909115
S11331008A2CA0918B2CB0918C2C8A839B83AC83CA
S1133110BD838A859B85FC0181819281A381B481D1
S11331202A813B814C815D8179018A01E81AF90A7F
S11331300A0B1B0BD801C7018E839F83A887B9870D
S11331408C859D85FC0180819181A281B3818F3F13
S11331509F4FAF4FBF4F11F4198254C08A859B858E
S1133160FC0190818091912C981799F08A859B8518
S1133170FC0121813281438154818A819B81AC810C
S1133180BD8182179307A407B50718F081E08983EE
S113319039C08C859D85FC01208131814281538118
S11331A08E819F81A885B98582179307A407B507E7
S11331B000F58C859D85FC012081318142815381FC
S11331C08E819F81A885B98579018A01E81AF90A57
S11331D00A0B1B0BD801C7012C853D85F90180839F
S11331E09183A283B3838A859B850E9445181982A3
S11331F009C08C859D85FC01108211821282138284
S113320081E08983FF91F093A20089812D96CDBF3F
S1133210DEBFDF91CF911F910F91FF90EF90089542
S1133220CF93DF93CDB7DEB781E08093902C00007D
S1133230DF91CF910895CF93DF931F921F92CDB763
S1133240DEB789839A830E94691980912C2C82307D
S113325010F00E94800B0E940A20F5CFCF93DF93D9
S11332601F92CDB7DEB7198210C08981282F30E0B4
S11332704BE0429FC001439F900D1124845D934D08
S11332800E94E90789818F5F89838981843068F38B
S113329088E59CE20E94E90783E69CE20E94E90734
S11332A082E79CE20E94E9078DE79CE20E94E9071D
S11332B088E59CE280936E2C90936F2C83E69CE2CD
S11332C08093702C9093712C00000F90DF91CF911C
S11332D00895CF93DF93CDB7DEB70000DF91CF9190
S11332E00895CF93DF931F921F92CDB7DEB78091DD
S11332F06E2C90916F2CFC018081882361F48FEFF8
S11333009FEFDC018093932C9093942CA093952CA5
S1133310B093962C1BC080916E2C90916F2CFC0165
S113332087819085FC018085918589839A83898131
S11333309A81FC0182819381A481B5818093932C2D
S11333409093942CA093952CB093962C00000F90FE
S11333500F90DF91CF910895CF93DF931F92CDB754
S1133360DEB780918E2C882319F481E0898308C00C
S11333708091992C882319F482E0898301C01982F1
S113338089810F90DF91CF910895EF92FF920F936F
S11333901F93CF93DF9300D01F92CDB7DEB78091F8
S11333A02A2C90912B2CFC0186859785A089B189C4
S11333B089839A83AB83BC8360912A2C70912B2CD4
S11333C080912A2C90912B2CFC01828D882F90E0E7
S11333D0A0E0B0E024E030E040E050E079018A0170
S11333E0E81AF90A0A0B1B0BD801C701FB018687EF
S11333F09787A08BB18B89819A81AB81BC81BC01F9
S1133400CD012496CDBFDEBFDF91CF911F910F91E7
S1133410FF90EF900895CF93DF93CDB7DEB72D974C
S1133420CDBFDEBF69877A878B879C874D87809164
S1133430892C90918A2CA0918B2CB0918C2C89830F
S11334409A83AB83BC8380912A2C90912B2C029677
S11334500E94020989859A85AB85BC858F3F9F4F61
S1133460AF4FBF4F71F48D85882359F080912A2C7A
S113347090912B2C0296BC018DE79CE20E943608A9
S113348064C029813A814B815C8189859A85AB85A9
S1133490BC85820F931FA41FB51F8D839E83AF83AA
S11334A0B88720912A2C30912B2C8D819E81AF815D
S11334B0B885F90182839383A483B5832D813E81EA
S11334C04F81588589819A81AB81BC81281739073E
S11334D04A075B0778F480912A2C90912B2C9C014D
S11334E02E5F3F4F8091702C9091712CB9010E94F6
S11334F081082BC080912A2C90912B2C9C012E5F4B
S11335003F4F80916E2C90916F2CB9010E948108DD
S11335108091932C9091942CA091952CB091962C01
S11335202D813E814F815885281739074A075B074B
S113353060F48D819E81AF81B8858093932C9093A4
S1133540942CA093952CB093962C00002D96CDBF6F
S1133550DEBFDF91CF910895EF92FF920F93CF9347
S1133560DF931F92CDB7DEB719820E943D1F809171
S1133570B42C9091B52C892B91F00F2EF6EBEF2EF5
S1133580FCE2FF2EF02D03E020E030E048EC50E0B8
S113359065E070E282EC9BE10E94E71189838981F6
S11335A00F90DF91CF910F91FF90EF900895CF92FC
S11335B0DF92EF92FF920F931F93CF93DF93CDB7D8
S11335C0DEB76797CDBFDEBF8B879C876D872E875D
S11335D03F87488B598B0A8B1B8BCC8ADD8AEE8AFA
S11335E0FF8A19828091B42C9091B52C892B09F40F
S11335F044C08D858A838E859F85A889B9898B83EC
S11336009C83AD83BE838B859C858F8398878D85B2
S1133610863034F50E94AC19823099F4E091B42CD0
S1133620F091B52C8C899D89AE89BF89BE016E5FEE
S11336307F4F00E09C01AD01CF010E94EB0D898317
S11336401CC08091B42C9091B52CBE016E5F7F4F4D
S113365000E020E030E0A9010E94EB0D89830DC059
S11336608091B42C9091B52C4A895B89BE016E5F20
S11336707F4F20E00E94AD0E898389816796CDBF7C
S1133680DEBFDF91CF911F910F91FF90EF90DF90FC
S1133690CF900895CF92DF92EF92FF920F931F93F2
S11336A0CF93DF93CDB7DEB72B97CDBFDEBF6C834F
S11336B07D838E839F83288739874A875B878091A0
S11336C0B02C9091B12CFC0187819085FC01808500
S11336D0918589839A8389819A8102960E9402093D
S11336E089819A81FC0182898130B1F589819A812D
S11336F0FC0126853785408951898C819D81AE8165
S1133700BF81820F931FA41FB51FEC80FD800E8123
S11337101F81288539854A855B85E981FA8167019E
S1133720780189019A01AC01BD01CF010E94E01C1E
S1133730882391F08C819D81AE81BF81E981FA81DA
S1133740C12CD12C760100E010E09C01AD0160E0B9
S1133750CF010E94D71A8B8389819A81FC01258924
S1133760368989819A81F901199500002B96CDBF7C
S1133770DEBFDF91CF911F910F91FF90EF90DF900B
S1133780CF900895CF93DF93CDB7DEB72797CDBF02
S1133790DEBF8E839F83CE0105960E945D1CDC01F3
S11337A0CB0189839A83AB83BC832D8189819A81E0
S11337B0AB81BC81422FBC01CD010E94E21B0E945F
S11337C0791DE9CFEF92FF920F931F93CF93DF936D
S11337D0CDB7DEB72A97CDBFDEBF6E837F838887E0
S11337E099874A870E943414CE0105960E949B1C37
S11337F0DC01CB0189839A83AB83BC838D818823CD
S113380009F04EC08A858823E1F42E813F814885E2
S1133810598589819A81AB81BC8182179307A4075A
S1133820B50778F00E94411429813A814B815C816B
S11338308E819F81A885B985BC01CD010E944A1B58
S113384031C08A85882359F08091B22C9091B32C91
S1133850FC01908181E0992309F080E08A872E8120
S11338603F814885598589819A81AB81BC817901E1
S11338708A01E81AF90A0A0B1B0BD801C701E09167
S1133880B42CF091B52C2A85AC01BD01CF010E9466
S113389099110E944114882329F40E94800B02C0CC
S11338A00E94411400002A96CDBFDEBFDF91CF9164
S11338B01F910F91FF90EF900895CF93DF9300D065
S11338C000D0CDB7DEB78D839E838091B02C9091CC
S11338D0B12CFC01908181E0992309F080E0282F2C
S11338E08D819E81FC0120838D819E81FC018081DC
S11338F0882389F48091B02C9091B12CFC018781AC
S11339009085FC0180819181A281B38189839A830E
S1133910AB83BC8304C019821A821B821C828981F6
S11339209A81AB81BC81BC01CD012696CDBFDEBF9F
S1133930DF91CF910895CF93DF9300D000D0CDB71E
S1133940DEB78D839E830E94D814DC01CB0189836A
S11339509A83AB83BC838091B82C9091B92CA091AD
S1133960BA2CB091BB2C29813A814B815C812817F8
S113397039074A075B0740F40E94831E8D819E81AC
S113398021E0FC01208304C08D819E81FC01108212
S113399089819A81AB81BC818093B82C9093B92C96
S11339A0A093BA2CB093BB2C89819A81AB81BC8142
S11339B0BC01CD012696CDBFDEBFDF91CF91089526
S11339C0CF92DF92EF92FF920F931F93CF93DF93E7
S11339D0CDB7DEB72F97CDBFDEBF8A839B834C83E1
S11339E05D836E837F83088719872A873B87CC860C
S11339F0DD86EE86FF8619822A813B818C819D813A
S1133A00AE81BF81F90182839383A483B5838A81C4
S1133A109B812A813B81FC01228733872C813D8154
S1133A204E815F8188859985AA85BB858217930716
S1133A30A407B50740F1288539854A855B858C85BF
S1133A409D85AE85BF85281B390B4A0B5B0B8A818C
S1133A509B81FC0186859785A089B1892817390740
S1133A604A075B0718F081E0898336C08A819B810D
S1133A709C012E5F3F4F8091B22C9091B32CB901E1
S1133A800E94810829C0288539854A855B858C85F3
S1133A909D85AE85BF85281739074A075B0780F4E3
S1133AA02C813D814E815F818C859D85AE85BF854E
S1133AB0281739074A075B0718F081E089830CC08F
S1133AC08A819B819C012E5F3F4F8091B02C909105
S1133AD0B12CB9010E94810889812F96CDBFDEBF28
S1133AE0DF91CF911F910F91FF90EF90DF90CF90D6
S1133AF00895CF92DF92EF92FF920F931F93CF938B
S1133B00DF93CDB7DEB76597CDBFDEBFE0C08A8552
S1133B108823FCF4CE010A96019689839A838981CD
S1133B209A81FC012081318189819A81FC018481FF
S1133B309581A681B78149815A81FA010280F38176
S1133B40E02DEC8BFD8BAC01BD018C899D89F901C5
S1133B5019958A8588230CF4BAC08F8598898B833C
S1133B609C838B819C81FC0184859585892B29F01C
S1133B708B819C8102960E940209CE0143960E9489
S1133B809B1CDC01CB018D839E83AF83B8878A8520
S1133B90082E000C990B092E000CAA0BBB0B40E05D
S1133BA050E029E030E0841B950B2817390708F40E
S1133BB08DC0FC018827E250FF4F8F4F0C94473291
S1133BC0EB84FC840D851E852B853C854D855E85A7
S1133BD08B819C81FC0186859785A089B189820FA0
S1133BE0931FA41FB51F2D813E814F815885EB8102
S1133BF0FC816701780189019A01AC01BD01CF0103
S1133C000E94E01C882309F462C08B819C81FC0122
S1133C10258936898B819C81F90119958B819C8139
S1133C20FC018289813009F052C02B853C854D8589
S1133C305E858B819C81FC0186859785A089B189ED
S1133C40820F931FA41FB51FEB81FC81C12CD12CC3
S1133C50760100E010E09C01AD0160E0CF010E941C
S1133C60D71A898734C08B859C85AD85BE852B8109
S1133C703C81F90186879787A08BB18B8B819C81CE
S1133C80FC0126853785408951898D819E81AF81CC
S1133C90B885820F931FA41FB51FED80FE800F818E
S1133CA018852D813E814F815885EB81FC81670108
S1133CB0780189019A01AC01BD01CF010E94E01C89
S1133CC006C08B819C810E94DB0701C000008091AB
S1133CD0B42C9091B52CBE01665F7F4F20E030E09C
S1133CE0A9010E940D0F882309F011CF00006596E9
S1133CF0CDBFDEBFDF91CF911F910F91FF90EF9069
S1133D00DF90CF900895CF92DF92EF92FF920F93BE
S1133D101F93CF93DF93CDB7DEB72D97CDBFDEBF13
S1133D2082C08091B02C9091B12CFC018781908548
S1133D30FC0180819181A281B38189839A83AB83C1
S1133D40BC838091B02C9091B12CFC01878190852B
S1133D50FC01808591858D839E838D819E81029651
S1133D600E9402098D819E81FC01258936898D81FD
S1133D709E81F90119958D819E81FC018289813092
S1133D8009F051C08D819E81FC01268537854089CB
S1133D90518989819A81AB81BC81820F931FA41FB1
S1133DA0B51F8F839887A987BA872F81388549855E
S1133DB05A8589819A81AB81BC8182179307A407B4
S1133DC0B507F8F42D813E818F819885A985BA8540
S1133DD0F90182839383A483B5838D819E812D8190
S1133DE03E81FC01228733878D819E819C012E5F59
S1133DF03F4F8091B02C9091B12CB9010E94810861
S1133E0012C089819A81AB81BC81ED81FE81C12C74
S1133E10D12C760100E010E09C01AD0160E0CF01FF
S1133E200E94D71A8B878091B02C9091B12CFC0101
S1133E308081882309F075CF8091B02C9091B12CAA
S1133E408C879D878091B22C9091B32C8093B02C59
S1133E509093B12C8C859D858093B22C9093B32C38
S1133E6000002D96CDBFDEBFDF91CF911F910F9142
S1133E70FF90EF90DF90CF900895CF93DF93CDB76D
S1133E80DEB7F091A200FF93F87FF093A200809137
S1133E90B42C9091B52C892BE9F48AE99CE20E9418
S1133EA0E90785EA9CE20E94E9078AE99CE280939B
S1133EB0B02C9093B12C85EA9CE28093B22C909321
S1133EC0B32C40E069E085E00E94660D8093B42C39
S1133ED09093B52CFF91F093A2000000DF91CF9155
S1133EE008950F931F93CF93DF93CDB7DEB76497F5
S1133EF0CDBFDEBF8B879C876D877E872F87388BEE
S1133F00498B5A8B0B8B1C8B8EEF8A838B859C85FC
S1133F108B839C838D859E858D839E838F859889D5
S1133F20A989BA898F839887A987BA878091B42C85
S1133F309091B52C4B895C89BE016E5F7F4F20E068
S1133F400E94AD0E898389816496CDBFDEBFDF9167
S1133F50CF911F910F910895CF93DF93CDB7DEB723
S1133F6080E590E020E530E0F90120812160FC014A
S1133F70208380E590E0FC018181882F90E08170AE
S1133F809927892BB1F380E00E949A038EE10E9465
S1133F90630360E080E00E94830343E060E080E428
S1133FA00E942E0380E590E020E530E0F9012081B5
S1133FB02860FC01208380E590E0FC018181882F4A
S1133FC090E088709927892BB1F364E080EC0E941B
S1133FD04B0380E590E020E530E0F9012081206189
S1133FE0FC01208360E080E00E94830380E590E090
S1133FF0FC018181882F90E080719927892BB1F38E
S113400084E00E949A0387E00E9463030000DF912A
S1134010CF910895CF93DF93CDB7DEB70000DF9142
S1134020CF910895EF92FF920F93CF93DF93CDB783
S1134030DEB70E94AC1F0E94B3240E945A048093EE
S1134040ED2C9093EE2CE12CF12C03E020E030E0F9
S113405048EC50E06DE070E283E891E20E94E711E1
S1134060E12CF12C02E020E030E048EC50E064E187
S113407070E289E590E20E94E711E12CF12C01E065
S113408020E030E048EC50E06CE170E28FEC91E22B
S11340900E94E71180EA96E021E0FC0121830E945E
S11340A0E81380E090E0DF91CF910F91FF90EF90C3
S11340B00895CF93DF93CDB7DEB7A597CDBFDEBF0D
S11340C08CA39DA319821A822DE0CE010396FC01D4
S11340D0322F11923A95E9F7188A198A2DE0CE0108
S11340E04296FC01322F11923A95E9F71F8E18A2DD
S11340F023E0CE018196FC01322F11923A95E9F723
S11341008091ED2C9091EE2C48E050E060E070E05E
S11341100E94B5058091E92C9091EA2CA091EB2C9A
S1134120B091EC2C20E030E040E85FE3BC01CD012D
S11341300E94D62C882361F18091E92C9091EA2C7D
S1134140A091EB2CB091EC2C20E030E040E850E45E
S1134150BC01CD010E943A2EDC01CB012B2F2F9301
S11341602A2F2F93292F2F938F9381E290E2892F67
S11341708F9381E290E28F93CE0101969F938F9368
S11341800E94C2338DB79EB70896CDBFDEBF0AC06A
S11341902CE0E4E2F0E2CE010196DC0101900D9204
S11341A02A95E1F78091EF2C9091F02CA091F12CBD
S11341B0B091F22C2B2F2F932A2F2F93292F2F934B
S11341C08F9380E390E2892F8F9380E390E28F9323
S11341D0CE014096292F2F938F930E94C233EDB7BF
S11341E0FEB73896CDBFDEBF8091F32C9091F42CAE
S11341F0A091F52CB091F62C2B2F2F932A2F2F93CF
S1134200292F2F938F9380E390E2892F8F9380E35C
S113421090E28F93CE014F96292F2F938F930E9474
S1134220C2338DB79EB70896CDBFDEBF0E94FE266F
S113423084E390E2892F8F9384E390E28F931F921B
S11342401F921F921F920E9410270F900F900F90A1
S11342500F900F900F90CE014096292F2F938F939C
S113426082E490E2892F8F9382E490E28F931F92ED
S11342701F921F9281E08F930E941027EDB7FEB723
S11342803896CDBFDEBFCE0101969F938F9385E410
S113429090E2892F8F9385E490E28F931F921F926F
S11342A01F9282E08F930E9410278DB79EB70896C5
S11342B0CDBFDEBFCE014F96292F2F938F938CE471
S11342C090E2892F8F938CE490E28F931F921F9238
S11342D01F9283E08F930E941027EDB7FEB73896A4
S11342E0CDBFDEBF8091ED2C9091EE2C48E050E0E4
S11342F060E070E00E94000664EF71E080E090E00E
S11343000E94BA13FDCECF93DF931F921F92CDB7B5
S1134310DEB789839A830E94CB010E94E70180E083
S11343200E94D902813079F48091ED2C9091EE2C89
S113433041E050E060E070E00E94000680E099E017
S113434021E0FC01208381E00E94D902813071F4D4
S11343508091ED2C9091EE2C41E050E060E070E013
S11343600E94B50580E099E0FC01108282E00E9481
S1134370D902813051F48091ED2C9091EE2C44E0DF
S113438050E060E070E00E94000683E00E94D902E1
S11343906AE070E080E090E00E94BA13BECFCF9252
S11343A0DF92EF92FF92CF93DF9300D01F92CDB7AD
S11343B0DEB78B839C8380E090E0A0E8BFE380932A
S11343C0E92C9093EA2CA093EB2CB093EC2C19825B
S11343D01A821092EF2C1092F02C1092F12C109261
S11343E0F22C80E099E0FC01108280E099E0FC016D
S11343F0118280E099E023E0FC01268380E099E0CB
S11344002FEF3CE7FC0126A337A38091ED2C90917C
S1134410EE2C40E050E0BA010E94B505DC01CB016E
S113442089839A8389819A8188709927892B09F4D1
S113443098C089819A8181709927892B09F491C048
S1134440C090E92CD090EA2CE090EB2CF090EC2C6E
S11344508091EF2C9091F02CA091F12CB091F22C42
S1134460880F991FAA1FBB1F880F991FAA1FBB1F64
S11344700396A11DB11DBC01CD010E94852DDC0157
S1134480CB019C01AD0160E070E080E89FE30E94F5
S1134490DB2CDC01CB019C01AD01C701B6010E94FC
S11344A0692CDC01CB016C017D018091EF2C909192
S11344B0F02CA091F12CB091F22C880F991FAA1F17
S11344C0BB1F880F991FAA1FBB1F0596A11DB11DF5
S11344D0BC01CD010E94852DDC01CB019C01AD0105
S11344E060E070E080E89FE30E94DB2CDC01CB01FC
S11344F09C01AD01C701B6010E946A2CDC01CB010D
S11345008093E92C9093EA2CA093EB2CB093EC2CA1
S11345108091EF2C9091F02CA091F12CB091F22C81
S11345200196A11DB11D8093EF2C9093F02CA093C4
S1134530F12CB093F22C8091E92C9091EA2CA0916B
S1134540EB2CB091EC2C29EF3FE049E45FE3BC0194
S1134550CD010E94D62C882324F480E099E0FC014C
S1134560108289819A8184709927892B09F44DCF0F
S113457080E090E0A0E8BFE38093E92C9093EA2CDC
S1134580A093EB2CB093EC2C1092EF2C1092F02C07
S11345901092F12C1092F22C1092F32C1092F42C15
S11345A01092F52C1092F62C8091ED2C9091EE2C1B
S11345B044E050E060E070E00E94B50526CF1F9211
S11345C00F9200903F000F92112400903B000F9235
S11345D02F938F939F93AF93BF93EF93FF93CF93B7
S11345E0DF93CDB7DEB78091F32C9091F42CA0919A
S11345F0F52CB091F62C0196A11DB11D8093F32CDE
S11346009093F42CA093F52CB093F62C80EA96E0CA
S113461021E0FC0127830000DF91CF91FF91EF910E
S1134620BF91AF919F918F912F910F9000923B007A
S11346300F9000923F000F901F9018951F920F92B9
S113464000903F000F92112400903B000F922F9393
S11346503F934F935F936F937F938F939F93AF9306
S1134660BF93EF93FF93CF93DF931F92CDB7DEB742
S113467019828091FB2C9091FC2C9E012F5F3F4F5F
S113468041E050E060E070E00E946D0760E080E08F
S11346909BE00E94BC0380E09BE0FC0116820000CA
S11346A00F90DF91CF91FF91EF91BF91AF919F91C7
S11346B08F917F916F915F914F913F912F910F90C7
S11346C000923B000F9000923F000F901F901895AE
S11346D0CF92DF92EF92FF920F93CF93DF9300D0AC
S11346E01F92CDB7DEB769837A838B839C838981DC
S11346F09A81AB81BC810297A105B10540F482E0A7
S113470090E0A0E0B0E089839A83AB83BC8380E02F
S11347109BE021E0FC01268380E09BE0FC0110A2E9
S113472011A260E080E09BE00E94D80389819A8115
S1134730AB81BC818E3F9F4FA105B10598F420E069
S11347403BE089819A81AB81BC81B695A795979509
S11347508795F90186A397A365E080E09BE00E941A
S1134760BC031FC089819A81AB81BC81803492448F
S1134770AF40B105B0F420E03BE089819A81AB8180
S1134780BC81689414F8B695A79597958795169467
S1134790D1F7F90186A397A367E080E09BE00E942C
S11347A0BC038091FB2C9091FC2C0F2EF4EFCF2EA8
S11347B0DD24D394E12CF12CF02D00E021E041E044
S11347C050E060E070E00E947D0400002496CDBFBC
S11347D0DEBFDF91CF910F91FF90EF90DF90CF90EC
S11347E00895CF93DF931F92CDB7DEB78983898174
S11347F08F70898389818295807F898380E096E0A8
S113480020E036E0F901348129812F602323FC0163
S1134810248380E096E020E036E0F90134812981A8
S1134820232BFC01248300000F90DF91CF91089586
S1134830CF93DF931F92CDB7DEB789838981882315
S113484031F080E696E021E0FC01258305C080E696
S113485096E021E0FC01268300000F90DF91CF91C8
S11348600895CF93DF931F92CDB7DEB789838981F3
S1134870882331F080E696E022E0FC01258305C020
S113488080E696E022E0FC01268300000F90DF9191
S1134890CF910895CF93DF931F92CDB7DEB789836D
S11348A08981882331F080E696E024E0FC012583A9
S11348B005C080E696E024E0FC01268300000F900A
S11348C0DF91CF910895CF93DF93CDB7DEB781E029
S11348D00E944A2461E070E080E090E00E94682336
S11348E080E00E944A240000DF91CF910895CF9385
S11348F0DF931F92CDB7DEB78983898182958F704C
S11349000E94F12380E00E94182480E00E94312458
S11349100E94632489818F700E94F1230E94632482
S113492000000F90DF91CF910895CF93DF931F92F2
S1134930CDB7DEB78983898182958F700E94F12378
S113494081E00E94182480E00E9431240E946324A4
S113495089818F700E94F1230E94632400000F90CC
S1134960DF91CF910895EF92FF920F93CF93DF934E
S1134970CDB7DEB780E096E020E1FC01218380E042
S113498096E020E2FC01218380E096E020E4FC0133
S1134990218380E096E020E8FC01218380E696E014
S11349A021E0FC01218380E696E022E0FC012183E2
S11349B080E696E024E0FC01218380E096E020E09C
S11349C036E0F90124812F70FC01248380E696E00F
S11349D020E636E0F9012481287FFC01248340E0AD
S11349E066E188E00E94660D8093F92C9093FA2C7E
S11349F00E945A048093FB2C9093FC2CE12CF12C04
S1134A0002E020E030E04EE551E068E570E281EB41
S1134A1095E20E94E7110000DF91CF910F91FF9082
S1134A20EF900895CF93DF9300D01F92CDB7DEB7F8
S1134A3089839A836B837C8389819A8181309105F0
S1134A4089F0823091051CF4892B39F01AC0823028
S1134A50910569F0039781F014C08B8180580E94FE
S1134A6077240FC08B8180540E9477240AC08B81E5
S1134A708C560E94772405C08B818C520E94772427
S1134A80000067E270E080E090E00E94682300008C
S1134A902496CDBFDEBFDF91CF910895CF93DF93EE
S1134AA01F92CDB7DEB7898389810E9495246BE27A
S1134AB070E080E090E00E94682300000F90DF9196
S1134AC0CF910895CF93DF9300D01F92CDB7DEB777
S1134AD08B839C8319821A8219C089819A812B81C4
S1134AE03C81820F931FFC0180818823A1F089817E
S1134AF09A812B813C81820F931FFC0180810E944B
S1134B004E2589819A81019689839A8389819A8124
S1134B1044971CF301C0000000002496CDBFDEBF03
S1134B20DF91CF910895CF93DF9300D000D0CDB71C
S1134B30DEB789839A836B837C834D835E832B8169
S1134B403C8189819A81B9010E9412258D819E81BF
S1134B500E94622500002696CDBFDEBFDF91CF9173
S1134B600895CF93DF93CDB7DEB7C057D109CDBF3A
S1134B70DEBF9E0121593F4FF90180839183198241
S1134B801A821B821C821D821E8226C01F821886E6
S1134B901AC02D813E8144E1429FC001439F900D84
S1134BA011249E012F5F3F4F280F391F8F81988555
S1134BB0820F931F089620E2FC0120838F81988541
S1134BC001968F8398878F819885449714F38D81FC
S1134BD09E8101968D839E838D819E810497B4F27C
S1134BE060E47CE980E090E00E94682383E00E9416
S1134BF0F12368E873E180E090E00E9468230E945A
S1134C00632460EA70E080E090E00E9468230E94E0
S1134C10632460EA70E080E090E00E9468230E94D0
S1134C20632460EA70E080E090E00E94682382E000
S1134C300E94F1230E94632488E20E94772480E189
S1134C400E9477248CE00E94772486E00E947724D7
S1134C5068EC70E080E090E00E94BA138091FB2C35
S1134C609091FC2C40E050E0BA010E94B505DC01B3
S1134C70CB01892B8A2B8B2B09F496C08091FB2CBA
S1134C809091FC2C42E050E060E070E00E94B50599
S1134C9019821A8226C01B821C821AC029813A8179
S1134CA044E1429FC001439F900D11249E012F5F58
S1134CB03F4F280F391F8B819C81820F931F0896C9
S1134CC020E2FC0120838B819C8101968B839C8351
S1134CD08B819C81449714F389819A8101968983FD
S1134CE09A8389819A810497B4F25EC08091F92CE9
S1134CF09091FA2CBE01675A7F4F2FEF3FEFA90125
S1134D000E940D0F882309F44FC019821A8232C001
S1134D10CE01875A9F4FFC018081482F50E0CE017D
S1134D20875A9F4FFC018181282F30E089819A8125
S1134D30820F931FBE01675A7F4F29813A81260F44
S1134D40371F2E5F3F4FF901608174E1749F90011A
S1134D50759F300D1124AE014F5F5F4F240F351F37
S1134D60820F931F0896FC01608389819A810196C2
S1134D7089839A83CE01875A9F4FFC018181282F12
S1134D8030E089819A81820F931F44976CF49E01CD
S1134D90275A3F4F89819A81820F931F0296FC0103
S1134DA08081882309F0B4CF8091F92C9091FA2C5A
S1134DB00E94CD0F882309F099CF19821A8219C055
S1134DC09E01275F3F4F49815A8164E1649FC0017E
S1134DD0659F900D1124280F391F89819A81A9019B
S1134DE060E070E00E94932589819A81019689830D
S1134DF09A8389819A8104971CF32ACFCF93DF93F6
S1134E00CDB7DEB78091FB2C9091FC2C42E050E0B2
S1134E1060E070E00E9400060000DF91CF910895E9
S1134E20CF93DF931F921F92CDB7DEB7CE010E96BC
S1134E3089839A8329813A814C855D856A857B853E
S1134E40888599850E942A2700000F900F90DF9192
S1134E50CF9108950F93CF93DF93CDB7DEB7EC973F
S1134E60CDBFDEBF8DAB9EAB6FAB78AF49AF5AAF52
S1134E702BAF3CAF19821A821B821C820BC08B8120
S1134E809C818454934DFC0110828B819C810196FA
S1134E908B839C838B819C8144978CF31D821E821F
S1134EA00BC08D819E818053934DFC0110828D81B6
S1134EB09E8101968D839E838D819E8144978CF380
S1134EC0BEC18D89853209F0A0C189AD9AAD9C011E
S1134ED02F5F3F4F29AF3AAFFC0180818D8B8D89C5
S1134EE0882F90E08536910509F446C186369105F0
S1134EF054F48336910501F1843691050CF070C0A9
S1134F00859769F09CC18337910571F188379105C4
S1134F1009F4A8C08636910509F4E6C090C18981D8
S1134F209A818053934D25E2FC01208389819A81E3
S1134F30019689839A8383C18BAD9CAD9C012E5FBE
S1134F403F4F2BAF3CAFFC01808191818E8B8981D7
S1134F509A818053934D2E89FC01208389819A8103
S1134F60019689839A836BC18BAD9CAD9C012E5FA6
S1134F703F4F2BAF3CAFFC01808191818F8B988F89
S1134F801F82188617C029813A818F819885820FE4
S1134F90931F2F8138854F89588D240F351FF901B0
S1134FA020818053934DFC0120838F819885019645
S1134FB08F8398878F89988D0E9442339C018F81BB
S1134FC0988582179307F8F28F89988D0E9442334F
S1134FD09C0189819A81820F931F89839A832FC1AF
S1134FE08BAD9CAD9C012E5F3F4F2BAF3CAFFC01C2
S1134FF080819181898F9A8F898D9A8D4AE050E0C2
S11350006CEB7CE20E94563319861A8615C02981FE
S11350103A8189859A85820F931F29853A8524547C
S1135020334DF90120818053934DFC012083898500
S11350309A85019689879A878CEB9CE20E94423379
S11350409C0189859A858217930708F38CEB9CE26F
S11350500E9442339C0189819A81820F931F898324
S11350609A83EDC08BAD9CAD9C012E5F3F4F2BAF5F
S11350703CAFFC0180819181898F9A8F898D9A8DB3
S113508040E150E06CEB7CE20E9456331B861C86A8
S113509015C029813A818B859C85820F931F2B85AE
S11350A03C852454334DF90120818053934DFC01F8
S11350B020838B859C8501968B879C878CEB9CE257
S11350C00E9442339C018B859C858217930708F3C9
S11350D08CEB9CE20E9442339C0189819A81820F6D
S11350E0931F89839A83ABC08BAD9CAD9C012C5FCD
S11350F03F4F2BAF3CAFFC0180819181A281B381F2
S11351008B8F9C8FAD8FBE8F8B8D9C8DAD8DBE8D07
S1135110AC01BD018CEB9CE20E94F9291D861E8620
S113512015C029813A818D859E85820F931F2D8517
S11351303E852454334DF90120818053934DFC0165
S113514020838D859E8501968D879E878CEB9CE2BE
S11351500E9442339C018D859E858217930708F334
S11351608CEB9CE20E9442339C0189819A81820FDC
S1135170931F89839A8363C08BAD9CAD9C012C5F84
S11351803F4F2BAF3CAFFC0180819181A281B38161
S11351908B8F9C8FAD8FBE8F8B8D9C8DAD8DBE8D77
S11351A0AC01BD018CEB9CE20E94482B1F86188A3F
S11351B015C029813A818F859889820F931F2F8585
S11351C038892454334DF90120818053934DFC01D7
S11351D020838F85988901968F87988B8CEB9CE22E
S11351E00E9442339C018F8598898217930708F3A4
S11351F08CEB9CE20E9442339C0189819A81820F4C
S1135200931F89839A8300001AC089819A818053ED
S1135210934D2D89FC01208389819A818053934D7C
S1135220FC0180818A3031F489819A818053934DC5
S1135230FC01108289819A81019689839A8389ADC0
S11352409AAD9C012F5F3F4F29AF3AAFFC0180819B
S11352508D8B8D89882309F034CE29813A818FA9D9
S113526098AD820F931F449754F024E130E08FA946
S113527098ADA901481B590BCA0189839A83198ADD
S11352801A8A0EC09E012F5D3F4F89899A89820F29
S1135290931FFC01108289899A890196898B9A8BC4
S11352A089899A89449774F38DA98F8F8FA988A3CC
S11352B01B8A1C8A14C08B899C898053934DFC01E2
S11352C040819E012F5D3F4F8B899C89820F931FE4
S11352D0FC0140838B899C8901968B8B9C8B2B8949
S11352E03C8989819A81281739072CF38091F92CFC
S11352F09091FA2CBE01615E7F4F00E02FEF3FEFEB
S1135300A9010E94EB0D89819A81EC96CDBFDEBF85
S1135310DF91CF910F910895CF93DF93CDB7DEB78F
S11353202897CDBFDEBF8F83988719821A828F8119
S11353309885FC0180819181A281B3818B839C83B8
S1135340AD83BE8315C020E030E040E251E46B81C0
S11353507C818D819E810E94DB2CDC01CB018B83BF
S11353609C83AD83BE8389819A81019689839A83C4
S113537020E030E040E85FE36B817C818D819E8199
S11353800E94352E8823FCF615C020E030E040E270
S113539051E46B817C818D819E810E943A2EDC01D7
S11353A0CB018B839C83AD83BE8389819A810197D2
S11353B089839A832DEC3CEC4CEC5DE36B817C811E
S11353C08D819E810E94D62C8823FCF22F81388502
S11353D08B819C81AD81BE81F90180839183A283FD
S11353E0B38389819A812896CDBFDEBFDF91CF91A7
S11353F00895CF92DF92EF92FF92CF93DF93CDB7D0
S1135400DEB72E97CDBFDEBF89879A874B875C872F
S11354106D877E8719821A821B821C828B859C85EC
S1135420AD85BE8520E030E0A901BC01CD010E941C
S1135430D62C882359F489859A8520E3FC0120839E
S113544089859A850196FC01108218C18B859C85FB
S1135450AD85BE8520E030E0A901BC01CD010E94EC
S1135460D62C88239CF489859A859C012F5F3F4F15
S113547029873A872DE2FC0120838B859C85AD85A5
S1135480BE85B0588B879C87AD87BE87CE010B96AF
S11354900E948C2989839A8353C08B859C85AD8512
S11354A0BE8520E030E040E251E4BC01CD010E9421
S11354B03A2EDC01CB01BC01CD010E944D2DDC0153
S11354C0CB018D839E8389859A859C012F5F3F4FF5
S11354D029873A872D81205DFC0120838B859C855B
S11354E0AD85BE8520E030E040E251E4BC01CD0151
S11354F00E943A2EDC01CB016C017D018D819E81DD
S1135500092E000CAA0BBB0BBC01CD010E94852DFA
S1135510DC01CB019C01AD01C701B6010E94692CDD
S1135520DC01CB018B879C87AD87BE878B819C81F7
S113553001968B839C8389819A81019789839A83BD
S113554089819A81181619060CF4A7CF8B819C8146
S1135550892B51F489859A859C012F5F3F4F2987B8
S11355603A8720E3FC01208389859A859C012F5F7B
S11355703F4F29873A872EE2FC01208314C0898596
S11355809A859C012F5F3F4F29873A8720E3FC01CE
S1135590208389819A81019789839A838B819C8155
S11355A001968B839C8389819A8199230CF058C03E
S11355B080916320909164202B813C8128173907C6
S11355C0F4F24EC08B859C85AD85BE8520E030E02D
S11355D040E251E4BC01CD010E943A2EDC01CB0132
S11355E0BC01CD010E944D2DDC01CB018F83988736
S11355F089859A859C012F5F3F4F29873A872F81A0
S1135600205DFC0120838B859C85AD85BE8520E0D3
S113561030E040E251E4BC01CD010E943A2EDC01AD
S1135620CB016C017D018F819885092E000CAA0B9A
S1135630BB0BBC01CD010E94852DDC01CB019C017B
S1135640AD01C701B6010E94692CDC01CB018B8737
S11356509C87AD87BE878B819C8101968B839C83BD
S113566080916320909164202B813C812817390715
S11356700CF4A8CF89859A85FC0110822E96CDBFA3
S1135680DEBFDF91CF91FF90EF90DF90CF90089530
S1135690CF92DF92EF92FF92CF93DF93CDB7DEB735
S11356A02E97CDBFDEBF89879A874B875C876D872E
S11356B07E871B821C828B859C85AD85BE8520E000
S11356C030E0A901BC01CD010E94D62C882359F4F5
S11356D089859A8520E3FC01208389859A85019632
S11356E0FC011082ECC08B859C85AD85BE8520E0D5
S11356F030E0A901BC01CD010E94D62C88239CF482
S113570089859A859C012F5F3F4F29873A872DE22F
S1135710FC0120838B859C85AD85BE85B0588B8725
S11357209C87AD87BE87CE010B960E948C298B8304
S11357309C838B859C85AD85BE8520E030E040E26E
S113574051E4BC01CD010E943A2EDC01CB01BC0125
S1135750CD010E944D2DDC01CB018D839E83898573
S11357609A859C012F5F3F4F29873A872D81205DC1
S1135770FC0120838B859C85AD85BE8520E030E0CF
S113578040E251E4BC01CD010E943A2EDC01CB0180
S11357906C017D018D819E81092E000CAA0BBB0B2F
S11357A0BC01CD010E94852DDC01CB019C01AD0122
S11357B0C701B6010E94692CDC01CB018B879C8751
S11357C0AD87BE878B819C8101978B839C83898560
S11357D09A859C012F5F3F4F29873A872EE2FC016F
S11357E0208319821A824EC08B859C85AD85BE8527
S11357F020E030E040E251E4BC01CD010E943A2EA9
S1135800DC01CB01BC01CD010E944D2DDC01CB019B
S11358108F83988789859A859C012F5F3F4F2987BD
S11358203A872F81205DFC0120838B859C85AD8583
S1135830BE8520E030E040E251E4BC01CD010E948D
S11358403A2EDC01CB016C017D018F819885092EF4
S1135850000CAA0BBB0BBC01CD010E94852DDC0101
S1135860CB019C01AD01C701B6010E94692CDC018A
S1135870CB018B879C87AD87BE8789819A810196EE
S113588089839A83809165209091662029813A8149
S1135890281739070CF4A8CF89859A859C012F5FB6
S11358A03F4F29873A8725E6FC01208329853A85DD
S11358B08B819C814AE050E0B9010E9456332E96B8
S11358C0CDBFDEBFDF91CF91FF90EF90DF90CF90FF
S11358D008955058BB27AA270E94812C0C94FB2DB5
S11358E00E94ED2D38F00E94F42D20F039F49F3FF2
S11358F019F426F40C94EA2D0EF4E095E7FB0C94CD
S1135900E42DE92F0E940C2E58F3BA17620773078F
S11359108407950720F079F4A6F50C942E2E0EF446
S1135920E0950B2EBA2FA02D0B01B90190010C01AB
S1135930CA01A0011124FF27591B99F0593F50F4C3
S1135940503E68F11A16F040A22F232F342F44271B
S1135950585FF3CF469537952795A795F040539513
S1135960C9F77EF41F16BA0B620B730B840BBAF0E3
S11359709150A1F0FF0FBB1F661F771F881FC2F74E
S11359800EC0BA0F621F731F841F48F48795779562
S11359906795B795F7959E3F08F0B0CF9395880F1C
S11359A008F09927EE0F9795879508950E94C02DCA
S11359B008F481E008950E94EF2C0C94FB2D0E94C2
S11359C0F42D58F00E94ED2D40F029F45F3F29F0AA
S11359D00C94E42D51110C942F2E0C94EA2D0E945A
S11359E00C2E68F39923B1F3552391F3951B550BB2
S11359F0BB27AA2762177307840738F09F5F5F4F9E
S1135A00220F331F441FAA1FA9F335D00E2E3AF0DC
S1135A10E0E832D091505040E695001CCAF72BD0F4
S1135A20FE2F29D0660F771F881FBB1F2617370745
S1135A304807AB07B0E809F0BB0B802DBF01FF2777
S1135A4093585F4F3AF09E3F510578F00C94E42D43
S1135A500C942F2E5F3FE4F3983ED4F3869577950C
S1135A606795B795F7959F5FC9F7880F911D969530
S1135A70879597F90895E1E0660F771F881FBB1F8C
S1135A80621773078407BA0720F0621B730B840B39
S1135A90BA0BEE1F88F7E09508950E94542D689480
S1135AA0B1110C942F2E08950E94142E88F09F5744
S1135AB098F0B92F9927B751B0F0E1F0660F771F2E
S1135AC0881F991F1AF0BA95C9F714C0B13091F024
S1135AD00E942E2EB1E008950C942E2E672F782F5D
S1135AE08827B85F39F0B93FCCF3869577956795E9
S1135AF0B395D9F73EF490958095709561957F4F55
S1135B008F4F9F4F0895E89409C097FB3EF49095FA
S1135B108095709561957F4F8F4F9F4F9923A9F082
S1135B20F92F96E9BB279395F69587957795679511
S1135B30B795F111F8CFFAF4BB0F11F460FF1BC055
S1135B406F5F7F4F8F4F9F4F16C0882311F096E9E8
S1135B5011C0772321F09EE8872F762F05C0662396
S1135B6071F096E8862F70E060E02AF09A95660F4F
S1135B70771F881FDAF7880F9695879597F9089508
S1135B80990F0008550FAA0BE0E8FEEF161617064A
S1135B90E807F907C0F012161306E407F50798F0B2
S1135BA0621B730B840B950B39F40A2661F0232BCB
S1135BB0242B252B21F408950A2609F4A140A69547
S1135BC08FEF811D811D089597F99F6780E870E02C
S1135BD060E008959FEF80EC089500240A9416165F
S1135BE0170618060906089500240A9412161306C7
S1135BF0140605060895092E0394000C11F4882355
S1135C0052F0BB0F40F4BF2B11F460FF04C06F5F70
S1135C107F4F8F4F9F4F089557FD9058440F551F46
S1135C2059F05F3F71F04795880F97FB991F61F01A
S1135C309F3F79F087950895121613061406551F91
S1135C40F2CF4695F1DF08C0161617061806991FFD
S1135C50F1CF86957105610508940895E894BB27F2
S1135C6066277727CB0197F908950E94C02D08F481
S1135C708FEF08950E944D2E0C94FB2D0E94ED2D64
S1135C8038F00E94F42D20F0952311F00C94E42DAB
S1135C900C94EA2D11240C942F2E0E940C2E70F3D8
S1135CA0959FC1F3950F50E0551F629FF001729FBD
S1135CB0BB27F00DB11D639FAA27F00DB11DAA1FCC
S1135CC0649F6627B00DA11D661F829F2227B00D19
S1135CD0A11D621F739FB00DA11D621F839FA00DA4
S1135CE0611D221F749F3327A00D611D231F849FF4
