S00E0000706963616C632E73726563AA
S11300000C949B010C94C4010C94C4010C94C40181
S11300100C94C4010C94C4010C94C4010C94C40148
S11300200C94C4010C94C4010C94C4010C94C40138
S11300300C94C4010C94C4010C94CD050C94C4011B
S11300400C94C4010C94C4010C94C4010C94C40118
S11300500C94C4010C94C4010C94C4010C94C40108
S11300600C94C4010C94C4010C94C4010C94C401F8
S11300700C94C4010C94C4010C94C4010C94C401E8
S11300800C94C4010C94C4010C94C4010C94C401D8
S11300900C94C4010C94C4010C94C4010C94C401C8
S11300A00C94C4010C94C4010C94C4010C94C401B8
S11300B00C94C4010C94C4010C94C4010C94C401A8
S11300C00C94C4010C94C4010C94C4010C94C40198
S11300D00C94C4010C94C4010C94C4010C94C40188
S11300E00C94C4010C94C4010C94C4010C94C40178
S11300F00C94C4010C94C4010C94C4010C94C40168
S11301000C94C4010C94C4010C94C4010C94C40157
S11301100C94C4010C94C4010C94C4010C94C40147
S11301200C94C4010C94C4010C94C4010C94C40137
S11301300C94C4010C94C4010C94C4010C94C40127
S11301400C94C4010C94C4010C94C4010C94C40117
S11301500C94C4010C94C4010C94C4010C94C40107
S11301600C94C4010C94C4010C94C4010C94C401F7
S11301700C94C4010C94C4010C94C4010C94C401E7
S11301800C94C4010C94C4010C94C4010C94C401D7
S11301900C94C4010C94C4010C94C4010C94C401C7
S11301A00C94C4010C94C4010C94C4010C94C401B7
S11301B00C945B120C94C4010C94C4010C94C401FF
S11301C00C94C4010C94C4010C94C4010C94C40197
S11301D00C94C4010C94C4010C94C4010C94C40187
S11301E00C94C4010C94C4010C94C4010C94C40177
S11301F00C94C4010C94C4010C94C4011511151180
S1130200151162114A115F111511151162114A116C
S11302100C9462110C94B8030C9459100C944A1168
S11302200C945F110C94FA130C9415110C94E611B0
S11302300C94E2096E616E00696E660000407A10EB
S1130240F35A00A0724E18090010A5D4E80000E883
S11302507648170000E40B54020000CA9A3B0000E1
S113026000E1F505000080969800000040420F0070
S11302700000A08601000000102700000000E80331
S1130280000000006400000000000A0000000000FC
S11302900100000000002C76D888DC674F0823DFBB
S11302A0C1DFAE59E1B1B796E5E3E453C63AE6518E
S11302B0997696E8E6C28426EB898C9B62ED407CB5
S11302C06FFCEFBC9C9F40F2BAA56FA5F490055A51
S11302D02AF75C936B6CF9676DC11BFCE0E40D4776
S11302E0FEF520E6B500D0ED902E03009435770599
S11302F00080841E080000204E0A000000C80C3351
S11303003333330F986E12831141EF8D2114893BDF
S1130310E65516CFFEE6DB18D1844B381BF77C1D5F
S1130320901DA4BBE424203284725E228100C9F1B2
S113033024ECA1E53D2711241FBECFEFCDBFDFE3A1
S1130340DEBF00E00CBFE5EDFCE28AEA90E48193B5
S1130350E030F907E0F310E2A0E0B0E2E6E7F0E411
S113036000E00BBF02C007900D92AA35B107D9F780
S11303702CE2AAE5B0E201C01D92A53DB207E1F767
S11303800E943B120C9439200C9400000F93CF93DD
S1130390DF931F92CDB7DEB72FB72983F8941BBE26
S11303A0FC0108ED04BF608389818FBF0F90DF914A
S11303B0CF910F910895611102C090E001C090E2C5
S11303C0842B892B8093520008956F71862B809320
S11303D055000895E0E5F0E09081282F20959223C0
S11303E09083908189230895682B81E490E00E9492
S11303F0C60108950F931F93CF93C82F00E410E014
S1130400F8016081687F682B80E490E00E94C60157
S1130410F80180818C23CF911F910F910895FC01E5
S11304209081907F692B60830895FC019181987F6E
S1130430692B61830895FC0196819C7F692B6683F7
S11304400895000088ED84BF81E0809379000895C9
S11304500E9421020895CF93DF9380E190E00E94EF
S1130460C803EC01009741F0FC0111921192119222
S11304701192CF010E94EF03CE01DF91CF91089535
S11304802F923F924F925F926F927F928F929F92A0
S1130490AF92BF92CF92DF92EF92FF920F931F938E
S11304A0CF93DF93EC014A015B01622E702E0E9410
S11304B03C0B288039804A805B8001110DC081E0AB
S11304C0B201A101482159216A217B21452B462BE8
S11304D0472B79F480E00DC081E0B201A1014821ED
S11304E059216A217B21481559056A057B0509F0C4
S11304F080E0882381F0662009F470C08094909491
S1130500A094B09482209320A420B520888299825C
S1130510AA82BB8263C0C114D104E104F10409F4CA
S11305205DC0662029F040E050E060E071E003C067
S113053040E050E0BA0171107460482959296A29D1
S11305407B2997018601CE0104960E946B0D0E94BF
S1130550270C811102C00E944D050E94A80E91FD36
S113056039C0F091A200FF93F87FF093A200688154
S113057079818A819B8171100DC021E0750164012C
S1130580C622D722E822F922CD28CE28CF2879F412
S113059020E00DC021E075016401C622D722E822C3
S11305A0F922C814D904EA04FB0409F020E0222348
S11305B071F0662061F080949094A094B0948622A7
S11305C09722A822B92288829982AA82BB82FF91AB
S11305D0F093A2001B012C01552402C00E94270C99
S11305E0C201B101DF91CF911F910F91FF90EF9064
S11305F0DF90CF90BF90AF909F908F907F906F903F
S11306005F904F903F902F9008950F931F93F09118
S1130610A200FF93F87FF093A200FC0100811181F6
S113062022813381409550956095709540235123E4
S1130630622373234083518362837383FF91F09316
S1130640A200C901B8011F910F9108954F925F92C2
S11306506F927F92AF92BF92CF92DF92EF92FF920E
S11306600F931F93CF93DF93EC016A017B018C01FD
S1130670095F1F4F0E943C0BEB85FC8588819981A3
S1130680AA81BB81C82AD92AEA2AFB2AC882D9822C
S1130690EA82FB820E171F0709F442C0C12CD12C39
S11306A07601A480B58080819181A281B381AC015F
S11306B0BD017727B2FD0FC0488059806A807B80D6
S11306C0442255226622772221E0452846284728DD
S11306D089F420E00FC0488059806A807B804422DE
S11306E055226622772221E04416550666067706CF
S11306F009F020E0222371F0B0FF04C0C42AD52AF7
S1130700E62AF72A488159816A817B817260CF0188
S11307100E94F30DEA2DFB2D0E171F0711F603C0DF
S1130720C12CD12C7601C094D094E094F0948881AB
S11307309981AA81BB81C822D922EA22FB22C882DC
S1130740D982EA82FB820E94270C688179818A819E
S11307509B81DF91CF911F910F91FF90EF90DF90DC
S1130760CF90BF90AF907F906F905F904F9008951F
S11307700E94260308950F931F9389019A01AB01E8
S1130780BC0188EB93E00E9488111F910F9108959A
S1130790CF93DF93EC010E943C0B20915A203091BF
S11307A05B20C9018C0F9D1F883B4BE0940758F4D4
S11307B02817390758F4E901C45ADF4D80935A20A9
S11307C090935B2005C0C0E0D0E002C0C0E0D0E060
S11307D00E94270CCE01DF91CF9108950895FC016A
S11307E00396818392834FEF5FEFBA01438354836F
S11307F065837683878390878187928710820895A3
S1130800FC01128613860895CF93DF939C01FB01AC
S1130810DC011196CD91DC911297C483D5838E812E
S11308209F81868397838E819F81DC0114966D93CB
S11308307C9315976E837F8322873387F9018081A8
S11308408F5F8083DF91CF9108950F931F93CF9390
S1130850DF93EB01088119812A813B810F3F4FEF20
S113086014072407340721F4FC01A185B28511C0C3
S1130870DC01139601C0DF011496ED91FC911597EC
S11308804081518162817381041715072607370758
S113089090F71496ED91FC911597EC83FD83C68334
S11308A0D783AE83BF831496CD93DC9315978A8741
S11308B09B87FC0120812F5F2083DF91CF911F91C3
S11308C00F910895CF93DF93FC01A285B385C48172
S11308D0D581868197818E839F83C681D7818481C8
S11308E095818C839D8311968D919C911297E81725
S11308F0F90731F48681978111968D939C93129711
S1130900128613868C9181508C938C91DF91CF91B8
S11309100895E0EAF0E082819281987F92830895BD
S1130920CF92DF92EF92FF9231E1FC013083319755
S113093022E220833197A3E3A0836B01E12CF12C05
S1130940319760833197D0823197E082319761E3A8
S11309506083319760E86083319767E860833197FB
S1130960108231971082319762E06083319763E09F
S11309706083319764E06083319765E060833197E9
S113098066E06083319767E06083319768E0608355
S1130990319769E06083319760E1608331973083F8
S11309A0319732E13083319733E13083319734E149
S11309B03083319735E13083319736E13083319795
S11309C037E13083319738E13083319739E130832F
S11309D0319730E23083319731E23083319720838D
S11309E0319723E220836A01319740833197D08283
S11309F0319726E22083319727E22083319728E23A
S1130A002083319729E22083319720E3208388973C
S1130A10FF90EF90DF90CF90089583EF91E0809363
S1130A2026089093270865E080E098E00E940F0272
S1130A3061E080E098E00E941B02A091822CB091BA
S1130A40832C0D900DBE0D900EBEEF91DF91CF91D2
S1130A50BF91AF919F918F917F916F915F914F91D2
S1130A603F912F911F910F91FF90EF90DF90CF90C6
S1130A70BF90AF909F908F907F906F905F904F90BA
S1130A803F902F901F900F90FF91F093A200FF9141
S1130A90FFBFFF91089581E00895FF93FFB7FF938F
S1130AA0F091A200FF93F87FF093A2000F921F929F
S1130AB011242F923F924F925F926F927F928F9266
S1130AC09F92AF92BF92CF92DF92EF92FF920F93D9
S1130AD01F932F933F934F935F936F937F938F93C2
S1130AE09F93AF93BF93CF93DF93EF93A091822C07
S1130AF0B091832C0DB60D920EB60D920E94C50CCA
S1130B00A091822CB091832C0D900DBE0D900EBE41
S1130B10EF91DF91CF91BF91AF919F918F917F9191
S1130B206F915F914F913F912F911F910F91FF9082
S1130B30EF90DF90CF90BF90AF909F908F907F9079
S1130B406F905F904F903F902F901F900F90FF9168
S1130B50F093A200FF91FFBFFF910895CF9390916E
S1130B60CE2C892B8093CE2C9091A000913041F013
S1130B709091A000923021F09091A000943059F40B
S1130B80882349F00E948904C82F1092CE2C0E9419
S1130B90C50CC093A200CF910895FF93FFB7FF93B4
S1130BA0F091A200FF93F87FF093A2000F921F929E
S1130BB011242F923F924F925F926F927F928F9265
S1130BC09F92AF92BF92CF92DF92EF92FF920F93D8
S1130BD01F932F933F934F935F936F937F938F93C1
S1130BE09F93AF93BF93CF93DF93EF93A091822C06
S1130BF0B091832C0DB60D920EB60D920E9489040D
S1130C00C82F0E94540BC093A20081E00E94AE053D
S1130C10A091822CB091832C0D900DBE0D900EBE30
S1130C20EF91DF91CF91BF91AF919F918F917F9180
S1130C306F915F914F913F912F911F910F91FF9071
S1130C40EF90DF90CF90BF90AF909F908F907F9068
S1130C506F905F904F903F902F901F900F90FF9157
S1130C60F093A200FF91FFBFFF911895F091A200AD
S1130C70FF93F87FF093A200FC01968DFF91F0930F
S1130C80A20081E0911180E00895DC01F091A200BE
S1130C90FF93F87FF093A2005E969C915E97FF917C
S1130CA0F093A20081E05F962C91291380E00895CF
S1130CB00F931F93CF93DF93EC01042F1E8D48A154
S1130CC04423B9F1011116C050E08C819D810E942A
S1130CD04F1F28A18C819D81820F911D8C839D8340
S1130CE02A813B818217930720F1888199818C8323
S1130CF09D831FC050E08E819F810E944F1F88A159
S1130D0090E09195819591092E813F81280F391F9B
S1130D102E833F83488159812417350730F42A8173
S1130D203B81820F931F8E839F83023011F4111134
S1130D3011501F5F1E8F80E0DF91CF911F910F91A3
S1130D400895FC0140A14423A9F050E02681378195
S1130D50240F351F2683378382819381281739070F
S1130D6020F08081918186839783CB01668177818E
S1130D700E944F1F0895EF92FF920F931F93CF93FA
S1130D808C01F091A200FF93F87FF093A200FC0184
S1130D90C2A11C16ACF48389811106C011C0F801EC
S1130DA08389811105C00CC07801F3E1EF0EF11CB9
S1130DB0C7010E94B10D81110E94960EC15079F7AE
S1130DC08FEFF80182A3FF91F093A200F091A200AB
S1130DD0FF93F87FF093A200F801C1A11C16ACF4B4
S1130DE08085811106C011C0F8018085811105C07C
S1130DF00CC07801F8E0EF0EF11CC7010E94B10DA0
S1130E0081110E94960EC15079F78FEFF80181A3EA
S1130E10FF91F093A200CF911F910F91FF90EF905B
S1130E200895CF93DF93EC01F091A200FF93F87F34
S1130E30F093A2004881598128A130E07F8D729FF0
S1130E40C001739F900D1124FA01E80FF91FEA8382
S1130E50FB831E8E4C835D83821B930B840F951F33
S1130E608E839F838FEF89A38AA361110CC0888529
S1130E70882389F0CE0108960E94B10D882359F089
S1130E800E944D0508C0CE0108960E94EF03CE01D2
S1130E9043960E94EF03FF91F093A20081E0DF915B
S1130EA0CF910895FF920F931F93CF93DF93082F51
S1130EB0162FF42E6623C9F0869FC001112485964F
S1130EC00E94C803EC01009749F416C00F8F18A3C1
S1130ED061E0CE010E941107FCA20EC085968883B2
S1130EE09983F4CFC883D983F1CF85E290E00E943F
S1130EF0C803EC01892BB1F7CE01DF91CF911F918B
S1130F000F91FF900895AF92BF92CF92DF92EF922C
S1130F10FF920F931F93CF93DF93CDB7DEB729973B
S1130F20CDBFDEBF7C015B012E833F834887598799
S1130F3010E06C0188E0C80ED11CF091A200FF9370
S1130F40F87FF093A200F701968D878D981710F023
S1130F500230D1F4402FB501C7010E945806F701B1
S1130F609389992349F0C70143960E94B10D8823C0
S1130F7031F00E944D0503C081110E944D05FF917F
S1130F80F093A20081E057C08E819F81A885B98526
S1130F90892B8A2B8B2B29F4FF91F093A20080E0FC
S1130FA04AC0111105C0CE0101960E94270E11E01E
S1130FB0FF91F093A2000E943C0BF091A200FF93DA
S1130FC0F87FF093A200F70181A18F3F09F411A2E9
S1130FD0F70182A18F3F09F412A2FF91F093A200BE
S1130FE0BE016A5F7F4FCE0101960E94380E8111C7
S1130FF01CC0C7010E944506882389F04E815F8189
S113100068857985C6010E94530DC7010E94BB06FD
S11310100E94270C811191CF0E944D058ECFC701EC
S11310200E94BB060E94270C88CFC7010E94BB0602
S11310300E94270C80E02996CDBFDEBFDF91CF91BF
S11310401F910F91FF90EF90DF90CF90BF90AF90E2
S11310500895AF92BF92CF92DF92FF920F931F93A6
S1131060CF93DF93EC016B015A01022F0E94890494
S1131070F82E9E8D8F8D981710F00230E1F41AA18E
S1131080402FB601CE010E9458061F3F81F48B8980
S1131090882399F0CE0143960E94B10D882379F0FC
S11310A0A114B10471F081E0F50180830BC01F5FCE
S11310B01AA381E007C080E005C081E003C081E09D
S11310C001C081E0F092A200DF91CF911F910F91B6
S11310D0FF90DF90CF90BF90AF900895AF92BF92F2
S11310E0CF92DF92EF92FF920F931F93CF93DF93F0
S11310F0CDB7DEB72997CDBFDEBF8C015B012E8350
S11311003F8348875987E12C6C0183E1C80ED11CC9
S1131110F091A200FF93F87FF093A200F801F68CFF
S1131120FF20B1F0B501C8010E94A106FA94F801AC
S1131130F68E8085882339F0C80108960E94B10D87
S113114081110E944D05FF91F093A20081E05EC0E1
S11311508E819F81A885B985892B8A2B8B2B29F4B5
S1131160FF91F093A20080E051C0E11006C0CE01CF
S113117001960E94270EEE24E394FF91F093A200BF
S11311800E943C0BF091A200FF93F87FF093A20021
S1131190F80181A18F3F09F411A2F80182A18F3FC8
S11311A009F412A2FF91F093A200BE016A5F7F4F7F
S11311B0CE0101960E94380E81111CC0C8010E9404
S11311C03606882389F04E815F8168857985C6015A
S11311D00E94530DC8010E94BB060E94270C811176
S11311E097CF0E944D0594CFC8010E94BB060E9470
S11311F0270C8ECFC8010E94BB060E94270CC80191
S11312000E943606882309F483CF80E02996CDBF57
S1131210DEBFDF91CF911F910F91FF90EF90DF9090
S1131220CF90BF90AF900895F091A200FF93F87F04
S1131230F093A200FC01868DFF91F093A200089523
S1131240CF93DF93EC01F091A200FF93F87FF0932A
S1131250A20089A18F3F09F419A28AA18F3F09F442
S11312601AA2FF91F093A2008E8D811104C0CE01C9
S113127043960E94900DCE010E94BB06DF91CF9150
S11312800895E0913E2CF0913F2C808181110CC097
S11312908FEF9FEFDC018093172C9093182CA09371
S11312A0192CB0931A2C0895E0913E2CF0913F2C08
S11312B00780F085E02D0084F185E02D8281938103
S11312C0A481B5818093172C9093182CA093192C8A
S11312D0B0931A2C08958F929F92AF92BF92CF929F
S11312E0DF92EF92FF92CF936B017C01C42F809029
S11312F0212C9090222CA090232CB090242C80910F
S1131300822C9091832C02960E9462048FEFC8165F
S1131310D806E806F80669F4CC2359F06091822CCB
S11313207091832C6E5F7F4F86E29CE20E940404DE
S11313303FC0C80CD91CEA1CFB1CE091822CF09124
S1131340832CC282D382E482F582C814D904EA04CD
S1131350FB0468F46091822C7091832C80913C2C66
S113136090913D2C6E5F7F4F0E94250421C06091B7
S1131370822C7091832C80913E2C90913F2C6E5F37
S11313807F4F0E9425048091172C9091182CA091D6
S1131390192CB0911A2CC816D906EA06FB0640F49B
S11313A0C092172CD092182CE092192CF0921A2C7F
S11313B0CF91FF90EF90DF90CF90BF90AF909F9030
S11313C08F900895C6E5DCE28881823010F00E9497
S11313D04D050E943A12F8CF4F925F926F927F921E
S11313E08F929F92AF92BF92CF92DF92EF92FF9231
S11313F00F93CF93DF934C016B015A012901CA016A
S11314000E94C8033C01892B09F4EAC08CE290E0F5
S11314100E94C803EC01892BB1F06B8E7C8EA50170
S113142065EA70E0C3010E94581F21E0A21AB108C6
S11314308B8D9C8DA80EB91ED6018C918D8F8C91AD
S1131440811105C018C0C3010E94EE03C9C0AE01DA
S1131450425E5F4FF6013196B8E0CB0ED11CCF014E
S11314602191DA012D93AD01DC018C91882319F0CF
S1131470EC15FD05A1F71CA2043008F003E00A8F67
S11314806E01B2E0CB0ED11CC6010E940004CE0155
S11314900E960E940004CA87DB8784E090E0A0E0F7
S11314A0B0E0801B9109A109B1098E879F87A88BA1
S11314B0B98BCE8BDF8B1FA218A619A61AA61BA662
S11314C0A201B401C5010E94900488839983E114A8
S11314D0F10419F0F701C083D183F091A200FF93C6
S11314E0F87FF093A2008091252C8F5F8093252CA8
S11314F08091822C9091832C892BA9F5C093822C06
S1131500D093832C8091252C8130E9F586E59CE2EB
S11315100E94EF0381E69CE20E94EF038CE69CE2CA
S11315200E94EF0387E79CE20E94EF038BE49CE2B6
S11315300E94EF0380E49CE20E94EF0381E39CE2BB
S11315400E94EF0386E29CE20E94EF038BE49CE29C
S113155080933E2C90933F2C80E49CE280933C2C1F
S113156090933D2C10C080911F2C81110CC0E091F0
S1131570822CF091832C928D8A8D891720F0C09350
S1131580822CD093832C80911B2C8F5F80931B2CF7
S11315908DA38A8D9091202C981710F48093202C81
S11315A0FBE08F9FC0011124B6018A5A934D0E941B
S11315B00404FF91F093A20080911F2C882361F012
S11315C0E091822CF091832C928D8A8D981730F4BF
S11315D00E944D0581E005C081E003C081E001C0A7
S11315E08FEFDF91CF910F91FF90EF90DF90CF902D
S11315F0BF90AF909F908F907F906F905F904F902F
S11316000895EF92FF920F930F2EF5E1EF2EFCE277
S1131610FF2EF02D00E020E030E048EC50E060E0E8
S113162070E282EE99E00E94EC09813009F50E9493
S1131630460F8130E9F4E0EAF0E08281887F82831A
S11316408FEF9FEFDC018093172C9093182CA093BD
S1131650192CB0931A2C81E080931F2C1092212C0A
S11316601092222C1092232C1092242C0E940D05EF
S11316700F91FF90EF9008958091142C8F5F8093C9
S1131680142C0895F091A200FF93F87FF093A20028
S11316906091212C7091222C8091232C9091242CE8
S11316A0FF91F093A2000895AF92BF92CF92DF9280
S11316B0EF92FF920F931F93CF93DF938091142C9B
S11316C08111ADC0C090212CD090222CE090232C0D
S11316D0F090242C8FEFC81AD80AE80AF80AC092AE
S11316E0212CD092222CE092232CF092242CC11491
S11316F0D104E104F104B9F480913E2C90913F2C83
S113170020913C2C30913D2C20933E2C30933F2C47
S113171080933C2C90933D2C80911C2C8F5F809364
S11317201C2C0E9441098091172C9091182CA09197
S1131730192CB0911A2CC816D906EA06FB0610F427
S1131740B12C5CC0B12C0F2EFBE0AF2EF02DE0913C
S11317503E2CF0913F2C808181110CC08FEF9FEFC4
S1131760DC018093172C9093182CA093192CB09320
S11317701A2C44C0E0913E2CF0913F2C0780F08558
S1131780E02DC085D1858A819B81AC81BD81C8163D
S1131790D906EA06FB0648F48093172C9093182C7C
S11317A0A093192CB0931A2C29C08E010E5F1F4FE1
S11317B0C8010E946204888D998D892B21F0CE0185
S11317C00E960E9462048A8D9091202C981710F432
S11317D08093202CA89EC0011124B8018A5A934DED
S11317E00E940404E091822CF091832C9A8D828DC6
S11317F0981708F4ACCFBB24B394A9CFE091822C02
S1131800F091832CE28D8BE0E89FF0011124EA5AD9
S1131810F34D8081823048F0BB24B39406C080919C
S11318201E2C8F5F80931E2CB12C80911D2C88233D
S113183011F0BB24B3948B2DDF91CF911F910F91A5
S1131840FF90EF90DF90CF90BF90AF900895CF922C
S1131850DF92EF92FF920F931F93CF93DF93F09158
S1131860A200FF93F87FF093A2008091142C815082
S11318708093142C8091142C81115CC08091252CB0
S113188081112CC05AC0D7011796ED91FC9118977D
S1131890C085D185CE010E960E9462048E010E5F32
S11318A01F4FC8010E9462048A8D9091202C9817C2
S11318B010F48093202CD89EC0011124B8018A5AB8
S11318C0934D0E940404E091822CF091832C9A8D14
S11318D0828D981788F0C0921D2C0EC0C0E0D0E015
S11318E00F2EF1E3EF2EFCE2FF2EF02D0F2EFBE086
S11318F0DF2EF02DCC24C394F70180818111C3CF56
S1131900CD2B11F00E944109C0911E2CCC2351F023
S1131910D1E00E94540B8111D0931D2CC150C9F702
S113192010921E2C80911D2C882331F00E944D05AD
S113193081E003C080E001C080E0FF91F093A20049
S1131940DF91CF911F910F91FF90EF90DF90CF9097
S11319500895CF92DF92EF92FF926B017C01672B87
S1131960682B692B59F00E943C0B40E0C701B6017B
S11319700E946B090E94270C811102C00E944D0530
S1131980FF90EF90DF90CF9008958091142C8823DE
S113199021F081E080931D2C089510921D2CE0917C
S11319A0822CF091832C038CF48DE02D8081918125
S11319B0A281B381853A954AA54AB54AD9F484816E
S11319C09581A681B781853A954AA54AB54A91F48D
S11319D080859185A285B385853A954AA54AB54AFD
S11319E049F484859585A685B785853A954AA54A9F
S11319F0B54A61F06091822C7091832C8091822C85
S1131A009091832C635E7F4F0E9428028091202C4A
S1131A10282F30E09BE0899FF0011124EA5AF34D0E
S1131A20908191110EC04BE08150282F30E0429FED
S1131A30F001439FF00D1124EA5AF34D908199234C
S1131A4099F39BE0929FA001939F500D1124DA011A
S1131A50AA5AB34D1196ED91FC9112970480F58129
S1131A60E02D1196ED93FC931297475A534DE417CA
S1131A70F50729F444815581FD01418352839BE09C
S1131A80929FF001939FF00D1124EA5AF34D0180C7
S1131A90F281E02D208531852093822C3093832C94
S1131AA08093202C0895CF92DF92EF92FF926A01E7
S1131AB07B016091822C7091832C625F7F4F0E9426
S1131AC0250441E0C701B6010E946B09FF90EF9025
S1131AD0DF90CF900895CF92DF92EF92FF920F9311
S1131AE01F9368017901E091822CF091832C706836
S1131AF046875787608B718B6091822C7091832C01
S1131B00625F7F4F0E94040441E0C701B6010E9456
S1131B106B091F910F91FF90EF90DF90CF90089584
S1131B20CF92DF92EF92FF92CF936A017B01C22F93
S1131B306091822C7091832C625F7F4F0E94040419
S1131B40CC2321F0CC24CA94DC2C76014C2FC70181
S1131B50B6010E946B09CF91FF90EF90DF90CF9078
S1131B6008950F931F93CF93DF93DC011796ED91A4
S1131B70FC911897C085D1858E01025F1F4FC80163
S1131B800E9462048091142C811116C00C5011091A
S1131B90C8010E9462048A8D9091202C981710F439
S1131BA08093202CBBE08B9FC0011124B8018A5A7A
S1131BB0934D0E94040405C0B80181E39CE20E9495
S1131BC00404E091822CF091832C9A8D828D8917E4
S1131BD020F481E080931D2C01C080E0DF91CF913F
S1131BE01F910F9108950F931F93CF93DF93706804
S1131BF0FC014083518362837383C085D1850E9435
S1131C0062048E010E5F1F4FC8010E9462048A8D18
S1131C109091202C981710F48093202CFBE08F9F38
S1131C20C0011124B8018A5A934D0E940404E09122
S1131C30822CF091832C9A8D828D891718F481E07F
S1131C4080931D2CDF91CF911F910F9108952091C6
S1131C501C2CFC0120834091212C5091222C60915A
S1131C60232C7091242C41835283638374830895BD
S1131C70CF92DF92EF92FF920F931F93CF93DF9354
S1131C80DB01F091A200FF93F87FF093A200409152
S1131C90212C5091222C6091232C7091242C0D9195
S1131CA01D912D913C9113970F3FCFEF1C072C07EB
S1131CB03C0769F1FC01C180D280E380F480E091AB
S1131CC01C2CEC01F881FE1729F04C155D056E05FE
S1131CD07F05F8F44C195D096E097F094017510717
S1131CE06207730768F4FD01041B150B260B370B01
S1131CF000831183228333830E94270E80E00AC06D
S1131D001D921D921D921C92139781E003C080E0E6
S1131D1001C081E0FF91F093A200DF91CF911F9168
S1131D200F91FF90EF90DF90CF90089581E0809322
S1131D301D2C089580911F2C882331F08091142C40
S1131D40882321F080E0089581E0089582E00895D9
S1131D50CF92DF92EF92FF92E091822CF091832C4C
S1131D606685778580899189E091822CF091832C16
S1131D70A091822CB091832C5A962C91C12CD12CF9
S1131D8076016894C2F8C21AD108E108F108C6863F
S1131D90D786E08AF18AFF90EF90DF90CF90089584
S1131DA0CF92DF92EF92FF920F931F93FC01428335
S1131DB053836483758382879387041715072607E3
S1131DC03707C0F00C191D092E093F098685978530
S1131DD0A089B189081719072A073B0700F5BF0135
S1131DE06E5F7F4F80918C2C90918D2C0E942504E6
S1131DF080E018C00C151D052E053F0528F44C1570
S1131E005D056E057F0568F4BF016E5F7F4F8091AD
S1131E108E2C90918F2C0E94250480E003C081E0D9
S1131E2001C081E01F910F91FF90EF90DF90CF9060
S1131E300895F091A200FF93F87FF093A20080919F
S1131E408A2C90918B2C892BE9F48BE99CE20E94DB
S1131E50EF0380E99CE20E94EF038BE99CE280930C
S1131E608E2C90938F2C80E99CE280938C2C909301
S1131E708D2C40E069E085E00E94520780938A2C13
S1131E8090938B2CFF91F093A2000895EF92FF9210
S1131E900F930E94190F80918A2C90918B2C892B7F
S1131EA091F00F2EF8E8EF2EFCE2FF2EF02D03E068
S1131EB020E030E048EC50E065E070E289E590E134
S1131EC00E94EC0901C080E00F91FF90EF9008950B
S1131ED08F929F92AF92BF92CF92DF92EF92FF9236
S1131EE00F931F93CF93DF93CDB7DEB72997CDBF61
S1131EF0DEBFE0918A2CF0918B2C309789F16983B5
S1131F002A833B834C835D838E839F836630FCF4FA
S1131F100E949A0E823069F400E0A7019601BE0186
S1131F206F5F7F4F80918A2C90918B2C0E94830746
S1131F3018C000E020E030E0A901BE016F5F7F4FD0
S1131F4080918A2C90918B2C0E9483070AC020E0F8
S1131F50A801BE016F5F7F4FCF010E94290801C015
S1131F6080E02996CDBFDEBFDF91CF911F910F9105
S1131F70FF90EF90DF90CF90BF90AF909F908F90A5
S1131F8008952F923F924F925F926F927F928F9219
S1131F909F92AF92BF92CF92DF92EF92FF920F93F4
S1131FA01F93CF93DF931C010E94420B2B013C0132
S1131FB08091842C9091852CA091862CB091872CB3
S1131FC0481659066A067B0608F054C03CC00780D0
S1131FD0F085E02D80809180A280B380C085D1857A
S1131FE08E010E5F1F4FC8010E946204ED89FE89B5
S1131FF0CE0119958A89813031F58E859F85A8890E
S1132000B989880D991DAA1DBB1D88169906AA06B3
S1132010BB0670F48A839B83AC83BD83CA87DB874A
S1132020B80180918E2C90918F2C0E9425040BC0B6
S1132030C12CD12C760100E010E0A501940160E0F0
S1132040CE010E94680FE0918E2CF0918F2C80813C
S11320508111BDCF80918C2C90918D2C80938E2CEE
S113206090938F2CE0938C2CF0938D2C81E0F101D4
S1132070808302C0F10110824092842C5092852CFE
S11320806092862C7092872CC301B201DF91CF91AC
S11320901F910F91FF90EF90DF90CF90BF90AF9082
S11320A09F908F907F906F905F904F903F902F9074
S11320B00895CF93DF93CDB7DEB72E97CDBFDEBFA4
S11320C0CE0101961C01A82EB32CE0918E2CF09128
S11320D08F2C8081882309F403C10780F085E02DCB
S11320E040805180628073800E943C0BC1010E9439
S11320F0C10F6B877C878D879E87898181115EC024
S11321008B859C85AD85BE8584159505A605B7058B
S1132110E8F10E94270CE0918E2CF0918F2C07801F
S1132120F085E02D80849184C40102960E946204AB
S1132130D40152968C915297813001F51E964D919F
S11321405D916D917C915197440D551D661D771DD0
S1132150730162010B851C852D853E85C4010E9497
S1132160D00E882359F0C12CD12C760100E010E068
S1132170A301920160E0C4010E94680FD401559646
S1132180ED91FC915697C40119959CC020E0B301D0
S1132190A2018B859C85AD85BE85481B590B6A0BB6
S11321A07B0B80918A2C90918B2C0E9420090E9499
S11321B0270C811187C00E944D0584C00E94270C02
S11321C081C0898188236CF44E815F81688579851B
S11321D0EA81FB818C819D811995898188230CF486
S11321E071C08E809F80D4011C968D919C911D9707
S11321F0892B21F0C40102960E946204CE010A9642
S11322000E94C10F8B019C018981082E000C990B3F
S1132210AA0BBB0B8A30910508F054C0FC01882737
S1132220E250FF4F8F4F0C94641ECA80DB80EC8019
S1132230FD80F40146855785608971894C0D5D1DCB
S11322406E1D7F1DC4010E94D00E8823D9F1D401D4
S11322505596ED91FC915697C4011995F401828924
S1132260813081F54A815B816C817D81868597858A
S1132270A089B1899A01AB01280F391F4A1F5B1F3E
S1132280C12CD12C760100E010E060E0C4010E9472
S1132290680F18C04A815B816C817D81D4011E96D0
S11322A04D935D936D937C935197400F511F621F23
S11322B0731F68017901C4010E94D00E03C0C401D8
S11322C00E94EE0320E030E0A9016A2D7B2D80916D
S11322D08A2C90918B2C0E946E08811172CFF5CEBE
S11322E00E943C0BC1010E94C10F6B877C878D87C4
S11322F09E878981811162CFE0918C2CF0918D2C85
S1132300808121E0811120E0412C512C32013FCF0A
S11323100F931F93CF93DF93CDB7DEB72997CDBF2C
S1132320DEBFEEEFE9838A839B836C837D832E83F8
S11323303F834887598720E0A801BE016F5F7F4F24
S113234080918A2C90918B2C0E9429082996CDBFCC
S1132350DEBFDF91CF911F910F910895E0E5F0E08A
S1132360808181608083818180FFFDCF80E00E9435
S1132370FA018EE10E94EA0160E080E00E94F4012B
S113238043E060E080E40E94DB01E0E5F0E080816E
S113239088608083818183FFFDCF64E080EC0E94AC
S11323A0E501E0E5F0E080818061808360E080E029
S11323B00E94F401E0E5F0E0818184FFFDCF84E038
S11323C00E94FA0187E00E94EA010895E0EAF6E03B
S11323D081E0818384830F2EFDE0AF2EF0E2BF2ED7
S11323E0F02D0F2EFBE1CF2EF0E2DF2EF02DFF2497
S11323F0F3940AE210E26894772471F8C8E3D0E217
S11324000F2EF3E0EF2EF02D0F2EF0EA8F2EF6E0D4
S11324109F2EF02D0E94D814BF92AF921F921F924C
S11324201F921F920E94E314DF92CF921F921F9279
S11324301F92FF920E94E3141F930F931F921F9207
S11324401F927F920E94E314DF93CF931F921F92F7
S11324501F92EF920E94E314F401F78264EF71E09B
S113246080E090E00E94A90C8DB79EB748968DBF7E
S11324709EBFD0CF0895EF92FF920F930E94AE11AA
S11324800E945C130F2EFFECEF2EFCE2FF2EF02DCA
S113249002E020E030E048EC50E067E470E286EED1
S11324A091E10E94EC090E94010B80E090E00F9101
S11324B0FF90EF9008951F920F920FB60F92112480
S11324C00BB60F922F933F934F935F936F937F932A
S11324D08F939F93AF93BF93EF93FF93CF93DF9328
S11324E01F92CDB7DEB719829E012F5F3F4F41E0A7
S11324F050E060E070E08091D32C9091D42C0E9445
S1132500BB0360E080E09BE00E940F021092060B88
S11325100F90DF91CF91FF91EF91BF91AF919F9178
S11325208F917F916F915F914F913F912F910F9078
S11325300BBE0F900FBE0F901F901895CF92DF9295
S1132540EF92FF920F936B017C0182E0C816D104D5
S1132550E104F10408F44EC0E0E0FBE081E086838E
S113256010A211A260E080E09BE00E9415028EEFB1
S1132570C8168FEFD806E104F10470F4F694E794DA
S1132580D794C794C092260BD092270B65E080E0C5
S11325909BE00E940F0219C080E4C81682E4D806AA
S11325A08FE0E806F10488F4689414F8F694E7944C
S11325B0D794C7941694D1F7C092260BD092270BC8
S11325C067E080E09BE00E940F020F2EF4EFCF2E15
S11325D0DD24D394E12CF12CF02D00E021E041E046
S11325E050E060E070E08091D32C9091D42C0E9454
S11325F0400211C0E0E0FBE081E0868310A211A25A
S113260060E080E09BE00E941502C12CD12C760191
S11326106894C1F8B3CF0F91FF90EF90DF90CF9003
S113262008958295807FE0E0F6E09481282F2F6062
S1132630922394839481892B848308951F93CF9349
S1132640DF93C0E6D6E014E01D8361E070E080E033
S113265090E00E949E121E83DF91CF911F910895F6
S1132660CF93C82F82958F700E941113E0E6F6E095
S113267081E0868382E086830E941E138C2F8F70F4
S11326800E9411130E941E13CF910895CF93C82F57
S113269082958F700E941113E0E6F6E081E0858355
S11326A082E086830E941E138C2F8F700E94111368
S11326B00E941E13CF910895EF92FF920F93E0E0D2
S11326C0F6E080E1818380E2818380E4818380E895
S11326D08183A0E6B6E081E011968C93119782E0A5
S11326E011968C93119784E011968C9311978481A1
S11326F08F70848314968C911497887F14968C938E
S113270040E066E188E00E9452078093D12C9093C8
S1132710D22C0E942B028093D32C9093D42CE12CA6
S1132720F12C02E020E030E04EE551E06FE470E28D
S11327308AEF93E10E94EC090F91FF90EF900895C6
S11327408130910579F01CF4892B39F019C082305D
S1132750910569F0039781F013C080E8860F0E9409
S113276030130EC080EC860F0E94301309C084E938
S1132770860F0E94301304C084ED860F0E9430132C
S113278067E270E080E090E00E949E1208950E944B
S113279046136BE270E080E090E00E949E12089580
S11327A00F931F93CF93DF93FC01808181110AC0A3
S11327B011C08991882371F00E94C7130C171D075B
S11327C0C1F708C08F010E94C713E80121960C5E6F
S11327D01F4FEFCFDF91CF911F910F910895CF93AA
S11327E0DF93EA010E94A013CE010E94D013DF916F
S11327F0CF910895CF93DF93CDB7DEB7C656D109F5
S1132800CDBFDEBF5E0141E5A40EB11CFE013196D1
S113281020E208C02193E817F907E1F7FC01A816A4
S1132820B90619F0CF014496F5CF60E47CE980E065
S113283090E00E949E1283E00E94111368E873E105
S113284080E090E00E949E120E941E1360EA70E0F5
S113285080E090E00E949E120E941E1360EA70E0E5
S113286080E090E00E949E120E941E1360EA70E0D5
S113287080E090E00E949E1282E00E9411130E9468
S11328801E1388E20E94301380E10E9430138CE012
S11328900E94301386E00E94301310E26E0151E56D
S11328A0C50ED11C0F2EF4E14F2EF02D0F2EF6E1A4
S11328B08F2E912CF02D5C2C0D2D68EC70E080E0B7
S11328C090E00E94A90C40E050E0BA018091D32C22
S11328D09091D42C0E940503672B682B692B09F473
S11328E049C042E050E060E070E08091D32C9091C8
S11328F0D42C0E940503FE01319608C01193E817F9
S1132900F907E1F7FC018A159B05A1F1CF01449673
S1132910F5CF2FEF3FEFA901652D702F8091D12CBA
S11329209091D22C0E946E08882321F1F601218116
S1132930822F90E04497F4F482818823D9F0908127
S113294030E0D901499EA00DB11D112441E050E0B1
S11329504C0F5D1FA40FB51F3396A401421B530BEC
S11329609A012C0D3D1D8D93E217F30719F0819107
S11329708111F9CF8091D12C9091D22C0E9414090D
S11329808111C7CFCE0101967C01612C712CA70166
S113299060E070E0C3010E94EF139FEF691A790AA7
S11329A0E4E1EE0EF11CF4E06F16710481F785CFBB
S11329B042E050E060E070E08091D32C9091D42C00
S11329C00E94260308952F923F924F925F926F9236
S11329D07F928F929F92AF92BF92CF92DF92EF92AB
S11329E0FF920F931F93CF93DF93CDB7DEB76D970D
S11329F0CDBFDEBF2BA92B8FAFA9B8AD7E0139E3C4
S1132A00E30EF11C2EEC3CE2EAEBFCE21192E2173D
S1132A10F307E1F70F2EF6EAAF2EFCE2BF2EF02DFE
S1132A202AEB3CE2F5011192E217F307E1F7812C5E
S1132A30912C0F2EFAEBCF2EFCE2DF2EF02DFCC2F0
S1132A40853209F0E8C22D0182E0480E511C11962E
S1132A508C91853609F4DBC138F48336C1F008F073
S1132A6048C0853251F0E7C28337F9F0883709F45A
S1132A7068C0863609F0DFC28CC0F401EA55F34D14
S1132A8095E29083AFEF8A1A9A0AD201D5C2F40173
S1132A90EA55F34DD7018C918083BFEF8B1A9B0AC3
S1132AA0F70132967F01D201C7C2A7014E5F5F4F83
S1132AB0D7018D919C919C01B401F401EA55F34D29
S1132AC000E010E006C0D901FD909D01F1920F5F76
S1132AD01F4FDC010D900020E9F71197A81BB90BDB
S1132AE00A171B0780F34D01860E971E7A01D20147
S1132AF0A3C287010E5F1F4F4AE0B601F701808130
S1132B0091810E946A1F9401D401AA55B34D4AEBE6
S1132B105CE280E090E005C0FA016191AF016D9341
S1132B200196F60101900020E9F73197EA5BFC4237
S1132B308E179F0788F34F01820E931E7801D201EE
S1132B407BC287010E5F1F4F40E1B601D7018D9113
S1132B509C910E946A1F9401F401EA55F34D4AEBDB
S1132B605CE280E090E005C0DA016D91AD01619313
S1132B700196D6010D900020E9F71197AA5BBC429B
S1132B808A179B0788F34D01820E931E7801D201A8
S1132B9053C21701B4E02B0E311CD7018D919D91C6
S1132BA00D90BC91A02D8F8B988FA98FBA8F20E0A8
S1132BB030E0A901BC01CD010E94F318811105C0C8
S1132BC020E3F6012083118204C120E030E0A90152
S1132BD06F89788D898D9A8D0E94F31888239CF4CF
S1132BE0EDE2D601EC938F89988DA98DBA8DB058FA
S1132BF08F8B988FA98FBA8F0F2EFBEB6F2EFCE271
S1132C007F2EF02D01C0360120E030E040E85FE384
S1132C106F89788D898D9A8D0E94521A88230CF4BD
S1132C2044C200E010E020E030E040E251E46F896B
S1132C30788D898D9A8D0E94F8186F8B788F898F83
S1132C409A8F0F5F1F4F20E030E040E85FE30E945F
S1132C50521A882344F72DEC3CEC4CEC5DE36F896D
S1132C60788D898D9A8D0E94F31888231CF01AC0E0
S1132C7000E010E020E030E040E251E46F89788D1C
S1132C80898D9A8D0E94571A6F8B788F898F9A8FAE
S1132C90015011092DEC3CEC4CEC5DE30E94F3185F
S1132CA0882344F310161106ACF57301D301A00F69
S1132CB0B11FAC8FBD8F3D016F89788D898D9A8D41
S1132CC020E030E040E251E40E94571A6F8B788F85
S1132CD0898F9A8F0E946A1920E3260FF7012193A6
S1132CE07F01072E000C880B990B0E94A2199B01EF
S1132CF0AC016F89788D898D9A8D0E948618E614AF
S1132D00F704F1F66F8B788F898F9A8F011511056F
S1132D1089F4DBC1C801E0E3D301EC937301F2E071
S1132D20EF0EF11C2EE211962C9399236CF000E027
S1132D3010E01FC0EC8CFD8C3FEFE31AF30AEEE2C7
S1132D40AC8DBD8DEC9312C000E010E0FFEFEF1AE4
S1132D50FF0AF701319720E3208301970F5F1F4F8C
S1132D60992324F4043011058CF331C00430110587
S1132D7074F5370184E090E0801B910BE80EF91E96
S1132D8087016F89788D898D9A8D20E030E040E24B
S1132D9051E40E94571A6F8B788F898F9A8F0E9403
S1132DA06A1920E3260FD3012D933D01072E000C51
S1132DB0880B990B0E94A2199B01AC016F89788D35
S1132DC0898D9A8D0E94861860167106F1F6F701B6
S1132DD010829401F401EA55F34D4AEB5CE280E081
S1132DE090E005C0DA016D91AD0161930196D601C1
S1132DF00D900020E9F71197AA5BBC428A179B0744
S1132E0088F34D01820E931E7101D20115C1170181
S1132E10B4E02B0E311CD7018D919D910D90BC9186
S1132E20A02D8F8B988FA98FBA8F20E030E0A90155
S1132E30BC01CD010E94F318811105C020E3F60105
S1132E4020831182CAC020E030E0A9016F89788D07
S1132E50898D9A8D0E94F31888239CF4EDE2D601A3
S1132E60EC938F89988DA98DBA8DB0588F8B988FDC
S1132E70A98FBA8F0F2EFBEB6F2EFCE27F2EF02D65
S1132E8001C0360120E030E040E85FE36F89788DCF
S1132E90898D9A8D0E94521A8823DCF000E010E09C
S1132EA020E030E040E251E46F89788D898D9A8D7D
S1132EB00E94F8186F8B788F898F9A8F0F5F1F4F3E
S1132EC020E030E040E85FE30E94521A882344F790
S1132ED002C000E010E02DEC3CEC4CEC5DE36F89AB
S1132EE0788D898D9A8D0E94F3188823C4F420E08C
S1132EF030E040E251E46F89788D898D9A8D0E948B
S1132F00571A6F8B788F898F9A8F015011092DEC86
S1132F103CEC4CEC5DE30E94F318882344F320E07E
S1132F2030E040E251E46F89788D898D9A8D0E945A
S1132F30571A6F8B788F898F9A8F0E946A1920E3B2
S1132F40260FD3012C93072E000C880B990B0E949B
S1132F50A2199B01AC016F89788D898D9A8D0E948D
S1132F608618F8013197EC8FFD8FEEE2D3011196AC
S1132F70EC9383010E5F1F4F7301F6E0EF0EF11C1B
S1132F8020E030E040E251E40E94571A6F8B788FC2
S1132F90898F9A8F0E946A1920E3260FD8012D93F6
S1132FA08D01072E000C880B990B0E94A2199B011E
S1132FB0AC016F89788D898D9A8D0E9486180E15C3
S1132FC01F05F1F625E6F3012683B301695F7F4F00
S1132FD04AE08C8D9D8D0E946A1F9401F401EA558C
S1132FE0F34D4AEB5CE280E090E005C0DA016D91BC
S1132FF0AD0161930196D6010D900020E9F7119778
S1133000AA5BBC428A179B0788F34D01820E931E6C
S11330107101D20111C08A3029F0F401EA55F34D4F
S1133020808304C0F401EA55F34D10821196EFEF4A
S11330308E1A9E0A01C0D2018C91811101CD8DA9F5
S11330409EA9880D991D44973CF084E190E04C01C1
S11330502DA93EA9821A930AFE013396CE01479602
S1133060DF011D92A817B907E1F73B8D39838DA9BC
S11330708A83181419045CF4CE01880D991D0396F3
S1133080D5012D915D0121938E179F07C9F700E0AB
S11330902FEF3FEFA901BE016F5F7F4F8091D12CCD
S11330A09091D22C0E9483071BC02DEC3CEC4CEC7D
S11330B05DE36F89788D898D9A8D0E94F31888233A
S11330C00CF4D6CD80E090E026CE20E3EC8DFD8D8F
S11330D020837F0132E0E30EF11C8EE2818346CE31
S11330E06D96CDBFDEBFDF91CF911F910F91FF9001
S11330F0EF90DF90CF90BF90AF909F908F907F9094
S11331006F905F904F903F902F9008955058BB2739
S1133110AA270E949E180C94181A0E940A1A38F0C2
S11331200E94111A20F039F49F3F19F426F40C94EC
S1133130071A0EF4E095E7FB0C94011AE92F0E949C
S1133140291A58F3BA17620773078407950720F002
S113315079F4A6F50C944B1A0EF4E0950B2EBA2FC5
S1133160A02D0B01B90190010C01CA01A001112489
S1133170FF27591B99F0593F50F4503E68F11A1635
S1133180F040A22F232F342F4427585FF3CF4695C6
S113319037952795A795F0405395C9F77EF41F16E8
S11331A0BA0B620B730B840BBAF09150A1F0FF0FB2
S11331B0BB1F661F771F881FC2F70EC0BA0F621F9E
S11331C0731F841F48F4879577956795B795F7958E
S11331D09E3F08F0B0CF9395880F08F09927EE0F23
S11331E09795879508950E94DD1908F481E0089564
S11331F00E940C190C94181A0E94111A58F00E947B
S11332000A1A40F029F45F3F29F00C94011A511175
S11332100C944C1A0C94071A0E94291A68F39923E7
S1133220B1F3552391F3951B550BBB27AA276217BE
S11332307307840738F09F5F5F4F220F331F441FCB
S1133240AA1FA9F335D00E2E3AF0E0E832D09150FF
S11332505040E695001CCAF72BD0FE2F29D0660FEC
S1133260771F881FBB1F261737074807AB07B0E82F
S113327009F0BB0B802DBF01FF2793585F4F3AF035
S11332809E3F510578F00C94011A0C944C1A5F3F40
S1133290E4F3983ED4F3869577956795B795F795BB
S11332A09F5FC9F7880F911D9695879597F90895A3
S11332B0E1E0660F771F881FBB1F6217730784073F
S11332C0BA0720F0621B730B840BBA0BEE1F88F74E
S11332D0E09508950E9471196894B1110C944C1AE8
S11332E008950E94311A88F09F5798F0B92F9927B2
S11332F0B751B0F0E1F0660F771F881F991F1AF0DD
S1133300BA95C9F714C0B13091F00E944B1AB1E0DC
S113331008950C944B1A672F782F8827B85F39F0DB
S1133320B93FCCF3869577956795B395D9F73EF475
S113333090958095709561957F4F8F4F9F4F08951D
S1133340E89409C097FB3EF490958095709561953B
S11333507F4F8F4F9F4F9923A9F0F92F96E9BB27F1
S11333609395F695879577956795B795F111F8CF6D
S1133370FAF4BB0F11F460FF1BC06F5F7F4F8F4FD8
S11333809F4F16C0882311F096E911C0772321F0CE
S11333909EE8872F762F05C0662371F096E8862F66
S11333A070E060E02AF09A95660F771F881FDAF7BD
S11333B0880F9695879597F90895990F0008550FEA
S11333C0AA0BE0E8FEEF16161706E807F907C0F0A7
S11333D012161306E407F50798F0621B730B840BAF
S11333E0950B39F40A2661F0232B242B252B21F489
S11333F008950A2609F4A140A6958FEF811D811D29
S1133400089597F99F6780E870E060E008959FEF62
S113341080EC089500240A94161617061806090667
S1133420089500240A941216130614060506089536
S1133430092E0394000C11F4882352F0BB0F40F4BE
S1133440BF2B11F460FF04C06F5F7F4F8F4F9F4FFE
S1133450089557FD9058440F551F59F05F3F71F080
S11334604795880F97FB991F61F09F3F79F08795E7
S11334700895121613061406551FF2CF4695F1DF70
S113348008C0161617061806991FF1CF8695710500
S1133490610508940895E894BB2766277727CB0134
S11334A097F908950E94DD1908F48FEF08950E949A
S11334B06A1A0C94181A0E940A1A38F00E94111AF7
S11334C020F0952311F00C94011A0C94071A11247E
S11334D00C944C1A0E94291A70F3959FC1F3950F0E
S11334E050E0551F629FF001729FBB27F00DB11D84
S11334F0639FAA27F00DB11DAA1F649F6627B00D14
S1133500A11D661F829F2227B00DA11D621F739FFC
S1133510B00DA11D621F839FA00D611D221F749F0A
S11335203327A00D611D231F849F600D211D822F51
S1133530762F6A2F11249F5750409AF0F1F0882378
S11335404AF0EE0FFF1FBB1F661F771F881F9150A5
S11335505040A9F79E3F510580F00C94011A0C9439
S11335604C1A5F3FE4F3983ED4F3869577956795BC
S1133570B795F795E7959F5FC1F7FE2B880F911DCF
S11335809695879597F908952F923F924F925F925F
S11335906F927F928F929F92AF92BF92CF92DF925F
S11335A0EF92FF920F931F93CF93DF93CDB7DEB7C4
S11335B06097CDBFDEBF7C011B016A01FC0116824E
S11335C01782838181FF44C39E012F5F3F4F3901DE
S11335D0F7019381F10193FD859193FF81911F017F
S11335E0882309F431C3853239F493FD859193FF1F
S11335F081911F01853239F4B70190E00E948F1F39
S113360056016501E5CF10E0512C912CFFE1F9152D
S1133610D8F08B3279F038F4803279F08332A1F427
S1133620F92DF0612EC08D3261F0803369F4292DBB
S113363021602DC0392D3260932E892D8460982EFF
S11336402AC0E92DE86015C097FC2DC020ED280F95
S11336502A3088F496FE06C03AE0139F200D112408
S1133660122F19C08AE0589E200D1124522EE92DE4
S1133670E0629E2E10C08E3231F496FCE5C2F92D24
S1133680F0649F2E08C08C3621F4292D2068922ED8
S113369002C0883641F4F10193FD859193FF819135
S11336A01F018111B3CF9BEB980F933020F4992D18
S11336B09061805E07C09BE9980F933008F066C163
S11336C0992D9F7E96FF16E09F73992E853619F4E7
S11336D09064992E08C0863621F4392F3068932ED1
S11336E002C01111115097FE07C01C3350F444243A
S11336F04394410E27E00BC0183038F027E017E060
S113370005C027E09CE3492E02C0212F412C56011D
S113371084E0A80EB11CF6016081718182819381DD
S1133720042DA3010E946C1E6C01F981FC87F0FF3B
S113373002C0F3FF06C091FC06C092FE06C000E280
S113374005C00DE203C00BE201C000E08C858C7063
S113375019F001115AC29BC297FE10C04C0CFC8593
S1133760F4FF04C08A81813309F44A94141474F573
S113377028E0241578F588E0482E2CC096FC2AC051
S1133780812F90E08C159D059CF03CEFC3163FEF14
S1133790D30674F0892D8068982E0AC0E2E0F0E028
S11337A0EC0FFD1FE10FF11D8081803319F41150DE
S11337B01111F4CF97FE0EC044244394410E812F7F
S11337C090E0C816D9062CF41C1904C04424439470
S11337D001C010E097FE06C01C141D0434F4C60199
S11337E0019605C085E090E002C081E090E00111FF
S11337F00196112331F0212F30E02F5F3F4F820FCC
S1133800931F252D30E08217930714F4581A01C032
S1133810512C892D897049F4552039F0B70180E283
S113382090E00E948F1F5A94F7CF002329F0B7012C
S1133830802F90E00E948F1F93FC09C0552039F01F
S1133840B70180E390E00E948F1F5A94F7CF97FE50
S11338504CC04601D7FE02C0812C912CC6018819A8
S11338609909F301E80FF91FED87FE8796012419E2
S113387031092F87388B012F10E01195019511091B
S11338803FEF8316930629F4B7018EE290E00E947D
S11338908F1FC814D9044CF08F8598898815990511
S11338A024F4ED85FE85818101C080E3F1E08F1A67
S11338B091082D853E852F5F3F4F2D873E878016CB
S11338C091062CF0B70190E00E948F1FD9CFC81445
S11338D0D90441F49A81963320F4953319F43C8544
S11338E034FF81E3B70190E04EC08A81813319F03F
S11338F09C859F7E9C87B70190E00E948F1F1111C9
S113390005C094FC18C085E690E017C0B7018EE2AC
S113391090E00E948F1F1E5F82E001E0080FF30118
S1133920E80FF11D8081B70190E00E948F1F802F66
S11339300113F3CFE6CF85E490E0B7010E948F1F17
S1133940D7FC06C0C114D10441F4EC85E4FF05C0E2
S1133950D194C194D1088DE201C08BE2B70190E00B
S11339600E948F1F80E32AE0C216D1042CF08F5FDF
S1133970FAE0CF1AD108F7CFB70190E00E948F1F69
S1133980B701C601C0960E948F1F54C1833631F01F
S1133990833779F0833509F056C020C0560132E0F0
S11339A0A30EB11CF6018081898301E010E063015C
S11339B012C05601F2E0AF0EB11CF601C080D180F6
S11339C096FE03C0612F70E002C06FEF7FEFC60167
S11339D00E945F1F8C01F92DFF7714C0560122E06D
S11339E0A20EB11CF601C080D18096FE03C0612FE7
S11339F070E002C06FEF7FEFC6010E94441F8C018C
S1133A00F92DF0689F2EF3FD1AC0852D90E008175C
S1133A101907A8F4B70180E290E00E948F1F5A941E
S1133A20F4CFF60197FC859197FE81916F01B70160
S1133A3090E00E948F1F51105A94015011090115F2
S1133A40110579F7F7C0843611F0893661F556010E
S1133A5097FE09C024E0A20EB11CF60160817181B9
S1133A60828193810AC0F2E0AF0EB11CF60160813D
S1133A707181072E000C880B990BF92DFF769F2E70
S1133A8097FF09C090958095709561957F4F8F4FF2
S1133A909F4FF0689F2E2AE030E0A3010E94CB1FC5
S1133AA0C82EC6183FC0092D853721F40F7E2AE0A1
S1133AB030E01DC0097F8F3691F018F4883559F035
S1133AC0C3C0803719F0883711F0BEC0006104FF0D
S1133AD009C0046007C094FE08C0066006C028E060
S1133AE030E005C020E130E002C020E132E05601C0
S1133AF007FF09C084E0A80EB11CF6016081718142
S1133B008281938108C0F2E0AF0EB11CF60160819E
S1133B10718180E090E0A3010E94CB1FC82EC618DB
S1133B200F77902E96FE0BC0092D0E7FC11650F410
S1133B3094FE0AC092FC08C0092D0E7E05C0DC2C40
S1133B40092D03C0DC2C01C0D12E04FF0DC0FE01E1
S1133B50EC0DF11D8081803311F4097E09C002FF50
S1133B6006C0D394D39404C0802F867809F0D394EC
S1133B7003FD11C000FF06C01C2DD51480F4150DE3
S1133B801D190DC0D51458F4B70180E290E00E94CD
S1133B908F1FD394F7CFD51410F45D1801C0512CA6
S1133BA004FF10C0B70180E390E00E948F1F02FF62
S1133BB017C001FD03C088E790E002C088E590E0EB
S1133BC0B7010CC0802F867859F001FF02C08BE248
S1133BD001C080E207FD8DE2B70190E00E948F1FD3
S1133BE0C11638F4B70180E390E00E948F1F115092
S1133BF0F7CFCA94F301EC0DF11D8081B70190E079
S1133C000E948F1FC110F5CF15C0F4E0F51560F5C3
S1133C1084E0581A93FE1FC0011127C02C8523FF8E
S1133C202AC004E312E0392D3071932EF8018491F7
S1133C30811124C0552009F4E4CCB70180E290E05E
S1133C400E948F1F5A94F6CFF7018681978126C070
S1133C508FEF9FEF23C0B70180E290E00E948F1F97
S1133C605A945110F8CFD8CF512CB701802F90E03F
S1133C700E948F1FD3CF08E312E0D5CF911080525A
S1133C80B70190E00E948F1F0F5F1F4FCFCF23E03B
S1133C90251510F483E0BDCF512CC0CF6096CDBF65
S1133CA0DEBFDF91CF911F910F91FF90EF90DF90D6
S1133CB0CF90BF90AF909F908F907F906F905F90C8
S1133CC04F903F902F900895EE0FFF1F881F8BBFDA
S1133CD00790F691E02D1994283008F027E0332757
S1133CE0DA01990F311D87FD916000966105710518
S1133CF039F432602E5F3D9330E32A95E1F708955D
S1133D009F3F30F080387105610509F03C5F3C5FEE
S1133D103D93913008F08068911DDF93CF931F93FA
S1133D200F93FF92EF92192F987F9695E92F96950E
S1133D309695E90FFF27EA56FD4F99273327EE247E
S1133D40FF24A701E70105900894079428F4360F8F
S1133D50E71EF81E491F511D660F771F881F991F04
S1133D600694A1F70590079428F4E70EF81E491F5E
S1133D70561FC11D770F881F991F661F0694A1F750
S1133D800590079428F4F80E491F561FC71FD11D2C
S1133D90880F991F661F771F0694A1F70590079453
S1133DA020F4490F561FC71FD81F990F661F771F8E
S1133DB0881F0694A9F784911095177041F0D69541
S1133DC0C79557954795F794E7941A95C1F7ECE38F
S1133DD0F2E068941590159135916591959105904F
S1133DE07FE27395E118F10A430B560BC90BD00916
S1133DF0C0F7E10CF11E431F561FC91FD01D7EF4EE
S1133E00703311F48A95E6CFE894015030F0080F2E
S1133E100AF40027021708F4202F2395022F7A337F
S1133E2028F079E37D932A95E9F710C07D932A95CC
S1133E3089F6069497956795379517951794E11821
S1133E40F10A430B560BC90BD00998F023957E91C8
S1133E5073957A3308F070E37C932013B8F77E915E
S1133E6070617D9330F0839571E37D9370E32A95BF
S1133E70E1F71124EF90FF900F911F91CF91DF9103
S1133E80992787FD90950895FC0105906150704035
S1133E900110D8F7809590958E0F9F1F0895FB0110
S1133EA0DC0102C001900D9241505040D8F70895B2
S1133EB0DC0101C06D9341505040E0F70895FC01CE
S1133EC06150704001900110D8F7809590958E0F45
S1133ED09F1F0895BB274A3031F4992322F4BDE291
S1133EE0909581959F4F0C94761FBB27FB01552716
S1133EF0AA27880F991FAA1FA41710F0A41B839543
S1133F005051B9F7A05DAA3308F0A95DA1930097B9
S1133F1079F7B111B1931192CB010C9429200F932D
S1133F201F93CF93DF93FB01238121FD03C08FEF08
S1133F309FEF2CC022FF16C0468157812481358112
S1133F404217530744F4A081B1819D012F5F3F4F75
S1133F50208331838C93268137812F5F3F4F2683C3
S1133F60378314C08B01EC01FB010084F185E02D43
S1133F701995892BE1F6D80116968D919C91179786
S1133F80019616968D939C931797CE01DF91CF914E
S1133F901F910F910895FA01AA27283051F1203179
S1133FA081F1E8946F936E7F6E5F7F4F8F4F9F4FC9
S1133FB0AF4FB1E03ED0B4E03CD0670F781F891F0B
S1133FC09A1FA11D680F791F8A1F911DA11D6A0FD9
S1133FD0711D811D911DA11D20D009F468943F918C
S1133FE02AE0269F11243019305D3193DEF6CF018B
S1133FF00895462F4770405D4193B3E00FD0C9F751
S1134000F6CF462F4F70405D4A3318F0495D31FDBD
S11340104052419302D0A9F7EACFB4E0A695979510
S1134020879577956795BA95C9F7009761057105E6
S113403008959B01AC010A2E069457954795379530
S11340402795BA95C9F7620F731F841F951FA01D8A
S11340500895DC01FC01672F71917723E1F7329712
S113406004C07C916D9370836291AE17BF07C8F34F
S10940700895F894FFCF4F
S113407649444C4500546D722053766300504920E0
S113408643616C63756C61746F72005068696C6926
S11340967070204570706C65720050693A20332E3A
S11340A631343135787878005A6569743A207878ED
S11340B6787878786D73004755495461736B00645A
S10D40C6697370557064617465003D
S9030000FC
