S00E0000706963616C632E73726563AA
S11300000C949F010C94C9010C94C9010C94C9016E
S11300100C94C9010C94C9010C94C9010C94C90134
S11300200C94C9010C94C9010C94C9010C94C90124
S11300300C94C9010C94C9010C94BB230C94C90100
S11300400C94C9010C94C9010C94C9010C94C90104
S11300500C94C9010C94C9010C94C9010C94C901F4
S11300600C94C9010C94C9010C94C9010C94C901E4
S11300700C94C9010C94C9010C94C9010C94C901D4
S11300800C94C9010C94C9010C94C9010C94C901C4
S11300900C94C9010C94C9010C94C9010C94C901B4
S11300A00C94C9010C94C9010C94C9010C94C901A4
S11300B00C94C9010C94C9010C94C9010C94C90194
S11300C00C94C9010C94C9010C94C9010C94C90184
S11300D00C94C9010C94C9010C94C9010C94C90174
S11300E00C94C9010C94C9010C94C9010C94C90164
S11300F00C94C9010C94C9010C94C9010C94C90154
S11301000C94C9010C94C9010C94C9010C94C90143
S11301100C94C9010C94C9010C94C9010C94C90133
S11301200C94C9010C94C9010C94C9010C94C90123
S11301300C94C9010C94F13A0C94C9010C94C901B2
S11301400C94C9010C94C9010C94C9010C94C90103
S11301500C94C9010C94C9010C94C9010C94C901F3
S11301600C94C9010C94C9010C94C9010C94C901E3
S11301700C94C9010C94C9010C94C9010C94C901D3
S11301800C94C9010C94C9010C94C9010C94C901C3
S11301900C94C9010C94C9010C94C9010C94C901B3
S11301A00C94C9010C94C9010C94C9010C94C901A3
S11301B00C94303B0C94C9010C94C9010C94C901F2
S11301C00C94C9010C94C9010C94C9010C94C90183
S11301D00C94C9010C94C9010C94C9010C94C90173
S11301E00C94C9010C94C9010C94C9010C94C90163
S11301F00C94C9010C94C9010C94C9017135713571
S11302007135F835C435F23571357135F835C43585
S11302100C94F2350C9471350C9474390C9428397F
S11302200C94991E0C94F8350C94C33D0C94C4356D
S11302300C9453330C94EA370C94AC306E616E001A
S1130240696E660000407A10F35A00A0724E1809D5
S11302500010A5D4E80000E87648170000E40B5429
S1130260020000CA9A3B000000E1F50500008096F8
S11302709800000040420F000000A086010000002A
S1130280102700000000E8030000000064000000E4
S113029000000A00000000000100000000002C76AD
S11302A0D888DC674F0823DFC1DFAE59E1B1B796C8
S11302B0E5E3E453C63AE651997696E8E6C2842625
S11302C0EB898C9B62ED407C6FFCEFBC9C9F40F201
S11302D0BAA56FA5F490055A2AF75C936B6CF9677D
S11302E06DC11BFCE0E40D47FEF520E6B500D0ED42
S11302F0902E0300943577050080841E08000020AA
S11303004E0A000000C80C333333330F986E128347
S11303101141EF8D2114893BE65516CFFEE6DB181B
S1130320D1844B381BF77C1D901DA4BBE4242032E0
S113033084725E228100C9F124ECA1E53D271124D9
S11303401FBECFEFCDBFDFE3DEBF00E00CBFEBE7A6
S1130350FDE28AEA90E48193E030F907E0F30000DB
S113036010E2A0E0B0E2E2EFFBE900E00BBF02C064
S113037007900D92A436B107D9F72DE2A4E6B0E2B6
S113038001C01D92AB37B207E1F70E94A3370C946A
S1130390F74D0C9400008F929F92AF92BF92CF9230
S11303A0DF92EF92FF920F931F93CF93DF93CDB71A
S11303B0DEB7A197CDBFDEBF89839A836B837C832D
S11303C04D835E832F8338870987E981FA812081F1
S11303D03181428153816481758186819781E22FC5
S11303E0EF7FEA87F32FFF7FFB87E42FEF7FEC8714
S11303F0F52FFF7FFD87E62FEF7FEE87F72FFF7F37
S1130400FF87E82FEF70E88BF92FF070F98B8F815D
S113041098852A85FC0120832B85FC0121832C856A
S1130420FC0122832D85FC0123832E85FC0124837A
S11304302F85FC0125832889FC0126832989FC0159
S1130440278389819A81FC01F081FA8BFC01F18177
S1130450FB8BFC01F281FC8BFC01F381FD8BFC0125
S1130460F481FE8BFC01F581FF8BFC01F681F88F92
S1130470FC01F781F98F2A893B894C895D896E8952
S11304807F89888D998D04E30E94914B2A8F3B8F3D
S11304904C8F5D8F6E8F7F8F88A399A38A8D9B8DE0
S11304A09C0137708D819E81FC01208331838D8175
S11304B09E81FC0180819181892B99F48F8198859B
S11304C0FC011082FC011182FC011282FC011382E6
S11304D0FC011482FC011582FC011682FC011782C6
S11304E03CC08D819E81FC01808191818F3F97402A
S11304F0A1F1EF81F88520813181428153816481AA
S1130500758186819781E22FE0608E2EF32FF06053
S11305109F2EE42FE060AE2EF52FF060BF2EE62F65
S1130520E060CE2EF72FF060DF2EE82FE061EE2E94
S1130530F92FF060FF2E8F819885FC018082FC01E9
S11305409182FC01A282FC01B382FC01C482FC0101
S1130550D582FC01E682FC01F7828F819885FC013B
S1130560A080FC01B180FC01C280FC01D380FC01AD
S1130570E480FC01F580FC010681FC01178189857A
S1130580E82FF0E02A2D3B2D4C2D5D2D6E2D7F2D77
S1130590802F912F0E2F0E94764BA22EB32EC42EA5
S11305A0D52EE62EF72E082F192F8F819885FC0162
S11305B0A082FC01B182FC01C282FC01D382FC0155
S11305C0E482FC01F582FC010683FC011783898126
S11305D09A81FC01A080FC01B180FC01C280FC0175
S11305E0D380FC01E480FC01F580FC010681FC0160
S11305F017812A2D3B2D4C2D5D2D6E2D7F2D802FA7
S1130600912F0FE30E94914BA22EB32EC42ED52E10
S1130610E62EF72E082F192F2A2D8B819C81FC01A1
S113062020830000A196CDBFDEBFDF91CF911F9143
S11306300F91FF90EF90DF90CF90BF90AF909F907D
S11306408F9008952F923F924F925F926F927F9274
S11306508F929F92AF92BF92CF92DF92EF92FF92CE
S11306600F931F93CF93DF93CDB7DEB7C056D10955
S1130670CDBFDEBF8A879B876C874D875E872F87B8
S1130680388B19828F859889FC0120812A83FC018B
S113069021812B83FC0122812C83FC0123812D8366
S11306A0FC0124812E83FC0125812F83FC012681FA
S11306B02887FC0187818987AA80BB80CC80DD8064
S11306C0EE80FF80088519852A2D3B2D4C2D5D2D4C
S11306D06E2D7F2D802F912FA0E00E94CB4B09F42B
S11306E015C220C02A813B814C815D816E817F814E
S11306F08885998508E00E94764BA22EB32EC42EDD
S1130700D52EE62EF72E082F192FAA82BB82CC8273
S1130710DD82EE82FF82088719878D859E85089782
S11307208D879E878A81F82FF0702F2E8B81282F3A
S11307302070322E8C81982F9070492E8D81E82F55
S1130740E0705E2E8E81F82FF0706F2E8F81282F2F
S1130750207E722E8885982F9F7F892E8985E82F89
S1130760EF7F9E2E222D332D442D552D662D772D72
S1130770882D992DA0E00E94CB4B09F4B3CF20C063
S11307802A813B814C815D816E817F818885998539
S113079001E00E94764BA22EB32EC42ED52EE62E57
S11307A0F72E082F192FAA82BB82CC82DD82EE821B
S11307B0FF82088719878D859E8501978D879E877F
S11307C08A81F82FF070F98B8B81282F20702A8B67
S11307D08C81982F90709B8B8D81E82FE070EC8B2F
S11307E08E81F82FF070FD8B8F81282F20702E8B37
S11307F08885982F907F9F8B8985E82FEF7FE88FDE
S113080029893A894B895C896D897E898F89988D7C
S1130810A0E00E94CB4B09F4B3CF4FC08A81F82FDC
S1130820F870F9A38B81282F20702AA38C81982F2C
S113083090709BA38D81E82FE070ECA38E81F82F3C
S1130840F070FDA38F81282F20702EA38885982F08
S113085090709FA38985E82FE070E8A7E1E029A1C3
S11308603AA14BA15CA16DA17EA18FA198A5A0E0A6
S11308700E94CB4B09F4E0E0E9832A813B814C815F
S11308805D816E817F818885998504E00E94914B0A
S1130890A22EB32EC42ED52EE62EF72E082F192FF6
S11308A0AA82BB82CC82DD82EE82FF82088719870E
S11308B08D859E8504968D879E878A81F82FF0709A
S11308C0F98F8B81282F20702A8F8C81982F90701C
S11308D09B8F8D81E82FE070EC8F8E81F82FF07064
S11308E0FD8F8F81282F20702E8F8885982F9070F0
S11308F09F8F8985E82FEF7FE8A3298D3A8D4B8D53
S11309005C8D6D8D7E8D8F8D98A1A0E00E94CB4B68
S113091009F084CF4FC08A81F82FF170F9AB8B8135
S1130920282F20702AAB8C81982F90709BAB8D81DF
S1130930E82FE070ECAB8E81F82FF070FDAB8F8167
S1130940282F20702EAB8885982F90709FAB8985B7
S1130950E82FE070E8AFE1E029A93AA94BA95CA926
S11309606DA97EA98FA998ADA0E00E94CB4B09F494
S1130970E0E0E9832A813B814C815D816E817F8146
S11309808885998501E00E94914BA22EB32EC42E36
S1130990D52EE62EF72E082F192FAA82BB82CC82E1
S11309A0DD82EE82FF82088719878D859E850196F8
S11309B08D879E878A81F82FF070F9A78B81282F65
S11309C020702AA78C81982F90709BA78D81E82F87
S11309D0E070ECA78E81F82FF070FDA78F81282F8F
S11309E020702EA78885982F907E9FA78985E82F51
S11309F0EF7FE8AB29A53AA54BA55CA56DA57EA51F
S1130A008FA598A9A0E00E94CB4B09F084CF8981DF
S1130A10882309F46BC02A813B814C815D816E81FE
S1130A207F8188859985A1E00E94B64BA22EB32EC2
S1130A30C42ED52EE62EF72E082F192FAA82BB829C
S1130A40CC82DD82EE82FF82088719878A81F82FA3
S1130A50F070F9AF8B81282F20702AAF8C81982FEA
S1130A6090709BAF8D81E82FE070ECAF8E81F82FF2
S1130A70F070FDAF8F81282F20702EAF8885982FBE
S1130A80907E9FAF8985E82FEF7F2196EFAF219766
S1130A9029AD3AAD4BAD5CAD6DAD7EAD8FAD21965C
S1130AA09FAD2197A0E00E94CB4B01F12A813B81AD
S1130AB04C815D816E817F818885998501E00E94EA
S1130AC0914BA22EB32EC42ED52EE62EF72E082F30
S1130AD0192FAA82BB82CC82DD82EE82FF82088734
S1130AE019878D859E8501968D879E878D859E8528
S1130AF01816190694F01D861E861A821B821C8203
S1130B001D821E821F821886198607C08D859E85C8
S1130B108F3F974014F41D861E868D859E858F3FDA
S1130B20974064F08FEF97E08D879E871A821B822F
S1130B301C821D821E821F82188619868C85A82E0F
S1130B40B12CC12CD12CE12CF12C87012A2D3B2D69
S1130B504C2D5D2D6E2D7F2D802F912F0FE30E9444
S1130B60764B222E332E442E552E662E772E882E2B
S1130B70992E8D859E8523968EAF9FAF2397892FBF
S1130B80880F880B24968FAF249725968FAF2597CF
S1130B9026968FAF269727968FAF279728968FAFE5
S1130BA0289729968FAF299722962FAD22972396BF
S1130BB03FAD239724964FAD249725965FAD259797
S1130BC026966FAD269727967FAD279728968FADEB
S1130BD0289729969FAD299704E30E94764BA22E6D
S1130BE0B32EC42ED52EE62EF72E082F192F822DC4
S1130BF08A292A968FAF2A97932D9B292B969FAFEC
S1130C002B97E42DEC292C96EFAF2C97F52DFD298D
S1130C102D96FFAF2D97262D2E292E962FAF2E978A
S1130C20872D8F292F968FAF2F97982D902B609615
S1130C309FAF6097E92DE12B6196EFAF61978A81B1
S1130C40F82FFF7F6296FFAF62978B81282F2F7F4B
S1130C5063962FAF63978C81982F9F7F64969FAF85
S1130C6064978D81E82FEF7F6596EFAF65978E814E
S1130C70F82FFF7F6696FFAF66978F81282F2F7F0F
S1130C8067962FAF67978885982F9F7068969FAF58
S1130C9068978985E82FE0706996EFAF69972A967F
S1130CA0FFAD2A9762962FAD6297F22B6A96FFAF3B
S1130CB06A972B968FAD2B9763969FAD6397892B7D
S1130CC06B968FAF6B972C96EFAD2C976496FFAD18
S1130CD06497EF2B6C96EFAF6C972D962FAD2D97F5
S1130CE065968FAD6597282B6D962FAF6D972E96D1
S1130CF09FAD2E976696EFAD66979E2B6E969FAF2F
S1130D006E972F96FFAD2F9767962FAD6797F22BAF
S1130D106F96FFAF6F9760968FAD609768969FADA3
S1130D206897892BA0968FAFA0976196EFAD6197D6
S1130D306996FFAD6997EF2BA196EFAFA1978A85CE
S1130D409B856A962FAD6A97FC0120836B962FAD25
S1130D506B97FC0121836C962FAD6C97FC01228369
S1130D606D962FAD6D97FC0123836E962FAD6E9714
S1130D70FC0124836F962FAD6F97FC012583A09609
S1130D802FADA097FC012683A1962FADA197FC015E
S1130D9027830000C05ADF4FCDBFDEBFDF91CF9164
S1130DA01F910F91FF90EF90DF90CF90BF90AF9085
S1130DB09F908F907F906F905F904F903F902F9077
S1130DC008952F923F924F925F926F927F928F92EB
S1130DD09F92AF92BF92CF92DF92EF92FF920F93C6
S1130DE01F93CF93DF93CDB7DEB76397CDBFDEBF3D
S1130DF089839A831B82212C312C412C512C612C08
S1130E00712C812C99249A943AC089819A81FC018D
S1130E10A080FC01B180FC01C280FC01D380FC01F4
S1130E20E480FC01F580FC010681FC0117812A2D78
S1130E303B2D4C2D5D2D6E2D7F2D802F912F08E0A5
S1130E400E94764BA22EB32EC42ED52EE62EF72E5C
S1130E50082F192F89819A81FC01A082FC01B1829B
S1130E60FC01C282FC01D382FC01E482FC01F58214
S1130E70FC010683FC0117838B81885F8B83E981E6
S1130E80FA81208131814281538164817581868117
S1130E909781F22FF221FC83E32FE321ED83F42FDA
S1130EA0F421FE83E52FE521EF83F62FF621F88761
S1130EB0E72FE721E987F82FF821FA87E92FE921BD
S1130EC0EB872C813D814E815F81688579858A8598
S1130ED09B85A0E00E94CB4B21F4FB81F0340CF401
S1130EE094CF212C312C412C512C612C712C812C30
S1130EF06894992497F83AC089819A81FC01A0806A
S1130F00FC01B180FC01C280FC01D380FC01E480BF
S1130F10FC01F580FC010681FC0117812A2D3B2D83
S1130F204C2D5D2D6E2D7F2D802F912F01E00E9481
S1130F30764BA22EB32EC42ED52EE62EF72E082FD6
S1130F40192F89819A81FC01A082FC01B182FC01E4
S1130F50C282FC01D382FC01E482FC01F582FC0123
S1130F600683FC0117838B818F5F8B83E981FA8170
S1130F702081318142815381648175818681978189
S1130F80F22FF221FC87E32FE321ED87F42FF421E4
S1130F90FE87E52FE521EF87F62FF621F88BE72F63
S1130FA0E721E98BF82FF821FA8BE92FE921EB8B64
S1130FB02C853D854E855F85688979898A899B89D9
S1130FC0A0E00E94CB4B21F4FB81F0340CF494CFCD
S1130FD08B816396CDBFDEBFDF91CF911F910F91BF
S1130FE0FF90EF90DF90CF90BF90AF909F908F9045
S1130FF07F906F905F904F903F902F9008952F9225
S11310003F924F925F926F927F928F929F92AF9294
S1131010BF92CF92DF92EF92FF920F931F93CF93E1
S1131020DF93CDB7DEB7E597CDBFDEBF89879A875B
S11310306B877C874D8789859A85FC01A080FC019C
S1131040B180FC01C280FC01D380FC01E480FC017E
S1131050F580FC010681FC0117812A2D3B2D4C2DC6
S11310605D2D6E2D7F2D802F912F00E20E94914BDC
S11310702E873F87488B598B6A8B7B8B8C8B9D8B00
S11310808B859C85FC01A080FC01B180FC01C280A1
S1131090FC01D380FC01E480FC01F580FC010681A5
S11310A0FC0117812A2D3B2D4C2D5D2D6E2D7F2D9E
S11310B0802F912F00E20E94914B222E332E442E3A
S11310C0552E662E772E882E992EA22CB32CC42C46
S11310D0D52CE62CF72C082D192D2E853F85488913
S11310E059896A897B898C899D890E940D4BA22E1E
S11310F0B32EC42ED52EE62EF72E082F192FAE8A26
S1131100BF8AC88ED98EEA8EFB8E0C8F1D8F89857F
S11311109A85FC01A080FC01B180FC01C280FC0125
S1131120D380FC01E480FC01F580FC010681FC0114
S113113017812A2D3B2D4C2D5D2D6E2D7F2D802F5B
S1131140912F00E20E94914B222E332E442E552ED5
S1131150662E772E882E992EEB85FC852081318191
S1131160428153816481758186819781F22FFF7F4B
S1131170FE8FE32FEF7FEF8FF42FFF7FF8A3E52F90
S1131180EF7FE9A3F62FF070FAA3E72FE070EBA34B
S1131190F82FF070FCA3E92FE070EDA3AE8CBF8CA8
S11311A0C8A0D9A0EAA0FBA00CA11DA1222D332D1B
S11311B0442D552D662D772D882D992D0E940D4B8C
S11311C0222E332E442E552E662E772E882E992EBF
S11311D0A22CB32CC42CD52CE62CF72C082D192DBD
S11311E02A2D3B2D4C2D5D2D6E2D7F2D802F912F83
S11311F000E20E94914B222E332E442E552E662E51
S1131200772E882E992E2E893F89488D598D6A8D87
S11312107B8D8C8D9D8DA22CB32CC42CD52CE62CCF
S1131220F72C082D192D0E94AD4B2EA33FA348A7E0
S113123059A76AA77BA78CA79DA78B859C85FC01D2
S1131240A080FC01B180FC01C280FC01D380FC01C0
S1131250E480FC01F580FC010681FC0117812A2D44
S11312603B2D4C2D5D2D6E2D7F2D802F912F00E277
S11312700E94914B222E332E442E552E662E772E0D
S1131280882E992EE985FA85208131814281538106
S11312906481758186819781F22FFF7FFEA7E32FFA
S11312A0EF7FEFA7F42FFF7FF8ABE52FEF7FE9ABDC
S11312B0F62FF070FAABE72FE070EBABF82FF0707D
S11312C0FCABE92FE070EDABAEA4BFA4C8A8D9A8CD
S11312D0EAA8FBA80CA91DA9222D332D442D552DB8
S11312E0662D772D882D992D0E940D4B222E332E9D
S11312F0442E552E662E772E882E992EA22CB32C92
S1131300C42CD52CE62CF72C082D192D2A2D3B2D79
S11313104C2D5D2D6E2D7F2D802F912F00E20E948C
S1131320914B222E332E442E552E662E772E882E48
S1131330992E2EA13FA148A559A56AA57BA58CA5E8
S11313409DA5A22CB32CC42CD52CE62CF72C082D4F
S1131350192D0E94AD4B29833A834B835C836D83A3
S11313607E838F8398878D85882F90E0817099275D
S1131370892B09F452C0E985FA85208131814281A3
S113138053816481758186819781A22EB32EC42EE8
S1131390D52EE62EF72E082F192F2A2D3B2D4C2D56
S11313A05D2D6E2D7F2D802F912FA0E00E94CB4BC1
S11313B0A4F58B859C85FC012080FC013180FC0117
S11313C04280FC015380FC016480FC017580FC01B7
S11313D08680FC01978029813A814B815C816D81F3
S11313E07E818F819885A22CB32CC42CD52CE62C1D
S11313F0F72C082D192D0E94C24BA22EB32EC42EF9
S1131400D52EE62EF72E082F192FA982BA82CB8269
S1131410DC82ED82FE820F8318878D85882F90E011
S113142082709927892B09F452C0EB85FC852081B1
S11314303181428153816481758186819781A22E95
S1131440B32EC42ED52EE62EF72E082F192F2A2DB3
S11314503B2D4C2D5D2D6E2D7F2D802F912FA0E0E7
S11314600E94CB4BA4F589859A85FC012080FC0160
S11314703180FC014280FC015380FC016480FC014A
S11314807580FC018680FC01978029813A814B811B
S11314905C816D817E818F819885A22CB32CC42CB4
S11314A0D52CE62CF72C082D192D0E94C24BA22E08
S11314B0B32EC42ED52EE62EF72E082F192FA9826F
S11314C0BA82CB82DC82ED82FE820F831887298167
S11314D03A814B815C816D817E818F819885A22EBA
S11314E0B32EC42ED52EE62EF72E082F192F2A2D13
S11314F03B2D4C2D5D2D6E2D7F2D802F912FE5964C
S1131500CDBFDEBFDF91CF911F910F91FF90EF9080
S1131510DF90CF90BF90AF909F908F907F906F900F
S11315205F904F903F902F9008952F923F924F924B
S11315305F926F927F928F929F92AF92BF92CF925F
S1131540DF92EF92FF920F931F93CF93DF93CDB768
S1131550DEB72B97CDBFDEBF89839A830B831C83B1
S11315602D833E834F83588769877A87EB869E0154
S11315702D5F3F4F89819A814B85B9010E94FF07F6
S1131580222E332E442E552E662E772E882E992EFB
S1131590A22CB32CC42CD52CE62CF72C082D192DF9
S11315A02A2D3B2D4C2D5D2D6E2D7F2D802F912FBF
S11315B02B96CDBFDEBFDF91CF911F910F91FF908E
S11315C0EF90DF90CF90BF90AF909F908F907F90DF
S11315D06F905F904F903F902F9008952F923F927D
S11315E04F925F926F927F928F929F92AF92BF922F
S11315F0CF92DF92EF92FF920F931F93CF93DF93DB
S1131600CDB7DEB7C555D109CDBFDEBF88A799A731
S113161088A599A5FC0120812E87FC0121812F87B3
S1131620FC012281288BFC012381298BFC0124816C
S11316302A8BFC0125812B8BFC0126812C8BFC0140
S113164087818D8B2E853F85488959896A897B8955
S11316508C899D8900E20E94914BA22EB32EC42E48
S1131660D52EE62EF72E082F192FA982BA82CB8207
S1131670DC828E859F85A889B989BB23C4F48981BE
S11316809A81AB81BC810196A11DB11D89839A8386
S1131690AB83BC8389819A81AB81BC81892B8A2BE2
S11316A08B2B29F41D821E821F8218861CC18981FE
S11316B09A81AB81BC81CD01AA27BB278E8B9F8BDE
S11316C08E899F899F77892BB9F589819A81AB810E
S11316D0BC81AA27BB27892B8A2B8B2B99F42E85B7
S11316E03F85488959896A897B898C899D890E94AB
S11316F0664BA22EB32EC42ED52EE62EF72E082F1F
S1131700192F61C389819A81AB81BC81AA27BB2728
S1131710880F991FAA1FBB1F880F991FAA1FBB1FE1
S1131720B095A095909581959F4FAF4FBF4F8D83F6
S11317309E83AF83B887D7C08E899F89019681F431
S113174089819A81AB81BC81B095A0959095819552
S11317509F4FAF4FBF4F8D839E83AF83B887C3C066
S11317608E899F8996958795CC01A0E0B0E08095FD
S11317709095A095B0952E893F89990140E050E05D
S1131780BC01CD010E94E34ADA01C90101968E8BA6
S11317909F8B8E899F89CC01A0E0B0E08C019D01D4
S11317A00F2EF1E1000F111F221F331FFA95D1F7FD
S11317B0F02D0AA71BA72CA73DA78E899F898C0112
S11317C020E030E040E050E0BA010EA71FA728ABAC
S11317D039AB4AAB5BAB6CAB7DAB8E899F89CC01DB
S11317E0A0E0B0E012961C012D01612C712C430184
S11317F089819A81AB81BC819C01AD0160E070E07C
S1131800CB01A22EB32EC42ED52EE62EF72E082FF2
S1131810192F222D332D442D552D662D772D882DEE
S1131820992D0E940D4BA22EB32EC42ED52EE62E3A
S1131830F72E082F192F2A2D3B2D4C2D5D2D6E2DA3
S11318407F2D802F912FA22EB32EC42ED52EE62EBF
S1131850F72E082F192F2EA53FA548A959A96AA923
S11318607BA98CA99DA90E940D4B222E332E442EB8
S1131870552E662E772E882E992EA22CB32CC42C8E
S1131880D52CE62CF72C082D192D2A2D3B2D4C2D6B
S11318905D2D6E2D7F2D802F912F00E20E94914BA4
S11318A0A22EB32EC42ED52EE62EF72E082F192FD6
S11318B0A601950189819A81AB81BC81820F931F16
S11318C0A41FB51F2AA53BA54CA55DA5281B390B54
S11318D04A0B5B0BDA01C9010197A109B1098D8398
S11318E09E83AF83B8878D819E81AF81B8859C012B
S11318F0AD0160E070E0CB01E22FE060EEABF32FCE
S1131900F060FFAB042F006008AF152F106019AF13
S1131910E62FE160EAAFF72FF060FBAF082F00601D
S11319200CAF192F10601DAF89819A81AB81BC81E6
S11319309C01AD0160E070E0CB01A22EB32EC42E59
S1131940D52EE62EF72E082F192F2EA93FA948AD24
S113195059AD6AAD7BAD8CAD9DAD0E940D4BA22EF1
S1131960B32EC42ED52EE62EF72E082F192F2A2C8F
S11319703B2C4C2C5D2C6E2C7F2C802E912E89813F
S11319809A81AB81BC81B695A795979587958C0173
S11319909D0140E050E0BA010EAF1FAF21962FAF7A
S11319A0219722963FAF229723964FAF23972496F1
S11319B05FAF249725966FAF259726967FAF26971E
S11319C0222D332D442D552D662D772D882D992DBF
S11319D0AEACBFAC2196CFAC21972296DFAC229758
S11319E02396EFAC23972496FFAC249725960FAD4E
S11319F0259726961FAD26970E94AD4BA22EB32E97
S1131A00C42ED52EE62EF72E082F192FA8A2B9A280
S1131A10CAA2DBA2ECA2FDA20EA31FA328A139A196
S1131A204AA15BA16CA17DA18EA19FA129873A87C0
S1131A304B875C87A8A0B9A0CAA0DBA0ECA0FDA03E
S1131A400EA11FA12A2D3B2D4C2D5D2D6E2D7F2D1A
S1131A50802F912F00E20E94914BA22EB32EC42E10
S1131A60D52EE62EF72E082F192FAD8633C02985E3
S1131A703A854B855C8589819A81AB81BC81280F2D
S1131A80391F4A1F5B1F89859A85AB85BC8528173A
S1131A9039074A075B0718F48D858F5F8D87298581
S1131AA03A854B855C8589819A81AB81BC81820FA3
S1131AB0931FA41FB51F89879A87AB87BC878D8125
S1131AC09E81AF81B8850196A11DB11D8D839E8332
S1131AD0AF83B8878D85882351F68D819E81AF8130
S1131AE0B8855C016D01E12CF12C87012A2D3B2D79
S1131AF04C2D5D2D6E2D7F2D802F912F0FE10E9497
S1131B00764BA22EB32EC42ED52EE62EF72E082FFA
S1131B10192F2A2D206027962FAF27973B2D306051
S1131B2028963FAF28974C2D406029964FAF2997B0
S1131B305D2D50602A965FAF2A976E2D60602B96BC
S1131B406FAF2B977F2D70602C967FAF2C97802FD3
S1131B5080602D968FAF2D97E12FE0682E96EFAF22
S1131B602E972796FFAD2797F88F28960FAD2897C5
S1131B70098F29961FAD29971A8F2A962FAD2A9778
S1131B802B8F2B963FAD2B973C8F2C964FAD2C97DC
S1131B904D8F2D965FAD2D975E8F2E966FAD2E9740
S1131BA06F8FA88CB98CCA8CDB8CEC8CFD8C0E8D61
S1131BB01F8D2A2D3B2D4C2D5D2D6E2D7F2D802FBD
S1131BC0912F0E94664B2F962FAF2F9760963FAFB1
S1131BD0609761964FAF619762965FAF6297639625
S1131BE06FAF639764967FAF649765968FAF659781
S1131BF066969FAF66972E853F85488959896A897D
S1131C007B898C899D8901E00E94764B622E732E1C
S1131C10842E952EA62EB72EC82ED92ECE014896E8
S1131C20E12C062D172D282D392D4A2D5B2D6C2DD9
S1131C307D2D0E94950A222E332E442E552E662E7B
S1131C40772E882E992E2F962FAD2F9760963FAD25
S1131C50609761964FAD619762965FAD62976396A8
S1131C606FAD639764967FAD649765968FAD659706
S1131C7066969FAD6697A22CB32CC42CD52CE62C6B
S1131C80F72C082D192D0E94C24BA22EB32EC42E60
S1131C90D52EE62EF72E082F192FA8A2B9A2CAA274
S1131CA0DBA2ECA2FDA20EA31FA39E01205E3F4F68
S1131CB0CE01489640E0B9010E94FF07A22EB32E40
S1131CC0C42ED52EE62EF72E082F192F28A139A1C0
S1131CD04AA15BA16CA17DA18EA19FA1222E332ECE
S1131CE0442E552E662E772E882E992E222D332D96
S1131CF0442D552D662D772D882D992DA0E00E9419
S1131D00CB4B4CF0288C398C4A8C5B8C6C8C7D8C46
S1131D108E8C9F8C08C0212C312C412C512C612C91
S1131D20712C812C912C2A2D3B2D4C2D5D2D6E2D4B
S1131D307F2D802F912FA22CB32CC42CD52CE62CD4
S1131D40F72C082D192D0E94AD4BA22EB32EC42EB4
S1131D50D52EE62EF72E082F192FA88EB98ECA8EEF
S1131D60DB8EEC8EFD8E0E8F1F8FA88CB98CCA8CE7
S1131D70DB8CEC8CFD8C0E8D1F8D2A2D3B2D4C2D78
S1131D805D2D6E2D7F2D802F912FA1E00E94B64BEB
S1131D90A22EB32EC42ED52EE62EF72E082F192FE1
S1131DA02A2D3B2D4C2D5D2D6E2D7F2D802F912FB7
S1131DB001E00E94914BA22EB32EC42ED52EE62E06
S1131DC0F72E082F192F2A2C3B2C4C2C5D2C6E2C13
S1131DD07F2C802E912E222D332D442D552D662DB2
S1131DE0772D882D992DCB5ADF4FCDBFDEBFDF91E4
S1131DF0CF911F910F91FF90EF90DF90CF90BF9004
S1131E00AF909F908F907F906F905F904F903F9096
S1131E102F9008952F923F924F925F926F927F92EC
S1131E208F929F92AF92BF92CF92DF92EF92FF92E6
S1131E300F931F93CF93DF93CDB7DEB7A197CDBF99
S1131E40DEBF6E8B7F8B888F998FCE0146968B83F6
S1131E509C838B819C81FC0180819181A281B381CF
S1131E608A8F9B8FAC8FBD8FBB0F880B982FDC01A3
S1131E708E8F8F8F88A389A3FA8DFF7F2F2E8B8D52
S1131E808F7F382EEC8DEF774E2EFD8DF0705F2E08
S1131E908E8D8070682EEF8DE0707E2EF8A1F0702C
S1131EA08F2E89A18070982E2E823F824886598673
S1131EB06A867B868C869D868B819C81FC018081D1
S1131EC09181A281B381072E77E1B595A795979566
S1131ED087957A95D1F7702D992789839A838B8179
S1131EE09C81FC0180819181A281B3818827B7FD07
S1131EF083959927AA27BB278D8389819A81892B6A
S1131F00D9F42E803F80488459846A847B848C84ED
S1131F109D84222D332D442D552D662D772D882D0E
S1131F20992DA0E00E94CB4B39F089819A81825689
S1131F309C4F89839A8367C089819A818F3F9105D9
S1131F4091F5AE80BF80C884D984EA84FB840C8573
S1131F501D852A2D3B2D4C2D5D2D6E2D7F2D802F23
S1131F60912FA0E00E94CB4BA9F48D81882349F0E6
S1131F7020E030E040E050E060E070E080EF9FEF70
S1131F8054C020E030E040E050E060E070E080EFDA
S1131F909FE74BC02FEF3FEF4FEF5FEF6FEF7FEF08
S1131FA08FEF9FE742C02E813F81488559856A851E
S1131FB07B858C859D85F22FF060AF2EE32FE0604A
S1131FC0BE2EF42FF068CF2EE52FE060DE2EF62F24
S1131FD0F060EF2EE72FE060FE2E082F0060192F2F
S1131FE01060AE82BF82C886D986EA86FB860C87DB
S1131FF01D8789819A81892B31F089819A81835641
S11320009C4F89839A839E012A5F3F4F49815A815D
S1132010CE010E966D810E9422032E853F8548894C
S113202059896A897B898C899D89A22EB32EC42EF5
S1132030D52EE62EF72E082F192F2A2D3B2D4C2DA9
S11320405D2D6E2D7F2D802F912FA196CDBFDEBFEC
S1132050DF91CF911F910F91FF90EF90DF90CF9080
S1132060BF90AF909F908F907F906F905F904F90B4
S11320703F902F900895AF92BF92CF92DF92EF924C
S1132080FF920F931F93CF93DF93CDB7DEB72A97B9
S1132090CDBFDEBF2B833C834D835E836F83788704
S11320A089879A87CE01039689839A8389819A8145
S11320B0FC01A080FC01B180FC01C280FC01D38042
S11320C0FC01E480FC01F580FC010681FC01178120
S11320D02A2D3B2D4C2D5D2D6E2D7F2D802F912F84
S11320E00FE30E94914BA22EB32EC42ED52EE62EC2
S11320F0F72E082F192F8A2D81702A96CDBFDEBFA7
S1132100DF91CF911F910F91FF90EF90DF90CF90CF
S1132110BF90AF9008952F923F924F925F926F922B
S11321207F928F929F92AF92BF92CF92DF92EF9263
S1132130FF920F931F93CF93DF93CDB7DEB76797CB
S1132140CDBFDEBF2E873F87488B598B6A8B7B8B35
S11321508C8B9D8B0E8B1F8B1E821F82188619867B
S11321601A861B861C8680EA8D8719821A8283E070
S113217090E08B839C831D828E899F89FC01108251
S1132180FC011182FC011282FC011382FC01148205
S1132190FC011582FC01168220E8FC012783AE8431
S11321A0BF84C888D988EA88FB880C891D892A2DB0
S11321B03B2D4C2D5D2D6E2D7F2D802F912FA0E07A
S11321C00E94CB4B0CF0CAC081E08D832E853F85E5
S11321D0488959896A897B898C899D890E94664BC3
S11321E0A22EB32EC42ED52EE62EF72E082F192F8D
S11321F0AE86BF86C88AD98AEA8AFB8A0C8B1D8B75
S1132200ADC08E85F82FF1702F2E8F85282F20706A
S1132210322E8889382F3070432E8989982F9070F8
S1132220592E8A89E82FE0706E2E8B89F82FF07072
S11322307F2E8C89282F2070822E8D89382F307024
S1132240932E222D332D442D552D662D772D882D3B
S1132250992DA0E00E94CB4BC9F19E012A5F3F4F0C
S11322608E899F8940E0B9010E94FF07A22EB32EF8
S1132270C42ED52EE62EF72E082F192F8E899F896E
S1132280FC01A082FC01B182FC01C282FC01D38268
S1132290FC01E482FC01F582FC010683FC01178346
S11322A08B819C818C010F5F1F4F8E899F890E94B7
S11322B0E106082E000C990B9801281B390BC90163
S11322C029813A81820F931F89839A839E012A5F11
S11322D03F4FCE01069640E0B9010E94FF07A22EAF
S11322E0B32EC42ED52EE62EF72E082F192FAE822C
S11322F0BF82C886D986EA86FB860C871D878B81B8
S11323009C81880F991F8C010F5F1F4FCE01069689
S11323100E94E106082E000C990BF801E81BF90B4A
S1132320CF018B839C832E853F85488959896A898F
S11323307B898C899D8901E00E948F4BA22EB32E4C
S1132340C42ED52EE62EF72E082F192FAE86BF8663
S1132350C88AD98AEA8AFB8A0C8B1D8BAE84BF8417
S1132360C888D988EA88FB880C891D892A2D3B2DC9
S11323704C2D5D2D6E2D7F2D802F912FA0E00E947E
S1132380CB4B09F03ECF8D81882389F18E899F89BB
S11323900E94EE0AA22EB32EC42ED52EE62EF72EC0
S11323A0082F192F8E899F89FC01A082FC01B1821C
S11323B0FC01C282FC01D382FC01E482FC01F582AF
S11323C0FC010683FC01178389819A810027112768
S11323D0081B190B8E899F890E94E106082E000CA8
S11323E0990B9801281B390BC90189839A83898128
S11323F09A816796CDBFDEBFDF91CF911F910F9178
S1132400FF90EF90DF90CF90BF90AF909F908F9010
S11324107F906F905F904F903F902F9008954F92D0
S11324205F926F927F928F929F92AF92BF92CF9260
S1132430DF92EF92FF920F931F93CF93DF93CDB769
S1132440DEB7C454D109CDBFDEBF298F3A8F4B8F7D
S11324505C8F6D8F7E8F8F8F98A309A3EAA2CBA286
S1132460DCA289A1823110F081E189A389A18823AA
S113247011F481E089A39E01275F3F4FAE01495FBC
S11324805F4FBE016A5F7F4FCE0149960BE00E9409
S1132490CB018F819885892B41F480E3809364205C
S11324A01092652084E690E22EC38F8198858F3F39
S11324B09740D1F5A984BA84CB84DC84ED84FE846E
S11324C00F8518892A2D3B2D4C2D5D2D6E2D7F2DCA
S11324D0802F912FA0E00E94CB4B79F08EE491E6FF
S11324E080936420909365208EE490E0809366202E
S11324F09093672084E690E206C38E81882311F0CE
S11325008DE201C08BE28093642085E690E229E4A9
S11325103EE4DC012D933C9326E430E0FC0122836D
S1132520338384E690E2EFC28F8198858F5F934076
S11325308F83988719828E81882359F0898191E04D
S1132540980F9983882F90E08C599F4D2DE2DC01E0
S11325502C938F8198859923BCF08F819885880F5F
S1132560991F9C01220F331F220F331F820F931FC9
S11325704F9696958795929582958F7089279F702F
S113258089278B839C8316C08F8198859C0147EF94
S11325904203C001439F900D11249695879592950F
S11325A082958F7089279F708927919581959109CC
S11325B08B839C838B819C819195819591098DA3BB
S11325C09EA3892F880F880B8FA388A789A78AA722
S11325D08BA78CA7CE0141968C012DA13EA14FA1C2
S11325E058A569A57AA58BA59CA50E948B109C0172
S11325F08F819885820F931F8F8398879E012F5E0A
S11326003F4FCE01099640E0B9010E94FF072DA774
S11326103EA74FA758AB69AB7AAB8BAB9CABBDA5C0
S1132620B987EEA5EA87FFA5FB8728A92C8749A9C6
S11326304D875AA95E878BA98F87ACA9A88BCE0139
S113264009960E94E106082E000C990B21E030E067
S1132650281B390B8F819885820F931F8F8398874E
S11326603BC0CE010996E12C00E010E020E030E010
S113267040E050E060E070EA0E94950A2DAB3EAB6A
S11326804FAB58AF69AF7AAF8BAF9CAFBDA9B987D9
S1132690EEA9EA87FFA9FB8728AD2C8749AD4D87B2
S11326A05AAD5E878BAD8F87ACADA88BCE010996F2
S11326B00E94E106082E000C990B24E030E0281B50
S11326C0390B8F819885820F931F8F8398878B8115
S11326D09C8101978B839C838F81988599230CF22D
S11326E04EC0CE010996E12C0CEC1CEC2CEC3CEC1D
S11326F04CEC5CEC6CEC7CEC0E94950A2DAF3EAF8C
S11327004FAF21965FAF219722966FAF2297239602
S11327107FAF239724968FAF249725969FAF259755
S1132720BDADB987EEADEA87FFADFB8721962FAD2E
S113273021972C8722964FAD22974D8723965FAD24
S113274023975E8724968FAD24978F872596AFAD08
S11327502597A88BCE0109960E94E106082E000C4D
S1132760990B03962F813885F901E81BF90BCF01EA
S11327708F8398878B819C8101968B839C838F8127
S1132780988504970CF0ADCF8F819885039799F5C0
S113279029853A854B855C856D857E858F859889ED
S11327A0F22FF0704F2EA32FA0705A2EB42FB070BA
S11327B06B2EE52FE0707E2EF62FF0708F2EA72F54
S11327C0A0709A2EB82FB070AB2EE92FE07FBE2EEA
S11327D0242D352D462D572D682D792D8A2D9B2D91
S11327E02F3F3F4F4F4F5F4F6F4F7F4F8F4F9F494B
S11327F011F008F076CF89818D8389818F5F898379
S11328009DC08981882F90E08C599F4D20E3DC0185
S11328102C938F81988599230CF45FC08981E82FCC
S1132820F0E08981882F90E08C599F4DDC019C90C9
S1132830A984BA84CB84DC84ED84FE840F85188952
S11328408F8198852FE330E0D901A81BB90B2A2D7D
S11328503B2D4C2D5D2D6E2D7F2D802F912F0A2F1A
S11328600E94914BA22EB32EC42ED52EE62EF72E07
S1132870082F192F8A2D292D280FCF018C599F4DF0
S1132880FC012083A984BA84CB84DC84ED84FE8497
S11328900F8518898F819885FC0131962A2D3B2D4F
S11328A04C2D5D2D6E2D7F2D802F912F0E2F0E948C
S11328B0764BA22EB32EC42ED52EE62EF72E082F3D
S11328C0192FA986BA86CB86DC86ED86FE860F870D
S11328D0188B8FEF9FEF8F83988789818F5F898310
S11328E0CE010996E12C00E010E020E030E040E069
S11328F050E060E070EA0E94950AA22EB32EC42E26
S1132900D52EE62EF72E082F192FA986BA86CB8648
S1132910DC86ED86FE860F87188BCE0109960E9411
S1132920E106082E000C990B24E030E0281B390B3B
S11329308F819885820F931F8F83988789A19FEF3A
S1132940980F99A3882309F05CCF8F8198859923E8
S11329500CF47EC0A984BA84CB84DC84ED84FE8428
S11329600F8518898F8198852FE330E0F901E81BE2
S1132970F90B2A2D3B2D4C2D5D2D6E2D7F2D802F97
S1132980912F0E2F0E94914BA22EB32EC42ED52E22
S1132990E62EF72E082F192F2A2D3B2D4C2D5D2DB9
S11329A06E2D7F2D802F912FA4E00E94CB4B09F038
S11329B008F44EC089818A8320C08A81882F90E0E0
S11329C08C599F4DDC018C91893349F48A81882F7D
S11329D090E08C599F4D20E3FC0120830EC08A8136
S11329E0882F90E09C012C593F4DD9012C912F5FE9
S11329F08C599F4DFC01208307C08A8181508A83B2
S1132A009A818D818917C8F29A818D81981701F571
S1132A108B819C8101968B839C838A818F5F8A83BF
S1132A208A81882F90E08C599F4D21E3DC012C93FF
S1132A3008C08A81882F90E08C599F4D20E3FC01C7
S1132A4020838A818F5F8A839A818981981788F38A
S1132A508D81882F90E02D81222F30E02F5F3F4F12
S1132A602C593F4DD9012C918C599F4DFC01208349
S1132A708D81882F90E001968C599F4D2EE2DC01C8
S1132A802C938AA1882351F0898191E0980F99832E
S1132A90882F90E08C599F4DFC011082898191E030
S1132AA0980F9983882F90E08C599F4D25E4DC0181
S1132AB02C938B819C81181619065CF4898191E012
S1132AC0980F9983882F90E08C599F4D2BE2FC013D
S1132AD020838981882F90E09C012C593F4D8B8164
S1132AE09C814AE050E0B9010E94F44C8BA19CA166
S1132AF0892B39F08BA19CA12B813C81DC012D9386
S1132B003C9384E690E2CC5BDF4FCDBFDEBFDF9128
S1132B10CF911F910F91FF90EF90DF90CF90BF90D6
S1132B20AF909F908F907F906F905F904F9008959B
S1132B304F925F926F927F928F929F92AF92BF92C9
S1132B40CF92DF92EF92FF920F931F93CF93DF9375
S1132B50CDB7DEB7AA97CDBFDEBF29873A874B87AB
S1132B605C876D877E878F87988B098BEA8AA98417
S1132B70BA84CB84DC84ED84FE840F8518892A2DE5
S1132B803B2D4C2D5D2D6E2D7F2D802F912FA0E0A0
S1132B900E94CB4B1CF48989815001C089898983A7
S1132BA089818F5F8A831B821C821D82EBC099817D
S1132BB08A818917E4F42A81CE01079649845A84CC
S1132BC06B847C848D849E84AF84B8886C01EE24ED
S1132BD0E394022F242D352D462D572D682D792D64
S1132BE08A2D9B2D0E940F128B839C83D5C0298133
S1132BF0CE01079649845A846B847C848D849E8498
S1132C00AF84B8886C01EE24E394022F242D352D73
S1132C10462D572D682D792D8A2D9B2D0E940F123C
S1132C208B839C8329853A854B855C856D857E8560
S1132C308F85988904E30E94914BA22EB32EC42E53
S1132C40D52EE62EF72E082F192F2A2D2F7F2B8B0A
S1132C504B2D47704C8B5C2D50705D8B8D2D80708F
S1132C608E8B9E2D90709F8BEF2DE070E88FF02F50
S1132C70F070F98F212F20702A8F2B893C894D8980
S1132C805E896F89788D898D9A8D2F3F37404105F4
S1132C905105610571058105910561F18985F82F5B
S1132CA0F070FB8F8A85282F20702C8F8B85482FFE
S1132CB040704D8F8C85582F50705E8F8D85982F66
S1132CC090709F8F8E85E82FE070E8A38F85F82F92
S1132CD0F07FF9A38889282F2F772AA32B8D3C8D89
S1132CE04D8D5E8D6F8D78A189A19AA1A0E00E947F
S1132CF0CB4B19F48B819C81CBC28A89882F90E0BD
S1132D009C01209530958F819885821793070CF448
S1132D1042C089818A83A984BA84CB84DC84ED840B
S1132D20FE840F8518892A2D3B2D4C2D5D2D6E2D8B
S1132D307F2D802F912F0E943B10882319F08989C1
S1132D40815001C0898989838F819885992344F4AE
S1132D508F819885982F8981890F815089830FC02D
S1132D608F8198859C012F5F3F4F8981082E000C2D
S1132D70990B281739071CF48981815089838D8127
S1132D808F5F8D838D81833038F499818A81981780
S1132D9009F00DCF01C000008985482F40704BA376
S1132DA08A85582F50705CA38B85982F90709DA3B3
S1132DB08C85E82FE070EEA38D85F82FF070FFA3CB
S1132DC08E85282F207028A78F85482F407F49A7FC
S1132DD08889582F5F775AA72BA13CA14DA15EA1EA
S1132DE06FA178A589A59AA5A0E00E94CB4B09F410
S1132DF069C18A89882F90E022273327281B390B41
S1132E008F819885821793070CF45CC18981282FE0
S1132E10880F330B8F819885821793070CF052C16A
S1132E20A984BA84CB84DC84ED84FE840F8518895C
S1132E302A2D3B2D4C2D5D2D6E2D7F2D802F912F16
S1132E400E943B10882329F08B819C8101968B83FF
S1132E509C838F81988599230CF071C08B819C8110
S1132E600E94E04C8D8309C08D81882F90E02B81D6
S1132E703C81820F931FFC0110828D819FEF980F7C
S1132E809D83882359F08D81882F90E02B813C818C
S1132E90820F931FFC018081803331F38B819C81ED
S1132EA001962B813C81F9012081FC0120838D81D5
S1132EB08F5F8D831CC08D81282F30E08F81988592
S1132EC0A901481B590BCA019C018B819C81820F6B
S1132ED0931F2D81222F30E04B815C81240F351FFD
S1132EE0F9012081FC0120838D8181508D838D81A6
S1132EF0882309F78B819C8120E3FC0120838B814B
S1132F009C8101962EE2FC01208382E08D830DC01A
S1132F108D8191E0980F9D83882F90E02B813C81D7
S1132F20820F931F20E3FC0120838F8198850196F3
S1132F308F8398878F819885992354F3A8C081E063
S1132F408D833BC08D81882F90E02B813C81820F43
S1132F50931F2D81222F30E02F5F3F4F4B815C81E7
S1132F60240F351FF9012081FC012083FC0180819D
S1132F70882301F50DC08D8191E0980F9D83882FE2
S1132F8090E02B813C81820F931F20E3FC0120837E
S1132F908D81282F30E08F819885821793075CF705
S1132FA08D81882F90E02B813C81820F931FFC013F
S1132FB010820CC08D818F5F8D838D81282F30E02E
S1132FC08F819885821793070CF0BCCF8D81882F51
S1132FD090E09C012F5F3F4F8989882F90E028174C
S1132FE039070CF04BC08D81882F90E02B813C81F8
S1132FF0820F931FFC018081882309F43FC08D81D7
S1133000882F90E02B813C81820F931F2EE2FC01DC
S113301020838B819C810E94E04C8D8309C08D812B
S1133020882F90E02B813C81820F931FFC0110823A
S11330308D819FEF980F9D83882359F08D81882F70
S113304090E02B813C81820F931FFC0180818033AF
S113305031F38D81882F90E02B813C81820F931F67
S1133060FC0180818E3299F48D81882F90E02B8130
S11330703C81820F931FFC01108209C08D81882F2F
S113308090E02B813C81820F931FFC011082A98464
S1133090BA84CB84DC84ED84FE840F8518892A2DC0
S11330A03B2D4C2D5D2D6E2D7F2D802F912F0E9459
S11330B03B10882309F4EAC08B819C8101978B83A0
S11330C09C83E4C0898984508D83A984BA84CB8489
S11330D0DC84ED84FE840F8518892A2D3B2D4C2D2C
S11330E05D2D6E2D7F2D802F912F0E943B10882304
S11330F019F08D8181508D8329853A854B855C85B6
S11331006D857E858F85988904E30E94914BA22E5C
S1133110B32EC42ED52EE62EF72E082F192FC50157
S113312097708F8398878F8198858F3F93401CF485
S11331308D8181508D838F819885823294402CF4C7
S11331408F8198858D3D93401CF48D8181508D83B2
S11331508D81882349F481E08D8306C08D8181505F
S11331608D838D81882321F149845A846B847C84E6
S11331708D849E84AF84B888C12CD12CE12C0D8120
S1133180242D352D462D572D682D792D8A2D9B2DD7
S11331900E940F128B839C838B819C810E94E04C44
S11331A09C018989882F90E082179307B8F201C0A7
S11331B0000082E08D8303C08D818F5F8D838D81BC
S11331C0882F90E02B813C81820F931FFC0180812A
S11331D08823B1F08D81882F90E02B813C81820F70
S11331E0931FFC018081853459F08D81882F90E0F4
S11331F02B813C81820F931FFC0180818536E1F68F
S11332008D818E838D8181508D838D818430B8F43E
S1133210A984BA84CB84DC84ED84FE840F85188968
S11332202A2D3B2D4C2D5D2D6E2D7F2D802F912F22
S11332300E943B10882371F48D81833058F08D8176
S1133240882F90E02B813C81820F931FFC018081A9
S11332508033C1F28D818F5F8D838D81882F90E0C3
S11332602B813C81820F931F2E8131E0320F3E83EC
S1133270222F30E04B815C81240F351FF90120811E
S1133280FC012083FC018081882321F78B819C81B0
S1133290AA96CDBFDEBFDF91CF911F910F91FF9012
S11332A0EF90DF90CF90BF90AF909F908F907F90E2
S11332B06F905F904F900895CF93DF93CDB7DEB7B3
S11332C080EA96E020E1FC01228380EA96E020E295
S11332D0FC01228380EA96E020E4FC01228380EA58
S11332E096E020E8FC0122830000DF91CF9108954D
S11332F0CF93DF93CDB7DEB780EA96E0FC018085FB
S1133300882F90E080719927959587959595879555
S11333109595879595958795892B89F48091E420D7
S11333209091E52080369A4E20F58091E42090918A
S1133330E52001968093E4209093E5201AC08091C3
S1133340E4209091E5200B9768F08091E42090911F
S1133350E520C39718F01092602D07C081E0809398
S1133360602D03C082E08093602D1092E4201092BF
S1133370E52080EA96E0FC018085882F90E0807249
S1133380992795958795959587959595879595957D
S1133390879595958795892B89F48091E62090915E
S11333A0E72080369A4E20F58091E6209091E72020
S11333B001968093E6209093E7201AC08091E6203E
S11333C09091E7200B9768F08091E6209091E72098
S11333D0C39718F01092612D07C081E08093612D8E
S11333E003C082E08093612D1092E6201092E720C2
S11333F080EA96E0FC018085882F90E0807499270C
S1133400082E892F000C881F990B000C881F991F08
S1133410892B89F48091E8209091E92080369A4E96
S113342020F58091E8209091E92001968093E8208E
S11334309093E9201AC08091E8209091E9200B979D
S113344068F08091E8209091E920C39718F01092D9
S1133450622D07C081E08093622D03C082E08093D7
S1133460622D1092E8201092E92080EA96E0FC0197
S1133470808588238CF08091EA209091EB2080361F
S11334809A4E20F58091EA209091EB20019680934A
S1133490EA209093EB201AC08091EA209091EB20CF
S11334A00B9768F08091EA209091EB20C39718F075
S11334B01092632D07C081E08093632D03C082E0E6
S11334C08093632D1092EA201092EB200000DF918C
S11334D0CF910895CF93DF931F92CDB7DEB7898341
S11334E08981882F90E08130910579F082309105AF
S11334F01CF4892B39F012C08230910549F00397EE
S113350051F00CC08091602D0AC08091612D07C0DC
S11335108091622D04C08091632D01C082E00F90E0
S1133520DF91CF9108950F93CF93DF9300D000D014
S1133530CDB7DEB78C839D836E838FE390E0FC016F
S113354080818B83F8948C819D8189839A838BE31A
S113355090E0FC01108289819A812E81FC0108EDA2
S113356004BF20838FE390E02B81FC0120830000C3
S11335702696CDBFDEBFDF91CF910F910895CF93F3
S1133580DF9300D0CDB7DEB789836A834B8380E5B0
S113359090E02A81222311F020E201C020E0398149
S11335A0322B2B81232BFC01228300002396CDBFD9
S11335B0DEBFDF91CF910895CF93DF931F921F92C7
S11335C0CDB7DEB789836A838A818F718A8380E568
S11335D090E039812A81232BFC01258300000F9080
S11335E00F90DF91CF910895CF93DF931F921F9295
S11335F0CDB7DEB78A8380E590E020E530E0F901BD
S11336002081322F2A8120952323FC01208380E509
S113361090E0FC0190818A818923898389810F90BC
S11336200F90DF91CF910895CF93DF9300D0CDB762
S1133630DEB78A836B839A818B81892B8983698125
S113364081E490E00E94931A00002396CDBFDEBF70
S1133650DF91CF910895CF93DF931F921F92CDB73F
S1133660DEB78A8380E490E0FC018081982F987F04
S11336708A81892B8983698180E490E00E94931A6E
S113368080E490E0FC0190818A8189238983898187
S11336900F900F90DF91CF910895CF93DF9300D0D7
S11336A0CDB7DEB789839A836B8389819A81FC01C4
S11336B08081982F907F8B81892B282F89819A81F3
S11336C0FC01208300002396CDBFDEBFDF91CF91A4
S11336D00895CF93DF9300D0CDB7DEB789839A8363
S11336E06B8389819A81FC018181982F987F8B81DA
S11336F0892B282F89819A81FC012183000023963C
S1133700CDBFDEBFDF91CF910895CF93DF9300D07B
S1133710CDB7DEB789839A836B8389819A81FC0153
S11337208681982F9C7F8B81892B282F89819A8170
S1133730FC01268300002396CDBFDEBFDF91CF912D
S11337400895CF93DF9300D01F92CDB7DEB789835E
S11337509A836B837C838BE20E94B51B00002496C2
S1133760CDBFDEBFDF91CF910895CF93DF931F923A
S11337701F92CDB7DEB78A838A818B3219F481E038
S113378089830EC08A818C3219F482E0898308C04F
S11337908A818F3219F483E0898302C084E08983AB
S11337A00E94D81B00000F900F90DF91CF910895D5
S11337B0CF93DF93CDB7DEB7000084E390E028ED2C
S11337C0FC01208388E790E021E0FC0121830000D4
S11337D0DF91CF910895CF93DF931F921F92CDB7BE
S11337E0DEB780E190E00E94281F89839A83898153
S11337F09A81892B61F089819A81FC01108211825E
S11338001282138289819A8104960E947A1F898187
S11338109A810F900F90DF91CF910895CF92DF920C
S1133820EF92FF920F931F93CF93DF93CDB7DEB741
S11338306D97CDBFDEBF8A8B9B8B4C8B5D8B6E8B64
S11338407F8B288F098FCA8EDB8EEC8EFD8E8A8942
S11338509B8989879A871D821E821F8218861B86F0
S11338600E94C52B89859A85FC0180819181A28162
S1133870B3818C879D87AE87BF872C893D894E890C
S11338805F898C859D85AE85BF85098DBC01CD0181
S11338900E94B71E888B8889882359F18C859D8561
S11338A0AE85BF8589839A83AB83BC831A8E1B8EB6
S11338B01C8E1D8E888D882309F465C089859A85A0
S11338C0FC0120813181428153818C899D89AE899B
S11338D0BF8980959095A095B09582239323A423C6
S11338E0B52329853A85F90180839183A283B38323
S11338F04AC08A8D9B8DAC8DBD8D892B8A2B8B2BD9
S113390059F48C859D85AE85BF8589839A83AB8365
S1133910BC8381E08B8737C0888D882349F08D81F3
S11339209E81AF81B885B1608D839E83AF83B88754
S1133930898D882349F08D819E81AF81B885B460DB
S11339408D839E83AF83B8872C893D894E895F8997
S11339508D819E81AF81B885822B932BA42BB52BAF
S113396029853A85F90134962A8D3B8D4C8D5D8DE0
S113397089019A01AC01BD01CF010E94982E1982E0
S11339801A821B821C820E94D22B898B8A8D9B8D6A
S1133990AC8DBD8D892B8A2B8B2B09F465C089894D
S11339A0882311F40E9411230E945631DC01CB01BB
S11339B089839A83AB83BC8389819A81AB81BC81DF
S11339C088279927AA27B270892B8A2B8B2B09F079
S11339D042C0F091A200FF93F87FF093A200898582
S11339E09A85FC0180819181A281B38189839A8324
S11339F0AB83BC832C893D894E895F8989819A81F7
S1133A00AB81BC81098DBC01CD010E94B71E882306
S1133A10E9F0888D8823D1F089859A85FC0120817D
S1133A203181428153818C899D89AE89BF8980957A
S1133A309095A095B09582239323A423B52329853B
S1133A403A85F90180839183A283B38381E08B87D4
S1133A50FF91F093A20089819A81AB81BC81BB273D
S1133A6089839A83AB83BC8389819A81AB81BC812E
S1133A70BC01CD016D96CDBFDEBFDF91CF911F910B
S1133A800F91FF90EF90DF90CF900895CF93DF9345
S1133A90CDB7DEB72C97CDBFDEBF8F83988749871C
S1133AA05A876B877C878F81988589839A83F09165
S1133AB0A200FF93F87FF093A20089819A81FC0110
S1133AC080819181A281B3818B839C83AD83BE83EA
S1133AD089819A81FC0120813181428153818985C8
S1133AE09A85AB85BC8580959095A095B0958223E9
S1133AF09323A423B52329813A81F90180839183F7
S1133B00A283B383FF91F093A2008B819C81AD814A
S1133B10BE81BC01CD012C96CDBFDEBFDF91CF911C
S1133B200895CF93DF93CDB7DEB76D97CDBFDEBFDA
S1133B30888F998F4A8F5B8F6C8F7D8F1B821C823D
S1133B401D821E82888D998D888799871F8288851A
S1133B50998504968A879B878A859B8503968C879B
S1133B609D870E94C52B8A859B85FC018781908552
S1133B7089839A8388859985FC01208131814281DA
S1133B8053818A8D9B8DAC8DBD8D822B932BA42B61
S1133B90B52B28853985F90180839183A283B3836A
S1133BA095C089819A81FC01848195818E879F8744
S1133BB089819A81FC0180819181A281B381888B62
S1133BC0998BAA8BBB8B1F8288899989AA89BB8907
S1133BD088279927AA278C8B9D8BAE8BBF8B8889CE
S1133BE09989AA89BB89BB27888B998BAA8BBB8BA4
S1133BF08C899D89AE89BF8988279927AA27B470A3
S1133C00892B8A2B8B2BB1F488859985FC01208123
S1133C1031814281538188899989AA89BB89822308
S1133C209323A423B523892B8A2B8B2BE9F081E0E2
S1133C308F831AC088859985FC0120813181428156
S1133C40538188899989AA89BB89282339234A23DE
S1133C505B2388899989AA89BB89281739074A0768
S1133C605B0711F481E08F838F81882359F18C895C
S1133C709D89AE89BF8988279927AA27B170892B86
S1133C808A2B8B2B81F02B813C814D815E8188892D
S1133C909989AA89BB89822B932BA42BB52B8B835F
S1133CA09C83AD83BE8388859985FC018081918145
S1133CB0A281B381B26029813A81AC01BD01C901FD
S1133CC00E94732F8E859F8589839A8329813A81E7
S1133CD08C859D852817390709F063CF88859985D8
S1133CE0FC0120813181428153818B819C81AD8192
S1133CF0BE8180959095A095B09582239323A423AB
S1133D00B52328853985F90180839183A283B38300
S1133D100E94D22B88859985FC0180819181A281A2
S1133D20B381BC01CD016D96CDBFDEBFDF91CF91D4
S1133D300895CF93DF9300D000D0CDB7DEB7898349
S1133D409A834B835C836D837E838B819C81AD815D
S1133D50BE8129813A81AC01BD01C9010E94911D36
S1133D6000002696CDBFDEBFDF91CF9108950F935B
S1133D70CF93DF93CDB7DEB72A97CDBFDEBF6A837B
S1133D807B838C839D832E833F83488759870A874F
S1133D9019828A85882399F42A813B814C815D812B
S1133DA08E819F81A885B98582239323A423B5237B
S1133DB0892B8A2B8B2BD1F081E0898317C02A8130
S1133DC03B814C815D818E819F81A885B9852823A3
S1133DD039234A235B238E819F81A885B9852817BF
S1133DE039074A075B0711F481E0898389812A96A0
S1133DF0CDBFDEBFDF91CF910F9108950F931F9335
S1133E00CF93DF93CDB7DEB72997CDBFDEBF8A83CB
S1133E109B834C835D836E837F83288739872885C2
S1133E2039858C819D81AE81BF816A817B818901C5
S1133E309C01AD0189E99EE10E9402378983898151
S1133E402996CDBFDEBFDF91CF911F910F910895C9
S1133E50CF93DF9300D01F92CDB7DEB78B839C83C3
S1133E6019821A820E94C52B2091A42C3091A52C72
S1133E708B819C81820F931F883B9B4018F5209176
S1133E80A42C3091A52C8B819C81280F391F809103
S1133E90A42C9091A52C82179307A0F48091A42CB4
S1133EA09091A52C84519F4D89839A832091A42CB1
S1133EB03091A52C8B819C81820F931F8093A42C1D
S1133EC09093A52C0E94D22B89819A812496CDBFF0
S1133ED0DEBFDF91CF910895CF93DF931F921F929E
S1133EE0CDB7DEB789839A8300000F900F90DF91DE
S1133EF0CF910895CF93DF931F921F92CDB7DEB772
S1133F0089839A8389819A819C012D5F3F4F89819E
S1133F109A81FC012183328329813A818FEF9FEFBB
S1133F20DC01F90183839483A583B68389819A8113
S1133F309C012D5F3F4F89819A81FC012783308743
S1133F4089819A819C012D5F3F4F89819A81FC016F
S1133F502187328789819A81FC01108200000F90A9
S1133F600F90DF91CF910895CF93DF931F921F920B
S1133F70CDB7DEB789839A8389819A81FC01128641
S1133F80138600000F900F90DF91CF910895CF9387
S1133F90DF9300D000D0CDB7DEB78B839C836D83D5
S1133FA07E838B819C81FC018181928189839A83A8
S1133FB08D819E8129813A81FC0124833583898105
S1133FC09A81FC01268137818D819E81FC012683A3
S1133FD0378389819A81FC01868197812D813E8175
S1133FE0FC012483358389819A812D813E81FC01E2
S1133FF0268337838D819E812B813C81FC0122871E
S113400033878B819C81FC01808121E0280F8B8187
S11340109C81FC01208300002696CDBFDEBFDF918A
S1134020CF910895CF93DF93CDB7DEB72A97CDBF55
S1134030DEBF8F83988769877A8789859A85FC0193
S113404080819181A281B3818B839C83AD83BE8364
S11340508B819C81AD81BE818F3F9F4FAF4FBF4FFE
S113406041F48F819885FC018185928589839A83A7
S113407020C08F819885039689839A8307C089819C
S11340809A81FC018481958189839A8389819A81AB
S1134090FC0184819581FC0120813181428153811D
S11340A08B819C81AD81BE8182179307A407B507DC
S11340B030F789819A81FC012481358189859A852B
S11340C0FC012483358389859A85FC01848195814B
S11340D029853A85FC012683378389859A85298138
S11340E03A81FC012683378389819A8129853A851F
S11340F0FC012483358389859A852F813885FC01C9
S1134100228733878F819885FC01808121E0280FE5
S11341108F819885FC01208300002A96CDBFDEBFE5
S1134120DF91CF910895CF93DF9300D01F92CDB745
S1134130DEB78B839C838B819C81FC018285938574
S113414089839A838B819C81FC01848195812B8155
S11341503C81F90126813781FC01268337838B81D9
S11341609C81FC01868197812B813C81F90124810A
S11341703581FC012483358389819A81FC01218165
S113418032818B819C812817390751F48B819C8162
S1134190FC012681378189819A81FC012183328344
S11341A08B819C81FC011286138689819A81FC0192
S11341B080812FEF280F89819A81FC0120838981D6
S11341C09A81FC0180812496CDBFDEBFDF91CF911F
S11341D008951F93CF93DF93CDB7DEB780EA90E0C5
S11341E0FC01128180EA90E020EA30E0F9012281AA
S11341F0287FFC012283812FDF91CF911F910895A5
S1134200CF93DF93CDB7DEB72A97CDBFDEBF8D83C3
S11342109E836F83788749875A878D819E8121E1A8
S1134220FC0120838D819E8101978D839E838D81E6
S11342309E8122E2FC0120838D819E8101978D83E2
S11342409E838D819E8123E3FC0120838D819E8149
S113425001978D839E838F819885CC01A0E0B0E087
S113426089839A83AB83BC8329818D819E81FC01E0
S113427020838D819E8101978D839E8389819A817C
S1134280AB81BC81892F9A2FAB2FBB2789839A835B
S1134290AB83BC8329818D819E81FC0120838D8128
S11342A09E8101978D839E8389819A81AB81BC8194
S11342B0892F9A2FAB2FBB2789839A83AB83BC8327
S11342C029818D819E81FC0120838D819E810197AE
S11342D08D839E838D819E8121E3FC0120838D81CA
S11342E09E8101978D839E838D819E8120E8FC01B0
S11342F020838D819E8101978D839E838D819E81F4
S113430027E8FC0120838D819E8101978D839E8304
S11343108D819E81FC0110828D819E8101978D8308
S11343209E838D819E81FC0110828D819E810197E7
S11343308D839E838D819E8122E0FC0120838D816B
S11343409E8101978D839E838D819E8123E0FC0154
S113435020838D819E8101978D839E838D819E8193
S113436024E0FC0120838D819E8101978D839E83AF
S11343708D819E8125E0FC0120838D819E810197A2
S11343808D839E838D819E8126E0FC0120838D8117
S11343909E8101978D839E838D819E8127E0FC0100
S11343A020838D819E8101978D839E838D819E8143
S11343B028E0FC0120838D819E8101978D839E835B
S11343C08D819E8129E0FC0120838D819E8101974E
S11343D08D839E838D819E8120E1FC0120838D81CC
S11343E09E8101978D839E838D819E8121E1FC01B5
S11343F020838D819E8101978D839E838D819E81F3
S113440022E1FC0120838D819E8101978D839E830F
S11344108D819E8123E1FC0120838D819E81019702
S11344208D839E838D819E8124E1FC0120838D8177
S11344309E8101978D839E838D819E8125E1FC0160
S113444020838D819E8101978D839E838D819E81A2
S113445026E1FC0120838D819E8101978D839E83BB
S11344608D819E8127E1FC0120838D819E810197AE
S11344708D839E838D819E8128E1FC0120838D8123
S11344809E8101978D839E838D819E8129E1FC010C
S113449020838D819E8101978D839E838D819E8152
S11344A020E2FC0120838D819E8101978D839E8370
S11344B08D819E8121E2FC0120838D819E81019763
S11344C08D839E838D819E8122E2FC0120838D81D8
S11344D09E8101978D839E838D819E8123E2FC01C1
S11344E020838D819E8101978D839E8389859A8502
S11344F0CC01A0E0B0E089839A83AB83BC8329819B
S11345008D819E81FC0120838D819E8101978D8305
S11345109E8389819A81AB81BC81892F9A2FAB2F8D
S1134520BB2789839A83AB83BC8329818D819E8138
S1134530FC0120838D819E8101978D839E838D81D3
S11345409E8126E2FC0120838D819E8101978D83CB
S11345509E838D819E8127E2FC0120838D819E8133
S113456001978D839E838D819E8128E2FC012083A7
S11345708D819E8101978D839E838D819E8129E209
S1134580FC0120838D819E8101978D839E838D8183
S11345909E8120E3FC0120838D819E8101978D8380
S11345A09E838D819E812A96CDBFDEBFDF91CF9100
S11345B00895CF93DF93CDB7DEB70E942024A09156
S11345C0A62CB091A72C0D900DBE0D900EBEEF91B0
S11345D0DF91CF91BF91AF919F918F917F916F9117
S11345E05F914F913F912F911F910F91FF90EF9009
S11345F0DF90CF90BF90AF909F908F907F906F90FF
S11346005F904F903F902F901F900F90FF91F093E9
S1134610A200FF91FFBFFF91089581E0DF91CF9148
S11346200895FF93FFB7FF93F091A200FF93F87FE3
S1134630F093A2000F921F9211242F923F924F9257
S11346405F926F927F928F929F92AF92BF92CF921E
S1134650DF92EF92FF920F931F932F933F934F9309
S11346605F936F937F938F939F93AF93BF93CF93F6
S1134670DF93EF93A091A62CB091A72C0DB60D92C9
S11346800EB60D920E94A02DA091A62CB091A72C3D
S11346900D900DBE0D900EBEEF91DF91CF91BF91A5
S11346A0AF919F918F917F916F915F914F913F91C6
S11346B02F911F910F91FF90EF90DF90CF90BF90BB
S11346C0AF909F908F907F906F905F904F903F90AE
S11346D02F901F900F90FF91F093A200FF91FFBFC6
S11346E0FF91089500001F93CF93DF931F92CDB7DE
S11346F0DEB789838091642D982F8981892B8093DB
S1134700642D80EA90E0FC018081813061F080EAD0
S113471090E0FC018081823031F080EA90E0FC017D
S11347208081843079F48091642D882359F00E942B
S1134730E920182F1092642D0E94A02D80EA90E0A9
S1134740FC01128300000F90DF91CF911F91089517
S11347501F93CF93DF93CDB7DEB70E94E920182FC4
S11347600E94902C80EA90E0FC0112830000DF910B
S1134770CF911F910895FF93FFB7FF93F091A2008B
S1134780FF93F87FF093A2000F921F9211242F92AF
S11347903F924F925F926F927F928F929F92AF92CD
S11347A0BF92CF92DF92EF92FF920F931F932F93BA
S11347B03F934F935F936F937F938F939F93AF93A5
S11347C0BF93CF93DF93EF93A091A62CB091A72C26
S11347D00DB60D920EB60D920E94A82381E00E94A0
S11347E07323A091A62CB091A72C0D900DBE0D9013
S11347F00EBEEF91DF91CF91BF91AF919F918F91B9
S11348007F916F915F914F913F912F911F910F91E4
S1134810FF90EF90DF90CF90BF90AF909F908F90DC
S11348207F906F905F904F903F902F901F900F90CC
S1134830FF91F093A200FF91FFBFFF911895000034
S1134840CF93DF9300D01F92CDB7DEB780E09DE712
S1134850A0E0B0E089839A83AB83BC8389819A8189
S1134860AB81BC81689415F8B695A7959795879503
S11348701694D1F789839A83AB83BC8389819A8107
S1134880AB81BC810197A109B10989839A83AB8368
S1134890BC8380E098E029813A81FC0126A337A3F8
S11348A065E080E098E00E944D1B61E080E098E0C4
S11348B00E94851B00002496CDBFDEBFDF91CF91FF
S11348C00895CF93DF93CDB7DEB72597CDBFDEBF75
S11348D08B839C836D838B819C8189839A83F091E4
S11348E0A200FF93F87FF093A20089819A81FC01D2
S11348F08081918129813A81F901278D422F50E0ED
S113490029813A81F90120A1222F30E0429FB00190
S1134910439F700D529F700D11249B01280F391F66
S113492089819A81FC012283338389819A81FC01E4
S1134930168E89819A81FC012081318189819A8135
S1134940FC012483358389819A81FC0180819181D2
S113495029813A81F901278D222F30E0A9014150A4
S1134960510929813A81F90120A1222F30E0429F87
S1134970B001439F700D529F700D11249B01280FAD
S1134980391F89819A81FC012683378389819A8121
S11349902FEFFC0121A389819A812FEFFC0122A32F
S11349A08D81882381F489819A81FC018085882303
S11349B0A1F089819A8108960E940B2F882369F0BF
S11349C00E9411230AC089819A8108960E947A1F45
S11349D089819A8143960E947A1FFF91F093A200E5
S11349E081E02596CDBFDEBFDF91CF9108950F936F
S11349F01F93CF93DF93CDB7DEB72997CDBFDEBF2B
S1134A008F83688749878885882319F419821A82D5
S1134A100FC08F81482F50E08885282F30E0429FB7
S1134A20C001439F900D529F900D112489839A8356
S1134A3089819A8185960E94281F8B839C838B8110
S1134A409C81892B81F08B819C8185968D839E83AB
S1134A502B813C818D819E8189012985AC016885EA
S1134A608F810E943D258B819C812996CDBFDEBF1D
S1134A70DF91CF911F910F9108950F931F93CF93BF
S1134A80DF93CDB7DEB72797CDBFDEBF89836A83B7
S1134A904B835C832D830E831F838A81882341F497
S1134AA08E819F812E813F81FC012083318307C049
S1134AB08E819F812B813C81FC01208331838E81F7
S1134AC09F812981FC01278F8E819F812A81FC018E
S1134AD020A38E819F8161E00E9461248E819F8149
S1134AE02D81FC0124A300002796CDBFDEBFDF91FA
S1134AF0CF911F910F9108950F93CF93DF93CDB76B
S1134B00DEB76297CDBFDEBF8A879B876C877D87C0
S1134B102E873F87488B598B0A8B19828A859B8500
S1134B208A839B83F091A200FF93F87FF093A20005
S1134B308A819B81FC01268D8A819B81FC01878D62
S1134B40281718F08A89823019F52C853D858A81C9
S1134B509B814A89B9010E947A278C838A819B812F
S1134B60FC018389882351F08A819B8143960E94AA
S1134B700B2F882341F00E94112305C08C818823C8
S1134B8011F00E941123FF91F093A20081E06FC005
S1134B908E859F85A889B989892B8A2B8B2B29F42B
S1134BA0FF91F093A20080E062C08981882331F4F0
S1134BB0CE0105960E94D62F81E08983FF91F09360
S1134BC0A2000E94C52BF091A200FF93F87FF093FE
S1134BD0A2008A819B81FC0181A18F3F21F48A81FB
S1134BE09B81FC0111A28A819B81FC0182A18F3FE0
S1134BF021F48A819B81FC0112A2FF91F093A2000F
S1134C009E01225F3F4FCE010596B9010E94F92F04
S1134C10882331F58A819B810E9405298823C9F064
S1134C208E859F85A889B9892A813B81285F3F4F5A
S1134C30AC01BD01C9010E94702E8A819B810E9432
S1134C407F280E94D22B882309F06CCF0E94112365
S1134C5069CF8A819B810E947F280E94D22B62CFD8
S1134C608A819B810E947F280E94D22B80E06296D9
S1134C70CDBFDEBFDF91CF910F910895CF93DF9326
S1134C80CDB7DEB72C97CDBFDEBF8E839F836887F9
S1134C9079874A875B872C878E819F818A839B8350
S1134CA00E94E9208C838A819B81FC01268D8A8164
S1134CB09B81FC01878D281718F08C85823089F53B
S1134CC08A819B81FC0182A18D83288539858A8113
S1134CD09B814C85B9010E947A278D818F3FB9F45D
S1134CE08A819B81FC0183898823C1F08A819B810D
S1134CF043960E940B2F882389F08A859B85892BF4
S1134D0069F08A859B8521E0FC01208307C08D81A1
S1134D108F5F282F8A819B81FC0122A381E08983F4
S1134D2001C0198280EA90E02C81FC0122838981F0
S1134D302C96CDBFDEBFDF91CF910895CF93DF9343
S1134D40CDB7DEB76197CDBFDEBF8A879B876C87FF
S1134D507D872E873F87488B598B19828A859B854F
S1134D608A839B83F091A200FF93F87FF093A200C3
S1134D708A819B81FC01868D8C838C81882311F12F
S1134D802C853D858A819B81B9010E942F288C81C5
S1134D902FEF280F8A819B81FC01268F8A819B81BA
S1134DA0FC018085882349F08A819B8108960E94B2
S1134DB00B2F882311F00E941123FF91F093A2007E
S1134DC081E076C08E859F85A889B989892B8A2B35
S1134DD08B2B29F4FF91F093A20080E069C08981B4
S1134DE0882331F4CE0105960E94D62F81E0898371
S1134DF0FF91F093A2000E94C52BF091A200FF93B3
S1134E00F87FF093A2008A819B81FC0181A18F3FEE
S1134E1021F48A819B81FC0111A28A819B81FC017E
S1134E2082A18F3F21F48A819B81FC0112A2FF9110
S1134E30F093A2009E01225F3F4FCE010596B90177
S1134E400E94F92F882331F58A819B810E94E428EE
S1134E508823C9F08E859F85A889B9892A813B81D9
S1134E602D5E3F4FAC01BD01C9010E94702E8A81A5
S1134E709B810E947F280E94D22B882309F072CF45
S1134E800E9411236FCF8A819B810E947F280E94F8
S1134E90D22B68CF8A819B810E947F280E94D22BCB
S1134EA08A819B810E94E428882309F45BCF80E0F7
S1134EB06196CDBFDEBFDF91CF910895CF93DF938D
S1134EC000D0CDB7DEB78A839B83F091A200FF9315
S1134ED0F87FF093A2008A819B81FC01868D8983EF
S1134EE0FF91F093A20089812396CDBFDEBFDF91AD
S1134EF0CF910895CF93DF93CDB7DEB72797CDBF7A
S1134F00DEBF8B839C836D837E834F831A828B8168
S1134F109C81FC01868D89838B819C81FC0180A10D
S1134F20882309F48EC08F818823D9F58B819C81D5
S1134F30FC0180A1482F50E08B819C81FC0184817D
S1134F4095812D813E81B9010E94C94C8B819C8140
S1134F50FC01248135818B819C81FC0180A1882FF7
S1134F6090E0280F391F8B819C81FC0124833583B9
S1134F708B819C81FC01248135818B819C81FC0186
S1134F80828193812817390708F45BC08B819C8147
S1134F90FC01208131818B819C81FC012483358338
S1134FA050C08B819C81FC0180A1482F50E08B81F3
S1134FB09C81FC01868197812D813E81B9010E94EB
S1134FC0C94C8B819C81FC01268137818B819C811A
S1134FD0FC0180A1882F90E0919581959109280F7B
S1134FE0391F8B819C81FC01268337838B819C81B3
S1134FF0FC01268137818B819C81FC018081918118
S113500028173907A8F48B819C81FC012281338104
S11350108B819C81FC0180A1882F90E091958195E2
S11350209109280F391F8B819C81FC0126833783CA
S11350308F81823031F48981882319F089818150EC
S11350408983898121E0280F8B819C81FC01268F33
S11350508A812796CDBFDEBFDF91CF910895CF938C
S1135060DF9300D01F92CDB7DEB789839A836B8319
S11350707C8389819A81FC0180A18823C9F189817B
S11350809A81FC012681378189819A81FC0180A162
S1135090882F90E0280F391F89819A81FC0126838B
S11350A0378389819A81FC012681378189819A819C
S11350B0FC01828193812817390750F089819A81F4
S11350C0FC012081318189819A81FC012683378307
S11350D089819A81FC0180A1482F50E089819A81BD
S11350E0FC01268137818B819C81B9010E94C94CC6
S11350F000002496CDBFDEBFDF91CF910895CF93FA
S1135100DF9300D01F92CDB7DEB78B839C83F091E1
S1135110A200FF93F87FF093A2008B819C81FC0195
S113512082A1898312C08B819C81FC01838988239D
S113513081F08B819C8143960E940B2F882311F070
S11351400E94A130898181508983898118165CF37A
S113515001C000008B819C812FEFFC0122A3FF91F1
S1135160F093A200F091A200FF93F87FF093A200C5
S11351708B819C81FC0181A18A8312C08B819C81DB
S1135180FC018085882381F08B819C8108960E9494
S11351900B2F882311F00E94A1308A8181508A83C9
S11351A08A8118165CF301C000008B819C812FEF6B
S11351B0FC0121A3FF91F093A20000002496CDBF2F
S11351C0DEBFDF91CF910895CF93DF9300D0CDB7A9
S11351D0DEB78A839B83F091A200FF93F87FF0935C
S11351E0A2008A819B81FC01868D882319F481E0C9
S11351F0898301C01982FF91F093A20089812396CB
S1135200CDBFDEBFDF91CF910895CF93DF9300D060
S1135210CDB7DEB78A839B83F091A200FF93F87F1A
S1135220F093A2008A819B81FC01268D8A819B8157
S1135230FC01878D281719F481E0898301C0198244
S1135240FF91F093A20089812396CDBFDEBFDF9149
S1135250CF910895CF93DF93CDB7DEB72997CDBF14
S1135260DEBF8B839C834D835E836F83788729871E
S11352708B819C8189839A83F091A200FF93F87FAC
S1135280F093A20089819A81FC0181A18F3F21F4CE
S113529089819A81FC0111A289819A81FC0182A1F0
S11352A08F3F21F489819A81FC0112A2FF91F0932E
S11352B0A20089819A81FC01868D882371F48981F9
S11352C09A81FC0173968D819E81AF81B885298571
S11352D0AC01BD01CF010E94D72E89819A810E9421
S11352E07F2800002996CDBFDEBFDF91CF910895BE
S11352F08F929F92AF92BF92CF92DF92EF92FF92E2
S11353000F931F93CF93DF93CDB7DEB76097CDBFD5
S1135310DEBF8E839F83688779874A875B872C8764
S11353203D870E87EF86F88A8A859B850E94281F11
S11353308C839D838C819D81892BB9F08CE290E0D4
S11353400E94281F89839A8389819A81892B41F03D
S113535089819A812C813D81FC01238F348F07C080
S11353608C819D810E946C1F02C019821A828981DE
S11353709A81892B09F18A859B85CC01A0E0B0E054
S113538009811A814F8558892C853D8568857985E1
S1135390EE81FF81812C912C58016A01EE848901F0
S11353A09C01AD01CF010E94EF2989819A810E945D
S11353B0C52A81E08B8302C08FEF8B838B8160963B
S11353C0CDBFDEBFDF91CF911F910F91FF90EF9082
S11353D0DF90CF90BF90AF909F908F9008958F9261
S11353E09F92AF92BF92CF92DF92EF92FF920F9370
S11353F01F93CF93DF93CDB7DEB76497CDBFDEBFE6
S11354008C839D836E837F83288739874A875B8754
S11354100C871D87EE86CF86D88AA98ABA8A8B8A9A
S11354209C8A2885398589899A89FC01838D948D84
S1135430A90165EA70E00E94D24C89899A89FC012D
S1135440238D348D888599850197820F931F8A83D4
S11354509B83198221C08981882F90E02981222F82
S113546030E04E815F81240F351FF9014081298985
S11354703A89820F931F4D96FC0140838981882FBE
S113548090E02E813F81820F931FFC01808188234D
S113549039F089818F5F898389818830E0F201C086
S11354A0000089899A89FC0114A28E85843010F049
S11354B083E08E8789899A892E85FC01228F8989C8
S11354C09A8902960E94B41F89899A890E960E942D
S11354D0B41F89899A8929893A89FC0122873387EB
S11354E08E85882F90E0A0E0B0E024E030E040E03A
S11354F050E079018A01E81AF90A0A0B1B0BD8015A
S1135500C70129893A89F90186879787A08BB18BCE
S113551089899A8929893A89FC01268B378B89895B
S11355209A89FC0117A210A611A612A689899A8944
S1135530FC0113A64C855D852C813D818A819B816C
S1135540B9010E9400219C0189899A89FC01208368
S113555031838F859889892B39F08F85988929899A
S11355603A89FC012083318300006496CDBFDEBFFD
S1135570DF91CF911F910F91FF90EF90DF90CF902B
S1135580BF90AF909F908F900895CF93DF931F9219
S11355901F92CDB7DEB789839A83F091A200FF935F
S11355A0F87FF093A2008091042D8F5F8093042DE7
S11355B08091A62C9091A72C892B69F489819A81DA
S11355C08093A62C9093A72C8091042D8130C9F44C
S11355D00E94BF3016C080910A2D882391F48091D7
S11355E0A62C9091A72CFC01228D89819A81FC0123
S11355F0828D821730F089819A818093A62C9093B2
S1135600A72C80910E2D8F5F80930E2D20910E2D4F
S113561089819A81FC0125A389819A81FC01928D5B
S11356208091092D891730F489819A81FC01828D3A
S11356308093092D89819A81AC014E5F5F4F8981E6
S11356409A81FC01828D282F30E06BE0629FC001BB
S1135650639F900D11248855934DBA010E94C71F72
S1135660FF91F093A20080910A2D882371F080911C
S1135670A62C9091A72CFC01228D89819A81FC0192
S1135680828D281710F40E94112300000F900F90B0
S1135690DF91CF910895CF93DF93CDB7DEB72597F0
S11356A0CDBFDEBF6A837B838C839D8319828A810D
S11356B09B81AC81BD81892B8A2B8B2B71F00E943D
S11356C0C52B8A819B81AC81BD8140E0BC01CD01A9
S11356D00E949C310E94D22B89838981882311F4F2
S11356E00E94112300002596CDBFDEBFDF91CF912C
S11356F00895EF92FF920F93CF93DF931F92CDB74C
S1135700DEB70F2EF3E1EF2EFDE2FF2EF02D00E0C9
S113571020E030E048EC50E060E070E28CEA90E396
S11357200E94782989838981813019F40E943D324D
S113573089838981813009F580EA90E020EA30E0AC
S1135740F9012281287FFC0122838FEF9FEFDC0186
S113575080930F2D9093102DA093112DB093122DA3
S113576081E080930A2D1092052D1092062D10923F
S1135770072D1092082D0E94D92200000F90DF916E
S1135780CF910F91FF90EF900895CF93DF93CDB712
S1135790DEB78091152D8F5F8093152D0000DF916A
S11357A0CF910895CF93DF9300D01F92CDB7DEB78A
S11357B019821A821B82F091A200FF93F87FF09362
S11357C0A2008091152D81508093152D8091152D67
S11357D0882309F074C08091042D882309F46FC0D4
S11357E046C08091F52C9091F62CFC018085918522
S11357F089839A8389819A810E960E949320898154
S11358009A8102960E94932089819A81FC01928D4B
S11358108091092D891730F489819A81FC01828D48
S11358208093092D89819A81AC014E5F5F4F8981F4
S11358309A81FC01828D282F30E06BE0629FC001C9
S1135840639F900D11248855934DBA010E94C71F80
S113585089819A81FC01228D8091A62C9091A72C9C
S1135860FC01828D281718F081E080930C2D809123
S1135870EE2C882309F0B5CF89819A81892B11F008
S11358800E94023180910B2D8C838C81882379F0C6
S11358900E94902C882319F081E080930C2D8C8138
S11358A081508C838C81882399F710920B2D8091E1
S11358B00C2D882321F081E08B830E941123FF911A
S11358C0F093A2008B812496CDBFDEBFDF91CF91F0
S11358D00895CF93DF9300D01F92CDB7DEB7F09138
S11358E0A200FF93F87FF093A2008091052D909180
S11358F0062DA091072DB091082D89839A83AB833F
S1135900BC83FF91F093A20089819A81AB81BC8111
S1135910BC01CD012496CDBFDEBFDF91CF910895A8
S1135920CF93DF93CDB7DEB72D97CDBFDEBF1982FE
S11359308091152D882309F0F1C08091052D909157
S1135940062DA091072DB091082D0196A11DB11D22
S11359508A839B83AC83BD838A819B81AC81BD8117
S11359608093052D9093062DA093072DB093082DB9
S11359708A819B81AC81BD81892B8A2B8B2BD9F4A5
S11359808091EA2C9091EB2C8E839F838091EC2C58
S11359909091ED2C8093EA2C9093EB2C8E819F8137
S11359A08093EC2C9093ED2C80910D2D8F5F809340
S11359B00D2D0E94023180910F2D9091102DA091F8
S11359C0112DB091122D2A813B814C815D812817C4
S11359D039074A075B0708F48AC08091EA2C909142
S11359E0EB2CFC018081882361F48FEF9FEFDC01B5
S11359F080930F2D9093102DA093112DB093122D01
S1135A0076C08091EA2C9091EB2CFC0187819085E3
S1135A10FC01808591858887998788859985FC0113
S1135A2082819381A481B5818A879B87AC87BD8756
S1135A302A813B814C815D818A859B85AC85BD85AE
S1135A40281739074A075B0768F48A859B85AC8564
S1135A50BD8580930F2D9093102DA093112DB0939D
S1135A60122D45C08885998502960E9493208885C9
S1135A709985FC01808D918D892B29F088859985E4
S1135A800E960E94932088859985FC01928D8091C1
S1135A90092D891730F488859985FC01828D8093BE
S1135AA0092D88859985AC014E5F5F4F888599855E
S1135AB0FC01828D282F30E06BE0629FC001639F60
S1135AC0900D11248855934DBA010E94C71F8885F3
S1135AD09985FC01228D8091A62C9091A72CFC0124
S1135AE0828D281708F479CF81E0898376CF80915D
S1135AF0A62C9091A72CFC01828D282F30E04BE03E
S1135B00429FC001439F900D11248855934DFC0181
S1135B108081823040F081E0898305C080910B2D23
S1135B208F5F80930B2D80910C2D882311F081E0E1
S1135B30898389812D96CDBFDEBFDF91CF910895F2
S1135B40CF93DF93CDB7DEB72997CDBFDEBF80916A
S1135B50152D882321F081E080930C2DBAC010927A
S1135B600C2D8091A62C9091A72CFC01838D948DF3
S1135B708A839B8385EA95EADC018C839D83AE83CB
S1135B80BF838A819B81FC012081318142815381C1
S1135B908C819D81AE81BF81281739074A075B0735
S1135BA099F58A819B810496FC012081318142818F
S1135BB053818C819D81AE81BF81281739074A07A3
S1135BC05B0711F58A819B810896FC012081318154
S1135BD0428153818C819D81AE81BF812817390711
S1135BE04A075B0789F48A819B810C96FC0120811A
S1135BF03181428153818C819D81AE81BF8128177F
S1135C0039074A075B0771F08091A62C9091A72C65
S1135C109C01235E3F4F8091A62C9091A72CB90143
S1135C200E94A11B8091092D898303C08981815021
S1135C3089838981282F30E04BE0429FC001439F34
S1135C40900D11248855934DFC018081882371F3B4
S1135C508981282F30E04BE0429FC001439F900D83
S1135C6011248855934D8887998788859985FC01E7
S1135C7081819281FC012481358188859985FC018B
S1135C802183328388859985FC012181328188852D
S1135C90998503962817390769F488859985FC0145
S1135CA081819281FC012481358188859985FC015B
S1135CB02183328388859985FC0181819281FC014D
S1135CC0808591858093A62C9093A72C89818093BD
S1135CD0092D00002996CDBFDEBFDF91CF91089535
S1135CE0CF93DF9300D000D0CDB7DEB789839A83FA
